{
  "_format": "hh-sol-artifact-1",
  "contractName": "L2WstETHToken",
  "sourceName": "contracts/lido/L2WstETHToken.sol",
  "abi": [
    {
      "inputs": [],
      "name": "ErrorExpiredDeadline",
      "type": "error"
    },
    {
      "inputs": [],
      "name": "ErrorInvalidSignature",
      "type": "error"
    },
    {
      "anonymous": false,
      "inputs": [
        {
          "indexed": true,
          "internalType": "address",
          "name": "owner",
          "type": "address"
        },
        {
          "indexed": true,
          "internalType": "address",
          "name": "spender",
          "type": "address"
        },
        {
          "indexed": false,
          "internalType": "uint256",
          "name": "value",
          "type": "uint256"
        }
      ],
      "name": "Approval",
      "type": "event"
    },
    {
      "anonymous": false,
      "inputs": [],
      "name": "EIP712DomainChanged",
      "type": "event"
    },
    {
      "anonymous": false,
      "inputs": [
        {
          "indexed": false,
          "internalType": "uint8",
          "name": "version",
          "type": "uint8"
        }
      ],
      "name": "Initialized",
      "type": "event"
    },
    {
      "anonymous": false,
      "inputs": [
        {
          "indexed": true,
          "internalType": "address",
          "name": "from",
          "type": "address"
        },
        {
          "indexed": true,
          "internalType": "address",
          "name": "to",
          "type": "address"
        },
        {
          "indexed": false,
          "internalType": "uint256",
          "name": "value",
          "type": "uint256"
        }
      ],
      "name": "Transfer",
      "type": "event"
    },
    {
      "inputs": [],
      "name": "DOMAIN_SEPARATOR",
      "outputs": [
        {
          "internalType": "bytes32",
          "name": "",
          "type": "bytes32"
        }
      ],
      "stateMutability": "view",
      "type": "function"
    },
    {
      "inputs": [
        {
          "internalType": "address",
          "name": "owner",
          "type": "address"
        },
        {
          "internalType": "address",
          "name": "spender",
          "type": "address"
        }
      ],
      "name": "allowance",
      "outputs": [
        {
          "internalType": "uint256",
          "name": "",
          "type": "uint256"
        }
      ],
      "stateMutability": "view",
      "type": "function"
    },
    {
      "inputs": [
        {
          "internalType": "address",
          "name": "spender",
          "type": "address"
        },
        {
          "internalType": "uint256",
          "name": "amount",
          "type": "uint256"
        }
      ],
      "name": "approve",
      "outputs": [
        {
          "internalType": "bool",
          "name": "",
          "type": "bool"
        }
      ],
      "stateMutability": "nonpayable",
      "type": "function"
    },
    {
      "inputs": [
        {
          "internalType": "address",
          "name": "account",
          "type": "address"
        }
      ],
      "name": "balanceOf",
      "outputs": [
        {
          "internalType": "uint256",
          "name": "",
          "type": "uint256"
        }
      ],
      "stateMutability": "view",
      "type": "function"
    },
    {
      "inputs": [
        {
          "internalType": "address",
          "name": "_from",
          "type": "address"
        },
        {
          "internalType": "uint256",
          "name": "_amount",
          "type": "uint256"
        }
      ],
      "name": "burn",
      "outputs": [],
      "stateMutability": "nonpayable",
      "type": "function"
    },
    {
      "inputs": [],
      "name": "counterpart",
      "outputs": [
        {
          "internalType": "address",
          "name": "",
          "type": "address"
        }
      ],
      "stateMutability": "view",
      "type": "function"
    },
    {
      "inputs": [],
      "name": "decimals",
      "outputs": [
        {
          "internalType": "uint8",
          "name": "",
          "type": "uint8"
        }
      ],
      "stateMutability": "view",
      "type": "function"
    },
    {
      "inputs": [
        {
          "internalType": "address",
          "name": "spender",
          "type": "address"
        },
        {
          "internalType": "uint256",
          "name": "subtractedValue",
          "type": "uint256"
        }
      ],
      "name": "decreaseAllowance",
      "outputs": [
        {
          "internalType": "bool",
          "name": "",
          "type": "bool"
        }
      ],
      "stateMutability": "nonpayable",
      "type": "function"
    },
    {
      "inputs": [],
      "name": "eip712Domain",
      "outputs": [
        {
          "internalType": "bytes1",
          "name": "fields",
          "type": "bytes1"
        },
        {
          "internalType": "string",
          "name": "name",
          "type": "string"
        },
        {
          "internalType": "string",
          "name": "version",
          "type": "string"
        },
        {
          "internalType": "uint256",
          "name": "chainId",
          "type": "uint256"
        },
        {
          "internalType": "address",
          "name": "verifyingContract",
          "type": "address"
        },
        {
          "internalType": "bytes32",
          "name": "salt",
          "type": "bytes32"
        },
        {
          "internalType": "uint256[]",
          "name": "extensions",
          "type": "uint256[]"
        }
      ],
      "stateMutability": "view",
      "type": "function"
    },
    {
      "inputs": [],
      "name": "gateway",
      "outputs": [
        {
          "internalType": "address",
          "name": "",
          "type": "address"
        }
      ],
      "stateMutability": "view",
      "type": "function"
    },
    {
      "inputs": [
        {
          "internalType": "address",
          "name": "spender",
          "type": "address"
        },
        {
          "internalType": "uint256",
          "name": "addedValue",
          "type": "uint256"
        }
      ],
      "name": "increaseAllowance",
      "outputs": [
        {
          "internalType": "bool",
          "name": "",
          "type": "bool"
        }
      ],
      "stateMutability": "nonpayable",
      "type": "function"
    },
    {
      "inputs": [
        {
          "internalType": "string",
          "name": "_name",
          "type": "string"
        },
        {
          "internalType": "string",
          "name": "_symbol",
          "type": "string"
        },
        {
          "internalType": "uint8",
          "name": "_decimals",
          "type": "uint8"
        },
        {
          "internalType": "address",
          "name": "_gateway",
          "type": "address"
        },
        {
          "internalType": "address",
          "name": "_counterpart",
          "type": "address"
        }
      ],
      "name": "initialize",
      "outputs": [],
      "stateMutability": "nonpayable",
      "type": "function"
    },
    {
      "inputs": [
        {
          "internalType": "address",
          "name": "_to",
          "type": "address"
        },
        {
          "internalType": "uint256",
          "name": "_amount",
          "type": "uint256"
        }
      ],
      "name": "mint",
      "outputs": [],
      "stateMutability": "nonpayable",
      "type": "function"
    },
    {
      "inputs": [],
      "name": "name",
      "outputs": [
        {
          "internalType": "string",
          "name": "",
          "type": "string"
        }
      ],
      "stateMutability": "view",
      "type": "function"
    },
    {
      "inputs": [
        {
          "internalType": "address",
          "name": "owner",
          "type": "address"
        }
      ],
      "name": "nonces",
      "outputs": [
        {
          "internalType": "uint256",
          "name": "",
          "type": "uint256"
        }
      ],
      "stateMutability": "view",
      "type": "function"
    },
    {
      "inputs": [
        {
          "internalType": "address",
          "name": "owner",
          "type": "address"
        },
        {
          "internalType": "address",
          "name": "spender",
          "type": "address"
        },
        {
          "internalType": "uint256",
          "name": "value",
          "type": "uint256"
        },
        {
          "internalType": "uint256",
          "name": "deadline",
          "type": "uint256"
        },
        {
          "internalType": "uint8",
          "name": "v",
          "type": "uint8"
        },
        {
          "internalType": "bytes32",
          "name": "r",
          "type": "bytes32"
        },
        {
          "internalType": "bytes32",
          "name": "s",
          "type": "bytes32"
        }
      ],
      "name": "permit",
      "outputs": [],
      "stateMutability": "nonpayable",
      "type": "function"
    },
    {
      "inputs": [],
      "name": "symbol",
      "outputs": [
        {
          "internalType": "string",
          "name": "",
          "type": "string"
        }
      ],
      "stateMutability": "view",
      "type": "function"
    },
    {
      "inputs": [],
      "name": "totalSupply",
      "outputs": [
        {
          "internalType": "uint256",
          "name": "",
          "type": "uint256"
        }
      ],
      "stateMutability": "view",
      "type": "function"
    },
    {
      "inputs": [
        {
          "internalType": "address",
          "name": "to",
          "type": "address"
        },
        {
          "internalType": "uint256",
          "name": "amount",
          "type": "uint256"
        }
      ],
      "name": "transfer",
      "outputs": [
        {
          "internalType": "bool",
          "name": "",
          "type": "bool"
        }
      ],
      "stateMutability": "nonpayable",
      "type": "function"
    },
    {
      "inputs": [
        {
          "internalType": "address",
          "name": "receiver",
          "type": "address"
        },
        {
          "internalType": "uint256",
          "name": "amount",
          "type": "uint256"
        },
        {
          "internalType": "bytes",
          "name": "data",
          "type": "bytes"
        }
      ],
      "name": "transferAndCall",
      "outputs": [
        {
          "internalType": "bool",
          "name": "success",
          "type": "bool"
        }
      ],
      "stateMutability": "nonpayable",
      "type": "function"
    },
    {
      "inputs": [
        {
          "internalType": "address",
          "name": "from",
          "type": "address"
        },
        {
          "internalType": "address",
          "name": "to",
          "type": "address"
        },
        {
          "internalType": "uint256",
          "name": "amount",
          "type": "uint256"
        }
      ],
      "name": "transferFrom",
      "outputs": [
        {
          "internalType": "bool",
          "name": "",
          "type": "bool"
        }
      ],
      "stateMutability": "nonpayable",
      "type": "function"
    }
  ],
  "bytecode": "0x608060405234801561000f575f80fd5b5061001861001d565b6100d9565b5f54610100900460ff16156100885760405162461bcd60e51b815260206004820152602760248201527f496e697469616c697a61626c653a20636f6e747261637420697320696e697469604482015266616c697a696e6760c81b606482015260840160405180910390fd5b5f5460ff908116146100d7575f805460ff191660ff9081179091556040519081527f7f26b83ff96e1f2b6a682f133852f6798a09c465da95921460cefb38474024989060200160405180910390a15b565b61210680620000e75f395ff3fe608060405234801561000f575f80fd5b506004361061016e575f3560e01c806370a08231116100d25780639dc29fac11610088578063c820f14611610063578063c820f14614610354578063d505accf14610367578063dd62ed3e1461037a575f80fd5b80639dc29fac1461031b578063a457c2d71461032e578063a9059cbb14610341575f80fd5b80637ecebe00116100b85780637ecebe00146102e557806384b0196e146102f857806395d89b4114610313575f80fd5b806370a0823114610290578063797594b0146102c5575f80fd5b8063313ce56711610127578063395093511161010d57806339509351146102555780634000aea01461026857806340c10f191461027b575f80fd5b8063313ce5671461021d5780633644e5151461024d575f80fd5b8063116191b611610157578063116191b6146101b357806318160ddd146101f857806323b872dd1461020a575f80fd5b806306fdde0314610172578063095ea7b314610190575b5f80fd5b61017a6103bf565b6040516101879190611a52565b60405180910390f35b6101a361019e366004611a93565b61044f565b6040519015158152602001610187565b60cc546101d39073ffffffffffffffffffffffffffffffffffffffff1681565b60405173ffffffffffffffffffffffffffffffffffffffff9091168152602001610187565b6035545b604051908152602001610187565b6101a3610218366004611abb565b610468565b60cd5474010000000000000000000000000000000000000000900460ff1660405160ff9091168152602001610187565b6101fc61048b565b6101a3610263366004611a93565b610499565b6101a3610276366004611af4565b6104e4565b61028e610289366004611a93565b61054d565b005b6101fc61029e366004611b74565b73ffffffffffffffffffffffffffffffffffffffff165f9081526033602052604090205490565b60cd546101d39073ffffffffffffffffffffffffffffffffffffffff1681565b6101fc6102f3366004611b74565b6105c7565b6103006105f1565b6040516101879796959493929190611b8d565b61017a6106ae565b61028e610329366004611a93565b6106bd565b6101a361033c366004611a93565b61072e565b6101a361034f366004611a93565b6107e4565b61028e610362366004611d31565b6107f1565b61028e610375366004611dc1565b610a08565b6101fc610388366004611e26565b73ffffffffffffffffffffffffffffffffffffffff9182165f90815260346020908152604080832093909416825291909152205490565b6060603680546103ce90611e57565b80601f01602080910402602001604051908101604052809291908181526020018280546103fa90611e57565b80156104455780601f1061041c57610100808354040283529160200191610445565b820191905f5260205f20905b81548152906001019060200180831161042857829003601f168201915b5050505050905090565b5f3361045c818585610b82565b60019150505b92915050565b5f33610475858285610d01565b610480858585610dbd565b506001949350505050565b5f610494610fe3565b905090565b335f81815260346020908152604080832073ffffffffffffffffffffffffffffffffffffffff8716845290915281205490919061045c90829086906104df908790611ea2565b610b82565b5f6104ef85856107e4565b5073ffffffffffffffffffffffffffffffffffffffff85163b1561048057610480858585858080601f0160208091040260200160405190810160405280939291908181526020018383808284375f92019190915250610fec92505050565b60cc5473ffffffffffffffffffffffffffffffffffffffff1633146105b95760405162461bcd60e51b815260206004820152600c60248201527f4f6e6c792047617465776179000000000000000000000000000000000000000060448201526064015b60405180910390fd5b6105c38282611077565b5050565b73ffffffffffffffffffffffffffffffffffffffff81165f90815260996020526040812054610462565b5f6060805f805f60606065545f801b14801561060d5750606654155b6106595760405162461bcd60e51b815260206004820152601560248201527f4549503731323a20556e696e697469616c697a6564000000000000000000000060448201526064016105b0565b610661611150565b61066961115f565b604080515f808252602082019092527f0f000000000000000000000000000000000000000000000000000000000000009b939a50919850469750309650945092509050565b6060603780546103ce90611e57565b60cc5473ffffffffffffffffffffffffffffffffffffffff1633146107245760405162461bcd60e51b815260206004820152600c60248201527f4f6e6c792047617465776179000000000000000000000000000000000000000060448201526064016105b0565b6105c3828261116e565b335f81815260346020908152604080832073ffffffffffffffffffffffffffffffffffffffff87168452909152812054909190838110156107d75760405162461bcd60e51b815260206004820152602560248201527f45524332303a2064656372656173656420616c6c6f77616e63652062656c6f7760448201527f207a65726f00000000000000000000000000000000000000000000000000000060648201526084016105b0565b6104808286868403610b82565b5f3361045c818585610dbd565b5f54610100900460ff161580801561080f57505f54600160ff909116105b806108285750303b15801561082857505f5460ff166001145b61089a5760405162461bcd60e51b815260206004820152602e60248201527f496e697469616c697a61626c653a20636f6e747261637420697320616c72656160448201527f647920696e697469616c697a656400000000000000000000000000000000000060648201526084016105b0565b5f80547fffffffffffffffffffffffffffffffffffffffffffffffffffffffffffffff0016600117905580156108f6575f80547fffffffffffffffffffffffffffffffffffffffffffffffffffffffffffff00ff166101001790555b6108ff866112fb565b61090986866113b9565b60cd805460cc805473ffffffffffffffffffffffffffffffffffffffff8088167fffffffffffffffffffffffff00000000000000000000000000000000000000009283161790925590851660ff88167401000000000000000000000000000000000000000002919091167fffffffffffffffffffffff000000000000000000000000000000000000000000909216919091171790558015610a00575f80547fffffffffffffffffffffffffffffffffffffffffffffffffffffffffffff00ff169055604051600181527f7f26b83ff96e1f2b6a682f133852f6798a09c465da95921460cefb38474024989060200160405180910390a15b505050505050565b83421115610a42576040517fa5faea8300000000000000000000000000000000000000000000000000000000815260040160405180910390fd5b5f7f6e71edae12b1b97f4d1f60370fef10105fa2faae0126114a169c64845d6126c9888888610a708c61143f565b60408051602081019690965273ffffffffffffffffffffffffffffffffffffffff94851690860152929091166060840152608083015260a082015260c0810186905260e0016040516020818303038152906040528051906020012090505f610ad782611473565b60408051602081018790529081018590527fff0000000000000000000000000000000000000000000000000000000000000060f888901b166060820152909150610b36908a9083906061016040516020818303038152906040526114ba565b610b6c576040517f3f88fec700000000000000000000000000000000000000000000000000000000815260040160405180910390fd5b610b77898989610b82565b505050505050505050565b73ffffffffffffffffffffffffffffffffffffffff8316610c0a5760405162461bcd60e51b8152602060048201526024808201527f45524332303a20617070726f76652066726f6d20746865207a65726f2061646460448201527f726573730000000000000000000000000000000000000000000000000000000060648201526084016105b0565b73ffffffffffffffffffffffffffffffffffffffff8216610c935760405162461bcd60e51b815260206004820152602260248201527f45524332303a20617070726f766520746f20746865207a65726f20616464726560448201527f737300000000000000000000000000000000000000000000000000000000000060648201526084016105b0565b73ffffffffffffffffffffffffffffffffffffffff8381165f8181526034602090815260408083209487168084529482529182902085905590518481527f8c5be1e5ebec7d5bd14f71427d1e84f3dd0314c0f7b2291e5b200ac8c7c3b92591015b60405180910390a3505050565b73ffffffffffffffffffffffffffffffffffffffff8381165f908152603460209081526040808320938616835292905220547fffffffffffffffffffffffffffffffffffffffffffffffffffffffffffffffff8114610db75781811015610daa5760405162461bcd60e51b815260206004820152601d60248201527f45524332303a20696e73756666696369656e7420616c6c6f77616e636500000060448201526064016105b0565b610db78484848403610b82565b50505050565b73ffffffffffffffffffffffffffffffffffffffff8316610e465760405162461bcd60e51b815260206004820152602560248201527f45524332303a207472616e736665722066726f6d20746865207a65726f20616460448201527f647265737300000000000000000000000000000000000000000000000000000060648201526084016105b0565b73ffffffffffffffffffffffffffffffffffffffff8216610ecf5760405162461bcd60e51b815260206004820152602360248201527f45524332303a207472616e7366657220746f20746865207a65726f206164647260448201527f657373000000000000000000000000000000000000000000000000000000000060648201526084016105b0565b73ffffffffffffffffffffffffffffffffffffffff83165f9081526033602052604090205481811015610f6a5760405162461bcd60e51b815260206004820152602660248201527f45524332303a207472616e7366657220616d6f756e742065786365656473206260448201527f616c616e6365000000000000000000000000000000000000000000000000000060648201526084016105b0565b73ffffffffffffffffffffffffffffffffffffffff8085165f8181526033602052604080822086860390559286168082529083902080548601905591517fddf252ad1be2c89b69c2b068fc378daa952ba7f163c4a11628f55a4df523b3ef90610fd69086815260200190565b60405180910390a3610db7565b5f610494611532565b6040517fa4c0ed36000000000000000000000000000000000000000000000000000000008152839073ffffffffffffffffffffffffffffffffffffffff82169063a4c0ed369061104490339087908790600401611eda565b5f604051808303815f87803b15801561105b575f80fd5b505af115801561106d573d5f803e3d5ffd5b5050505050505050565b73ffffffffffffffffffffffffffffffffffffffff82166110da5760405162461bcd60e51b815260206004820152601f60248201527f45524332303a206d696e7420746f20746865207a65726f20616464726573730060448201526064016105b0565b8060355f8282546110eb9190611ea2565b909155505073ffffffffffffffffffffffffffffffffffffffff82165f818152603360209081526040808320805486019055518481527fddf252ad1be2c89b69c2b068fc378daa952ba7f163c4a11628f55a4df523b3ef910160405180910390a35050565b6060606780546103ce90611e57565b6060606880546103ce90611e57565b73ffffffffffffffffffffffffffffffffffffffff82166111f75760405162461bcd60e51b815260206004820152602160248201527f45524332303a206275726e2066726f6d20746865207a65726f2061646472657360448201527f730000000000000000000000000000000000000000000000000000000000000060648201526084016105b0565b73ffffffffffffffffffffffffffffffffffffffff82165f90815260336020526040902054818110156112925760405162461bcd60e51b815260206004820152602260248201527f45524332303a206275726e20616d6f756e7420657863656564732062616c616e60448201527f636500000000000000000000000000000000000000000000000000000000000060648201526084016105b0565b73ffffffffffffffffffffffffffffffffffffffff83165f8181526033602090815260408083208686039055603580548790039055518581529192917fddf252ad1be2c89b69c2b068fc378daa952ba7f163c4a11628f55a4df523b3ef9101610cf4565b505050565b5f54610100900460ff166113775760405162461bcd60e51b815260206004820152602b60248201527f496e697469616c697a61626c653a20636f6e7472616374206973206e6f74206960448201527f6e697469616c697a696e6700000000000000000000000000000000000000000060648201526084016105b0565b6113b6816040518060400160405280600181526020017f31000000000000000000000000000000000000000000000000000000000000008152506115a5565b50565b5f54610100900460ff166114355760405162461bcd60e51b815260206004820152602b60248201527f496e697469616c697a61626c653a20636f6e7472616374206973206e6f74206960448201527f6e697469616c697a696e6700000000000000000000000000000000000000000060648201526084016105b0565b6105c38282611648565b73ffffffffffffffffffffffffffffffffffffffff81165f9081526099602052604090208054600181018255905b50919050565b5f61046261147f610fe3565b836040517f19010000000000000000000000000000000000000000000000000000000000008152600281019290925260228201526042902090565b5f805f6114c785856116dd565b90925090505f8160048111156114df576114df611f17565b14801561151757508573ffffffffffffffffffffffffffffffffffffffff168273ffffffffffffffffffffffffffffffffffffffff16145b80611528575061152886868661171f565b9695505050505050565b5f7f8b73c3c69bb8fe3d512ecc4cf759cc79239f7b179b0ffacaa9a75d522b39400f61155c611877565b6115646118cf565b60408051602081019490945283019190915260608201524660808201523060a082015260c00160405160208183030381529060405280519060200120905090565b5f54610100900460ff166116215760405162461bcd60e51b815260206004820152602b60248201527f496e697469616c697a61626c653a20636f6e7472616374206973206e6f74206960448201527f6e697469616c697a696e6700000000000000000000000000000000000000000060648201526084016105b0565b606761162d8382611f8f565b50606861163a8282611f8f565b50505f606581905560665550565b5f54610100900460ff166116c45760405162461bcd60e51b815260206004820152602b60248201527f496e697469616c697a61626c653a20636f6e7472616374206973206e6f74206960448201527f6e697469616c697a696e6700000000000000000000000000000000000000000060648201526084016105b0565b60366116d08382611f8f565b5060376112f68282611f8f565b5f808251604103611711576020830151604084015160608501515f1a611705878285856118ff565b94509450505050611718565b505f905060025b9250929050565b5f805f8573ffffffffffffffffffffffffffffffffffffffff16631626ba7e60e01b86866040516024016117549291906120a7565b604080517fffffffffffffffffffffffffffffffffffffffffffffffffffffffffffffffe08184030181529181526020820180517bffffffffffffffffffffffffffffffffffffffffffffffffffffffff167fffffffff000000000000000000000000000000000000000000000000000000009094169390931790925290516117dd91906120c7565b5f60405180830381855afa9150503d805f8114611815576040519150601f19603f3d011682016040523d82523d5f602084013e61181a565b606091505b509150915081801561182e57506020815110155b8015611528575080517f1626ba7e000000000000000000000000000000000000000000000000000000009061186c90830160209081019084016120e2565b149695505050505050565b5f80611881611150565b805190915015611898578051602090910120919050565b60655480156118a75792915050565b7fc5d2460186f7233c927e7db2dcc703c0e500b653ca82273b7bfad8045d85a4709250505090565b5f806118d961115f565b8051909150156118f0578051602090910120919050565b60665480156118a75792915050565b5f807f7fffffffffffffffffffffffffffffff5d576e7357a4501ddfe92f46681b20a083111561193457505f905060036119de565b604080515f8082526020820180845289905260ff881692820192909252606081018690526080810185905260019060a0016020604051602081039080840390855afa158015611985573d5f803e3d5ffd5b50506040517fffffffffffffffffffffffffffffffffffffffffffffffffffffffffffffffe0015191505073ffffffffffffffffffffffffffffffffffffffff81166119d8575f600192509250506119de565b91505f90505b94509492505050565b5f5b83811015611a015781810151838201526020016119e9565b50505f910152565b5f8151808452611a208160208601602086016119e7565b601f017fffffffffffffffffffffffffffffffffffffffffffffffffffffffffffffffe0169290920160200192915050565b602081525f611a646020830184611a09565b9392505050565b803573ffffffffffffffffffffffffffffffffffffffff81168114611a8e575f80fd5b919050565b5f8060408385031215611aa4575f80fd5b611aad83611a6b565b946020939093013593505050565b5f805f60608486031215611acd575f80fd5b611ad684611a6b565b9250611ae460208501611a6b565b9150604084013590509250925092565b5f805f8060608587031215611b07575f80fd5b611b1085611a6b565b935060208501359250604085013567ffffffffffffffff80821115611b33575f80fd5b818701915087601f830112611b46575f80fd5b813581811115611b54575f80fd5b886020828501011115611b65575f80fd5b95989497505060200194505050565b5f60208284031215611b84575f80fd5b611a6482611a6b565b7fff00000000000000000000000000000000000000000000000000000000000000881681525f602060e06020840152611bc960e084018a611a09565b8381036040850152611bdb818a611a09565b6060850189905273ffffffffffffffffffffffffffffffffffffffff8816608086015260a0850187905284810360c0860152855180825260208088019350909101905f5b81811015611c3b57835183529284019291840191600101611c1f565b50909c9b505050505050505050505050565b7f4e487b71000000000000000000000000000000000000000000000000000000005f52604160045260245ffd5b5f82601f830112611c89575f80fd5b813567ffffffffffffffff80821115611ca457611ca4611c4d565b604051601f83017fffffffffffffffffffffffffffffffffffffffffffffffffffffffffffffffe0908116603f01168101908282118183101715611cea57611cea611c4d565b81604052838152866020858801011115611d02575f80fd5b836020870160208301375f602085830101528094505050505092915050565b803560ff81168114611a8e575f80fd5b5f805f805f60a08688031215611d45575f80fd5b853567ffffffffffffffff80821115611d5c575f80fd5b611d6889838a01611c7a565b96506020880135915080821115611d7d575f80fd5b50611d8a88828901611c7a565b945050611d9960408701611d21565b9250611da760608701611a6b565b9150611db560808701611a6b565b90509295509295909350565b5f805f805f805f60e0888a031215611dd7575f80fd5b611de088611a6b565b9650611dee60208901611a6b565b95506040880135945060608801359350611e0a60808901611d21565b925060a0880135915060c0880135905092959891949750929550565b5f8060408385031215611e37575f80fd5b611e4083611a6b565b9150611e4e60208401611a6b565b90509250929050565b600181811c90821680611e6b57607f821691505b60208210810361146d577f4e487b71000000000000000000000000000000000000000000000000000000005f52602260045260245ffd5b80820180821115610462577f4e487b71000000000000000000000000000000000000000000000000000000005f52601160045260245ffd5b73ffffffffffffffffffffffffffffffffffffffff84168152826020820152606060408201525f611f0e6060830184611a09565b95945050505050565b7f4e487b71000000000000000000000000000000000000000000000000000000005f52602160045260245ffd5b601f8211156112f657805f5260205f20601f840160051c81016020851015611f695750805b601f840160051c820191505b81811015611f88575f8155600101611f75565b5050505050565b815167ffffffffffffffff811115611fa957611fa9611c4d565b611fbd81611fb78454611e57565b84611f44565b602080601f83116001811461200f575f8415611fd95750858301515b7fffffffffffffffffffffffffffffffffffffffffffffffffffffffffffffffff600386901b1c1916600185901b178555610a00565b5f858152602081207fffffffffffffffffffffffffffffffffffffffffffffffffffffffffffffffe08616915b8281101561205b5788860151825594840194600190910190840161203c565b508582101561209757878501517fffffffffffffffffffffffffffffffffffffffffffffffffffffffffffffffff600388901b60f8161c191681555b5050505050600190811b01905550565b828152604060208201525f6120bf6040830184611a09565b949350505050565b5f82516120d88184602087016119e7565b9190910192915050565b5f602082840312156120f2575f80fd5b505191905056fea164736f6c6343000818000a",
  "linkReferences": {},
  "deployedLinkReferences": {}
}