{
  "_format": "hh-sol-artifact-1",
  "contractName": "Rollup",
  "sourceName": "contracts/L1/Rollup.sol",
  "abi": [
    {
      "inputs": [
        {
          "internalType": "uint64",
          "name": "_chainId",
          "type": "uint64"
        }
      ],
      "stateMutability": "nonpayable",
      "type": "constructor"
    },
    {
      "anonymous": false,
      "inputs": [
        {
          "indexed": true,
          "internalType": "uint64",
          "name": "batchIndex",
          "type": "uint64"
        },
        {
          "indexed": false,
          "internalType": "address",
          "name": "winner",
          "type": "address"
        },
        {
          "indexed": false,
          "internalType": "string",
          "name": "res",
          "type": "string"
        }
      ],
      "name": "ChallengeRes",
      "type": "event"
    },
    {
      "anonymous": false,
      "inputs": [
        {
          "indexed": true,
          "internalType": "uint64",
          "name": "batchIndex",
          "type": "uint64"
        },
        {
          "indexed": false,
          "internalType": "address",
          "name": "challenger",
          "type": "address"
        },
        {
          "indexed": false,
          "internalType": "uint256",
          "name": "challengeDeposit",
          "type": "uint256"
        }
      ],
      "name": "ChallengeState",
      "type": "event"
    },
    {
      "anonymous": false,
      "inputs": [
        {
          "indexed": true,
          "internalType": "uint256",
          "name": "batchIndex",
          "type": "uint256"
        },
        {
          "indexed": true,
          "internalType": "bytes32",
          "name": "batchHash",
          "type": "bytes32"
        }
      ],
      "name": "CommitBatch",
      "type": "event"
    },
    {
      "anonymous": false,
      "inputs": [
        {
          "indexed": true,
          "internalType": "uint256",
          "name": "batchIndex",
          "type": "uint256"
        },
        {
          "indexed": true,
          "internalType": "bytes32",
          "name": "batchHash",
          "type": "bytes32"
        },
        {
          "indexed": false,
          "internalType": "bytes32",
          "name": "stateRoot",
          "type": "bytes32"
        },
        {
          "indexed": false,
          "internalType": "bytes32",
          "name": "withdrawRoot",
          "type": "bytes32"
        }
      ],
      "name": "FinalizeBatch",
      "type": "event"
    },
    {
      "anonymous": false,
      "inputs": [
        {
          "indexed": false,
          "internalType": "uint8",
          "name": "version",
          "type": "uint8"
        }
      ],
      "name": "Initialized",
      "type": "event"
    },
    {
      "anonymous": false,
      "inputs": [
        {
          "indexed": true,
          "internalType": "address",
          "name": "previousOwner",
          "type": "address"
        },
        {
          "indexed": true,
          "internalType": "address",
          "name": "newOwner",
          "type": "address"
        }
      ],
      "name": "OwnershipTransferred",
      "type": "event"
    },
    {
      "anonymous": false,
      "inputs": [
        {
          "indexed": false,
          "internalType": "address",
          "name": "account",
          "type": "address"
        }
      ],
      "name": "Paused",
      "type": "event"
    },
    {
      "anonymous": false,
      "inputs": [
        {
          "indexed": true,
          "internalType": "uint256",
          "name": "batchIndex",
          "type": "uint256"
        },
        {
          "indexed": true,
          "internalType": "bytes32",
          "name": "batchHash",
          "type": "bytes32"
        }
      ],
      "name": "RevertBatch",
      "type": "event"
    },
    {
      "anonymous": false,
      "inputs": [
        {
          "indexed": false,
          "internalType": "address",
          "name": "account",
          "type": "address"
        }
      ],
      "name": "Unpaused",
      "type": "event"
    },
    {
      "anonymous": false,
      "inputs": [
        {
          "indexed": true,
          "internalType": "address",
          "name": "account",
          "type": "address"
        },
        {
          "indexed": false,
          "internalType": "bool",
          "name": "status",
          "type": "bool"
        }
      ],
      "name": "UpdateChallenger",
      "type": "event"
    },
    {
      "anonymous": false,
      "inputs": [
        {
          "indexed": false,
          "internalType": "uint256",
          "name": "oldMaxNumTxInChunk",
          "type": "uint256"
        },
        {
          "indexed": false,
          "internalType": "uint256",
          "name": "newMaxNumTxInChunk",
          "type": "uint256"
        }
      ],
      "name": "UpdateMaxNumTxInChunk",
      "type": "event"
    },
    {
      "anonymous": false,
      "inputs": [
        {
          "indexed": true,
          "internalType": "address",
          "name": "account",
          "type": "address"
        },
        {
          "indexed": false,
          "internalType": "bool",
          "name": "status",
          "type": "bool"
        }
      ],
      "name": "UpdateProver",
      "type": "event"
    },
    {
      "anonymous": false,
      "inputs": [
        {
          "indexed": true,
          "internalType": "address",
          "name": "account",
          "type": "address"
        },
        {
          "indexed": false,
          "internalType": "bool",
          "name": "status",
          "type": "bool"
        }
      ],
      "name": "UpdateSequencer",
      "type": "event"
    },
    {
      "anonymous": false,
      "inputs": [
        {
          "indexed": true,
          "internalType": "address",
          "name": "oldVerifier",
          "type": "address"
        },
        {
          "indexed": true,
          "internalType": "address",
          "name": "newVerifier",
          "type": "address"
        }
      ],
      "name": "UpdateVerifier",
      "type": "event"
    },
    {
      "inputs": [],
      "name": "FINALIZATION_PERIOD_SECONDS",
      "outputs": [
        {
          "internalType": "uint256",
          "name": "",
          "type": "uint256"
        }
      ],
      "stateMutability": "view",
      "type": "function"
    },
    {
      "inputs": [],
      "name": "MIN_DEPOSIT",
      "outputs": [
        {
          "internalType": "uint256",
          "name": "",
          "type": "uint256"
        }
      ],
      "stateMutability": "view",
      "type": "function"
    },
    {
      "inputs": [],
      "name": "PROOF_WINDOW",
      "outputs": [
        {
          "internalType": "uint256",
          "name": "",
          "type": "uint256"
        }
      ],
      "stateMutability": "view",
      "type": "function"
    },
    {
      "inputs": [
        {
          "internalType": "address",
          "name": "_account",
          "type": "address"
        }
      ],
      "name": "addChallenger",
      "outputs": [],
      "stateMutability": "nonpayable",
      "type": "function"
    },
    {
      "inputs": [
        {
          "internalType": "address",
          "name": "_account",
          "type": "address"
        }
      ],
      "name": "addProver",
      "outputs": [],
      "stateMutability": "nonpayable",
      "type": "function"
    },
    {
      "inputs": [
        {
          "internalType": "address",
          "name": "_account",
          "type": "address"
        }
      ],
      "name": "addSequencer",
      "outputs": [],
      "stateMutability": "nonpayable",
      "type": "function"
    },
    {
      "inputs": [
        {
          "internalType": "uint256",
          "name": "batchIndex",
          "type": "uint256"
        }
      ],
      "name": "batchInChallenge",
      "outputs": [
        {
          "internalType": "bool",
          "name": "",
          "type": "bool"
        }
      ],
      "stateMutability": "view",
      "type": "function"
    },
    {
      "inputs": [
        {
          "internalType": "uint256",
          "name": "batchIndex",
          "type": "uint256"
        }
      ],
      "name": "batchInsideChallengeWindow",
      "outputs": [
        {
          "internalType": "bool",
          "name": "",
          "type": "bool"
        }
      ],
      "stateMutability": "view",
      "type": "function"
    },
    {
      "inputs": [
        {
          "internalType": "uint64",
          "name": "batchIndex",
          "type": "uint64"
        }
      ],
      "name": "challengeState",
      "outputs": [],
      "stateMutability": "payable",
      "type": "function"
    },
    {
      "inputs": [
        {
          "internalType": "uint256",
          "name": "",
          "type": "uint256"
        }
      ],
      "name": "challenges",
      "outputs": [
        {
          "internalType": "uint64",
          "name": "batchIndex",
          "type": "uint64"
        },
        {
          "internalType": "address",
          "name": "challenger",
          "type": "address"
        },
        {
          "internalType": "uint256",
          "name": "challengeDeposit",
          "type": "uint256"
        },
        {
          "internalType": "uint256",
          "name": "startTime",
          "type": "uint256"
        },
        {
          "internalType": "bool",
          "name": "finished",
          "type": "bool"
        }
      ],
      "stateMutability": "view",
      "type": "function"
    },
    {
      "inputs": [
        {
          "components": [
            {
              "internalType": "uint8",
              "name": "version",
              "type": "uint8"
            },
            {
              "internalType": "bytes",
              "name": "parentBatchHeader",
              "type": "bytes"
            },
            {
              "internalType": "bytes[]",
              "name": "chunks",
              "type": "bytes[]"
            },
            {
              "internalType": "bytes",
              "name": "skippedL1MessageBitmap",
              "type": "bytes"
            },
            {
              "internalType": "bytes32",
              "name": "prevStateRoot",
              "type": "bytes32"
            },
            {
              "internalType": "bytes32",
              "name": "postStateRoot",
              "type": "bytes32"
            },
            {
              "internalType": "bytes32",
              "name": "withdrawalRoot",
              "type": "bytes32"
            },
            {
              "components": [
                {
                  "internalType": "uint256",
                  "name": "version",
                  "type": "uint256"
                },
                {
                  "internalType": "uint256[]",
                  "name": "signers",
                  "type": "uint256[]"
                },
                {
                  "internalType": "bytes",
                  "name": "signature",
                  "type": "bytes"
                }
              ],
              "internalType": "struct IRollup.BatchSignature",
              "name": "signature",
              "type": "tuple"
            }
          ],
          "internalType": "struct IRollup.BatchData",
          "name": "batchData",
          "type": "tuple"
        }
      ],
      "name": "commitBatch",
      "outputs": [],
      "stateMutability": "nonpayable",
      "type": "function"
    },
    {
      "inputs": [
        {
          "internalType": "uint256",
          "name": "",
          "type": "uint256"
        }
      ],
      "name": "committedBatchStores",
      "outputs": [
        {
          "internalType": "bytes32",
          "name": "batchHash",
          "type": "bytes32"
        },
        {
          "internalType": "uint256",
          "name": "originTimestamp",
          "type": "uint256"
        },
        {
          "internalType": "bytes32",
          "name": "prevStateRoot",
          "type": "bytes32"
        },
        {
          "internalType": "bytes32",
          "name": "postStateRoot",
          "type": "bytes32"
        },
        {
          "internalType": "bytes32",
          "name": "withdrawalRoot",
          "type": "bytes32"
        },
        {
          "internalType": "bytes32",
          "name": "dataHash",
          "type": "bytes32"
        },
        {
          "internalType": "address",
          "name": "sequencer",
          "type": "address"
        },
        {
          "internalType": "uint256",
          "name": "l1MessagePopped",
          "type": "uint256"
        },
        {
          "internalType": "uint256",
          "name": "totalL1MessagePopped",
          "type": "uint256"
        },
        {
          "internalType": "bytes",
          "name": "skippedL1MessageBitmap",
          "type": "bytes"
        },
        {
          "internalType": "uint256",
          "name": "blockNumber",
          "type": "uint256"
        }
      ],
      "stateMutability": "view",
      "type": "function"
    },
    {
      "inputs": [
        {
          "internalType": "uint256",
          "name": "batchIndex",
          "type": "uint256"
        }
      ],
      "name": "committedBatches",
      "outputs": [
        {
          "internalType": "bytes32",
          "name": "",
          "type": "bytes32"
        }
      ],
      "stateMutability": "view",
      "type": "function"
    },
    {
      "inputs": [
        {
          "internalType": "address",
          "name": "",
          "type": "address"
        }
      ],
      "name": "deposits",
      "outputs": [
        {
          "internalType": "uint256",
          "name": "",
          "type": "uint256"
        }
      ],
      "stateMutability": "view",
      "type": "function"
    },
    {
      "inputs": [],
      "name": "finalizeBatchs",
      "outputs": [],
      "stateMutability": "nonpayable",
      "type": "function"
    },
    {
      "inputs": [
        {
          "internalType": "uint256",
          "name": "",
          "type": "uint256"
        }
      ],
      "name": "finalizedStateRoots",
      "outputs": [
        {
          "internalType": "bytes32",
          "name": "",
          "type": "bytes32"
        }
      ],
      "stateMutability": "view",
      "type": "function"
    },
    {
      "inputs": [
        {
          "internalType": "bytes",
          "name": "_batchHeader",
          "type": "bytes"
        },
        {
          "internalType": "bytes32",
          "name": "_postStateRoot",
          "type": "bytes32"
        },
        {
          "internalType": "bytes32",
          "name": "_withdrawalRoot",
          "type": "bytes32"
        }
      ],
      "name": "importGenesisBatch",
      "outputs": [],
      "stateMutability": "nonpayable",
      "type": "function"
    },
    {
      "inputs": [
        {
          "internalType": "address",
          "name": "_messageQueue",
          "type": "address"
        },
        {
          "internalType": "address",
          "name": "_verifier",
          "type": "address"
        },
        {
          "internalType": "uint256",
          "name": "_maxNumTxInChunk",
          "type": "uint256"
        },
        {
          "internalType": "uint256",
          "name": "_minDeposit",
          "type": "uint256"
        },
        {
          "internalType": "uint256",
          "name": "_finalizationPeriodSeconds",
          "type": "uint256"
        },
        {
          "internalType": "uint256",
          "name": "_proofWindow",
          "type": "uint256"
        }
      ],
      "name": "initialize",
      "outputs": [],
      "stateMutability": "nonpayable",
      "type": "function"
    },
    {
      "inputs": [
        {
          "internalType": "uint256",
          "name": "_batchIndex",
          "type": "uint256"
        }
      ],
      "name": "isBatchFinalized",
      "outputs": [
        {
          "internalType": "bool",
          "name": "",
          "type": "bool"
        }
      ],
      "stateMutability": "view",
      "type": "function"
    },
    {
      "inputs": [
        {
          "internalType": "address",
          "name": "",
          "type": "address"
        }
      ],
      "name": "isChallenger",
      "outputs": [
        {
          "internalType": "bool",
          "name": "",
          "type": "bool"
        }
      ],
      "stateMutability": "view",
      "type": "function"
    },
    {
      "inputs": [
        {
          "internalType": "address",
          "name": "",
          "type": "address"
        }
      ],
      "name": "isProver",
      "outputs": [
        {
          "internalType": "bool",
          "name": "",
          "type": "bool"
        }
      ],
      "stateMutability": "view",
      "type": "function"
    },
    {
      "inputs": [
        {
          "internalType": "address",
          "name": "",
          "type": "address"
        }
      ],
      "name": "isSequencer",
      "outputs": [
        {
          "internalType": "bool",
          "name": "",
          "type": "bool"
        }
      ],
      "stateMutability": "view",
      "type": "function"
    },
    {
      "inputs": [],
      "name": "lastCommittedBatchIndex",
      "outputs": [
        {
          "internalType": "uint256",
          "name": "",
          "type": "uint256"
        }
      ],
      "stateMutability": "view",
      "type": "function"
    },
    {
      "inputs": [],
      "name": "lastFinalizedBatchIndex",
      "outputs": [
        {
          "internalType": "uint256",
          "name": "",
          "type": "uint256"
        }
      ],
      "stateMutability": "view",
      "type": "function"
    },
    {
      "inputs": [],
      "name": "latestL2BlockNumber",
      "outputs": [
        {
          "internalType": "uint256",
          "name": "",
          "type": "uint256"
        }
      ],
      "stateMutability": "view",
      "type": "function"
    },
    {
      "inputs": [],
      "name": "layer2ChainId",
      "outputs": [
        {
          "internalType": "uint64",
          "name": "",
          "type": "uint64"
        }
      ],
      "stateMutability": "view",
      "type": "function"
    },
    {
      "inputs": [],
      "name": "maxNumTxInChunk",
      "outputs": [
        {
          "internalType": "uint256",
          "name": "",
          "type": "uint256"
        }
      ],
      "stateMutability": "view",
      "type": "function"
    },
    {
      "inputs": [],
      "name": "messageQueue",
      "outputs": [
        {
          "internalType": "address",
          "name": "",
          "type": "address"
        }
      ],
      "stateMutability": "view",
      "type": "function"
    },
    {
      "inputs": [],
      "name": "owner",
      "outputs": [
        {
          "internalType": "address",
          "name": "",
          "type": "address"
        }
      ],
      "stateMutability": "view",
      "type": "function"
    },
    {
      "inputs": [],
      "name": "paused",
      "outputs": [
        {
          "internalType": "bool",
          "name": "",
          "type": "bool"
        }
      ],
      "stateMutability": "view",
      "type": "function"
    },
    {
      "inputs": [
        {
          "internalType": "uint64",
          "name": "_batchIndex",
          "type": "uint64"
        },
        {
          "internalType": "bytes",
          "name": "_aggrProof",
          "type": "bytes"
        }
      ],
      "name": "proveState",
      "outputs": [],
      "stateMutability": "nonpayable",
      "type": "function"
    },
    {
      "inputs": [
        {
          "internalType": "address",
          "name": "_account",
          "type": "address"
        }
      ],
      "name": "removeChallenger",
      "outputs": [],
      "stateMutability": "nonpayable",
      "type": "function"
    },
    {
      "inputs": [
        {
          "internalType": "address",
          "name": "_account",
          "type": "address"
        }
      ],
      "name": "removeProver",
      "outputs": [],
      "stateMutability": "nonpayable",
      "type": "function"
    },
    {
      "inputs": [
        {
          "internalType": "address",
          "name": "_account",
          "type": "address"
        }
      ],
      "name": "removeSequencer",
      "outputs": [],
      "stateMutability": "nonpayable",
      "type": "function"
    },
    {
      "inputs": [],
      "name": "renounceOwnership",
      "outputs": [],
      "stateMutability": "nonpayable",
      "type": "function"
    },
    {
      "inputs": [
        {
          "internalType": "bytes",
          "name": "_batchHeader",
          "type": "bytes"
        },
        {
          "internalType": "uint256",
          "name": "_count",
          "type": "uint256"
        }
      ],
      "name": "revertBatch",
      "outputs": [],
      "stateMutability": "nonpayable",
      "type": "function"
    },
    {
      "inputs": [
        {
          "internalType": "bool",
          "name": "_status",
          "type": "bool"
        }
      ],
      "name": "setPause",
      "outputs": [],
      "stateMutability": "nonpayable",
      "type": "function"
    },
    {
      "inputs": [],
      "name": "stake",
      "outputs": [],
      "stateMutability": "payable",
      "type": "function"
    },
    {
      "inputs": [
        {
          "internalType": "address",
          "name": "newOwner",
          "type": "address"
        }
      ],
      "name": "transferOwnership",
      "outputs": [],
      "stateMutability": "nonpayable",
      "type": "function"
    },
    {
      "inputs": [
        {
          "internalType": "uint256",
          "name": "_newPeriod",
          "type": "uint256"
        }
      ],
      "name": "updateFinalizePeriodSeconds",
      "outputs": [],
      "stateMutability": "nonpayable",
      "type": "function"
    },
    {
      "inputs": [
        {
          "internalType": "uint256",
          "name": "_maxNumTxInChunk",
          "type": "uint256"
        }
      ],
      "name": "updateMaxNumTxInChunk",
      "outputs": [],
      "stateMutability": "nonpayable",
      "type": "function"
    },
    {
      "inputs": [
        {
          "internalType": "uint256",
          "name": "_newDepositAmount",
          "type": "uint256"
        }
      ],
      "name": "updateMinDepositAmount",
      "outputs": [],
      "stateMutability": "nonpayable",
      "type": "function"
    },
    {
      "inputs": [
        {
          "internalType": "uint256",
          "name": "_newWindow",
          "type": "uint256"
        }
      ],
      "name": "updateProofWindow",
      "outputs": [],
      "stateMutability": "nonpayable",
      "type": "function"
    },
    {
      "inputs": [
        {
          "internalType": "address",
          "name": "_newVerifier",
          "type": "address"
        }
      ],
      "name": "updateVerifier",
      "outputs": [],
      "stateMutability": "nonpayable",
      "type": "function"
    },
    {
      "inputs": [],
      "name": "verifier",
      "outputs": [
        {
          "internalType": "address",
          "name": "",
          "type": "address"
        }
      ],
      "stateMutability": "view",
      "type": "function"
    },
    {
      "inputs": [
        {
          "internalType": "uint256",
          "name": "amount",
          "type": "uint256"
        }
      ],
      "name": "withdraw",
      "outputs": [],
      "stateMutability": "nonpayable",
      "type": "function"
    },
    {
      "inputs": [
        {
          "internalType": "bytes32",
          "name": "",
          "type": "bytes32"
        }
      ],
      "name": "withdrawalRoots",
      "outputs": [
        {
          "internalType": "uint256",
          "name": "",
          "type": "uint256"
        }
      ],
      "stateMutability": "view",
      "type": "function"
    }
  ],
  "bytecode": "0x60a06040523480156200001157600080fd5b506040516200446138038062004461833981016040819052620000349162000046565b6001600160401b031660805262000078565b6000602082840312156200005957600080fd5b81516001600160401b03811681146200007157600080fd5b9392505050565b6080516143c66200009b6000396000818161031f015261209101526143c66000f3fe6080604052600436106103085760003560e01c80635c975abb1161019a578063a415d8dc116100e1578063e3fff1dd1161008a578063f2fde38b11610064578063f2fde38b146109b7578063f4daa291146109d7578063fc7e286d146109ed57600080fd5b8063e3fff1dd1461096b578063eb1ec18f1461098b578063ef6602ba146109a157600080fd5b8063bedb86fb116100bb578063bedb86fb14610915578063de8b303514610935578063e1e158a51461095557600080fd5b8063a415d8dc146108b0578063aeb5440d146108e0578063b571d3dd146108f557600080fd5b806386489ba9116101435780638da5cb5b1161011d5780638da5cb5b146107a95780638f1d3776146107d457806397fc007c1461089057600080fd5b806386489ba9146107565780638a336231146107765780638d644bb71461079657600080fd5b80636d46e987116101745780636d46e987146106f1578063715018a614610721578063847802051461073657600080fd5b80635c975abb146106995780636989ca7c146106b15780636c578c1d146106d157600080fd5b80631d49e4571161025e5780633a4b66f1116102075780634c4b9e4f116101e15780634c4b9e4f1461063957806357e0af6c1461065957806359ef11201461067957600080fd5b80633a4b66f1146105ee5780633b70c18a146105f65780633e9e82ca1461062357600080fd5b80632571098d116102385780632571098d1461054f5780632b7ac3f31461057c5780632e1a7d4d146105ce57600080fd5b80631d49e457146104e25780631e228302146105025780632362f03e1461052257600080fd5b80630ceb6780116102c0578063121dcd501161029a578063121dcd501461048c57806316b799c9146104a257806318af3b2b146104c257600080fd5b80630ceb67801461042757806310d4458314610449578063116a1f421461046957600080fd5b8063059def61116102f1578063059def611461039a5780630a245924146103b05780630b79cdda146103f057600080fd5b806303c7f4af1461030d57806304d772151461035f575b600080fd5b34801561031957600080fd5b506103417f000000000000000000000000000000000000000000000000000000000000000081565b60405167ffffffffffffffff90911681526020015b60405180910390f35b34801561036b57600080fd5b5061038c61037a366004613bdf565b60a26020526000908152604090205481565b604051908152602001610356565b3480156103a657600080fd5b5061038c609d5481565b3480156103bc57600080fd5b506103e06103cb366004613c21565b609b6020526000908152604090205460ff1681565b6040519015158152602001610356565b3480156103fc57600080fd5b5061041061040b366004613bdf565b610a1a565b6040516103569b9a99989796959493929190613ca7565b34801561043357600080fd5b50610447610442366004613c21565b610b14565b005b34801561045557600080fd5b50610447610464366004613d6c565b610b87565b34801561047557600080fd5b506103e0610484366004613bdf565b609d54101590565b34801561049857600080fd5b5061038c609e5481565b3480156104ae57600080fd5b506104476104bd366004613db8565b610ddb565b3480156104ce57600080fd5b506103e06104dd366004613bdf565b6115de565b3480156104ee57600080fd5b506104476104fd366004613c21565b611608565b34801561050e57600080fd5b5061044761051d366004613bdf565b611674565b34801561052e57600080fd5b5061038c61053d366004613bdf565b600090815260a0602052604090205490565b34801561055b57600080fd5b5061038c61056a366004613bdf565b60a16020526000908152604090205481565b34801561058857600080fd5b506099546105a99073ffffffffffffffffffffffffffffffffffffffff1681565b60405173ffffffffffffffffffffffffffffffffffffffff9091168152602001610356565b3480156105da57600080fd5b506104476105e9366004613bdf565b6116c1565b610447611849565b34801561060257600080fd5b506098546105a99073ffffffffffffffffffffffffffffffffffffffff1681565b34801561062f57600080fd5b5061038c609f5481565b34801561064557600080fd5b50610447610654366004613df4565b61193a565b34801561066557600080fd5b50610447610674366004613bdf565b611e3a565b34801561068557600080fd5b50610447610694366004613e5d565b611e47565b3480156106a557600080fd5b5060655460ff166103e0565b3480156106bd57600080fd5b506104476106cc366004613c21565b612243565b3480156106dd57600080fd5b506104476106ec366004613c21565b6122d9565b3480156106fd57600080fd5b506103e061070c366004613c21565b609a6020526000908152604090205460ff1681565b34801561072d57600080fd5b5061044761233d565b34801561074257600080fd5b50610447610751366004613bdf565b612351565b34801561076257600080fd5b50610447610771366004613eb0565b61235e565b34801561078257600080fd5b50610447610791366004613c21565b61258a565b6104476107a4366004613f05565b6125f6565b3480156107b557600080fd5b5060335473ffffffffffffffffffffffffffffffffffffffff166105a9565b3480156107e057600080fd5b506108466107ef366004613bdf565b60a760205260009081526040902080546001820154600283015460039093015467ffffffffffffffff8316936801000000000000000090930473ffffffffffffffffffffffffffffffffffffffff16929060ff1685565b6040805167ffffffffffffffff909616865273ffffffffffffffffffffffffffffffffffffffff90941660208601529284019190915260608301521515608082015260a001610356565b34801561089c57600080fd5b506104476108ab366004613c21565b612976565b3480156108bc57600080fd5b506103e06108cb366004613c21565b609c6020526000908152604090205460ff1681565b3480156108ec57600080fd5b506104476129f5565b34801561090157600080fd5b50610447610910366004613c21565b612a54565b34801561092157600080fd5b50610447610930366004613f20565b612ab8565b34801561094157600080fd5b506103e0610950366004613bdf565b612ad9565b34801561096157600080fd5b5061038c60a55481565b34801561097757600080fd5b50610447610986366004613bdf565b612b30565b34801561099757600080fd5b5061038c60a45481565b3480156109ad57600080fd5b5061038c60975481565b3480156109c357600080fd5b506104476109d2366004613c21565b612b3d565b3480156109e357600080fd5b5061038c60a35481565b3480156109f957600080fd5b5061038c610a08366004613c21565b60a66020526000908152604090205481565b60a060205260009081526040902080546001820154600283015460038401546004850154600586015460068701546007880154600889015460098a018054999a9899979896979596949573ffffffffffffffffffffffffffffffffffffffff909416949293919291610a8b90613f42565b80601f0160208091040260200160405190810160405280929190818152602001828054610ab790613f42565b8015610b045780601f10610ad957610100808354040283529160200191610b04565b820191906000526020600020905b815481529060010190602001808311610ae757829003601f168201915b50505050509080600a015490508b565b610b1c612bd7565b73ffffffffffffffffffffffffffffffffffffffff81166000818152609c6020908152604091829020805460ff1916600190811790915591519182527f7feb653c7b1f0d23daeed494225b3f28851cdc8973fcc653866d9b6e205fc00991015b60405180910390a250565b610b8f612bd7565b60008111610be45760405162461bcd60e51b815260206004820152601560248201527f636f756e74206d757374206265206e6f6e7a65726f000000000000000000000060448201526064015b60405180910390fd5b600080610bf18585612c3e565b915091506000610c05836001015160c01c90565b600081815260a060205260409020549091508214610c655760405162461bcd60e51b815260206004820152601460248201527f696e636f727265637420626174636820686173680000000000000000000000006044820152606401610bdb565b600060a081610c748785613fc4565b81526020019081526020016000206000015414610cf85760405162461bcd60e51b8152602060048201526024808201527f726576657274696e67206d7573742073746172742066726f6d2074686520656e60448201527f64696e67000000000000000000000000000000000000000000000000000000006064820152608401610bdb565b609d548111610d6f5760405162461bcd60e51b815260206004820152602160248201527f63616e206f6e6c792072657665727420756e66696e616c697a6564206261746360448201527f68000000000000000000000000000000000000000000000000000000000000006064820152608401610bdb565b5b8315610dd157600081815260a0602052604080822082905551839183917ecae2739091badfd91c373f0a16cede691e0cd25bb80cff77dd5caeb47101469190a3600101600081815260a0602052604090205460001990940193915081610d70575b609e555050505050565b336000908152609a602052604090205460ff16610e3a5760405162461bcd60e51b815260206004820152601460248201527f63616c6c6572206e6f742073657175656e6365720000000000000000000000006044820152606401610bdb565b610e42612c5b565b60a55433600090815260a660205260409020541015610ea35760405162461bcd60e51b815260206004820152601b60248201527f696e73756666696369656e74207374616b696e6720616d6f756e7400000000006044820152606401610bdb565b610eb06020820182613fd7565b60ff1615610f005760405162461bcd60e51b815260206004820152600f60248201527f696e76616c69642076657273696f6e00000000000000000000000000000000006044820152606401610bdb565b6000610f0f6040830183613ffa565b91505080610f5f5760405162461bcd60e51b815260206004820152600e60248201527f626174636820697320656d7074790000000000000000000000000000000000006044820152606401610bdb565b6080820135610fb05760405162461bcd60e51b815260206004820152601b60248201527f70726576696f757320737461746520726f6f74206973207a65726f00000000006044820152606401610bdb565b60a08201356110015760405162461bcd60e51b815260206004820152601660248201527f6e657720737461746520726f6f74206973207a65726f000000000000000000006044820152606401610bdb565b6000806110196110146020860186614062565b612c3e565b91509150600061102d836001015160c01c90565b9050600061103f846011015160c01c90565b600083815260a06020526040902054909150831461109f5760405162461bcd60e51b815260206004820152601b60248201527f696e636f727265637420706172656e74206261746368206861736800000000006044820152606401610bdb565b600060a0816110af856001613fc4565b8152602001908152602001600020600001541461110e5760405162461bcd60e51b815260206004820152601760248201527f626174636820616c726561647920636f6d6d69747465640000000000000000006044820152606401610bdb565b609e54821461115f5760405162461bcd60e51b815260206004820152601560248201527f696e636f727265637420626174636820696e64657800000000000000000000006044820152606401610bdb565b600082815260a060205260409020600301546080870135146111c35760405162461bcd60e51b815260206004820152601d60248201527f696e636f72726563742070726576696f757320737461746520726f6f740000006044820152606401610bdb565b604080516020870281019091526000805b8781101561130c57600061126b846111ef60408d018d613ffa565b858181106111ff576111ff6140c7565b90506020028101906112119190614062565b8080601f016020809104026020016040519081016040528093929190818152602001838380828437600081840152601f19601f8201169050808301925050505050505085888e80606001906112669190614062565b612cae565b905061127860018a6140f6565b82036112ea576112ea61128e60408c018c613ffa565b8481811061129e5761129e6140c7565b90506020028101906112b09190614062565b8080601f016020809104026020016040519081016040528093929190818152602001838380828437600092019190915250612f2892505050565b938401936020939093019291909101908061130481614109565b9150506111d4565b5061131a6060890189614062565b905061010060ff830104602002146113745760405162461bcd60e51b815260206004820152601360248201527f77726f6e67206269746d6170206c656e677468000000000000000000000000006044820152606401610bdb565b602087810280840320604051975060019590950194906113a490889061139c908c018c613fd7565b60ff16612f80565b60c085811b600189015282811b600989015284901b601188015260198701819052603987018690526113e2876113dd60608c018c614062565b612f87565b6000611406886113f560608d018d614062565b61140191506059613fc4565b902090565b90506040518061016001604052808281526020014281526020018b6080013581526020018b60a0013581526020018b60c00135815260200183815260200161144b3390565b73ffffffffffffffffffffffffffffffffffffffff1681526020018481526020018681526020018b80606001906114829190614062565b8080601f01602080910402602001604051908101604052809392919081815260200183838082843760009201829052509385525050609f546020938401525088815260a0808352604091829020845181559284015160018401559083015160028301556060830151600383015560808301516004830155820151600582015560c08201516006820180547fffffffffffffffffffffffff00000000000000000000000000000000000000001673ffffffffffffffffffffffffffffffffffffffff90921691909117905560e082015160078201556101008201516008820155610120820151600982019061157690826141a0565b506101409190910151600a9091015560c08a0135600090815260a26020526040808220889055609e88905551829188917f2c32d4ae151744d0bf0b9464a3e897a1d17ed2f1af71f7c9a75f12ce0d28238f9190a36115d26129f5565b50505050505050505050565b60a354600082815260a06020526040812060010154909142916116019190613fc4565b1192915050565b611610612bd7565b73ffffffffffffffffffffffffffffffffffffffff81166000818152609b6020908152604091829020805460ff1916600190811790915591519182527f967f99d5d403870e4356ff46556df3a6b6ba1f50146639aaedfb9f248eb8661e9101610b7c565b61167c612bd7565b609780549082905560408051828152602081018490527f6d0f49971e462a2f78a25906f145cb29cd5e7bd01ebf681ac8f58cb814e5877a910160405180910390a15050565b336000908152609a602052604090205460ff166117205760405162461bcd60e51b815260206004820152601460248201527f63616c6c6572206e6f742073657175656e6365720000000000000000000000006044820152606401610bdb565b33600081815260a66020526040902054826117a35760405162461bcd60e51b815260206004820152602260248201527f776974686472617720616d6f756e742073686f756c6420626520706f7369746960448201527f76650000000000000000000000000000000000000000000000000000000000006064820152608401610bdb565b8060a554846117b29190613fc4565b116117ff5760405162461bcd60e51b815260206004820152601260248201527f696e73756666696369656e742066756e647300000000000000000000000000006044820152606401610bdb565b73ffffffffffffffffffffffffffffffffffffffff8216600090815260a66020526040812080548592906118349084906140f6565b9091555061184490508284612f93565b505050565b336000908152609a602052604090205460ff166118a85760405162461bcd60e51b815260206004820152601460248201527f63616c6c6572206e6f742073657175656e6365720000000000000000000000006044820152606401610bdb565b60a55433600090815260a660205260409020546118c6903490613fc4565b10156119145760405162461bcd60e51b815260206004820152601a60248201527f646f206e6f74206861766520656e6f756768206465706f7369740000000000006044820152606401610bdb565b33600090815260a6602052604081208054349290611933908490613fc4565b9091555050565b816119875760405162461bcd60e51b815260206004820152600f60248201527f7a65726f20737461746520726f6f7400000000000000000000000000000000006044820152606401610bdb565b6000805260a16020527f32ae1b88a7d4f92d7e214b63c8ea04cd13e2faaa60c50f499f2254336d98f88254156119ff5760405162461bcd60e51b815260206004820152601660248201527f67656e6573697320626174636820696d706f72746564000000000000000000006044820152606401610bdb565b600080611a0c8686612c3e565b915091506000611a1d836019015190565b90506000611a2f846011015160c01c90565b600985015160c01c600186015160c01c865160f81c01010190508015611a975760405162461bcd60e51b815260206004820152601760248201527f6e6f7420616c6c206669656c647320617265207a65726f0000000000000000006044820152606401610bdb565b506000611aa5846019015190565b03611af25760405162461bcd60e51b815260206004820152600e60248201527f7a65726f206461746120686173680000000000000000000000000000000000006044820152606401610bdb565b6000611aff846039015190565b14611b4c5760405162461bcd60e51b815260206004820152601960248201527f6e6f6e7a65726f20706172656e742062617463682068617368000000000000006044820152606401610bdb565b6040518061016001604052808381526020014281526020016000801b8152602001868152602001858152602001828152602001611b863390565b73ffffffffffffffffffffffffffffffffffffffff908116825260006020808401829052604080850183905280518083018252838152606080870191909152608095860184905292805260a080835286517fb84a74ec6ef4d0e83b6006dfaa014ab4026f9f3b97d186e604d29998a4e808ea908155928701517fb84a74ec6ef4d0e83b6006dfaa014ab4026f9f3b97d186e604d29998a4e808eb55908601517fb84a74ec6ef4d0e83b6006dfaa014ab4026f9f3b97d186e604d29998a4e808ec55918501517fb84a74ec6ef4d0e83b6006dfaa014ab4026f9f3b97d186e604d29998a4e808ed55928401517fb84a74ec6ef4d0e83b6006dfaa014ab4026f9f3b97d186e604d29998a4e808ee558301517fb84a74ec6ef4d0e83b6006dfaa014ab4026f9f3b97d186e604d29998a4e808ef5560c08301517fb84a74ec6ef4d0e83b6006dfaa014ab4026f9f3b97d186e604d29998a4e808f080547fffffffffffffffffffffffff0000000000000000000000000000000000000000169190921617905560e08201517fb84a74ec6ef4d0e83b6006dfaa014ab4026f9f3b97d186e604d29998a4e808f1556101008201517fb84a74ec6ef4d0e83b6006dfaa014ab4026f9f3b97d186e604d29998a4e808f2556101208201517fb84a74ec6ef4d0e83b6006dfaa014ab4026f9f3b97d186e604d29998a4e808f390611d8a90826141a0565b506101409190910151600a90910155600080805260a16020527f32ae1b88a7d4f92d7e214b63c8ea04cd13e2faaa60c50f499f2254336d98f8828690556040518391907f2c32d4ae151744d0bf0b9464a3e897a1d17ed2f1af71f7c9a75f12ce0d28238f908290a360408051868152600060208201819052849290917f26ba82f907317eedc97d0cbef23de76a43dd6edb563bdb6e9407645b950a7a2d910160405180910390a350505050505050565b611e42612bd7565b60a455565b67ffffffffffffffff8316600090815260a7602052604090205468010000000000000000900473ffffffffffffffffffffffffffffffffffffffff16611ecf5760405162461bcd60e51b815260206004820152601360248201527f6368616c6c656e6765206e6f74206578697374000000000000000000000000006044820152606401610bdb565b67ffffffffffffffff8316600090815260a7602052604090206003015460ff1615611f3c5760405162461bcd60e51b815260206004820152601a60248201527f6368616c6c656e676520616c72656164792066696e69736865640000000000006044820152606401610bdb565b60a45467ffffffffffffffff8416600090815260a7602052604081206002015490914291611f6a9190613fc4565b11905080611fee5767ffffffffffffffff8416600090815260a06020908152604091829020600601548251808401909352600783527f74696d656f75740000000000000000000000000000000000000000000000000091830191909152611fe991869173ffffffffffffffffffffffffffffffffffffffff1690613005565b612218565b8161203b5760405162461bcd60e51b815260206004820152600d60248201527f696e76616c69642070726f6f66000000000000000000000000000000000000006044820152606401610bdb565b67ffffffffffffffff8416600090815260a06020908152604080832060028101546003820154600483015460059093015493517fffffffffffffffff0000000000000000000000000000000000000000000000007f000000000000000000000000000000000000000000000000000000000000000060c01b1695810195909552602885019190915260488401526068830152608882015260a801604080517fffffffffffffffffffffffffffffffffffffffffffffffffffffffffffffffe08184030181529082905280516020909101206099547fcc780aa100000000000000000000000000000000000000000000000000000000835290925073ffffffffffffffffffffffffffffffffffffffff169063cc780aa19061216690889088908890879060040161427e565b60006040518083038186803b15801561217e57600080fd5b505afa158015612192573d6000803e3d6000fd5b505050506122168560a060008867ffffffffffffffff16815260200190815260200160002060060160009054906101000a900473ffffffffffffffffffffffffffffffffffffffff166040518060400160405280600d81526020017f70726f766520737563636573730000000000000000000000000000000000000081525061312c565b505b50505067ffffffffffffffff16600090815260a760205260409020600301805460ff19166001179055565b61224b612bd7565b73ffffffffffffffffffffffffffffffffffffffff81166000908152609a60209081526040808320805460ff1916905560a69091528120819055612290908290612f93565b6040516000815273ffffffffffffffffffffffffffffffffffffffff8216907f631cb110fbe6a87fba5414d6b2cff02264480535cd1f5abdbc4fa638bc0b569290602001610b7c565b6122e1612bd7565b73ffffffffffffffffffffffffffffffffffffffff81166000818152609c60209081526040808320805460ff19169055519182527f7feb653c7b1f0d23daeed494225b3f28851cdc8973fcc653866d9b6e205fc0099101610b7c565b612345612bd7565b61234f600061321e565b565b612359612bd7565b60a555565b600054610100900460ff161580801561237e5750600054600160ff909116105b806123985750303b158015612398575060005460ff166001145b61240a5760405162461bcd60e51b815260206004820152602e60248201527f496e697469616c697a61626c653a20636f6e747261637420697320616c72656160448201527f647920696e697469616c697a65640000000000000000000000000000000000006064820152608401610bdb565b6000805460ff19166001179055801561244a57600080547fffffffffffffffffffffffffffffffffffffffffffffffffffffffffffff00ff166101001790555b612452613295565b6098805473ffffffffffffffffffffffffffffffffffffffff808a167fffffffffffffffffffffffff000000000000000000000000000000000000000092831617909255609980549289169290911682179055609786905560a384905560a483905560a58590556040516000907f728af3d16a5760405e27a082c98ab272e9f0a1d02f0085d41532a26093aedd96908290a36040805160008152602081018790527f6d0f49971e462a2f78a25906f145cb29cd5e7bd01ebf681ac8f58cb814e5877a910160405180910390a1801561258157600080547fffffffffffffffffffffffffffffffffffffffffffffffffffffffffffff00ff169055604051600181527f7f26b83ff96e1f2b6a682f133852f6798a09c465da95921460cefb38474024989060200160405180910390a15b50505050505050565b612592612bd7565b73ffffffffffffffffffffffffffffffffffffffff81166000818152609a6020908152604091829020805460ff1916600190811790915591519182527f631cb110fbe6a87fba5414d6b2cff02264480535cd1f5abdbc4fa638bc0b56929101610b7c565b336000908152609c602052604090205460ff166126555760405162461bcd60e51b815260206004820152601560248201527f63616c6c6572206e6f74206368616c6c656e67657200000000000000000000006044820152606401610bdb565b8067ffffffffffffffff16609d54106126b05760405162461bcd60e51b815260206004820152601760248201527f626174636820616c72656164792066696e616c697a65640000000000000000006044820152606401610bdb565b67ffffffffffffffff8116600090815260a0602052604081205490036127185760405162461bcd60e51b815260206004820152600f60248201527f6261746368206e6f7420657869737400000000000000000000000000000000006044820152606401610bdb565b67ffffffffffffffff8116600090815260a7602052604090205468010000000000000000900473ffffffffffffffffffffffffffffffffffffffff16156127a15760405162461bcd60e51b815260206004820152601560248201527f616c726561647920686173206368616c6c656e676500000000000000000000006044820152606401610bdb565b60a35467ffffffffffffffff8216600090815260a06020526040812060010154909142916127cf9190613fc4565b119050806128455760405162461bcd60e51b815260206004820152603360248201527f63616e6e6f74206368616c6c656e6765206261746368206f757473696465207460448201527f6865206368616c6c656e67652077696e646f77000000000000000000000000006064820152608401610bdb565b60a55434101561285457600080fd5b33600090815260a6602052604081208054349290612873908490613fc4565b90915550506040805160a08101825267ffffffffffffffff848116808352336020808501828152348688018181524260608901908152600060808a0181815288825260a78752908b902099518a54955173ffffffffffffffffffffffffffffffffffffffff1668010000000000000000027fffffffff000000000000000000000000000000000000000000000000000000009096169916989098179390931788555160018801559051600287015593516003909501805495151560ff1990961695909517909455845190815292830191909152825190927f3a6ea19df25b49e7624e313ce7c1ab23984238e93727260db56a81735b1b9976928290030190a25050565b61297e612bd7565b6099805473ffffffffffffffffffffffffffffffffffffffff8381167fffffffffffffffffffffffff0000000000000000000000000000000000000000831681179093556040519116919082907f728af3d16a5760405e27a082c98ab272e9f0a1d02f0085d41532a26093aedd9690600090a35050565b6129fd612c5b565b609d546000612a0d826001613fc4565b90505b609e548111612a5057612a2281612ad9565b80612a315750612a31816115de565b612a5057612a3e8161331a565b80612a4881614109565b915050612a10565b5050565b612a5c612bd7565b73ffffffffffffffffffffffffffffffffffffffff81166000818152609b60209081526040808320805460ff19169055519182527f967f99d5d403870e4356ff46556df3a6b6ba1f50146639aaedfb9f248eb8661e9101610b7c565b612ac0612bd7565b8015612ad157612ace61372f565b50565b612ace613796565b600081815260a7602052604081205468010000000000000000900473ffffffffffffffffffffffffffffffffffffffff1615801590612b2a5750600082815260a7602052604090206003015460ff16155b92915050565b612b38612bd7565b60a355565b612b45612bd7565b73ffffffffffffffffffffffffffffffffffffffff8116612bce5760405162461bcd60e51b815260206004820152602660248201527f4f776e61626c653a206e6577206f776e657220697320746865207a65726f206160448201527f64647265737300000000000000000000000000000000000000000000000000006064820152608401610bdb565b612ace8161321e565b60335473ffffffffffffffffffffffffffffffffffffffff16331461234f5760405162461bcd60e51b815260206004820181905260248201527f4f776e61626c653a2063616c6c6572206973206e6f7420746865206f776e65726044820152606401610bdb565b6000806000612c4d85856137cf565b812090969095509350505050565b60655460ff161561234f5760405162461bcd60e51b815260206004820152601060248201527f5061757361626c653a20706175736564000000000000000000000000000000006044820152606401610bdb565b60405185516000916020880191819060218a01908590612ccf9086906138a8565b90506000805b82811015612d4a57603c8102870160018101518652602101517fffffffffffffffffffffffffffffffffffffffffffffffffffff000000000000166020860152603a850194506000612d2b856038015160f01c90565b603c959095019492909201915080612d4281614109565b915050612cd5565b506020028301604052600185019150826000612d6b8784603c020160010190565b90505b8215612e51576000612d8485603a015160f01c90565b9050612d9486828f8f8f8f61396c565b95506000612da6866038015160f01c90565b905081811015612df85760405162461bcd60e51b815260206004820152601d60248201527f6e756d20747873206c657373207468616e206e756d204c31206d7367730000006044820152606401610bdb565b815b81811015612e2f57835160e01c60048086018290208a5260209099019894019093019280612e2781614109565b915050612dfa565b50509b8c019b9a8b019a9790970196603c939093019260001990920191612d6e565b6097546020612e6084886140f6565b612e6a91906142e6565b1115612eb85760405162461bcd60e51b815260206004820152601960248201527f746f6f206d616e792074787320696e206f6e65206368756e6b000000000000006044820152606401610bdb565b8c51612ec488836140f6565b14612f115760405162461bcd60e51b815260206004820152601e60248201527f696e636f6d706c657465206c32207472616e73616374696f6e206461746100006044820152606401610bdb565b5050505081900390208852505b9695505050505050565b805160218201906020830190600090612f429083906138a8565b905060005b612f526001836140f6565b811015612f7257603c840193508080612f6a90614109565b915050612f47565b5050905160c01c609f555050565b8082535050565b80826059850137505050565b8015612a50576000612fb6835a8460405180602001604052806000815250613aed565b9050806118445760405162461bcd60e51b815260206004820152601b60248201527f526f6c6c75703a20455448207472616e73666572206661696c656400000000006044820152606401610bdb565b67ffffffffffffffff8316600090815260a7602090815260408083205460a55473ffffffffffffffffffffffffffffffffffffffff878116865260a690945291842080546801000000000000000090920490931693919291906130699084906140f6565b909155505067ffffffffffffffff8416600090815260a7602090815260408083206001015473ffffffffffffffffffffffffffffffffffffffff8516845260a690925282208054919283926130bf9084906140f6565b909155505060a5546000906130d49083613fc4565b90506130e08382612f93565b8567ffffffffffffffff167f1e66d5dca70bf28588ef2f5cb3c299e65e2e7bdef2767823d3ae47a9caff95c6848660405161311c929190614321565b60405180910390a2505050505050565b67ffffffffffffffff8316600090815260a76020908152604080832080546001909101546801000000000000000090910473ffffffffffffffffffffffffffffffffffffffff1680855260a69093529083208054929391928392906131929084906140f6565b909155505073ffffffffffffffffffffffffffffffffffffffff8416600090815260a66020526040812080548392906131cc908490613fc4565b925050819055508467ffffffffffffffff167f1e66d5dca70bf28588ef2f5cb3c299e65e2e7bdef2767823d3ae47a9caff95c6858560405161320f929190614321565b60405180910390a25050505050565b6033805473ffffffffffffffffffffffffffffffffffffffff8381167fffffffffffffffffffffffff0000000000000000000000000000000000000000831681179093556040519116919082907f8be0079c531659141344cd1fd0a4f28419497f9722a3daafe3b4186f6b6457e090600090a35050565b600054610100900460ff166133125760405162461bcd60e51b815260206004820152602b60248201527f496e697469616c697a61626c653a20636f6e7472616374206973206e6f74206960448201527f6e697469616c697a696e670000000000000000000000000000000000000000006064820152608401610bdb565b61234f613b07565b61332381612ad9565b156133705760405162461bcd60e51b815260206004820152601260248201527f626174636820696e206368616c6c656e676500000000000000000000000000006044820152606401610bdb565b613379816115de565b156133c65760405162461bcd60e51b815260206004820152601960248201527f626174636820696e206368616c6c656e67652077696e646f77000000000000006044820152606401610bdb565b600081815260a060205260408120600201549060a1906133e76001856140f6565b815260200190815260200160002054146134435760405162461bcd60e51b815260206004820152601d60248201527f696e636f72726563742070726576696f757320737461746520726f6f740000006044820152606401610bdb565b600081815260a160205260409020541561349f5760405162461bcd60e51b815260206004820152601660248201527f626174636820616c7265616479207665726966696564000000000000000000006044820152606401610bdb565b80609d54600101146134f35760405162461bcd60e51b815260206004820152601560248201527f696e636f727265637420626174636820696e64657800000000000000000000006044820152606401610bdb565b609d819055600081815260a060208181526040808420600381015460a184529190942055526007015480156136cb57609854600083815260a060205260408120600901805473ffffffffffffffffffffffffffffffffffffffff9093169261355a90613f42565b80601f016020809104026020016040519081016040528092919081815260200182805461358690613f42565b80156135d35780601f106135a8576101008083540402835291602001916135d3565b820191906000526020600020905b8154815290600101906020018083116135b657829003601f168201915b505050600087815260a060209081526040822060080154949550850193879003925090505b858110156136c55761010081870381111561361257508086035b6101008204602081028501516040517f55f613ce00000000000000000000000000000000000000000000000000000000815260048101869052602481018490526044810182905290919073ffffffffffffffffffffffffffffffffffffffff8916906355f613ce90606401600060405180830381600087803b15801561369757600080fd5b505af11580156136ab573d6000803e3d6000fd5b5050505061010085019450505050610100810190506135f8565b50505050505b600082815260a0602052604090819020805460038201546004909201549251909285927f26ba82f907317eedc97d0cbef23de76a43dd6edb563bdb6e9407645b950a7a2d926137239290918252602082015260400190565b60405180910390a35050565b613737612c5b565b6065805460ff191660011790557f62e78cea01bee320cd4e420270b5ea74000d11b0c9f74754ebdbfc544b05a25861376c3390565b60405173ffffffffffffffffffffffffffffffffffffffff909116815260200160405180910390a1565b61379e613b8d565b6065805460ff191690557f5db9ee0a495bf2e6ff9c91a7834c1ba4fdd244a5e8aa4e537bd38aeae4b073aa3361376c565b60008160598110156138235760405162461bcd60e51b815260206004820152601d60248201527f626174636820686561646572206c656e67746820746f6f20736d616c6c0000006044820152606401610bdb565b6040519150808483378082016040526000613842836009015160c01c90565b905061010060ff82010460200260590182146138a05760405162461bcd60e51b815260206004820152601360248201527f77726f6e67206269746d6170206c656e677468000000000000000000000000006044820152606401610bdb565b509250929050565b60006138b5835160f81c90565b9050600081116139075760405162461bcd60e51b815260206004820152601160248201527f6e6f20626c6f636b20696e206368756e6b0000000000000000000000000000006044820152606401610bdb565b613912603c82614358565b61391d906001613fc4565b821015612b2a5760405162461bcd60e51b815260206004820152601460248201527f696e76616c6964206368756e6b206c656e6774680000000000000000000000006044820152606401610bdb565b60008560000361397d575085612f1e565b60985473ffffffffffffffffffffffffffffffffffffffff16600080805b89811015613a825760ff89169150600889901c8115806139b9575082155b156139c8578060200288013593505b600184841c16600003613a71576040517fae453cd5000000000000000000000000000000000000000000000000000000008152600481018a905260009073ffffffffffffffffffffffffffffffffffffffff87169063ae453cd590602401602060405180830381865afa158015613a43573d6000803e3d6000fd5b505050506040513d601f19601f82011682018060405250810190613a679190614377565b8d52506020909b019a5b50600198890198978801970161399b565b505060ff60001988011681811c60011615613adf5760405162461bcd60e51b815260206004820152601b60248201527f63616e6e6f7420736b6970206c617374204c31206d65737361676500000000006044820152606401610bdb565b509798975050505050505050565b600080600080845160208601878a8af19695505050505050565b600054610100900460ff16613b845760405162461bcd60e51b815260206004820152602b60248201527f496e697469616c697a61626c653a20636f6e7472616374206973206e6f74206960448201527f6e697469616c697a696e670000000000000000000000000000000000000000006064820152608401610bdb565b61234f3361321e565b60655460ff1661234f5760405162461bcd60e51b815260206004820152601460248201527f5061757361626c653a206e6f74207061757365640000000000000000000000006044820152606401610bdb565b600060208284031215613bf157600080fd5b5035919050565b803573ffffffffffffffffffffffffffffffffffffffff81168114613c1c57600080fd5b919050565b600060208284031215613c3357600080fd5b613c3c82613bf8565b9392505050565b6000815180845260005b81811015613c6957602081850181015186830182015201613c4d565b5060006020828601015260207fffffffffffffffffffffffffffffffffffffffffffffffffffffffffffffffe0601f83011685010191505092915050565b60006101608d83528c60208401528b60408401528a60608401528960808401528860a084015273ffffffffffffffffffffffffffffffffffffffff881660c08401528660e08401528561010084015280610120840152613d0981840186613c43565b915050826101408301529c9b505050505050505050505050565b60008083601f840112613d3557600080fd5b50813567ffffffffffffffff811115613d4d57600080fd5b602083019150836020828501011115613d6557600080fd5b9250929050565b600080600060408486031215613d8157600080fd5b833567ffffffffffffffff811115613d9857600080fd5b613da486828701613d23565b909790965060209590950135949350505050565b600060208284031215613dca57600080fd5b813567ffffffffffffffff811115613de157600080fd5b82016101008185031215613c3c57600080fd5b60008060008060608587031215613e0a57600080fd5b843567ffffffffffffffff811115613e2157600080fd5b613e2d87828801613d23565b90989097506020870135966040013595509350505050565b803567ffffffffffffffff81168114613c1c57600080fd5b600080600060408486031215613e7257600080fd5b613e7b84613e45565b9250602084013567ffffffffffffffff811115613e9757600080fd5b613ea386828701613d23565b9497909650939450505050565b60008060008060008060c08789031215613ec957600080fd5b613ed287613bf8565b9550613ee060208801613bf8565b95989597505050506040840135936060810135936080820135935060a0909101359150565b600060208284031215613f1757600080fd5b613c3c82613e45565b600060208284031215613f3257600080fd5b81358015158114613c3c57600080fd5b600181811c90821680613f5657607f821691505b602082108103613f8f577f4e487b7100000000000000000000000000000000000000000000000000000000600052602260045260246000fd5b50919050565b7f4e487b7100000000000000000000000000000000000000000000000000000000600052601160045260246000fd5b80820180821115612b2a57612b2a613f95565b600060208284031215613fe957600080fd5b813560ff81168114613c3c57600080fd5b60008083357fffffffffffffffffffffffffffffffffffffffffffffffffffffffffffffffe184360301811261402f57600080fd5b83018035915067ffffffffffffffff82111561404a57600080fd5b6020019150600581901b3603821315613d6557600080fd5b60008083357fffffffffffffffffffffffffffffffffffffffffffffffffffffffffffffffe184360301811261409757600080fd5b83018035915067ffffffffffffffff8211156140b257600080fd5b602001915036819003821315613d6557600080fd5b7f4e487b7100000000000000000000000000000000000000000000000000000000600052603260045260246000fd5b81810381811115612b2a57612b2a613f95565b6000600019820361411c5761411c613f95565b5060010190565b7f4e487b7100000000000000000000000000000000000000000000000000000000600052604160045260246000fd5b601f82111561184457600081815260208120601f850160051c810160208610156141795750805b601f850160051c820191505b8181101561419857828155600101614185565b505050505050565b815167ffffffffffffffff8111156141ba576141ba614123565b6141ce816141c88454613f42565b84614152565b602080601f83116001811461420357600084156141eb5750858301515b600019600386901b1c1916600185901b178555614198565b6000858152602081207fffffffffffffffffffffffffffffffffffffffffffffffffffffffffffffffe08616915b8281101561425057888601518255948401946001909101908401614231565b508582101561426e5787850151600019600388901b60f8161c191681555b5050505050600190811b01905550565b67ffffffffffffffff851681526060602082015282606082015282846080830137600060808483010152600060807fffffffffffffffffffffffffffffffffffffffffffffffffffffffffffffffe0601f860116830101905082604083015295945050505050565b60008261431c577f4e487b7100000000000000000000000000000000000000000000000000000000600052601260045260246000fd5b500490565b73ffffffffffffffffffffffffffffffffffffffff831681526040602082015260006143506040830184613c43565b949350505050565b600081600019048311821515161561437257614372613f95565b500290565b60006020828403121561438957600080fd5b505191905056fea2646970667358221220d44405bf4d26ca4915ebc7cef9aeb77d903e5cd9289842c7d1f155741f36430a64736f6c63430008100033",
  "linkReferences": {},
  "deployedLinkReferences": {}
}