{
  "_format": "hh-sol-artifact-1",
  "contractName": "RollupVerifier",
  "sourceName": "contracts/libraries/verifier/RollupVerifier.sol",
  "abi": [
    {
      "inputs": [
        {
          "internalType": "uint256[]",
          "name": "proof",
          "type": "uint256[]"
        },
        {
          "internalType": "uint256[]",
          "name": "target_circuit_final_pair",
          "type": "uint256[]"
        }
      ],
      "name": "verify",
      "outputs": [],
      "stateMutability": "view",
      "type": "function"
    }
  ],
  "bytecode": "0x6157d262000036600b8282823980515f1a60731461002a57634e487b7160e01b5f525f60045260245ffd5b305f52607381538281f3fe7300000000000000000000000000000000000000003014608060405260043610610034575f3560e01c8063b864f5a914610038575b5f80fd5b61004b610046366004615599565b61004d565b005b61005561543a565b82825f81811061006757610067615600565b9050602002013570ffffffffffffffffffffffffffffffffff16815f6006811061009357610093615600565b60200201526088838360018181106100ad576100ad615600565b90506020020135600116901b608884845f8181106100cd576100cd615600565b90506020020135901c6100e0919061565a565b6020820152828260028181106100f8576100f8615600565b9050602002013570ffffffffffffffffffffffffffffffffff168160026006811061012557610125615600565b602002015260888383600381811061013f5761013f615600565b90506020020135600116901b60888484600281811061016057610160615600565b90506020020135901c610173919061565a565b60608201528282600481811061018b5761018b615600565b90506020020135816004600681106101a5576101a5615600565b6020020152828260058181106101bd576101bd615600565b90506020020135816005600681106101d7576101d7615600565b6020020152604080516002808252606082019092525f918291829182918291816020015b604080518082019091525f80825260208201528152602001906001900390816101fb575050604080516002808252606082019092529192505f9190602082015b610243615458565b81526020019060019003908161023b5790505090505f6102648c8c8a6104b3565b8651939a509098509096509450879084905f9061028357610283615600565b60200260200101515f01818152505084835f815181106102a5576102a5615600565b6020026020010151602001818152505085836001815181106102c9576102c9615600565b60200260200101515f01818152505083836001815181106102ec576102ec615600565b602002602001015160200181815250506103046148d3565b825f8151811061031657610316615600565b602002602001018190525061032961497e565b8260018151811061033c5761033c615600565b60200260200101819052506103518383614a25565b90508061035c575f80fd5b89895f81811061036e5761036e615600565b90506020020135835f8151811061038757610387615600565b602090810291909101015152898960018181106103a6576103a6615600565b90506020020135835f815181106103bf576103bf615600565b60200260200101516020018181525050898960028181106103e2576103e2615600565b90506020020135836001815181106103fc576103fc615600565b6020908102919091010151528989600381811061041b5761041b615600565b905060200201358360018151811061043557610435615600565b6020026020010151602001818152505061044d6148d3565b825f8151811061045f5761045f615600565b602002602001018190525061047261497e565b8260018151811061048557610485615600565b602002602001018190525061049a8383614a25565b9050806104a5575f80fd5b505050505050505050505050565b5f805f806104bf61547d565b6104c761549c565b5f8061051b7f23fa8c6d53fe818d8083928e29d3597c38dda32b345fbebe8aa44b42da0e62447f0e594ccea4ffd37388f582dae315dccbd738656dc40f8e8a97899df7915653318b845b6020020151614ce8565b90925090506105757f2f7516f17cc73ef811e61913df662670cf977c348c5c17b399d36b797de562137f29d21ef90921b7b36c386c9d7bccbc5cb5309f4c5f013f97fc2a164c032c43018b60015b60200201518585614d49565b90925090506105c77f0e067efa832df3d67402008e6c048eedaf997fc4abd0c77732d475105b498c947f131e1b423a6042b314cb5c170adcb698ba8b89244bb561d8e3ab4756e60725548b6002610569565b90925090506106197f26eee7fdb2d0ede8432eb66a2e3181be7f96340ebec498145549bc564c4ed3667f11725549b524a14c004a5c1b6ae47cbfb3c682dec286691116938aac68f0d6908b6003610569565b909250905061066b7f02cf877805a2ac48e87560338798e471d2da02b51be61333b7d611da1c0838867f2485e81f92d71e68c0ffdee45107da955aa218d3cb98b74b263e089c566684c28b6004610569565b90925090506106bd7f14224fd9110bf7bf0468769b1b103ef95a8f3cc374b89802d783ad11c92069d37f070e4d3f3b6fdb8c09e1b33e3581365f57f967969071286cf6d72d3ff40e7cbb8b6005610569565b602086015284526106ef7f04bb2c994efc8532cf518d477e1297c6a2387a4a3662ac20ab3275e41cb58772845f614d94565b835160208501516107039190856002614de0565b5f91505b6004821161079f5761078d8b8b61071f85600261569a565b610729905f61565a565b81811061073857610738615600565b905060200201358c8c85600261074e919061569a565b61075990600161565a565b81811061076857610768615600565b905060200201358585600361077d919061569a565b61078890600561565a565b614de0565b81610797816156b1565b925050610707565b6107aa836014614e50565b60408501525f91505b600d8211610847576108358b8b6107cb85600261569a565b6107d690600a61565a565b8181106107e5576107e5615600565b905060200201358c8c8560026107fb919061569a565b61080690600b61565a565b81811061081557610815615600565b905060200201358585600361082a919061569a565b61078890600161565a565b8161083f816156b1565b9250506107b3565b61085283602b614e50565b6060850152610862836001614e50565b60808501525f91505b600982116108d0576108be8b8b61088385600261569a565b61088e90602661565a565b81811061089d5761089d615600565b905060200201358c8c8560026108b3919061569a565b61080690602761565a565b816108c8816156b1565b92505061086b565b6108db83601f614e50565b60a08501525f91505b60038211610949576109378b8b6108fc85600261569a565b61090790603a61565a565b81811061091657610916615600565b905060200201358c8c85600261092c919061569a565b61080690603b61565a565b81610941816156b1565b9250506108e4565b61095483600d614e50565b60c08501525f91505b604682116109c6576109b48b8b61097585600161569a565b61098090604261565a565b81811061098f5761098f615600565b90506020020135848460026109a4919061569a565b6109af90600161565a565b614d94565b816109be816156b1565b92505061095d565b6109d183608f614e50565b60e08501525f91505b60038211610a3f57610a2d8b8b6109f285600261569a565b6109fd90608961565a565b818110610a0c57610a0c615600565b905060200201358c8c856002610a22919061569a565b61080690608a61565a565b81610a37816156b1565b9250506109da565b610a4a83600d614e50565b61010085015260c08401515f805160206157a6833981519152907f1dba8b5bdd64ef6ce29a9039aca3c0e524395c43b9227b96c75090cc6cc7ec97900961012085015260c08401515f805160206157a6833981519152907f24a1fcd63e9f03b27281db85fe631ec8e5c466f8178a4ee94d4942b7ccd90e1c900961014085015260c08401515f805160206157a6833981519152907f20bab6e5f766b4edf82399e9c5ff0e40d4b6875321a3d8020e18521d8f5c7241900961016085015260c0840151610b1a906304000000614eb0565b6101808501525f805160206157a6833981519152610b396001826156e8565b610180860151086101a085018190525f805160206157a6833981519152907f30644e66c81e03716be83b486d6feabcc7ddd0fe6cbf5e72d585d142f7829b05096101c08501525f805160206157a6833981519152610b986001826156e8565b60c0860151089150610bb284600e5b602002015183614f13565b6101c08501526101a08401515f805160206157a6833981519152907f07baaa5b7af9cf52cd226bc56865f0f99ef8fcd4219060f09f43e9a148b5ab68096101e08501525f805160206157a6833981519152610c2d7f20bab6e5f766b4edf82399e9c5ff0e40d4b6875321a3d8020e18521d8f5c7241826156e8565b60c0860151089150610c4084600f610ba7565b6101e08501526101a08401515f805160206157a6833981519152907f1c699f652457365bf2fc4fa2c5c63d6c4349b03cb46d633d7a2655c5da4b900a096102008501525f805160206157a6833981519152610cbb7f19277f31ecb5bfe8604677099c09556812b0b5c50cceb2b584098183a5a6c5c8826156e8565b60c0860151089150610cce846010610ba7565b6102008501526101a08401515f805160206157a6833981519152907f205cdbaf03903a5c23e60eef0df90673bc65a25762694c501e3281153b4e588a096102208501525f805160206157a6833981519152610d497f082a7bd4c0a7e4352229d332c27a160da18f0d7c651f3047df41b80345532f6e826156e8565b60c0860151089150610d5c846011610ba7565b6102208501526101a08401515f805160206157a6833981519152907f27db73b1a831278e143aab90091db38afdea3294c4ba05d1c697a392eb09cc79096102408501525f805160206157a6833981519152610dd77f26501ebfe559ea5826f023d3e76e4b66f170cd940408eb5590a4075c80b498d6826156e8565b60c0860151089150610dea846012610ba7565b6102408501526101a08401515f805160206157a6833981519152907f0204822d629ab653697f028f5fa17d23ac2ba08c60c7112d98ebd28f325f0af6096102608501525f805160206157a6833981519152610e657f0d5eb4c216db2c3262de3f6a2ef71a9be95ff21a7a1a50ed069d6131e7d54e5f826156e8565b60c0860151089150610e78846013610ba7565b6102608501526101a08401515f805160206157a6833981519152907f2622622a60c0d9327ccf066a0f1fce13c48601b976affd1f41c2a72a9f77da64096102808501525f805160206157a6833981519152610ef37f24a1fcd63e9f03b27281db85fe631ec8e5c466f8178a4ee94d4942b7ccd90e1c826156e8565b60c0860151089150610f06846014610ba7565b6102808501526102008401516101e08501515f805160206157a683398151915291900891505f805160206157a68339815191528460116020020151830891505f805160206157a68339815191528460126020020151830891505f805160206157a6833981519152846013602002015183086101e0850152610fd38b8b604a818110610f9357610f93615600565b905060200201358c8c6048818110610fad57610fad615600565b905060200201358d8d6049818110610fc757610fc7615600565b90506020020135614f3f565b91506110128b8b604b818110610feb57610feb615600565b905060200201358c8c604381811061100557611005615600565b9050602002013584614f3f565b91506110448b8b604c81811061102a5761102a615600565b905060200201358c8c604481811061100557611005615600565b91506110768b8b604d81811061105c5761105c615600565b905060200201358c8c604581811061100557611005615600565b91506110a88b8b604e81811061108e5761108e615600565b905060200201358c8c604681811061100557611005615600565b91506110da8b8b604f8181106110c0576110c0615600565b905060200201358c8c604781811061100557611005615600565b6102008501525f805160206157a68339815191528b8b604481811061110157611101615600565b905060200201358c8c604381811061111b5761111b615600565b905060200201350991506111608b8b605081811061113b5761113b615600565b90506020020135838660106054811061115657611156615600565b6020020151614f3f565b6102008501525f805160206157a68339815191528b8b604681811061118757611187615600565b905060200201358c8c60458181106111a1576111a1615600565b905060200201350991506111c18b8b605181811061113b5761113b615600565b6102008501525f805160206157a68339815191528b8b60618181106111e8576111e8615600565b905060200201355f805160206157a683398151915261120791906156e8565b60010891505f805160206157a68339815191528285600e6020020151096102208501525f805160206157a68339815191528b8b606481811061124b5761124b615600565b905060200201358c8c606481811061126557611265615600565b905060200201350991505f805160206157a68339815191528b8b606481811061129057611290615600565b905060200201355f805160206157a68339815191526112af91906156e8565b830891505f805160206157a6833981519152828560146020020151096102408501525f805160206157a68339815191528b8b60638181106112f2576112f2615600565b905060200201355f805160206157a683398151915261131191906156e8565b8c8c606481811061132457611324615600565b905060200201350891505f805160206157a683398151915284600e6020020151830961026085015260c084015160608501515f805160206157a68339815191529190096102a08501526101e08401516102808501515f805160206157a683398151915291900891505f805160206157a68339815191526113b1835f805160206157a68339815191526156e8565b6001086101e085015260808401515f805160206157a6833981519152908c8c60438181106113e1576113e1615600565b90506020020135086102c085015261142c8b8b605b81811061140557611405615600565b905060200201358560036054811061141f5761141f615600565b6020020151866016611156565b91505f805160206157a68339815191528b8b606281811061144f5761144f615600565b9050602002013583096102e08501526102a08401516102c08501515f805160206157a683398151915291900891505f805160206157a68339815191528b8b606181811061149e5761149e615600565b9050602002013583096102c08501526102a08401515f805160206157a6833981519152907f09226b6e22c6f0ca64ec26aad4c86e715b5f898e5e963f25870e56bbe533e9a20961030085015260808401515f805160206157a6833981519152908c8c604481811061151157611511615600565b905060200201350861032085015261155c8b8b605c81811061153557611535615600565b905060200201358560036054811061154f5761154f615600565b6020020151866019611156565b91505f805160206157a6833981519152846017602002015183096102e08501526103008401516103208501515f805160206157a683398151915291900891505f805160206157a6833981519152846016602002015183096102c08501526103008401515f805160206157a6833981519152907f09226b6e22c6f0ca64ec26aad4c86e715b5f898e5e963f25870e56bbe533e9a20961030085015260808401515f805160206157a6833981519152908c8c604581811061161d5761161d615600565b90506020020135086103208501526116418b8b605d81811061153557611535615600565b91505f805160206157a6833981519152846017602002015183096102e08501526103008401516103208501515f805160206157a683398151915291900891505f805160206157a6833981519152846016602002015183096102c08501526103008401515f805160206157a6833981519152907f09226b6e22c6f0ca64ec26aad4c86e715b5f898e5e963f25870e56bbe533e9a2096103008501526102c08401515f805160206157a6833981519152906116fa90826156e8565b6102e08601510891505f805160206157a683398151915284600f602002015183096102c08501526102a08401515f805160206157a6833981519152907f18afdf23e9bd9302673fc1e076a492d4d65bd18ebc4d854ed189139bab313e5290096102a085015260808401515f805160206157a6833981519152908c8c604681811061178657611786615600565b90506020020135086102e08501526117d18b8b605e8181106117aa576117aa615600565b90506020020135856003605481106117c4576117c4615600565b6020020151866017611156565b91505f805160206157a68339815191528b8b60658181106117f4576117f4615600565b9050602002013583096103008501526102a08401516102e08501515f805160206157a683398151915291900891505f805160206157a68339815191528b8b606481811061184357611843615600565b9050602002013583096102e08501526102a08401515f805160206157a6833981519152907f09226b6e22c6f0ca64ec26aad4c86e715b5f898e5e963f25870e56bbe533e9a2096102a085015260808401515f805160206157a6833981519152908c8c60478181106118b6576118b6615600565b90506020020135086103208501526118da8b8b605f81811061153557611535615600565b91505f805160206157a6833981519152846018602002015183096103008501526102a08401516103208501515f805160206157a683398151915291900891505f805160206157a6833981519152846017602002015183096102e08501526102a08401515f805160206157a6833981519152907f09226b6e22c6f0ca64ec26aad4c86e715b5f898e5e963f25870e56bbe533e9a2096102a085015260808401515f805160206157a6833981519152908c8c604281811061199b5761199b615600565b90506020020135086103208501526119bf8b8b606081811061153557611535615600565b91505f805160206157a6833981519152846018602002015183096103008501526102a08401516103208501515f805160206157a683398151915291900891505f805160206157a6833981519152846017602002015183096102e08501526102a08401515f805160206157a6833981519152907f09226b6e22c6f0ca64ec26aad4c86e715b5f898e5e963f25870e56bbe533e9a2096102a08501526102e08401515f805160206157a683398151915290611a7890826156e8565b6103008601510891505f805160206157a683398151915284600f602002015183096102a085015260608401515f805160206157a6833981519152908c8c6068818110611ac657611ac6615600565b905060200201350891505f805160206157a6833981519152828c8c6067818110611af257611af2615600565b90506020020135096102e085015260808401515f805160206157a6833981519152908c8c606a818110611b2757611b27615600565b905060200201350891505f805160206157a6833981519152828560176020020151096102e08501525f805160206157a68339815191528b8b6052818110611b7057611b70615600565b905060200201358c8c6043818110611b8a57611b8a615600565b905060200201350961030085015260408401515f805160206157a6833981519152905f09604085018190526103008501515f805160206157a683398151915291086103008501525f805160206157a68339815191528b8b6053818110611bf257611bf2615600565b9050602002013585600260548110611c0c57611c0c615600565b6020020151086103208501525f805160206157a68339815191528b8b606a818110611c3957611c39615600565b905060200201355f805160206157a6833981519152611c5891906156e8565b8c8c6068818110611c6b57611c6b615600565b90506020020135086103408501525f805160206157a68339815191528b8b6066818110611c9a57611c9a615600565b905060200201355f805160206157a6833981519152611cb991906156e8565b60010891505f805160206157a68339815191528285600e6020020151096103608501525f805160206157a68339815191528b8b6066818110611cfd57611cfd615600565b905060200201358c8c6066818110611d1757611d17615600565b905060200201350991505f805160206157a68339815191528b8b6066818110611d4257611d42615600565b905060200201355f805160206157a6833981519152611d6191906156e8565b830891505f805160206157a68339815191528285601460200201510961038085015260608401516103008501515f805160206157a683398151915291900891505f805160206157a6833981519152828c8c6066818110611dc357611dc3615600565b905060200201350961030085015260808401516103208501515f805160206157a683398151915291900861032085018190526103008501515f805160206157a683398151915291900991505f805160206157a6833981519152611e33835f805160206157a68339815191526156e8565b6102e08601510891505f805160206157a683398151915284600f602002015183096102e08501526103408401516101c08501515f805160206157a68339815191529190096103008501525f805160206157a68339815191528b8b6069818110611e9e57611e9e615600565b905060200201355f805160206157a6833981519152611ebd91906156e8565b8c8c6068818110611ed057611ed0615600565b905060200201350891505f805160206157a68339815191528285601a60200201510991505f805160206157a683398151915284600f6020020151830961034085015260608401515f805160206157a6833981519152908c8c606d818110611f3957611f39615600565b905060200201350891505f805160206157a6833981519152828c8c606c818110611f6557611f65615600565b90506020020135096103a085015260808401515f805160206157a6833981519152908c8c606f818110611f9a57611f9a615600565b905060200201350891505f805160206157a68339815191528285601d6020020151096103a085015261200c8b8b6052818110611fd857611fd8615600565b905060200201358c8c6044818110611ff257611ff2615600565b905060200201358660026054811061115657611156615600565b6103c08501525f805160206157a68339815191528b8b606f81811061203357612033615600565b905060200201355f805160206157a683398151915261205291906156e8565b8c8c606d81811061206557612065615600565b90506020020135086103e08501525f805160206157a68339815191528b8b606b81811061209457612094615600565b905060200201355f805160206157a68339815191526120b391906156e8565b60010891505f805160206157a68339815191528285600e6020020151096104008501525f805160206157a68339815191528b8b606b8181106120f7576120f7615600565b905060200201358c8c606b81811061211157612111615600565b905060200201350991505f805160206157a68339815191528b8b606b81811061213c5761213c615600565b905060200201355f805160206157a683398151915261215b91906156e8565b830891505f805160206157a68339815191528285601460200201510961042085015260608401516103c08501515f805160206157a683398151915291900891505f805160206157a6833981519152828c8c606b8181106121bd576121bd615600565b905060200201350991505f805160206157a68339815191528460196020020151830991505f805160206157a6833981519152612206835f805160206157a68339815191526156e8565b6103a08601510891505f805160206157a683398151915284600f602002015183096103a08501526103e08401516101c08501515f805160206157a68339815191529190096103c08501525f805160206157a68339815191528b8b606e81811061227157612271615600565b905060200201355f805160206157a683398151915261229091906156e8565b8c8c606d8181106122a3576122a3615600565b905060200201350891505f805160206157a68339815191528285601f60200201510991505f805160206157a683398151915284600f602002015183096103e085015260608401515f805160206157a6833981519152908c8c607281811061230c5761230c615600565b905060200201350891505f805160206157a6833981519152828c8c607181811061233857612338615600565b905060200201350961044085015260808401515f805160206157a6833981519152908c8c607481811061236d5761236d615600565b905060200201350891505f805160206157a6833981519152828560226020020151096104408501526123c58b8b60528181106123ab576123ab615600565b905060200201358c8c6045818110611ff257611ff2615600565b6104608501525f805160206157a68339815191528b8b60748181106123ec576123ec615600565b905060200201355f805160206157a683398151915261240b91906156e8565b8c8c607281811061241e5761241e615600565b90506020020135086104808501525f805160206157a68339815191528b8b607081811061244d5761244d615600565b905060200201355f805160206157a683398151915261246c91906156e8565b60010891505f805160206157a68339815191528285600e6020020151096104a08501525f805160206157a68339815191528b8b60708181106124b0576124b0615600565b905060200201358c8c60708181106124ca576124ca615600565b905060200201350991505f805160206157a68339815191528b8b60708181106124f5576124f5615600565b905060200201355f805160206157a683398151915261251491906156e8565b830891505f805160206157a6833981519152828560146020020151096104c085015260608401516104608501515f805160206157a683398151915291900891505f805160206157a6833981519152828c8c607081811061257657612576615600565b905060200201350991505f805160206157a68339815191528460196020020151830991505f805160206157a68339815191526125bf835f805160206157a68339815191526156e8565b6104408601510891505f805160206157a683398151915284600f602002015183096104408501526104808401516101c08501515f805160206157a68339815191529190096104608501525f805160206157a68339815191528b8b607381811061262a5761262a615600565b905060200201355f805160206157a683398151915261264991906156e8565b8c8c607281811061265c5761265c615600565b905060200201350891505f805160206157a68339815191528285602460200201510991505f805160206157a683398151915284600f6020020151830961048085015260608401515f805160206157a6833981519152908c8c60778181106126c5576126c5615600565b905060200201350891505f805160206157a6833981519152828c8c60768181106126f1576126f1615600565b90506020020135096104e085015260808401515f805160206157a6833981519152908c8c607981811061272657612726615600565b905060200201350891505f805160206157a6833981519152828560276020020151096104e085015261277e8b8b605281811061276457612764615600565b905060200201358c8c6046818110611ff257611ff2615600565b6105008501525f805160206157a68339815191528b8b60798181106127a5576127a5615600565b905060200201355f805160206157a68339815191526127c491906156e8565b8c8c60778181106127d7576127d7615600565b90506020020135086105208501525f805160206157a68339815191528b8b607581811061280657612806615600565b905060200201355f805160206157a683398151915261282591906156e8565b60010891505f805160206157a68339815191528285600e6020020151096105408501525f805160206157a68339815191528b8b607581811061286957612869615600565b905060200201358c8c607581811061288357612883615600565b905060200201350991505f805160206157a68339815191528b8b60758181106128ae576128ae615600565b905060200201355f805160206157a68339815191526128cd91906156e8565b830891505f805160206157a68339815191528285601460200201510961056085015260608401516105008501515f805160206157a683398151915291900891505f805160206157a6833981519152828c8c607581811061292f5761292f615600565b905060200201350991505f805160206157a68339815191528460196020020151830991505f805160206157a6833981519152612978835f805160206157a68339815191526156e8565b6104e08601510891505f805160206157a683398151915284600f602002015183096103208501526105208401516101c08501515f805160206157a68339815191529190096104e08501525f805160206157a68339815191528b8b60788181106129e3576129e3615600565b905060200201355f805160206157a6833981519152612a0291906156e8565b8c8c6077818110612a1557612a15615600565b905060200201350891505f805160206157a68339815191528285602960200201510991505f805160206157a683398151915284600f6020020151830961050085015260608401515f805160206157a6833981519152908c8c607c818110612a7e57612a7e615600565b905060200201350891505f805160206157a6833981519152828c8c607b818110612aaa57612aaa615600565b905060200201350961052085015260808401515f805160206157a6833981519152908c8c607e818110612adf57612adf615600565b905060200201350891505f805160206157a683398151915282856029602002015109610520850152612b378b8b6054818110612b1d57612b1d615600565b905060200201358c8c6043818110611ff257611ff2615600565b6105808501525f805160206157a68339815191528b8b6055818110612b5e57612b5e615600565b9050602002013585600260548110612b7857612b78615600565b6020020151086105a08501525f805160206157a68339815191528b8b607e818110612ba557612ba5615600565b905060200201355f805160206157a6833981519152612bc491906156e8565b8c8c607c818110612bd757612bd7615600565b90506020020135086105c08501525f805160206157a68339815191528b8b607a818110612c0657612c06615600565b905060200201355f805160206157a6833981519152612c2591906156e8565b60010891505f805160206157a68339815191528285600e6020020151096105e08501525f805160206157a68339815191528b8b607a818110612c6957612c69615600565b905060200201358c8c607a818110612c8357612c83615600565b905060200201350991505f805160206157a68339815191528b8b607a818110612cae57612cae615600565b905060200201355f805160206157a6833981519152612ccd91906156e8565b830891505f805160206157a68339815191528285601460200201510961060085015260608401516105808501515f805160206157a683398151915291900891505f805160206157a6833981519152828c8c607a818110612d2f57612d2f615600565b905060200201350961058085015260808401516105a08501515f805160206157a683398151915291900891505f805160206157a68339815191528285602c60200201510991505f805160206157a6833981519152612d9a835f805160206157a68339815191526156e8565b6105208601510891505f805160206157a683398151915284600f602002015183096105208501526105c08401516101c08501515f805160206157a68339815191529190096105808501525f805160206157a68339815191528b8b607d818110612e0557612e05615600565b905060200201355f805160206157a6833981519152612e2491906156e8565b8c8c607c818110612e3757612e37615600565b905060200201350891505f805160206157a68339815191528285602e60200201510991505f805160206157a683398151915284600f602002015183096105a085015260608401515f805160206157a6833981519152908c8c6081818110612ea057612ea0615600565b905060200201350891505f805160206157a6833981519152828c8c6080818110612ecc57612ecc615600565b90506020020135096105c085015260808401515f805160206157a6833981519152908c8c6083818110612f0157612f01615600565b905060200201350891505f805160206157a68339815191528285602e6020020151096105c0850152612f3f8b8b6056818110612b1d57612b1d615600565b6106208501525f805160206157a68339815191528b8b6057818110612f6657612f66615600565b9050602002013585600260548110612f8057612f80615600565b6020020151086106408501525f805160206157a68339815191528b8b6083818110612fad57612fad615600565b905060200201355f805160206157a6833981519152612fcc91906156e8565b8c8c6081818110612fdf57612fdf615600565b90506020020135086106608501525f805160206157a68339815191528b8b607f81811061300e5761300e615600565b905060200201355f805160206157a683398151915261302d91906156e8565b60010891505f805160206157a68339815191528285600e6020020151096106808501525f805160206157a68339815191528b8b607f81811061307157613071615600565b905060200201358c8c607f81811061308b5761308b615600565b905060200201350991505f805160206157a68339815191528b8b607f8181106130b6576130b6615600565b905060200201355f805160206157a68339815191526130d591906156e8565b830891505f805160206157a6833981519152828560146020020151096106a085015260608401516106208501515f805160206157a683398151915291900891505f805160206157a6833981519152828c8c607f81811061313757613137615600565b905060200201350961062085015260808401516106408501515f805160206157a683398151915291900891505f805160206157a68339815191528285603160200201510991505f805160206157a68339815191526131a2835f805160206157a68339815191526156e8565b6105c08601510891505f805160206157a683398151915284600f602002015183096105c08501526106608401516101c08501515f805160206157a68339815191529190096106208501525f805160206157a68339815191528b8b608281811061320d5761320d615600565b905060200201355f805160206157a683398151915261322c91906156e8565b8c8c608181811061323f5761323f615600565b905060200201350891505f805160206157a68339815191528285603360200201510991505f805160206157a683398151915284600f6020020151830961064085015260608401515f805160206157a6833981519152908c8c60868181106132a8576132a8615600565b905060200201350891505f805160206157a6833981519152828c8c60858181106132d4576132d4615600565b905060200201350961066085015260808401515f805160206157a6833981519152908c8c608881811061330957613309615600565b905060200201350891505f805160206157a6833981519152828560336020020151096106608501526133478b8b6058818110612b1d57612b1d615600565b6106c08501525f805160206157a68339815191528b8b605981811061336e5761336e615600565b905060200201358560026054811061338857613388615600565b60200201510860408501525f805160206157a68339815191528b8b60888181106133b4576133b4615600565b905060200201355f805160206157a68339815191526133d391906156e8565b8c8c60868181106133e6576133e6615600565b90506020020135086106e08501525f805160206157a68339815191528b8b608481811061341557613415615600565b905060200201355f805160206157a683398151915261343491906156e8565b60010891505f805160206157a68339815191528285600e6020020151096107008501525f805160206157a68339815191528b8b608481811061347857613478615600565b905060200201358c8c608481811061349257613492615600565b905060200201350991505f805160206157a68339815191528b8b60848181106134bd576134bd615600565b905060200201355f805160206157a68339815191526134dc91906156e8565b830891505f805160206157a68339815191528285601460200201510961028085015260608401516106c08501515f805160206157a683398151915291900891505f805160206157a6833981519152828c8c608481811061353e5761353e615600565b90506020020135096060850152608084015160408501515f805160206157a683398151915291900891505f805160206157a68339815191528285600360200201510991505f805160206157a68339815191526135a7835f805160206157a68339815191526156e8565b6106608601510891505f805160206157a683398151915284600f6020020151830960408501526106e08401516101c08501515f805160206157a683398151915291900960608501525f805160206157a68339815191528b8b608781811061361057613610615600565b905060200201355f805160206157a683398151915261362f91906156e8565b8c8c608681811061364257613642615600565b905060200201350891505f805160206157a68339815191528285603760200201510991505f805160206157a683398151915284600f60200201518309608085015260a0840151613695905f866010611156565b91506136ca8480600560200201517f35342d2c29302f2827192b2a24232226251f1e1d21201a18171c1b151613121185614f69565b91506136e884806005602002015168ff040302143832312e85614f69565b91506136fb8285600d6020020151614f13565b60408501526101008401515f805160206157a6833981519152908009606085018190526101008501515f805160206157a6833981519152910960808501526137838b8b608f81811061374f5761374f615600565b905060200201358c8c609081811061376957613769615600565b905060200201358660046054811061051157610511615600565b909250905061379c848c8c65ffff088b038d8686614fe9565b90925090506137df82828d8d60898181106137b9576137b9615600565b905060200201358e8e608a8181106137d3576137d3615600565b905060200201356150ee565b6101e08601526101c085015261016084015160808501515f805160206157a683398151915291900960a085015260e084015160808501515f805160206157a6833981519152919009610160850181905260e08501515f805160206157a683398151915291096101a0850181905260e08501515f805160206157a68339815191529109610200850181905260e08501515f805160206157a68339815191529109610220850181905260e08501515f805160206157a68339815191529109610240850181905260e08501515f805160206157a683398151915291096102608501525f805160206157a68339815191528b8b60878181106138df576138df615600565b90506020020135856013605481106138f9576138f9615600565b602002015109915061391a848c8c6bffff0b6e0d731078117d128286615157565b91506139578b8b606981811061393257613932615600565b905060200201358560046054811061394c5761394c615600565b602002015184614f3f565b61028085015261014084015160608501515f805160206157a68339815191529190096101408501526139bc8b8b606381811061399557613995615600565b90506020020135856003605481106139af576139af615600565b6020020151866014611156565b6102808501526101208401516101008501515f805160206157a683398151915291900961012085015260e08401516101008501515f805160206157a68339815191529190096102a08501525f91505b6008821015613ab1575f805160206157a683398151915284613a2d845f61569a565b613a3890600761565a565b60548110613a4857613a48615600565b602002015185613a5985600161569a565b613a6490601561565a565b60548110613a7457613a74615600565b60200201510984613a8684600161569a565b613a9190601661565a565b60548110613aa157613aa1615600565b6020020152600190910190613a0b565b5f805160206157a68339815191528b8b6085818110613ad257613ad2615600565b9050602002013585601d60548110613aec57613aec615600565b6020020151099150613b15848c8c73ffff0848156216651767186c19711a761b7b1c8086615157565b91505f805160206157a6833981519152828560146020020151086102808501526102a084015160608501515f805160206157a6833981519152919008606085015260e08401515f805160206157a68339815191529080096102a0850181905260e08501515f805160206157a683398151915291096103c08501525f91505b6032821015613c39575f805160206157a683398151915284613bb5845f61569a565b613bc090600761565a565b60548110613bd057613bd0615600565b602002015185613be185600161569a565b613bec90601e61565a565b60548110613bfc57613bfc615600565b60200201510984613c0e84600161569a565b613c1990601f61565a565b60548110613c2957613c29615600565b6020020152600190910190613b93565b5f805160206157a68339815191528b8b605a818110613c5a57613c5a615600565b9050602002013585605060548110613c7457613c74615600565b602002015109610a208501526101808401516109e08501515f805160206157a6833981519152919009610a4085018190526101808501515f805160206157a68339815191529109610a6085018190526101808501515f805160206157a683398151915291096101808501526109e08401516040850151613cf79190866051611156565b9150613d26848c8c7f3f50405141524253435444554556465747584859495b4a5c4b5d4c5e4d5f4e6086615157565b9150613d55848c8c7f2f7a307c317e327f338134833584368637883849394a3a4b3b4c3c4d3d4e3e4f86615157565b9150613d84848c8c7f1f4620472161226423662468256a266b276d286f29702a722b742c752d772e7986615157565b9150613d9b848c8c67ffff074315441e4586615157565b91505f805160206157a68339815191528b8b6042818110613dbe57613dbe615600565b90506020020135830891505f805160206157a68339815191528285601460200201510860408501526106c08401516102608501515f805160206157a68339815191529190086102608501526106a08401516103a08501515f805160206157a68339815191529190086102808501526106608401516102408501515f805160206157a68339815191529190086102408501526106408401516103808501515f805160206157a68339815191529190086103808501526106008401516102208501515f805160206157a68339815191529190086102208501526105e08401516103608501515f805160206157a68339815191529190086103608501526105a08401516102008501515f805160206157a68339815191529190086102008501526105808401516103408501515f805160206157a68339815191529190086103408501526105408401516101a08501515f805160206157a68339815191529190086101a08501526105208401516103208501515f805160206157a68339815191529190086103208501526104e08401516101608501515f805160206157a68339815191529190086101608501526104c08401516103008501515f805160206157a683398151915291900861030085015261048084015160808501515f805160206157a683398151915291900860808501526104608401516102e08501515f805160206157a68339815191529190086102e08501526104408401516102c08501515f805160206157a68339815191529190086102c085015261042084015160608501515f805160206157a683398151915291900860608501526104008401516101008501515f805160206157a683398151915291900861010085015261407f8b8b608f81811061404b5761404b615600565b905060200201358c8c609081811061406557614065615600565b905060200201358660056054811061051157610511615600565b90925090506140b2848c8c7f182c192e1a301b321c341436098b03260a8d040a0b0e0d121016111a121e13228686614fe9565b90925090506140d9848c8c73ffff4f3a523c533e0c405038068908081628172a8686614fe9565b909250905061412b7f1b35b6ef23b4ac7d605742266a144a8476754a9fc2a069a27db18ba6fb3730e07f0ee60aa2ea9d4e7e94774a98a931ca332affc8dd1e6fd89ab9b29d721ce0a34e86604e610569565b909250905061417d7f07e5d14056654ad3c9650507f0670ce59f121b4577bc5b7a07a5579e3a003c267f255546d18bb64bba982efb65e4bb943b5264ba6597f9504360594f160c69944d86604d610569565b90925090506141cf7f19cbaf64117e332eca14ba3e40c89eb0a7c6f6fa289de218932519dec575e6267f09c8195e6632f6254d52f12e7e51edddf0a930d6f27b301441615f27d496ccad86604c610569565b90925090506142217f18d9f37df43e24f1bde08d078e93239bbff83d6a5d61a8db0e16e7fa6b8a59387f267e0b943c043274c8a375ad63340c8d0fb084dd8bb938ffad21a8d6193b50c886604b610569565b90925090506142737f171022d992fae2a065c31e0e7a52020d5b36cf720460a0f54607ef3f4a1b43237f03cf25646aa66601f3165f2b40bcfd14d9f21b20fa634ad3cb88379dd430a14d86604a610569565b90925090506142c57f20dc89d4e81d40956a81590a88ad393e9a65814ae5678c32f566a40047ee15487f14457b18319ba187eb6781fd05301f4d161095345803b81a437907b43fea9bdd866049610569565b90925090506143177f0bfcd70831b80abbfc3ee57ab35d25ccc816cc79770fd199c5d159f211f0b7dc7f208c5fa608df5e40aef7f9ccd81413484d9fab5817770595e6e233c43ae4d376866048610569565b90925090506143687f24e564d02d6e5d05b9f65f6546236f808010c2da6f8d84dd170a40427dcd85797efbeabb40820098f9421146237468f9ee4db33b2e1f804a27929f1ed2fa0500866047610569565b90925090506143ba7f28cb036de4d9c7911efcbb202590407b21d77ee5472e8df71e052dc116c6d50b7f09c57548e61f154a6e1a9a4c7b5d1d2bb7f1154770c69dbc12fcf60cb3ad3866866046610569565b909250905061440c7f0122694a68abd948181022a68e739574202c1aa2d6d55492f8bd84831f2d7f5c7f2bcc96a1becd05eb2c79da0f4f6ec3bfce834d5b989f5be1b3a42ef3e3fb871c866045610569565b909250905061445e7f0bfcd70831b80abbfc3ee57ab35d25ccc816cc79770fd199c5d159f211f0b7dc7f208c5fa608df5e40aef7f9ccd81413484d9fab5817770595e6e233c43ae4d376866044610569565b90925090506144b07f2691e7a83bcd6ad5eb8f2af894b38b37bc83007ac7f674e158a7a3ade53704397f279e79413f2cf4c3bc8e2c9ecc2cb09c162583c311d37d69fb7feb5739180843866043610569565b90925090506145027f2f9d9a1085e64adfdd3214634a236ccc7d0b375ce83c2419c9a099e8368309d57f04ce0eee98e87a6e2311cee81cd7330e801d66302a36e75288839cbec6c6d7ef866042610569565b90925090506145547f1d94bf4db9242fae82ef58df74e8d5e1800f99646e4ebf3d6f41cf9c25d828157f2efb055c10e4be6b82517e3a305108c36e0a19ada5a435a81a0b8f316d39590a866041610569565b90925090506145a67f2182f361eb7831a2fee9301954d802f0d7d9c24b56b000fe3baeac357aa994857f13d0b3de75b4d3ae9cc6962b6bdc15868895c81ba3cdcee71dc3f942d6c9122b866040610569565b90925090506145f77e9fe3c9705c73604894716b9c90bc042ad691ddba728fdf4f4f710ea35be8ce7f031b80527830fa97758c2e4a1cfce807fe27a23aecd58825de9772c841c588f086603f610569565b90925090506146497f199add066c71035794b6619048c0cddab3affff243857be8ea23a80b9866844c7f05d4abab8407bbadd785866aa0935b3d0fa071c69a5b5daaee2679f0fa9983d186603e610569565b909250905061469b7f0e10180e2f4f8fdb04684cef320805b344616765b8d7f763e07e805d4c8a3f4e7f161cda07ffdf4f460c125dcd4249744b9bc08567ab48c33a84f72314ceb21c6e86603d610569565b90925090506146ed7f3027c0c4c95b55f711ae1706d79c4d977149a2e444fcbaf169e2f2858eb05aaa7f27d2699eadde894557f20ddd264094911a53cd51e0e4a6bde23f36c0219ab86f86603c610569565b909250905061473f7f1bbf1483a65d274808e58e4fadf6c23136c1b173c1871de0c7c3f16b4fae06a97f1b74a8d8a6ab3a4813ca0ce17403f031b7e4fb770f16ae7b5eb128ce444c831c86603b610569565b90925090506147917f15b64e6cbd94c318a6d895415b02a2e820132fb9e126c17d6fca783f51ea86b37f05faef3259fc0481bae742ea874fec84f68087843e00ca844983830b1a09288686603a610569565b90925090506147e37f08b04bec0bbf0b383b58ec94b62780009de9aaee304743712d04ebc9474387267f2b98eabb0358df161585d12051638a8d4162d9e0ce1b942c6c251007edb37c1f866039610569565b90925090506148357f0ffa0693b7974777601dd568ea4d2813a4b5ed83adc8ef92b6a5023226e548307f1705549dab12fcd8977055facf3ff5d4a23a12f267997f54c72df9a7ecadf0dc866038610569565b9092509050614860848c8c77ffff070015021e041f06250c28102b142e18311c342037248686614fe9565b8551602087015192945090925061487a91849184916150ee565b6020860152845261488f600160028681610511565b855160208701519294509092506148a79184846151f6565b602086018190528186526101c08601516101e090960151959d959c50909a509850929650505050505050565b6148db615458565b80517f2c358c680be102b15427cd4f58158ea3267a938ac04e1de564fd577bb7258960905280517f097aa085249a574ff7d1aaa2b498623f2923d159833cfde765a657aff8e0b527602091820152810180517f0f77730977b52fe9c4d6cee4c281a3ace737795a9788d0ac3d9f3a9692708c759052517f1899775af20ee6b6b62d0b1c9dd6ad2e954af70764a84584c7cec5e522339fd99060015b602002015290565b614986615458565b80517f198e9393920d483a7260bfb731fb5d25f1aa493335a9e71297e485b7aef312c2905280517f1800deef121f1e76426a00665e5c4479674322d4f75edadd46debd5cd992f6ed602091820152810180517f275dc4a288d1afb3cbb1ac09187524c7db36395df7be3b99e673b13a075a65ec9052517f1d9befcd05a5323e6da4d435f3b617cdb3af83285c2df711ef39c01571827f9d906001614976565b5f8083516006614a35919061569a565b90505f8167ffffffffffffffff811115614a5157614a5161566d565b604051908082528060200260200182016040528015614a7a578160200160208202803683370190505b509050614a856154bb565b5f8551875114614a93575f80fd5b5f5b8751811015614cbe57878181518110614ab057614ab0615600565b60200260200101515f015184826006614ac9919061569a565b614ad3905f61565a565b81518110614ae357614ae3615600565b602002602001018181525050878181518110614b0157614b01615600565b60200260200101516020015184826006614b1b919061569a565b614b2690600161565a565b81518110614b3657614b36615600565b602002602001018181525050868181518110614b5457614b54615600565b6020908102919091010151515184614b6d83600661569a565b614b7890600261565a565b81518110614b8857614b88615600565b602002602001018181525050868181518110614ba657614ba6615600565b60209081029190910181015151015184614bc183600661569a565b614bcc90600361565a565b81518110614bdc57614bdc615600565b602002602001018181525050868181518110614bfa57614bfa615600565b6020026020010151602001515f60028110614c1757614c17615600565b602002015184614c2883600661569a565b614c3390600461565a565b81518110614c4357614c43615600565b602002602001018181525050868181518110614c6157614c61615600565b602002602001015160200151600160028110614c7f57614c7f615600565b602002015184614c9083600661569a565b614c9b90600561565a565b81518110614cab57614cab615600565b6020908102919091010152600101614a95565b50602082602086026020860160085afa905080614cd9575f80fd5b50511515925050505b92915050565b5f80614cf26154d9565b5f614d0e60405180604001604052805f81526020015f81525090565b8783526020830187905260408084018790528160608560075afa915081614d33575f80fd5b8051602090910151909890975095505050505050565b5f80614d536154f7565b87815260208101879052604081018690526060810185905260808101849052614d7b8161523a565b6060810151608090910151909890975095505050505050565b60028282614da1816156b1565b935060908110614db357614db3615600565b6020020152828282614dc4816156b1565b935060908110614dd657614dd6615600565b6020020152505050565b60018282614ded816156b1565b935060908110614dff57614dff615600565b6020020152838282614e10816156b1565b935060908110614e2257614e22615600565b6020020152828282614e33816156b1565b935060908110614e4557614e45615600565b602002015250505050565b5f80838363ffffffff1660908110614e6a57614e6a615600565b6020020181815250505f614e9b84846020614e8591906156fb565b614e90906001615723565b63ffffffff16615272565b519050614ea7816152a7565b93525090919050565b5f614eb961543a565b614ec16154bb565b60208083528281018190526040830181905260608301869052608083018590525f805160206157a683398151915260a08401525f908260c08560055afa905080614f09575f80fd5b5051949350505050565b5f815f03614f1f575f80fd5b5f805160206157a6833981519152614f3683615418565b84099392505050565b5f5f805160206157a6833981519152825f805160206157a683398151915285870908949350505050565b5f805b6020811015614fdf5760ff808516908114614fc65760089490941c935f805160206157a6833981519152878260548110614fa857614fa8615600565b60200201515f805160206157a6833981519152868909089350614fcc565b50614fdf565b50614fd860018261565a565b9050614f6c565b5090949350505050565b5f80614ff36154f7565b60608101859052608081018490525f5b60208110156150d35760ff8088169081146150ba57601088901c9760081c60ff168a8a8381811061503657615036615600565b90506020020135845f6005811061504f5761504f615600565b60200201528a8a61506184600161565a565b81811061507057615070615600565b905060200201358460016005811061508a5761508a615600565b60200201528b81605481106150a1576150a1615600565b602002015160408501526150b48461523a565b506150c0565b506150d3565b506150cc60028261565a565b9050615003565b50606081015160809091015190999098509650505050505050565b5f805f61510c60405180604001604052805f81526020015f81525090565b615114615515565b888152602081018890526040808201889052606082018790528260808360065afa925082615140575f80fd5b508051602090910151909890975095505050505050565b5f805b60208110156151eb5760ff8085169081146151d257601085901c9460081c60ff165f805160206157a6833981519152855f805160206157a68339815191528b84605481106151aa576151aa615600565b60200201518b8b878181106151c1576151c1615600565b9050602002013509089450506151d8565b506151eb565b506151e460028261565a565b905061515a565b509095945050505050565b5f8061522d868686615228877f30644e72e131a029b85045b68181585d97816a916871ca8d3c208c16d87cfd476156e8565b6150ee565b9150915094509492505050565b5f60406020830160608460075afa905080615253575f80fd5b60406060830160806020850160065afa90508061526e575f80fd5b5050565b61527a6154bb565b5f602082848660026107d05a03fa9050808061529257fe5b50806152a0576152a0615740565b5092915050565b5f816153f8815f8190506008817eff00ff00ff00ff00ff00ff00ff00ff00ff00ff00ff00ff00ff00ff00ff00ff16901b6008827fff00ff00ff00ff00ff00ff00ff00ff00ff00ff00ff00ff00ff00ff00ff00ff0016901c1790506010817dffff0000ffff0000ffff0000ffff0000ffff0000ffff0000ffff0000ffff16901b6010827fffff0000ffff0000ffff0000ffff0000ffff0000ffff0000ffff0000ffff000016901c1790506020817bffffffff00000000ffffffff00000000ffffffff00000000ffffffff16901b6020827fffffffff00000000ffffffff00000000ffffffff00000000ffffffff0000000016901c17905060408177ffffffffffffffff0000000000000000ffffffffffffffff16901b6040827fffffffffffffffff0000000000000000ffffffffffffffff000000000000000016901c179050608081901b608082901c179050919050565b90506154115f805160206157a68339815191528261576d565b9392505050565b5f614ce28261543560025f805160206157a68339815191526156e8565b614eb0565b6040518060c001604052806006906020820280368337509192915050565b604051806040016040528061546b615533565b8152602001615478615533565b905290565b60405180610a8001604052806054906020820280368337509192915050565b6040518061120001604052806090906020820280368337509192915050565b60405180602001604052806001906020820280368337509192915050565b60405180606001604052806003906020820280368337509192915050565b6040518060a001604052806005906020820280368337509192915050565b60405180608001604052806004906020820280368337509192915050565b60405180604001604052806002906020820280368337509192915050565b5f8083601f840112615561575f80fd5b50813567ffffffffffffffff811115615578575f80fd5b6020830191508360208260051b8501011115615592575f80fd5b9250929050565b5f805f80604085870312156155ac575f80fd5b843567ffffffffffffffff808211156155c3575f80fd5b6155cf88838901615551565b909650945060208701359150808211156155e7575f80fd5b506155f487828801615551565b95989497509550505050565b7f4e487b71000000000000000000000000000000000000000000000000000000005f52603260045260245ffd5b7f4e487b71000000000000000000000000000000000000000000000000000000005f52601160045260245ffd5b80820180821115614ce257614ce261562d565b7f4e487b71000000000000000000000000000000000000000000000000000000005f52604160045260245ffd5b8082028115828204841417614ce257614ce261562d565b5f7fffffffffffffffffffffffffffffffffffffffffffffffffffffffffffffffff82036156e1576156e161562d565b5060010190565b81810381811115614ce257614ce261562d565b63ffffffff81811683821602808216919082811461571b5761571b61562d565b505092915050565b63ffffffff8181168382160190808211156152a0576152a061562d565b7f4e487b71000000000000000000000000000000000000000000000000000000005f52600160045260245ffd5b5f826157a0577f4e487b71000000000000000000000000000000000000000000000000000000005f52601260045260245ffd5b50069056fe30644e72e131a029b85045b68181585d2833e84879b9709143e1f593f0000001a164736f6c6343000818000a",
  "linkReferences": {},
  "deployedLinkReferences": {}
}