{
  "_format": "hh-sol-artifact-1",
  "contractName": "L2ToL1MessagePasser",
  "sourceName": "contracts/l2/system/L2ToL1MessagePasser.sol",
  "abi": [
    {
      "inputs": [],
      "stateMutability": "nonpayable",
      "type": "constructor"
    },
    {
      "inputs": [],
      "name": "MerkleTreeFull",
      "type": "error"
    },
    {
      "anonymous": false,
      "inputs": [
        {
          "indexed": true,
          "internalType": "uint256",
          "name": "index",
          "type": "uint256"
        },
        {
          "indexed": true,
          "internalType": "bytes32",
          "name": "messageHash",
          "type": "bytes32"
        },
        {
          "indexed": true,
          "internalType": "bytes32",
          "name": "rootHash",
          "type": "bytes32"
        }
      ],
      "name": "AppendMessage",
      "type": "event"
    },
    {
      "inputs": [
        {
          "internalType": "bytes32",
          "name": "_messageHash",
          "type": "bytes32"
        }
      ],
      "name": "appendMessage",
      "outputs": [
        {
          "internalType": "bytes32",
          "name": "",
          "type": "bytes32"
        }
      ],
      "stateMutability": "nonpayable",
      "type": "function"
    },
    {
      "inputs": [],
      "name": "getTreeRoot",
      "outputs": [
        {
          "internalType": "bytes32",
          "name": "",
          "type": "bytes32"
        }
      ],
      "stateMutability": "view",
      "type": "function"
    },
    {
      "inputs": [],
      "name": "leafNodesCount",
      "outputs": [
        {
          "internalType": "uint256",
          "name": "",
          "type": "uint256"
        }
      ],
      "stateMutability": "view",
      "type": "function"
    },
    {
      "inputs": [],
      "name": "messageRoot",
      "outputs": [
        {
          "internalType": "bytes32",
          "name": "",
          "type": "bytes32"
        }
      ],
      "stateMutability": "view",
      "type": "function"
    },
    {
      "inputs": [
        {
          "internalType": "bytes32",
          "name": "leafHash",
          "type": "bytes32"
        },
        {
          "internalType": "bytes32[32]",
          "name": "smtProof",
          "type": "bytes32[32]"
        },
        {
          "internalType": "uint256",
          "name": "index",
          "type": "uint256"
        },
        {
          "internalType": "bytes32",
          "name": "root",
          "type": "bytes32"
        }
      ],
      "name": "verifyMerkleProof",
      "outputs": [
        {
          "internalType": "bool",
          "name": "",
          "type": "bool"
        }
      ],
      "stateMutability": "pure",
      "type": "function"
    }
  ],
  "bytecode": "0x608060405234801561000f575f80fd5b50610018610020565b602155610106565b6020545f90819081805b60208110156100e9578083901c600116600103610086575f8160208110610053576100536100f2565b015460408051602081019290925281018590526060016040516020818303038152906040528051906020012093506100b3565b60408051602081018690529081018390526060016040516020818303038152906040528051906020012093505b604080516020810184905290810183905260600160408051601f198184030181529190528051602090910120915060010161002a565b50919392505050565b634e487b7160e01b5f52603260045260245ffd5b61075c806101135f395ff3fe608060405234801561000f575f80fd5b5060043610610064575f3560e01c806389c09d381161004d57806389c09d38146100b1578063b58343bb146100b9578063d4b9f4fa146100c2575f80fd5b8063340735f714610068578063600a2e7714610090575b5f80fd5b61007b61007636600461049d565b6100cb565b60405190151581526020015b60405180910390f35b6100a361009e366004610531565b610194565b604051908152602001610087565b6100a361026d565b6100a360205481565b6100a360215481565b5f84815b6020811015610188578085901c600116600103610135578581602081106100f8576100f8610548565b602002015182604051602001610118929190918252602082015260400190565b604051602081830303815290604052805190602001209150610180565b8186826020811061014857610148610548565b6020020151604051602001610167929190918252602082015260400190565b6040516020818303038152906040528051906020012091505b6001016100cf565b50909114949350505050565b5f3373530000000000000000000000000000000000000714610216576040517f08c379a000000000000000000000000000000000000000000000000000000000815260206004820152600e60248201527f6f6e6c79206d657373656e676572000000000000000000000000000000000000604482015260640160405180910390fd5b61021f8261035d565b61022761026d565b6021819055602054839061023d906001906105a2565b6040517f509758f52fb5e05d2e0d4379024275cbab7c27923c22777fcdb7e12a4d949963905f90a4505060215490565b6020545f90819081805b6020811015610354578083901c6001166001036102d3575f81602081106102a0576102a0610548565b01546040805160208101929092528101859052606001604051602081830303815290604052805190602001209350610300565b60408051602081018690529081018390526060016040516020818303038152906040528051906020012093505b6040805160208101849052908101839052606001604080517fffffffffffffffffffffffffffffffffffffffffffffffffffffffffffffffe081840301815291905280516020909101209150600101610277565b50919392505050565b80600161036c602060026106d9565b61037691906105a2565b602054106103b0576040517fef5ccf6600000000000000000000000000000000000000000000000000000000815260040160405180910390fd5b5f60205f81546103bf906106eb565b918290555090505f5b6020811015610462578082901c6001166001036103fa57825f82602081106103f2576103f2610548565b015550505050565b5f816020811061040c5761040c610548565b01546040805160208101929092528101849052606001604080517fffffffffffffffffffffffffffffffffffffffffffffffffffffffffffffffe0818403018152919052805160209091012092506001016103c8565b5061046b610722565b505050565b7f4e487b71000000000000000000000000000000000000000000000000000000005f52604160045260245ffd5b5f805f8061046085870312156104b1575f80fd5b84359350602086603f8701126104c5575f80fd5b604051610400810181811067ffffffffffffffff821117156104e9576104e9610470565b604052806104208801898111156104fe575f80fd5b602089015b8181101561051a5780358352918401918401610503565b509699919850509435956104400135949350505050565b5f60208284031215610541575f80fd5b5035919050565b7f4e487b71000000000000000000000000000000000000000000000000000000005f52603260045260245ffd5b7f4e487b71000000000000000000000000000000000000000000000000000000005f52601160045260245ffd5b818103818111156105b5576105b5610575565b92915050565b600181815b8085111561061457817fffffffffffffffffffffffffffffffffffffffffffffffffffffffffffffffff048211156105fa576105fa610575565b8085161561060757918102915b93841c93908002906105c0565b509250929050565b5f8261062a575060016105b5565b8161063657505f6105b5565b816001811461064c576002811461065657610672565b60019150506105b5565b60ff84111561066757610667610575565b50506001821b6105b5565b5060208310610133831016604e8410600b8410161715610695575081810a6105b5565b61069f83836105bb565b807fffffffffffffffffffffffffffffffffffffffffffffffffffffffffffffffff048211156106d1576106d1610575565b029392505050565b5f6106e4838361061c565b9392505050565b5f7fffffffffffffffffffffffffffffffffffffffffffffffffffffffffffffffff820361071b5761071b610575565b5060010190565b7f4e487b71000000000000000000000000000000000000000000000000000000005f52600160045260245ffdfea164736f6c6343000818000a",
  "linkReferences": {},
  "deployedLinkReferences": {}
}