{
  "_format": "hh-sol-artifact-1",
  "contractName": "FeeOnTransferToken",
  "sourceName": "contracts/mock/tokens/FeeOnTransferToken.sol",
  "abi": [
    {
      "inputs": [
        {
          "internalType": "string",
          "name": "_name",
          "type": "string"
        },
        {
          "internalType": "string",
          "name": "_symbol",
          "type": "string"
        },
        {
          "internalType": "uint8",
          "name": "_decimals",
          "type": "uint8"
        }
      ],
      "stateMutability": "nonpayable",
      "type": "constructor"
    },
    {
      "anonymous": false,
      "inputs": [
        {
          "indexed": true,
          "internalType": "address",
          "name": "owner",
          "type": "address"
        },
        {
          "indexed": true,
          "internalType": "address",
          "name": "spender",
          "type": "address"
        },
        {
          "indexed": false,
          "internalType": "uint256",
          "name": "amount",
          "type": "uint256"
        }
      ],
      "name": "Approval",
      "type": "event"
    },
    {
      "anonymous": false,
      "inputs": [
        {
          "indexed": true,
          "internalType": "address",
          "name": "from",
          "type": "address"
        },
        {
          "indexed": true,
          "internalType": "address",
          "name": "to",
          "type": "address"
        },
        {
          "indexed": false,
          "internalType": "uint256",
          "name": "amount",
          "type": "uint256"
        }
      ],
      "name": "Transfer",
      "type": "event"
    },
    {
      "inputs": [],
      "name": "DOMAIN_SEPARATOR",
      "outputs": [
        {
          "internalType": "bytes32",
          "name": "",
          "type": "bytes32"
        }
      ],
      "stateMutability": "view",
      "type": "function"
    },
    {
      "inputs": [
        {
          "internalType": "address",
          "name": "",
          "type": "address"
        },
        {
          "internalType": "address",
          "name": "",
          "type": "address"
        }
      ],
      "name": "allowance",
      "outputs": [
        {
          "internalType": "uint256",
          "name": "",
          "type": "uint256"
        }
      ],
      "stateMutability": "view",
      "type": "function"
    },
    {
      "inputs": [
        {
          "internalType": "address",
          "name": "spender",
          "type": "address"
        },
        {
          "internalType": "uint256",
          "name": "amount",
          "type": "uint256"
        }
      ],
      "name": "approve",
      "outputs": [
        {
          "internalType": "bool",
          "name": "",
          "type": "bool"
        }
      ],
      "stateMutability": "nonpayable",
      "type": "function"
    },
    {
      "inputs": [
        {
          "internalType": "address",
          "name": "",
          "type": "address"
        }
      ],
      "name": "balanceOf",
      "outputs": [
        {
          "internalType": "uint256",
          "name": "",
          "type": "uint256"
        }
      ],
      "stateMutability": "view",
      "type": "function"
    },
    {
      "inputs": [
        {
          "internalType": "address",
          "name": "from",
          "type": "address"
        },
        {
          "internalType": "uint256",
          "name": "value",
          "type": "uint256"
        }
      ],
      "name": "burn",
      "outputs": [],
      "stateMutability": "nonpayable",
      "type": "function"
    },
    {
      "inputs": [],
      "name": "decimals",
      "outputs": [
        {
          "internalType": "uint8",
          "name": "",
          "type": "uint8"
        }
      ],
      "stateMutability": "view",
      "type": "function"
    },
    {
      "inputs": [
        {
          "internalType": "address",
          "name": "to",
          "type": "address"
        },
        {
          "internalType": "uint256",
          "name": "value",
          "type": "uint256"
        }
      ],
      "name": "mint",
      "outputs": [],
      "stateMutability": "nonpayable",
      "type": "function"
    },
    {
      "inputs": [],
      "name": "name",
      "outputs": [
        {
          "internalType": "string",
          "name": "",
          "type": "string"
        }
      ],
      "stateMutability": "view",
      "type": "function"
    },
    {
      "inputs": [
        {
          "internalType": "address",
          "name": "",
          "type": "address"
        }
      ],
      "name": "nonces",
      "outputs": [
        {
          "internalType": "uint256",
          "name": "",
          "type": "uint256"
        }
      ],
      "stateMutability": "view",
      "type": "function"
    },
    {
      "inputs": [
        {
          "internalType": "address",
          "name": "owner",
          "type": "address"
        },
        {
          "internalType": "address",
          "name": "spender",
          "type": "address"
        },
        {
          "internalType": "uint256",
          "name": "value",
          "type": "uint256"
        },
        {
          "internalType": "uint256",
          "name": "deadline",
          "type": "uint256"
        },
        {
          "internalType": "uint8",
          "name": "v",
          "type": "uint8"
        },
        {
          "internalType": "bytes32",
          "name": "r",
          "type": "bytes32"
        },
        {
          "internalType": "bytes32",
          "name": "s",
          "type": "bytes32"
        }
      ],
      "name": "permit",
      "outputs": [],
      "stateMutability": "nonpayable",
      "type": "function"
    },
    {
      "inputs": [
        {
          "internalType": "uint256",
          "name": "_feeRate",
          "type": "uint256"
        }
      ],
      "name": "setFeeRate",
      "outputs": [],
      "stateMutability": "payable",
      "type": "function"
    },
    {
      "inputs": [],
      "name": "symbol",
      "outputs": [
        {
          "internalType": "string",
          "name": "",
          "type": "string"
        }
      ],
      "stateMutability": "view",
      "type": "function"
    },
    {
      "inputs": [],
      "name": "totalSupply",
      "outputs": [
        {
          "internalType": "uint256",
          "name": "",
          "type": "uint256"
        }
      ],
      "stateMutability": "view",
      "type": "function"
    },
    {
      "inputs": [
        {
          "internalType": "address",
          "name": "to",
          "type": "address"
        },
        {
          "internalType": "uint256",
          "name": "amount",
          "type": "uint256"
        }
      ],
      "name": "transfer",
      "outputs": [
        {
          "internalType": "bool",
          "name": "",
          "type": "bool"
        }
      ],
      "stateMutability": "nonpayable",
      "type": "function"
    },
    {
      "inputs": [
        {
          "internalType": "address",
          "name": "from",
          "type": "address"
        },
        {
          "internalType": "address",
          "name": "to",
          "type": "address"
        },
        {
          "internalType": "uint256",
          "name": "amount",
          "type": "uint256"
        }
      ],
      "name": "transferFrom",
      "outputs": [
        {
          "internalType": "bool",
          "name": "",
          "type": "bool"
        }
      ],
      "stateMutability": "nonpayable",
      "type": "function"
    }
  ],
  "bytecode": "0x60e060405234801562000010575f80fd5b506040516200136c3803806200136c8339810160408190526200003391620001d9565b8282828282825f620000468482620002e2565b506001620000558382620002e2565b5060ff81166080524660a0526200006b6200007e565b60c0525062000428975050505050505050565b5f7f8b73c3c69bb8fe3d512ecc4cf759cc79239f7b179b0ffacaa9a75d522b39400f5f604051620000b09190620003ae565b6040805191829003822060208301939093528101919091527fc89efdaa54c0f20c7adf612882df0950f5a951637e0307cdcb4c672f298b8bc660608201524660808201523060a082015260c00160405160208183030381529060405280519060200120905090565b634e487b7160e01b5f52604160045260245ffd5b5f82601f8301126200013c575f80fd5b81516001600160401b038082111562000159576200015962000118565b604051601f8301601f19908116603f0116810190828211818310171562000184576200018462000118565b8160405283815260209250866020858801011115620001a1575f80fd5b5f91505b83821015620001c45785820183015181830184015290820190620001a5565b5f602085830101528094505050505092915050565b5f805f60608486031215620001ec575f80fd5b83516001600160401b038082111562000203575f80fd5b62000211878388016200012c565b9450602086015191508082111562000227575f80fd5b5062000236868287016200012c565b925050604084015160ff811681146200024d575f80fd5b809150509250925092565b600181811c908216806200026d57607f821691505b6020821081036200028c57634e487b7160e01b5f52602260045260245ffd5b50919050565b601f821115620002dd57805f5260205f20601f840160051c81016020851015620002b95750805b601f840160051c820191505b81811015620002da575f8155600101620002c5565b50505b505050565b81516001600160401b03811115620002fe57620002fe62000118565b62000316816200030f845462000258565b8462000292565b602080601f8311600181146200034c575f8415620003345750858301515b5f19600386901b1c1916600185901b178555620003a6565b5f85815260208120601f198616915b828110156200037c578886015182559484019460019091019084016200035b565b50858210156200039a57878501515f19600388901b60f8161c191681555b505060018460011b0185555b505050505050565b5f808354620003bd8162000258565b60018281168015620003d85760018114620003ee576200041c565b60ff19841687528215158302870194506200041c565b875f526020805f205f5b85811015620004135781548a820152908401908201620003f8565b50505082870194505b50929695505050505050565b60805160a05160c051610f19620004535f395f6105b801525f61058301525f6101940152610f195ff3fe6080604052600436106100e4575f3560e01c806345596e2e116100875780639dc29fac116100575780639dc29fac1461027a578063a9059cbb14610299578063d505accf146102b8578063dd62ed3e146102d7575f80fd5b806345596e2e146101fd57806370a08231146102105780637ecebe001461023b57806395d89b4114610266575f80fd5b806323b872dd116100c257806323b872dd14610164578063313ce567146101835780633644e515146101c857806340c10f19146101dc575f80fd5b806306fdde03146100e8578063095ea7b31461011257806318160ddd14610141575b5f80fd5b3480156100f3575f80fd5b506100fc61030d565b6040516101099190610b7c565b60405180910390f35b34801561011d575f80fd5b5061013161012c366004610c0e565b610398565b6040519015158152602001610109565b34801561014c575f80fd5b5061015660025481565b604051908152602001610109565b34801561016f575f80fd5b5061013161017e366004610c36565b610411565b34801561018e575f80fd5b506101b67f000000000000000000000000000000000000000000000000000000000000000081565b60405160ff9091168152602001610109565b3480156101d3575f80fd5b50610156610580565b3480156101e7575f80fd5b506101fb6101f6366004610c0e565b6105da565b005b6101fb61020b366004610c6f565b600655565b34801561021b575f80fd5b5061015661022a366004610c86565b60036020525f908152604090205481565b348015610246575f80fd5b50610156610255366004610c86565b60056020525f908152604090205481565b348015610271575f80fd5b506100fc6105e8565b348015610285575f80fd5b506101fb610294366004610c0e565b6105f5565b3480156102a4575f80fd5b506101316102b3366004610c0e565b6105ff565b3480156102c3575f80fd5b506101fb6102d2366004610ca6565b6106c3565b3480156102e2575f80fd5b506101566102f1366004610d13565b600460209081525f928352604080842090915290825290205481565b5f805461031990610d44565b80601f016020809104026020016040519081016040528092919081815260200182805461034590610d44565b80156103905780601f1061036757610100808354040283529160200191610390565b820191905f5260205f20905b81548152906001019060200180831161037357829003601f168201915b505050505081565b335f81815260046020908152604080832073ffffffffffffffffffffffffffffffffffffffff8716808552925280832085905551919290917f8c5be1e5ebec7d5bd14f71427d1e84f3dd0314c0f7b2291e5b200ac8c7c3b925906103ff9086815260200190565b60405180910390a35060015b92915050565b73ffffffffffffffffffffffffffffffffffffffff83165f9081526004602090815260408083203384529091528120547fffffffffffffffffffffffffffffffffffffffffffffffffffffffffffffffff81146104a3576104728382610dc2565b73ffffffffffffffffffffffffffffffffffffffff86165f9081526004602090815260408083203384529091529020555b73ffffffffffffffffffffffffffffffffffffffff85165f90815260036020526040812080548592906104d7908490610dc2565b90915550506006545f90633b9aca00906104f19086610dd5565b6104fb9190610dec565b90506105078185610dc2565b73ffffffffffffffffffffffffffffffffffffffff8087165f81815260036020526040908190208054850190555192965091908816907fddf252ad1be2c89b69c2b068fc378daa952ba7f163c4a11628f55a4df523b3ef9061056c9088815260200190565b60405180910390a350600195945050505050565b5f7f000000000000000000000000000000000000000000000000000000000000000046146105b5576105b06109e1565b905090565b507f000000000000000000000000000000000000000000000000000000000000000090565b6105e48282610a79565b5050565b6001805461031990610d44565b6105e48282610af0565b335f9081526003602052604081208054839190839061061f908490610dc2565b90915550506006545f90633b9aca00906106399085610dd5565b6106439190610dec565b905061064f8184610dc2565b73ffffffffffffffffffffffffffffffffffffffff85165f8181526003602052604090819020805484019055519194509033907fddf252ad1be2c89b69c2b068fc378daa952ba7f163c4a11628f55a4df523b3ef906106b19087815260200190565b60405180910390a35060019392505050565b42841015610732576040517f08c379a000000000000000000000000000000000000000000000000000000000815260206004820152601760248201527f5045524d49545f444541444c494e455f4558504952454400000000000000000060448201526064015b60405180910390fd5b5f600161073d610580565b73ffffffffffffffffffffffffffffffffffffffff8a81165f8181526005602090815260409182902080546001810190915582517f6e71edae12b1b97f4d1f60370fef10105fa2faae0126114a169c64845d6126c98184015280840194909452938d166060840152608083018c905260a083019390935260c08083018b90528151808403909101815260e0830190915280519201919091207f190100000000000000000000000000000000000000000000000000000000000061010083015261010282019290925261012281019190915261014201604080517fffffffffffffffffffffffffffffffffffffffffffffffffffffffffffffffe081840301815282825280516020918201205f84529083018083525260ff871690820152606081018590526080810184905260a0016020604051602081039080840390855afa15801561088b573d5f803e3d5ffd5b50506040517fffffffffffffffffffffffffffffffffffffffffffffffffffffffffffffffe0015191505073ffffffffffffffffffffffffffffffffffffffff81161580159061090657508773ffffffffffffffffffffffffffffffffffffffff168173ffffffffffffffffffffffffffffffffffffffff16145b61096c576040517f08c379a000000000000000000000000000000000000000000000000000000000815260206004820152600e60248201527f494e56414c49445f5349474e45520000000000000000000000000000000000006044820152606401610729565b73ffffffffffffffffffffffffffffffffffffffff9081165f9081526004602090815260408083208a8516808552908352928190208990555188815291928a16917f8c5be1e5ebec7d5bd14f71427d1e84f3dd0314c0f7b2291e5b200ac8c7c3b925910160405180910390a350505050505050565b5f7f8b73c3c69bb8fe3d512ecc4cf759cc79239f7b179b0ffacaa9a75d522b39400f5f604051610a119190610e24565b6040805191829003822060208301939093528101919091527fc89efdaa54c0f20c7adf612882df0950f5a951637e0307cdcb4c672f298b8bc660608201524660808201523060a082015260c00160405160208183030381529060405280519060200120905090565b8060025f828254610a8a9190610ef9565b909155505073ffffffffffffffffffffffffffffffffffffffff82165f818152600360209081526040808320805486019055518481527fddf252ad1be2c89b69c2b068fc378daa952ba7f163c4a11628f55a4df523b3ef91015b60405180910390a35050565b73ffffffffffffffffffffffffffffffffffffffff82165f9081526003602052604081208054839290610b24908490610dc2565b90915550506002805482900390556040518181525f9073ffffffffffffffffffffffffffffffffffffffff8416907fddf252ad1be2c89b69c2b068fc378daa952ba7f163c4a11628f55a4df523b3ef90602001610ae4565b5f602080835283518060208501525f5b81811015610ba857858101830151858201604001528201610b8c565b505f6040828601015260407fffffffffffffffffffffffffffffffffffffffffffffffffffffffffffffffe0601f8301168501019250505092915050565b803573ffffffffffffffffffffffffffffffffffffffff81168114610c09575f80fd5b919050565b5f8060408385031215610c1f575f80fd5b610c2883610be6565b946020939093013593505050565b5f805f60608486031215610c48575f80fd5b610c5184610be6565b9250610c5f60208501610be6565b9150604084013590509250925092565b5f60208284031215610c7f575f80fd5b5035919050565b5f60208284031215610c96575f80fd5b610c9f82610be6565b9392505050565b5f805f805f805f60e0888a031215610cbc575f80fd5b610cc588610be6565b9650610cd360208901610be6565b95506040880135945060608801359350608088013560ff81168114610cf6575f80fd5b9699959850939692959460a0840135945060c09093013592915050565b5f8060408385031215610d24575f80fd5b610d2d83610be6565b9150610d3b60208401610be6565b90509250929050565b600181811c90821680610d5857607f821691505b602082108103610d8f577f4e487b71000000000000000000000000000000000000000000000000000000005f52602260045260245ffd5b50919050565b7f4e487b71000000000000000000000000000000000000000000000000000000005f52601160045260245ffd5b8181038181111561040b5761040b610d95565b808202811582820484141761040b5761040b610d95565b5f82610e1f577f4e487b71000000000000000000000000000000000000000000000000000000005f52601260045260245ffd5b500490565b5f8083545f60018260011c91506001831680610e4157607f831692505b60208084108203610e79577f4e487b71000000000000000000000000000000000000000000000000000000005f52602260045260245ffd5b818015610e8d5760018114610ec057610eeb565b7fffffffffffffffffffffffffffffffffffffffffffffffffffffffffffffff0086168952841515850289019650610eeb565b5f8a8152602090205f5b86811015610ee35781548b820152908501908301610eca565b505084890196505b509498975050505050505050565b8082018082111561040b5761040b610d9556fea164736f6c6343000818000a",
  "linkReferences": {},
  "deployedLinkReferences": {}
}