{
  "_format": "hh-sol-artifact-1",
  "contractName": "L1OverflowTester",
  "sourceName": "contracts/mock/L1OverflowTester.sol",
  "abi": [
    {
      "inputs": [
        {
          "internalType": "address payable",
          "name": "_messenger",
          "type": "address"
        },
        {
          "internalType": "address",
          "name": "_otherTester",
          "type": "address"
        },
        {
          "internalType": "uint32",
          "name": "_gasLimit",
          "type": "uint32"
        }
      ],
      "stateMutability": "nonpayable",
      "type": "constructor"
    },
    {
      "inputs": [],
      "name": "MESSENGER",
      "outputs": [
        {
          "internalType": "contract ICrossDomainMessenger",
          "name": "",
          "type": "address"
        }
      ],
      "stateMutability": "view",
      "type": "function"
    },
    {
      "inputs": [],
      "name": "OTHERTESTER",
      "outputs": [
        {
          "internalType": "address",
          "name": "",
          "type": "address"
        }
      ],
      "stateMutability": "view",
      "type": "function"
    },
    {
      "inputs": [
        {
          "internalType": "string",
          "name": "_message",
          "type": "string"
        },
        {
          "internalType": "uint256",
          "name": "count",
          "type": "uint256"
        }
      ],
      "name": "crossHash",
      "outputs": [],
      "stateMutability": "nonpayable",
      "type": "function"
    },
    {
      "inputs": [
        {
          "internalType": "uint32",
          "name": "_gasLimit",
          "type": "uint32"
        }
      ],
      "name": "updateGasLimit",
      "outputs": [],
      "stateMutability": "nonpayable",
      "type": "function"
    }
  ],
  "bytecode": "0x60c06040525f805463ffffffff1916621e8480179055348015610020575f80fd5b5060405161051538038061051583398101604081905261003f91610086565b6001600160a01b03928316608052911660a0525f805463ffffffff191663ffffffff9092169190911790556100d8565b6001600160a01b0381168114610083575f80fd5b50565b5f805f60608486031215610098575f80fd5b83516100a38161006f565b60208501519093506100b48161006f565b604085015190925063ffffffff811681146100cd575f80fd5b809150509250925092565b60805160a0516104106101055f395f818160e9015261015701525f81816099015261011b01526104105ff3fe608060405234801561000f575f80fd5b506004361061004a575f3560e01c806334303bcd1461004e578063927ede2d146100945780639fd0cd3d146100e4578063da66f8bd1461010b575b5f80fd5b61009261005c366004610277565b5f80547fffffffffffffffffffffffffffffffffffffffffffffffffffffffff000000001663ffffffff92909216919091179055565b005b6100bb7f000000000000000000000000000000000000000000000000000000000000000081565b60405173ffffffffffffffffffffffffffffffffffffffff909116815260200160405180910390f35b6100bb7f000000000000000000000000000000000000000000000000000000000000000081565b6100926101193660046102a1565b7f000000000000000000000000000000000000000000000000000000000000000073ffffffffffffffffffffffffffffffffffffffff1663b2267a7b7f00000000000000000000000000000000000000000000000000000000000000005f86868660405160240161018c93929190610312565b604080517fffffffffffffffffffffffffffffffffffffffffffffffffffffffffffffffe08184030181529181526020820180517bffffffffffffffffffffffffffffffffffffffffffffffffffffffff167fbe25270f000000000000000000000000000000000000000000000000000000001790525f5490517fffffffff0000000000000000000000000000000000000000000000000000000060e087901b1681526102459493929163ffffffff1690600401610367565b5f604051808303815f87803b15801561025c575f80fd5b505af115801561026e573d5f803e3d5ffd5b50505050505050565b5f60208284031215610287575f80fd5b813563ffffffff8116811461029a575f80fd5b9392505050565b5f805f604084860312156102b3575f80fd5b833567ffffffffffffffff808211156102ca575f80fd5b818601915086601f8301126102dd575f80fd5b8135818111156102eb575f80fd5b8760208285010111156102fc575f80fd5b6020928301989097509590910135949350505050565b60408152826040820152828460608301375f606084830101525f60607fffffffffffffffffffffffffffffffffffffffffffffffffffffffffffffffe0601f8601168301019050826020830152949350505050565b73ffffffffffffffffffffffffffffffffffffffff851681525f60208560208401526080604084015284518060808501525f5b818110156103b65786810183015185820160a00152820161039a565b505f60a0828601015260a07fffffffffffffffffffffffffffffffffffffffffffffffffffffffffffffffe0601f8301168501019250505063ffffffff831660608301529594505050505056fea164736f6c6343000818000a",
  "linkReferences": {},
  "deployedLinkReferences": {}
}