{
  "_format": "hh-sol-artifact-1",
  "contractName": "ShadowRollup",
  "sourceName": "contracts/ShadowRollup.sol",
  "abi": [
    {
      "inputs": [
        {
          "internalType": "uint64",
          "name": "_chainId",
          "type": "uint64"
        },
        {
          "internalType": "address",
          "name": "_verifier",
          "type": "address"
        }
      ],
      "stateMutability": "nonpayable",
      "type": "constructor"
    },
    {
      "anonymous": false,
      "inputs": [
        {
          "indexed": true,
          "internalType": "address",
          "name": "previousOwner",
          "type": "address"
        },
        {
          "indexed": true,
          "internalType": "address",
          "name": "newOwner",
          "type": "address"
        }
      ],
      "name": "OwnershipTransferred",
      "type": "event"
    },
    {
      "inputs": [
        {
          "internalType": "uint64",
          "name": "_batchIndex",
          "type": "uint64"
        },
        {
          "components": [
            {
              "internalType": "bytes32",
              "name": "prevStateRoot",
              "type": "bytes32"
            },
            {
              "internalType": "bytes32",
              "name": "postStateRoot",
              "type": "bytes32"
            },
            {
              "internalType": "bytes32",
              "name": "withdrawalRoot",
              "type": "bytes32"
            },
            {
              "internalType": "bytes32",
              "name": "dataHash",
              "type": "bytes32"
            },
            {
              "internalType": "bytes32",
              "name": "blobVersionedHash",
              "type": "bytes32"
            }
          ],
          "internalType": "struct ShadowRollup.BatchStore",
          "name": "_batchData",
          "type": "tuple"
        }
      ],
      "name": "commitBatch",
      "outputs": [],
      "stateMutability": "nonpayable",
      "type": "function"
    },
    {
      "inputs": [
        {
          "internalType": "uint256",
          "name": "",
          "type": "uint256"
        }
      ],
      "name": "committedBatchStores",
      "outputs": [
        {
          "internalType": "bytes32",
          "name": "prevStateRoot",
          "type": "bytes32"
        },
        {
          "internalType": "bytes32",
          "name": "postStateRoot",
          "type": "bytes32"
        },
        {
          "internalType": "bytes32",
          "name": "withdrawalRoot",
          "type": "bytes32"
        },
        {
          "internalType": "bytes32",
          "name": "dataHash",
          "type": "bytes32"
        },
        {
          "internalType": "bytes32",
          "name": "blobVersionedHash",
          "type": "bytes32"
        }
      ],
      "stateMutability": "view",
      "type": "function"
    },
    {
      "inputs": [
        {
          "internalType": "uint256",
          "name": "_batchIndex",
          "type": "uint256"
        }
      ],
      "name": "isProveSuccess",
      "outputs": [
        {
          "internalType": "bool",
          "name": "",
          "type": "bool"
        }
      ],
      "stateMutability": "view",
      "type": "function"
    },
    {
      "inputs": [],
      "name": "layer2ChainId",
      "outputs": [
        {
          "internalType": "uint64",
          "name": "",
          "type": "uint64"
        }
      ],
      "stateMutability": "view",
      "type": "function"
    },
    {
      "inputs": [],
      "name": "owner",
      "outputs": [
        {
          "internalType": "address",
          "name": "",
          "type": "address"
        }
      ],
      "stateMutability": "view",
      "type": "function"
    },
    {
      "inputs": [
        {
          "internalType": "uint64",
          "name": "_batchIndex",
          "type": "uint64"
        },
        {
          "internalType": "bytes",
          "name": "_aggrProof",
          "type": "bytes"
        },
        {
          "internalType": "bytes",
          "name": "_kzgDataProof",
          "type": "bytes"
        }
      ],
      "name": "proveState",
      "outputs": [],
      "stateMutability": "nonpayable",
      "type": "function"
    },
    {
      "inputs": [
        {
          "internalType": "uint256",
          "name": "",
          "type": "uint256"
        }
      ],
      "name": "proveStatus",
      "outputs": [
        {
          "internalType": "bool",
          "name": "",
          "type": "bool"
        }
      ],
      "stateMutability": "view",
      "type": "function"
    },
    {
      "inputs": [],
      "name": "renounceOwnership",
      "outputs": [],
      "stateMutability": "nonpayable",
      "type": "function"
    },
    {
      "inputs": [
        {
          "internalType": "address",
          "name": "newOwner",
          "type": "address"
        }
      ],
      "name": "transferOwnership",
      "outputs": [],
      "stateMutability": "nonpayable",
      "type": "function"
    },
    {
      "inputs": [
        {
          "internalType": "address",
          "name": "_verifier",
          "type": "address"
        }
      ],
      "name": "updateVerifier",
      "outputs": [],
      "stateMutability": "nonpayable",
      "type": "function"
    },
    {
      "inputs": [],
      "name": "zkevm_verifier",
      "outputs": [
        {
          "internalType": "address",
          "name": "",
          "type": "address"
        }
      ],
      "stateMutability": "view",
      "type": "function"
    }
  ],
  "bytecode": "0x60a06040523480156200001157600080fd5b506040516200178e3803806200178e833981810160405281019062000037919062000237565b620000576200004b620000bc60201b60201c565b620000c460201b60201c565b8167ffffffffffffffff1660808167ffffffffffffffff168152505080600160006101000a81548173ffffffffffffffffffffffffffffffffffffffff021916908373ffffffffffffffffffffffffffffffffffffffff16021790555050506200027e565b600033905090565b60008060009054906101000a900473ffffffffffffffffffffffffffffffffffffffff169050816000806101000a81548173ffffffffffffffffffffffffffffffffffffffff021916908373ffffffffffffffffffffffffffffffffffffffff1602179055508173ffffffffffffffffffffffffffffffffffffffff168173ffffffffffffffffffffffffffffffffffffffff167f8be0079c531659141344cd1fd0a4f28419497f9722a3daafe3b4186f6b6457e060405160405180910390a35050565b600080fd5b600067ffffffffffffffff82169050919050565b620001ac816200018d565b8114620001b857600080fd5b50565b600081519050620001cc81620001a1565b92915050565b600073ffffffffffffffffffffffffffffffffffffffff82169050919050565b6000620001ff82620001d2565b9050919050565b6200021181620001f2565b81146200021d57600080fd5b50565b600081519050620002318162000206565b92915050565b6000806040838503121562000251576200025062000188565b5b60006200026185828601620001bb565b9250506020620002748582860162000220565b9150509250929050565b6080516114ed620002a160003960008181610218015261050101526114ed6000f3fe608060405234801561001057600080fd5b50600436106100a95760003560e01c8063715018a611610071578063715018a61461016a5780638da5cb5b1461017457806397fc007c14610192578063d181ed76146101ae578063e7047c04146101ca578063f2fde38b146101fa576100a9565b806303c7f4af146100ae5780630b79cdda146100cc5780632568428014610100578063331e8f7f1461013057806336622a301461014e575b600080fd5b6100b6610216565b6040516100c3919061099f565b60405180910390f35b6100e660048036038101906100e191906109fa565b61023a565b6040516100f7959493929190610a40565b60405180910390f35b61011a600480360381019061011591906109fa565b610270565b6040516101279190610aae565b60405180910390f35b6101386102dc565b6040516101459190610b0a565b60405180910390f35b61016860048036038101906101639190610bb6565b610302565b005b6101726106d5565b005b61017c6106e9565b6040516101899190610b0a565b60405180910390f35b6101ac60048036038101906101a79190610c77565b610712565b005b6101c860048036038101906101c39190610cc8565b61075e565b005b6101e460048036038101906101df91906109fa565b61078f565b6040516101f19190610aae565b60405180910390f35b610214600480360381019061020f9190610c77565b6107af565b005b7f000000000000000000000000000000000000000000000000000000000000000081565b60026020528060005260406000206000915090508060000154908060010154908060020154908060030154908060040154905085565b60008082116102b4576040517f08c379a00000000000000000000000000000000000000000000000000000000081526004016102ab90610d65565b60405180910390fd5b6003600083815260200190815260200160002060009054906101000a900460ff169050919050565b600160009054906101000a900473ffffffffffffffffffffffffffffffffffffffff1681565b60008484905011610348576040517f08c379a000000000000000000000000000000000000000000000000000000000815260040161033f90610dd1565b60405180910390fd5b60a0828290501461038e576040517f08c379a000000000000000000000000000000000000000000000000000000000815260040161038590610e3d565b60405180910390fd5b600080600a73ffffffffffffffffffffffffffffffffffffffff16600260008967ffffffffffffffff1681526020019081526020016000206004015485856040516020016103de93929190610ebd565b6040516020818303038152906040526040516103fa9190610f4d565b600060405180830381855afa9150503d8060008114610435576040519150601f19603f3d011682016040523d82523d6000602084013e61043a565b606091505b50915091508161047f576040517f08c379a000000000000000000000000000000000000000000000000000000000815260040161047690610fd6565b60405180910390fd5b600081806020019051810190610495919061100b565b9150507f73eda753299d7d483339d80809a1d80553bda402fffe5bfeffffffff0000000181146104fa576040517f08c379a00000000000000000000000000000000000000000000000000000000081526004016104f190611097565b60405180910390fd5b50505060007f0000000000000000000000000000000000000000000000000000000000000000600260008867ffffffffffffffff16815260200190815260200160002060000154600260008967ffffffffffffffff16815260200190815260200160002060010154600260008a67ffffffffffffffff16815260200190815260200160002060020154600260008b67ffffffffffffffff1681526020019081526020016000206003015487876000906040926105b8939291906110c1565b600260008e67ffffffffffffffff168152602001908152602001600020600401546040516020016105f0989796959493929190611132565b604051602081830303815290604052805190602001209050600160009054906101000a900473ffffffffffffffffffffffffffffffffffffffff1673ffffffffffffffffffffffffffffffffffffffff16636b4063418686846040518463ffffffff1660e01b815260040161066793929190611200565b60006040518083038186803b15801561067f57600080fd5b505afa158015610693573d6000803e3d6000fd5b505050506001600360008867ffffffffffffffff16815260200190815260200160002060006101000a81548160ff021916908315150217905550505050505050565b6106dd610832565b6106e760006108b0565b565b60008060009054906101000a900473ffffffffffffffffffffffffffffffffffffffff16905090565b61071a610832565b80600160006101000a81548173ffffffffffffffffffffffffffffffffffffffff021916908373ffffffffffffffffffffffffffffffffffffffff16021790555050565b80600260008467ffffffffffffffff168152602001908152602001600020818161078891906113ab565b9050505050565b60036020528060005260406000206000915054906101000a900460ff1681565b6107b7610832565b600073ffffffffffffffffffffffffffffffffffffffff168173ffffffffffffffffffffffffffffffffffffffff1603610826576040517f08c379a000000000000000000000000000000000000000000000000000000000815260040161081d9061142b565b60405180910390fd5b61082f816108b0565b50565b61083a610974565b73ffffffffffffffffffffffffffffffffffffffff166108586106e9565b73ffffffffffffffffffffffffffffffffffffffff16146108ae576040517f08c379a00000000000000000000000000000000000000000000000000000000081526004016108a590611497565b60405180910390fd5b565b60008060009054906101000a900473ffffffffffffffffffffffffffffffffffffffff169050816000806101000a81548173ffffffffffffffffffffffffffffffffffffffff021916908373ffffffffffffffffffffffffffffffffffffffff1602179055508173ffffffffffffffffffffffffffffffffffffffff168173ffffffffffffffffffffffffffffffffffffffff167f8be0079c531659141344cd1fd0a4f28419497f9722a3daafe3b4186f6b6457e060405160405180910390a35050565b600033905090565b600067ffffffffffffffff82169050919050565b6109998161097c565b82525050565b60006020820190506109b46000830184610990565b92915050565b600080fd5b600080fd5b6000819050919050565b6109d7816109c4565b81146109e257600080fd5b50565b6000813590506109f4816109ce565b92915050565b600060208284031215610a1057610a0f6109ba565b5b6000610a1e848285016109e5565b91505092915050565b6000819050919050565b610a3a81610a27565b82525050565b600060a082019050610a556000830188610a31565b610a626020830187610a31565b610a6f6040830186610a31565b610a7c6060830185610a31565b610a896080830184610a31565b9695505050505050565b60008115159050919050565b610aa881610a93565b82525050565b6000602082019050610ac36000830184610a9f565b92915050565b600073ffffffffffffffffffffffffffffffffffffffff82169050919050565b6000610af482610ac9565b9050919050565b610b0481610ae9565b82525050565b6000602082019050610b1f6000830184610afb565b92915050565b610b2e8161097c565b8114610b3957600080fd5b50565b600081359050610b4b81610b25565b92915050565b600080fd5b600080fd5b600080fd5b60008083601f840112610b7657610b75610b51565b5b8235905067ffffffffffffffff811115610b9357610b92610b56565b5b602083019150836001820283011115610baf57610bae610b5b565b5b9250929050565b600080600080600060608688031215610bd257610bd16109ba565b5b6000610be088828901610b3c565b955050602086013567ffffffffffffffff811115610c0157610c006109bf565b5b610c0d88828901610b60565b9450945050604086013567ffffffffffffffff811115610c3057610c2f6109bf565b5b610c3c88828901610b60565b92509250509295509295909350565b610c5481610ae9565b8114610c5f57600080fd5b50565b600081359050610c7181610c4b565b92915050565b600060208284031215610c8d57610c8c6109ba565b5b6000610c9b84828501610c62565b91505092915050565b600080fd5b600060a08284031215610cbf57610cbe610ca4565b5b81905092915050565b60008060c08385031215610cdf57610cde6109ba565b5b6000610ced85828601610b3c565b9250506020610cfe85828601610ca9565b9150509250929050565b600082825260208201905092915050565b7f696e76616c6964206261746368496e6465780000000000000000000000000000600082015250565b6000610d4f601283610d08565b9150610d5a82610d19565b602082019050919050565b60006020820190508181036000830152610d7e81610d42565b9050919050565b7f496e76616c6964206167677265676174696f6e2070726f6f6600000000000000600082015250565b6000610dbb601983610d08565b9150610dc682610d85565b602082019050919050565b60006020820190508181036000830152610dea81610dae565b9050919050565b7f496e76616c6964204b5a4720646174612070726f6f6600000000000000000000600082015250565b6000610e27601683610d08565b9150610e3282610df1565b602082019050919050565b60006020820190508181036000830152610e5681610e1a565b9050919050565b6000819050919050565b610e78610e7382610a27565b610e5d565b82525050565b600081905092915050565b82818337600083830152505050565b6000610ea48385610e7e565b9350610eb1838584610e89565b82840190509392505050565b6000610ec98286610e67565b602082019150610eda828486610e98565b9150819050949350505050565b600081519050919050565b60005b83811015610f10578082015181840152602081019050610ef5565b60008484015250505050565b6000610f2782610ee7565b610f318185610e7e565b9350610f41818560208601610ef2565b80840191505092915050565b6000610f598284610f1c565b915081905092915050565b7f6661696c656420746f2063616c6c20706f696e74206576616c756174696f6e2060008201527f707265636f6d70696c6500000000000000000000000000000000000000000000602082015250565b6000610fc0602a83610d08565b9150610fcb82610f64565b604082019050919050565b60006020820190508181036000830152610fef81610fb3565b9050919050565b600081519050611005816109ce565b92915050565b60008060408385031215611022576110216109ba565b5b600061103085828601610ff6565b925050602061104185828601610ff6565b9150509250929050565b7f707265636f6d70696c6520756e6578706563746564206f757470757400000000600082015250565b6000611081601c83610d08565b915061108c8261104b565b602082019050919050565b600060208201905081810360008301526110b081611074565b9050919050565b600080fd5b600080fd5b600080858511156110d5576110d46110b7565b5b838611156110e6576110e56110bc565b5b6001850283019150848603905094509492505050565b60008160c01b9050919050565b6000611114826110fc565b9050919050565b61112c6111278261097c565b611109565b82525050565b600061113e828b61111b565b60088201915061114e828a610e67565b60208201915061115e8289610e67565b60208201915061116e8288610e67565b60208201915061117e8287610e67565b60208201915061118f828587610e98565b915061119b8284610e67565b6020820191508190509998505050505050505050565b600082825260208201905092915050565b6000601f19601f8301169050919050565b60006111df83856111b1565b93506111ec838584610e89565b6111f5836111c2565b840190509392505050565b6000604082019050818103600083015261121b8185876111d3565b905061122a6020830184610a31565b949350505050565b61123b81610a27565b811461124657600080fd5b50565b6000813561125681611232565b80915050919050565b60008160001b9050919050565b60007fffffffffffffffffffffffffffffffffffffffffffffffffffffffffffffffff6112988461125f565b9350801983169250808416831791505092915050565b60006112b982610a27565b9050919050565b60008160001c9050919050565b60006112d8826112c0565b9050919050565b6112e8826112ae565b6112fb6112f4826112cd565b835461126c565b8255505050565b60008101600083018061131481611249565b905061132081846112df565b50505060018101602083018061133581611249565b905061134181846112df565b50505060028101604083018061135681611249565b905061136281846112df565b50505060038101606083018061137781611249565b905061138381846112df565b50505060048101608083018061139881611249565b90506113a481846112df565b5050505050565b6113b58282611302565b5050565b7f4f776e61626c653a206e6577206f776e657220697320746865207a65726f206160008201527f6464726573730000000000000000000000000000000000000000000000000000602082015250565b6000611415602683610d08565b9150611420826113b9565b604082019050919050565b6000602082019050818103600083015261144481611408565b9050919050565b7f4f776e61626c653a2063616c6c6572206973206e6f7420746865206f776e6572600082015250565b6000611481602083610d08565b915061148c8261144b565b602082019050919050565b600060208201905081810360008301526114b081611474565b905091905056fea264697066735822122004a0333f6df00e6184dbdf1f608f7df5ee5bac761722b4ef8b8a8a82f0c8d10564736f6c63430008180033",
  "linkReferences": {},
  "deployedLinkReferences": {}
}