{
  "_format": "hh-sol-artifact-1",
  "contractName": "MultipleVersionRollupVerifier",
  "sourceName": "contracts/l1/rollup/MultipleVersionRollupVerifier.sol",
  "abi": [
    {
      "inputs": [
        {
          "internalType": "uint256[]",
          "name": "_versions",
          "type": "uint256[]"
        },
        {
          "internalType": "address[]",
          "name": "_verifiers",
          "type": "address[]"
        }
      ],
      "stateMutability": "nonpayable",
      "type": "constructor"
    },
    {
      "inputs": [],
      "name": "ErrorStartBatchIndexFinalized",
      "type": "error"
    },
    {
      "inputs": [],
      "name": "ErrorStartBatchIndexTooSmall",
      "type": "error"
    },
    {
      "inputs": [],
      "name": "ErrorVerifierNotFound",
      "type": "error"
    },
    {
      "inputs": [],
      "name": "ErrorZeroAddress",
      "type": "error"
    },
    {
      "anonymous": false,
      "inputs": [
        {
          "indexed": true,
          "internalType": "address",
          "name": "previousOwner",
          "type": "address"
        },
        {
          "indexed": true,
          "internalType": "address",
          "name": "newOwner",
          "type": "address"
        }
      ],
      "name": "OwnershipTransferred",
      "type": "event"
    },
    {
      "anonymous": false,
      "inputs": [
        {
          "indexed": false,
          "internalType": "uint256",
          "name": "version",
          "type": "uint256"
        },
        {
          "indexed": false,
          "internalType": "uint256",
          "name": "startBatchIndex",
          "type": "uint256"
        },
        {
          "indexed": false,
          "internalType": "address",
          "name": "verifier",
          "type": "address"
        }
      ],
      "name": "UpdateVerifier",
      "type": "event"
    },
    {
      "inputs": [
        {
          "internalType": "uint256",
          "name": "_version",
          "type": "uint256"
        },
        {
          "internalType": "uint256",
          "name": "_batchIndex",
          "type": "uint256"
        }
      ],
      "name": "getVerifier",
      "outputs": [
        {
          "internalType": "address",
          "name": "",
          "type": "address"
        }
      ],
      "stateMutability": "view",
      "type": "function"
    },
    {
      "inputs": [
        {
          "internalType": "address",
          "name": "_rollup",
          "type": "address"
        }
      ],
      "name": "initialize",
      "outputs": [],
      "stateMutability": "nonpayable",
      "type": "function"
    },
    {
      "inputs": [
        {
          "internalType": "uint256",
          "name": "version",
          "type": "uint256"
        }
      ],
      "name": "latestVerifier",
      "outputs": [
        {
          "internalType": "uint64",
          "name": "startBatchIndex",
          "type": "uint64"
        },
        {
          "internalType": "address",
          "name": "verifier",
          "type": "address"
        }
      ],
      "stateMutability": "view",
      "type": "function"
    },
    {
      "inputs": [
        {
          "internalType": "uint256",
          "name": "version",
          "type": "uint256"
        },
        {
          "internalType": "uint256",
          "name": "",
          "type": "uint256"
        }
      ],
      "name": "legacyVerifiers",
      "outputs": [
        {
          "internalType": "uint64",
          "name": "startBatchIndex",
          "type": "uint64"
        },
        {
          "internalType": "address",
          "name": "verifier",
          "type": "address"
        }
      ],
      "stateMutability": "view",
      "type": "function"
    },
    {
      "inputs": [
        {
          "internalType": "uint256",
          "name": "_version",
          "type": "uint256"
        }
      ],
      "name": "legacyVerifiersLength",
      "outputs": [
        {
          "internalType": "uint256",
          "name": "",
          "type": "uint256"
        }
      ],
      "stateMutability": "view",
      "type": "function"
    },
    {
      "inputs": [],
      "name": "owner",
      "outputs": [
        {
          "internalType": "address",
          "name": "",
          "type": "address"
        }
      ],
      "stateMutability": "view",
      "type": "function"
    },
    {
      "inputs": [],
      "name": "renounceOwnership",
      "outputs": [],
      "stateMutability": "nonpayable",
      "type": "function"
    },
    {
      "inputs": [],
      "name": "rollup",
      "outputs": [
        {
          "internalType": "address",
          "name": "",
          "type": "address"
        }
      ],
      "stateMutability": "view",
      "type": "function"
    },
    {
      "inputs": [
        {
          "internalType": "address",
          "name": "newOwner",
          "type": "address"
        }
      ],
      "name": "transferOwnership",
      "outputs": [],
      "stateMutability": "nonpayable",
      "type": "function"
    },
    {
      "inputs": [
        {
          "internalType": "uint256",
          "name": "_version",
          "type": "uint256"
        },
        {
          "internalType": "uint64",
          "name": "_startBatchIndex",
          "type": "uint64"
        },
        {
          "internalType": "address",
          "name": "_verifier",
          "type": "address"
        }
      ],
      "name": "updateVerifier",
      "outputs": [],
      "stateMutability": "nonpayable",
      "type": "function"
    },
    {
      "inputs": [
        {
          "internalType": "uint256",
          "name": "_version",
          "type": "uint256"
        },
        {
          "internalType": "uint256",
          "name": "_batchIndex",
          "type": "uint256"
        },
        {
          "internalType": "bytes",
          "name": "_aggrProof",
          "type": "bytes"
        },
        {
          "internalType": "bytes32",
          "name": "_publicInputHash",
          "type": "bytes32"
        }
      ],
      "name": "verifyAggregateProof",
      "outputs": [],
      "stateMutability": "view",
      "type": "function"
    }
  ],
  "bytecode": "0x608060405234801562000010575f80fd5b506040516200104c3803806200104c8339810160408190526200003391620002ed565b6200003e33620001a9565b5f5b8251811015620001a0575f6001600160a01b0316828281518110620000695762000069620003ae565b60200260200101516001600160a01b031603620000995760405163a7f9319d60e01b815260040160405180910390fd5b818181518110620000ae57620000ae620003ae565b602002602001015160035f858481518110620000ce57620000ce620003ae565b602002602001015181526020019081526020015f205f0160086101000a8154816001600160a01b0302191690836001600160a01b031602179055507f7a98750a395b9ee50a2644ffda039e31f1d5d06de45510275f972bb20b229b308382815181106200013f576200013f620003ae565b60200260200101515f8484815181106200015d576200015d620003ae565b60200260200101516040516200018f9392919092835260208301919091526001600160a01b0316604082015260600190565b60405180910390a160010162000040565b505050620003c2565b5f80546001600160a01b038381166001600160a01b0319831681178455604051919092169283917f8be0079c531659141344cd1fd0a4f28419497f9722a3daafe3b4186f6b6457e09190a35050565b634e487b7160e01b5f52604160045260245ffd5b604051601f8201601f191681016001600160401b0381118282101715620002375762000237620001f8565b604052919050565b5f6001600160401b038211156200025a576200025a620001f8565b5060051b60200190565b5f82601f83011262000274575f80fd5b815160206200028d62000287836200023f565b6200020c565b8083825260208201915060208460051b870101935086841115620002af575f80fd5b602086015b84811015620002e25780516001600160a01b0381168114620002d4575f80fd5b8352918301918301620002b4565b509695505050505050565b5f8060408385031215620002ff575f80fd5b82516001600160401b038082111562000316575f80fd5b818501915085601f8301126200032a575f80fd5b815160206200033d62000287836200023f565b82815260059290921b840181019181810190898411156200035c575f80fd5b948201945b838610156200037c5785518252948201949082019062000361565b9188015191965090935050508082111562000395575f80fd5b50620003a48582860162000264565b9150509250929050565b634e487b7160e01b5f52603260045260245ffd5b610c7c80620003d05f395ff3fe608060405234801561000f575f80fd5b50600436106100c4575f3560e01c8063955123061161007d578063c7065b6a11610058578063c7065b6a146101da578063cb23bcb514610227578063f2fde38b14610247575f80fd5b8063955123061461016c578063bd98b2b01461017f578063c4d66de8146101c7575f80fd5b80635027ad2e116100ad5780635027ad2e1461011a578063715018a6146101475780638da5cb5b1461014f575f80fd5b806328aee03f146100c85780632c09a84814610105575b5f80fd5b6100db6100d6366004610a90565b61025a565b60405173ffffffffffffffffffffffffffffffffffffffff90911681526020015b60405180910390f35b610118610113366004610ab0565b6103d7565b005b610139610128366004610b30565b5f9081526002602052604090205490565b6040519081526020016100fc565b61011861046f565b5f5473ffffffffffffffffffffffffffffffffffffffff166100db565b61011861017a366004610b6f565b610482565b61019261018d366004610a90565b6107b9565b6040805167ffffffffffffffff909316835273ffffffffffffffffffffffffffffffffffffffff9091166020830152016100fc565b6101186101d5366004610bb6565b610811565b6101926101e8366004610b30565b60036020525f908152604090205467ffffffffffffffff81169068010000000000000000900473ffffffffffffffffffffffffffffffffffffffff1682565b6001546100db9073ffffffffffffffffffffffffffffffffffffffff1681565b610118610255366004610bb6565b6108e5565b5f82815260036020908152604080832081518083019092525467ffffffffffffffff81168083526801000000000000000090910473ffffffffffffffffffffffffffffffffffffffff1692820192909252908310156103cc575f84815260026020526040812054805b8015610391575f87815260026020526040902080547fffffffffffffffffffffffffffffffffffffffffffffffffffffffffffffffff830190811061030a5761030a610bd6565b5f9182526020918290206040805180820190915291015467ffffffffffffffff81168083526801000000000000000090910473ffffffffffffffffffffffffffffffffffffffff16928201929092529450861061036a5760019250610391565b7fffffffffffffffffffffffffffffffffffffffffffffffffffffffffffffffff016102c3565b50816103c9576040517f70f6c8ff00000000000000000000000000000000000000000000000000000000815260040160405180910390fd5b50505b602001519392505050565b5f6103e2868661025a565b6040517fc8bd017600000000000000000000000000000000000000000000000000000000815290915073ffffffffffffffffffffffffffffffffffffffff82169063c8bd01769061043b90879087908790600401610c03565b5f6040518083038186803b158015610451575f80fd5b505afa158015610463573d5f803e3d5ffd5b50505050505050505050565b61047761099c565b6104805f610a1c565b565b61048a61099c565b60015f9054906101000a900473ffffffffffffffffffffffffffffffffffffffff1673ffffffffffffffffffffffffffffffffffffffff1663059def616040518163ffffffff1660e01b8152600401602060405180830381865afa1580156104f4573d5f803e3d5ffd5b505050506040513d601f19601f820116820180604052508101906105189190610c58565b8267ffffffffffffffff161161055a576040517f9a4ff10400000000000000000000000000000000000000000000000000000000815260040160405180910390fd5b5f8381526003602090815260409182902082518084019093525467ffffffffffffffff8082168085526801000000000000000090920473ffffffffffffffffffffffffffffffffffffffff169284019290925290841610156105e8576040517fb0d8c70400000000000000000000000000000000000000000000000000000000815260040160405180910390fd5b73ffffffffffffffffffffffffffffffffffffffff8216610635576040517fa7f9319d00000000000000000000000000000000000000000000000000000000815260040160405180910390fd5b805167ffffffffffffffff808516911610156106fa57602081015173ffffffffffffffffffffffffffffffffffffffff16156106ec575f84815260026020908152604082208054600181018255908352918190208351920180549184015173ffffffffffffffffffffffffffffffffffffffff1668010000000000000000027fffffffff0000000000000000000000000000000000000000000000000000000090921667ffffffffffffffff909316929092171790555b67ffffffffffffffff831681525b73ffffffffffffffffffffffffffffffffffffffff82811660208381018281525f8881526003835260409081902086518154935190961668010000000000000000027fffffffff0000000000000000000000000000000000000000000000000000000090931667ffffffffffffffff96871617929092179091558051888152938716918401919091528201527f7a98750a395b9ee50a2644ffda039e31f1d5d06de45510275f972bb20b229b309060600160405180910390a150505050565b6002602052815f5260405f2081815481106107d2575f80fd5b5f9182526020909120015467ffffffffffffffff8116925068010000000000000000900473ffffffffffffffffffffffffffffffffffffffff16905082565b61081961099c565b60015473ffffffffffffffffffffffffffffffffffffffff161561089e576040517f08c379a000000000000000000000000000000000000000000000000000000000815260206004820152600b60248201527f696e697469616c697a656400000000000000000000000000000000000000000060448201526064015b60405180910390fd5b600180547fffffffffffffffffffffffff00000000000000000000000000000000000000001673ffffffffffffffffffffffffffffffffffffffff92909216919091179055565b6108ed61099c565b73ffffffffffffffffffffffffffffffffffffffff8116610990576040517f08c379a000000000000000000000000000000000000000000000000000000000815260206004820152602660248201527f4f776e61626c653a206e6577206f776e657220697320746865207a65726f206160448201527f64647265737300000000000000000000000000000000000000000000000000006064820152608401610895565b61099981610a1c565b50565b5f5473ffffffffffffffffffffffffffffffffffffffff163314610480576040517f08c379a000000000000000000000000000000000000000000000000000000000815260206004820181905260248201527f4f776e61626c653a2063616c6c6572206973206e6f7420746865206f776e65726044820152606401610895565b5f805473ffffffffffffffffffffffffffffffffffffffff8381167fffffffffffffffffffffffff0000000000000000000000000000000000000000831681178455604051919092169283917f8be0079c531659141344cd1fd0a4f28419497f9722a3daafe3b4186f6b6457e09190a35050565b5f8060408385031215610aa1575f80fd5b50508035926020909101359150565b5f805f805f60808688031215610ac4575f80fd5b8535945060208601359350604086013567ffffffffffffffff80821115610ae9575f80fd5b818801915088601f830112610afc575f80fd5b813581811115610b0a575f80fd5b896020828501011115610b1b575f80fd5b96999598505060200195606001359392505050565b5f60208284031215610b40575f80fd5b5035919050565b803573ffffffffffffffffffffffffffffffffffffffff81168114610b6a575f80fd5b919050565b5f805f60608486031215610b81575f80fd5b83359250602084013567ffffffffffffffff81168114610b9f575f80fd5b9150610bad60408501610b47565b90509250925092565b5f60208284031215610bc6575f80fd5b610bcf82610b47565b9392505050565b7f4e487b71000000000000000000000000000000000000000000000000000000005f52603260045260245ffd5b60408152826040820152828460608301375f606084830101525f60607fffffffffffffffffffffffffffffffffffffffffffffffffffffffffffffffe0601f8601168301019050826020830152949350505050565b5f60208284031215610c68575f80fd5b505191905056fea164736f6c6343000818000a",
  "linkReferences": {},
  "deployedLinkReferences": {}
}