{
  "_format": "hh-sol-artifact-1",
  "contractName": "ShadowRollup",
  "sourceName": "contracts/ShadowRollup.sol",
  "abi": [
    {
      "inputs": [
        {
          "internalType": "uint64",
          "name": "_chainId",
          "type": "uint64"
        },
        {
          "internalType": "address",
          "name": "_verifier",
          "type": "address"
        }
      ],
      "stateMutability": "nonpayable",
      "type": "constructor"
    },
    {
      "anonymous": false,
      "inputs": [
        {
          "indexed": true,
          "internalType": "address",
          "name": "previousOwner",
          "type": "address"
        },
        {
          "indexed": true,
          "internalType": "address",
          "name": "newOwner",
          "type": "address"
        }
      ],
      "name": "OwnershipTransferred",
      "type": "event"
    },
    {
      "inputs": [
        {
          "internalType": "uint64",
          "name": "_batchIndex",
          "type": "uint64"
        },
        {
          "components": [
            {
              "internalType": "bytes32",
              "name": "prevStateRoot",
              "type": "bytes32"
            },
            {
              "internalType": "bytes32",
              "name": "postStateRoot",
              "type": "bytes32"
            },
            {
              "internalType": "bytes32",
              "name": "withdrawalRoot",
              "type": "bytes32"
            },
            {
              "internalType": "bytes32",
              "name": "dataHash",
              "type": "bytes32"
            },
            {
              "internalType": "bytes32",
              "name": "blobVersionedHash",
              "type": "bytes32"
            },
            {
              "internalType": "bytes32",
              "name": "sequencerSetVerifyHash",
              "type": "bytes32"
            }
          ],
          "internalType": "struct ShadowRollup.BatchStore",
          "name": "_batchData",
          "type": "tuple"
        }
      ],
      "name": "commitBatch",
      "outputs": [],
      "stateMutability": "nonpayable",
      "type": "function"
    },
    {
      "inputs": [
        {
          "internalType": "uint256",
          "name": "",
          "type": "uint256"
        }
      ],
      "name": "committedBatchStores",
      "outputs": [
        {
          "internalType": "bytes32",
          "name": "prevStateRoot",
          "type": "bytes32"
        },
        {
          "internalType": "bytes32",
          "name": "postStateRoot",
          "type": "bytes32"
        },
        {
          "internalType": "bytes32",
          "name": "withdrawalRoot",
          "type": "bytes32"
        },
        {
          "internalType": "bytes32",
          "name": "dataHash",
          "type": "bytes32"
        },
        {
          "internalType": "bytes32",
          "name": "blobVersionedHash",
          "type": "bytes32"
        },
        {
          "internalType": "bytes32",
          "name": "sequencerSetVerifyHash",
          "type": "bytes32"
        }
      ],
      "stateMutability": "view",
      "type": "function"
    },
    {
      "inputs": [
        {
          "internalType": "uint256",
          "name": "_batchIndex",
          "type": "uint256"
        }
      ],
      "name": "isProveSuccess",
      "outputs": [
        {
          "internalType": "bool",
          "name": "",
          "type": "bool"
        }
      ],
      "stateMutability": "view",
      "type": "function"
    },
    {
      "inputs": [],
      "name": "layer2ChainId",
      "outputs": [
        {
          "internalType": "uint64",
          "name": "",
          "type": "uint64"
        }
      ],
      "stateMutability": "view",
      "type": "function"
    },
    {
      "inputs": [],
      "name": "owner",
      "outputs": [
        {
          "internalType": "address",
          "name": "",
          "type": "address"
        }
      ],
      "stateMutability": "view",
      "type": "function"
    },
    {
      "inputs": [
        {
          "internalType": "uint64",
          "name": "_batchIndex",
          "type": "uint64"
        },
        {
          "internalType": "bytes",
          "name": "_aggrProof",
          "type": "bytes"
        },
        {
          "internalType": "bytes",
          "name": "_kzgDataProof",
          "type": "bytes"
        }
      ],
      "name": "proveState",
      "outputs": [],
      "stateMutability": "nonpayable",
      "type": "function"
    },
    {
      "inputs": [
        {
          "internalType": "uint256",
          "name": "",
          "type": "uint256"
        }
      ],
      "name": "proveStatus",
      "outputs": [
        {
          "internalType": "bool",
          "name": "",
          "type": "bool"
        }
      ],
      "stateMutability": "view",
      "type": "function"
    },
    {
      "inputs": [],
      "name": "renounceOwnership",
      "outputs": [],
      "stateMutability": "nonpayable",
      "type": "function"
    },
    {
      "inputs": [
        {
          "internalType": "address",
          "name": "newOwner",
          "type": "address"
        }
      ],
      "name": "transferOwnership",
      "outputs": [],
      "stateMutability": "nonpayable",
      "type": "function"
    },
    {
      "inputs": [
        {
          "internalType": "address",
          "name": "_verifier",
          "type": "address"
        }
      ],
      "name": "updateVerifier",
      "outputs": [],
      "stateMutability": "nonpayable",
      "type": "function"
    },
    {
      "inputs": [],
      "name": "zkevm_verifier",
      "outputs": [
        {
          "internalType": "address",
          "name": "",
          "type": "address"
        }
      ],
      "stateMutability": "view",
      "type": "function"
    }
  ],
  "bytecode": "0x60a06040523480156200001157600080fd5b50604051620017f7380380620017f7833981810160405281019062000037919062000237565b620000576200004b620000bc60201b60201c565b620000c460201b60201c565b8167ffffffffffffffff1660808167ffffffffffffffff168152505080600160006101000a81548173ffffffffffffffffffffffffffffffffffffffff021916908373ffffffffffffffffffffffffffffffffffffffff16021790555050506200027e565b600033905090565b60008060009054906101000a900473ffffffffffffffffffffffffffffffffffffffff169050816000806101000a81548173ffffffffffffffffffffffffffffffffffffffff021916908373ffffffffffffffffffffffffffffffffffffffff1602179055508173ffffffffffffffffffffffffffffffffffffffff168173ffffffffffffffffffffffffffffffffffffffff167f8be0079c531659141344cd1fd0a4f28419497f9722a3daafe3b4186f6b6457e060405160405180910390a35050565b600080fd5b600067ffffffffffffffff82169050919050565b620001ac816200018d565b8114620001b857600080fd5b50565b600081519050620001cc81620001a1565b92915050565b600073ffffffffffffffffffffffffffffffffffffffff82169050919050565b6000620001ff82620001d2565b9050919050565b6200021181620001f2565b81146200021d57600080fd5b50565b600081519050620002318162000206565b92915050565b6000806040838503121562000251576200025062000188565b5b60006200026185828601620001bb565b9250506020620002748582860162000220565b9150509250929050565b608051611556620002a160003960008181610219015261050801526115566000f3fe608060405234801561001057600080fd5b50600436106100a95760003560e01c8063715018a611610071578063715018a61461016b5780638da5cb5b1461017557806397fc007c146101935780639d049dda146101af578063e7047c04146101cb578063f2fde38b146101fb576100a9565b806303c7f4af146100ae5780630b79cdda146100cc5780632568428014610101578063331e8f7f1461013157806336622a301461014f575b600080fd5b6100b6610217565b6040516100c391906109c8565b60405180910390f35b6100e660048036038101906100e19190610a23565b61023b565b6040516100f896959493929190610a69565b60405180910390f35b61011b60048036038101906101169190610a23565b610277565b6040516101289190610ae5565b60405180910390f35b6101396102e3565b6040516101469190610b41565b60405180910390f35b61016960048036038101906101649190610bed565b610309565b005b6101736106fe565b005b61017d610712565b60405161018a9190610b41565b60405180910390f35b6101ad60048036038101906101a89190610cae565b61073b565b005b6101c960048036038101906101c49190610cff565b610787565b005b6101e560048036038101906101e09190610a23565b6107b8565b6040516101f29190610ae5565b60405180910390f35b61021560048036038101906102109190610cae565b6107d8565b005b7f000000000000000000000000000000000000000000000000000000000000000081565b60026020528060005260406000206000915090508060000154908060010154908060020154908060030154908060040154908060050154905086565b60008082116102bb576040517f08c379a00000000000000000000000000000000000000000000000000000000081526004016102b290610d9c565b60405180910390fd5b6003600083815260200190815260200160002060009054906101000a900460ff169050919050565b600160009054906101000a900473ffffffffffffffffffffffffffffffffffffffff1681565b6000848490501161034f576040517f08c379a000000000000000000000000000000000000000000000000000000000815260040161034690610e08565b60405180910390fd5b60a08282905014610395576040517f08c379a000000000000000000000000000000000000000000000000000000000815260040161038c90610e74565b60405180910390fd5b600080600a73ffffffffffffffffffffffffffffffffffffffff16600260008967ffffffffffffffff1681526020019081526020016000206004015485856040516020016103e593929190610ef4565b6040516020818303038152906040526040516104019190610f84565b600060405180830381855afa9150503d806000811461043c576040519150601f19603f3d011682016040523d82523d6000602084013e610441565b606091505b509150915081610486576040517f08c379a000000000000000000000000000000000000000000000000000000000815260040161047d9061100d565b60405180910390fd5b60008180602001905181019061049c9190611042565b9150507f73eda753299d7d483339d80809a1d80553bda402fffe5bfeffffffff000000018114610501576040517f08c379a00000000000000000000000000000000000000000000000000000000081526004016104f8906110ce565b60405180910390fd5b50505060007f0000000000000000000000000000000000000000000000000000000000000000600260008867ffffffffffffffff16815260200190815260200160002060000154600260008967ffffffffffffffff16815260200190815260200160002060010154600260008a67ffffffffffffffff16815260200190815260200160002060020154600260008b67ffffffffffffffff16815260200190815260200160002060050154600260008c67ffffffffffffffff1681526020019081526020016000206003015488886000906040926105e0939291906110f8565b600260008f67ffffffffffffffff1681526020019081526020016000206004015460405160200161061999989796959493929190611169565b604051602081830303815290604052805190602001209050600160009054906101000a900473ffffffffffffffffffffffffffffffffffffffff1673ffffffffffffffffffffffffffffffffffffffff16636b4063418686846040518463ffffffff1660e01b815260040161069093929190611248565b60006040518083038186803b1580156106a857600080fd5b505afa1580156106bc573d6000803e3d6000fd5b505050506001600360008867ffffffffffffffff16815260200190815260200160002060006101000a81548160ff021916908315150217905550505050505050565b61070661085b565b61071060006108d9565b565b60008060009054906101000a900473ffffffffffffffffffffffffffffffffffffffff16905090565b61074361085b565b80600160006101000a81548173ffffffffffffffffffffffffffffffffffffffff021916908373ffffffffffffffffffffffffffffffffffffffff16021790555050565b80600260008467ffffffffffffffff16815260200190815260200160002081816107b19190611414565b9050505050565b60036020528060005260406000206000915054906101000a900460ff1681565b6107e061085b565b600073ffffffffffffffffffffffffffffffffffffffff168173ffffffffffffffffffffffffffffffffffffffff160361084f576040517f08c379a000000000000000000000000000000000000000000000000000000000815260040161084690611494565b60405180910390fd5b610858816108d9565b50565b61086361099d565b73ffffffffffffffffffffffffffffffffffffffff16610881610712565b73ffffffffffffffffffffffffffffffffffffffff16146108d7576040517f08c379a00000000000000000000000000000000000000000000000000000000081526004016108ce90611500565b60405180910390fd5b565b60008060009054906101000a900473ffffffffffffffffffffffffffffffffffffffff169050816000806101000a81548173ffffffffffffffffffffffffffffffffffffffff021916908373ffffffffffffffffffffffffffffffffffffffff1602179055508173ffffffffffffffffffffffffffffffffffffffff168173ffffffffffffffffffffffffffffffffffffffff167f8be0079c531659141344cd1fd0a4f28419497f9722a3daafe3b4186f6b6457e060405160405180910390a35050565b600033905090565b600067ffffffffffffffff82169050919050565b6109c2816109a5565b82525050565b60006020820190506109dd60008301846109b9565b92915050565b600080fd5b600080fd5b6000819050919050565b610a00816109ed565b8114610a0b57600080fd5b50565b600081359050610a1d816109f7565b92915050565b600060208284031215610a3957610a386109e3565b5b6000610a4784828501610a0e565b91505092915050565b6000819050919050565b610a6381610a50565b82525050565b600060c082019050610a7e6000830189610a5a565b610a8b6020830188610a5a565b610a986040830187610a5a565b610aa56060830186610a5a565b610ab26080830185610a5a565b610abf60a0830184610a5a565b979650505050505050565b60008115159050919050565b610adf81610aca565b82525050565b6000602082019050610afa6000830184610ad6565b92915050565b600073ffffffffffffffffffffffffffffffffffffffff82169050919050565b6000610b2b82610b00565b9050919050565b610b3b81610b20565b82525050565b6000602082019050610b566000830184610b32565b92915050565b610b65816109a5565b8114610b7057600080fd5b50565b600081359050610b8281610b5c565b92915050565b600080fd5b600080fd5b600080fd5b60008083601f840112610bad57610bac610b88565b5b8235905067ffffffffffffffff811115610bca57610bc9610b8d565b5b602083019150836001820283011115610be657610be5610b92565b5b9250929050565b600080600080600060608688031215610c0957610c086109e3565b5b6000610c1788828901610b73565b955050602086013567ffffffffffffffff811115610c3857610c376109e8565b5b610c4488828901610b97565b9450945050604086013567ffffffffffffffff811115610c6757610c666109e8565b5b610c7388828901610b97565b92509250509295509295909350565b610c8b81610b20565b8114610c9657600080fd5b50565b600081359050610ca881610c82565b92915050565b600060208284031215610cc457610cc36109e3565b5b6000610cd284828501610c99565b91505092915050565b600080fd5b600060c08284031215610cf657610cf5610cdb565b5b81905092915050565b60008060e08385031215610d1657610d156109e3565b5b6000610d2485828601610b73565b9250506020610d3585828601610ce0565b9150509250929050565b600082825260208201905092915050565b7f696e76616c6964206261746368496e6465780000000000000000000000000000600082015250565b6000610d86601283610d3f565b9150610d9182610d50565b602082019050919050565b60006020820190508181036000830152610db581610d79565b9050919050565b7f496e76616c6964206167677265676174696f6e2070726f6f6600000000000000600082015250565b6000610df2601983610d3f565b9150610dfd82610dbc565b602082019050919050565b60006020820190508181036000830152610e2181610de5565b9050919050565b7f496e76616c6964204b5a4720646174612070726f6f6600000000000000000000600082015250565b6000610e5e601683610d3f565b9150610e6982610e28565b602082019050919050565b60006020820190508181036000830152610e8d81610e51565b9050919050565b6000819050919050565b610eaf610eaa82610a50565b610e94565b82525050565b600081905092915050565b82818337600083830152505050565b6000610edb8385610eb5565b9350610ee8838584610ec0565b82840190509392505050565b6000610f008286610e9e565b602082019150610f11828486610ecf565b9150819050949350505050565b600081519050919050565b60005b83811015610f47578082015181840152602081019050610f2c565b60008484015250505050565b6000610f5e82610f1e565b610f688185610eb5565b9350610f78818560208601610f29565b80840191505092915050565b6000610f908284610f53565b915081905092915050565b7f6661696c656420746f2063616c6c20706f696e74206576616c756174696f6e2060008201527f707265636f6d70696c6500000000000000000000000000000000000000000000602082015250565b6000610ff7602a83610d3f565b915061100282610f9b565b604082019050919050565b6000602082019050818103600083015261102681610fea565b9050919050565b60008151905061103c816109f7565b92915050565b60008060408385031215611059576110586109e3565b5b60006110678582860161102d565b92505060206110788582860161102d565b9150509250929050565b7f707265636f6d70696c6520756e6578706563746564206f757470757400000000600082015250565b60006110b8601c83610d3f565b91506110c382611082565b602082019050919050565b600060208201905081810360008301526110e7816110ab565b9050919050565b600080fd5b600080fd5b6000808585111561110c5761110b6110ee565b5b8386111561111d5761111c6110f3565b5b6001850283019150848603905094509492505050565b60008160c01b9050919050565b600061114b82611133565b9050919050565b61116361115e826109a5565b611140565b82525050565b6000611175828c611152565b600882019150611185828b610e9e565b602082019150611195828a610e9e565b6020820191506111a58289610e9e565b6020820191506111b58288610e9e565b6020820191506111c58287610e9e565b6020820191506111d6828587610ecf565b91506111e28284610e9e565b6020820191508190509a9950505050505050505050565b600082825260208201905092915050565b6000601f19601f8301169050919050565b600061122783856111f9565b9350611234838584610ec0565b61123d8361120a565b840190509392505050565b6000604082019050818103600083015261126381858761121b565b90506112726020830184610a5a565b949350505050565b61128381610a50565b811461128e57600080fd5b50565b6000813561129e8161127a565b80915050919050565b60008160001b9050919050565b60007fffffffffffffffffffffffffffffffffffffffffffffffffffffffffffffffff6112e0846112a7565b9350801983169250808416831791505092915050565b600061130182610a50565b9050919050565b60008160001c9050919050565b600061132082611308565b9050919050565b611330826112f6565b61134361133c82611315565b83546112b4565b8255505050565b60008101600083018061135c81611291565b90506113688184611327565b50505060018101602083018061137d81611291565b90506113898184611327565b50505060028101604083018061139e81611291565b90506113aa8184611327565b5050506003810160608301806113bf81611291565b90506113cb8184611327565b5050506004810160808301806113e081611291565b90506113ec8184611327565b5050506005810160a083018061140181611291565b905061140d8184611327565b5050505050565b61141e828261134a565b5050565b7f4f776e61626c653a206e6577206f776e657220697320746865207a65726f206160008201527f6464726573730000000000000000000000000000000000000000000000000000602082015250565b600061147e602683610d3f565b915061148982611422565b604082019050919050565b600060208201905081810360008301526114ad81611471565b9050919050565b7f4f776e61626c653a2063616c6c6572206973206e6f7420746865206f776e6572600082015250565b60006114ea602083610d3f565b91506114f5826114b4565b602082019050919050565b60006020820190508181036000830152611519816114dd565b905091905056fea264697066735822122088a199b5de11a1e4f4320cbaf708dc95453ca92ec84d9e6c771b2c336cd3864964736f6c63430008180033",
  "linkReferences": {},
  "deployedLinkReferences": {}
}