{
  "_format": "hh-sol-artifact-1",
  "contractName": "ZkEvmVerifierV1",
  "sourceName": "contracts/libs/ZkEvmVerifierV1.sol",
  "abi": [
    {
      "inputs": [
        {
          "internalType": "address",
          "name": "_verifier",
          "type": "address"
        }
      ],
      "stateMutability": "nonpayable",
      "type": "constructor"
    },
    {
      "inputs": [],
      "name": "VerificationFailed",
      "type": "error"
    },
    {
      "inputs": [],
      "name": "plonkVerifier",
      "outputs": [
        {
          "internalType": "address",
          "name": "",
          "type": "address"
        }
      ],
      "stateMutability": "view",
      "type": "function"
    },
    {
      "inputs": [
        {
          "internalType": "bytes",
          "name": "aggrProof",
          "type": "bytes"
        },
        {
          "internalType": "bytes32",
          "name": "publicInputHash",
          "type": "bytes32"
        }
      ],
      "name": "verify",
      "outputs": [],
      "stateMutability": "view",
      "type": "function"
    }
  ],
  "bytecode": "0x60a060405234801561001057600080fd5b5060405161048b38038061048b833981810160405281019061003291906100cf565b8073ffffffffffffffffffffffffffffffffffffffff1660808173ffffffffffffffffffffffffffffffffffffffff1681525050506100fc565b600080fd5b600073ffffffffffffffffffffffffffffffffffffffff82169050919050565b600061009c82610071565b9050919050565b6100ac81610091565b81146100b757600080fd5b50565b6000815190506100c9816100a3565b92915050565b6000602082840312156100e5576100e461006c565b5b60006100f3848285016100ba565b91505092915050565b60805161036e61011d6000396000818160790152610138015261036e6000f3fe608060405234801561001057600080fd5b50600436106100365760003560e01c80636b4063411461003b578063e4886e5014610057575b600080fd5b610055600480360381019061005091906101ff565b610075565b005b61005f610136565b60405161006c91906102a0565b60405180910390f35b60007f00000000000000000000000000000000000000000000000000000000000000009050600060405161018086823760005b6104008110156100cf5760ff851681610560038301528460081c94506020810190506100a8565b5061018085036101808701610580830137600080610400870183865afa9150508061012f576040517f08c379a000000000000000000000000000000000000000000000000000000000815260040161012690610318565b60405180910390fd5b5050505050565b7f000000000000000000000000000000000000000000000000000000000000000081565b600080fd5b600080fd5b600080fd5b600080fd5b600080fd5b60008083601f84011261018957610188610164565b5b8235905067ffffffffffffffff8111156101a6576101a5610169565b5b6020830191508360018202830111156101c2576101c161016e565b5b9250929050565b6000819050919050565b6101dc816101c9565b81146101e757600080fd5b50565b6000813590506101f9816101d3565b92915050565b6000806000604084860312156102185761021761015a565b5b600084013567ffffffffffffffff8111156102365761023561015f565b5b61024286828701610173565b93509350506020610255868287016101ea565b9150509250925092565b600073ffffffffffffffffffffffffffffffffffffffff82169050919050565b600061028a8261025f565b9050919050565b61029a8161027f565b82525050565b60006020820190506102b56000830184610291565b92915050565b600082825260208201905092915050565b7f766572696679207a6b2d70726f6f66206661696c656400000000000000000000600082015250565b60006103026016836102bb565b915061030d826102cc565b602082019050919050565b60006020820190508181036000830152610331816102f5565b905091905056fea2646970667358221220251cc52169424a003cd9718b41d1de87a36e012e9a3a4f80475e2be37f69703064736f6c63430008180033",
  "linkReferences": {},
  "deployedLinkReferences": {}
}