{
  "_format": "hh-sol-artifact-1",
  "contractName": "ShadowRollup",
  "sourceName": "contracts/ShadowRollup.sol",
  "abi": [
    {
      "inputs": [
        {
          "internalType": "uint64",
          "name": "_chainId",
          "type": "uint64"
        },
        {
          "internalType": "address",
          "name": "_verifier",
          "type": "address"
        }
      ],
      "stateMutability": "nonpayable",
      "type": "constructor"
    },
    {
      "anonymous": false,
      "inputs": [
        {
          "indexed": true,
          "internalType": "uint64",
          "name": "batchIndex",
          "type": "uint64"
        },
        {
          "indexed": false,
          "internalType": "address",
          "name": "challenger",
          "type": "address"
        },
        {
          "indexed": false,
          "internalType": "uint256",
          "name": "challengeDeposit",
          "type": "uint256"
        }
      ],
      "name": "ChallengeState",
      "type": "event"
    },
    {
      "anonymous": false,
      "inputs": [
        {
          "indexed": true,
          "internalType": "address",
          "name": "previousOwner",
          "type": "address"
        },
        {
          "indexed": true,
          "internalType": "address",
          "name": "newOwner",
          "type": "address"
        }
      ],
      "name": "OwnershipTransferred",
      "type": "event"
    },
    {
      "inputs": [
        {
          "internalType": "uint256",
          "name": "batchIndex",
          "type": "uint256"
        }
      ],
      "name": "batchInChallenge",
      "outputs": [
        {
          "internalType": "bool",
          "name": "",
          "type": "bool"
        }
      ],
      "stateMutability": "view",
      "type": "function"
    },
    {
      "inputs": [
        {
          "internalType": "uint64",
          "name": "batchIndex",
          "type": "uint64"
        }
      ],
      "name": "challengeState",
      "outputs": [],
      "stateMutability": "payable",
      "type": "function"
    },
    {
      "inputs": [
        {
          "internalType": "uint256",
          "name": "",
          "type": "uint256"
        }
      ],
      "name": "challenges",
      "outputs": [
        {
          "internalType": "uint64",
          "name": "batchIndex",
          "type": "uint64"
        },
        {
          "internalType": "address",
          "name": "challenger",
          "type": "address"
        },
        {
          "internalType": "uint256",
          "name": "challengeDeposit",
          "type": "uint256"
        },
        {
          "internalType": "uint256",
          "name": "startTime",
          "type": "uint256"
        },
        {
          "internalType": "bool",
          "name": "finished",
          "type": "bool"
        }
      ],
      "stateMutability": "view",
      "type": "function"
    },
    {
      "inputs": [
        {
          "internalType": "uint64",
          "name": "_batchIndex",
          "type": "uint64"
        },
        {
          "components": [
            {
              "internalType": "bytes32",
              "name": "prevStateRoot",
              "type": "bytes32"
            },
            {
              "internalType": "bytes32",
              "name": "postStateRoot",
              "type": "bytes32"
            },
            {
              "internalType": "bytes32",
              "name": "withdrawalRoot",
              "type": "bytes32"
            },
            {
              "internalType": "bytes32",
              "name": "dataHash",
              "type": "bytes32"
            },
            {
              "internalType": "bytes32",
              "name": "blobVersionedHash",
              "type": "bytes32"
            }
          ],
          "internalType": "struct ShadowRollup.BatchStore",
          "name": "_batchData",
          "type": "tuple"
        }
      ],
      "name": "commitBatch",
      "outputs": [],
      "stateMutability": "nonpayable",
      "type": "function"
    },
    {
      "inputs": [
        {
          "internalType": "uint256",
          "name": "",
          "type": "uint256"
        }
      ],
      "name": "committedBatchStores",
      "outputs": [
        {
          "internalType": "bytes32",
          "name": "prevStateRoot",
          "type": "bytes32"
        },
        {
          "internalType": "bytes32",
          "name": "postStateRoot",
          "type": "bytes32"
        },
        {
          "internalType": "bytes32",
          "name": "withdrawalRoot",
          "type": "bytes32"
        },
        {
          "internalType": "bytes32",
          "name": "dataHash",
          "type": "bytes32"
        },
        {
          "internalType": "bytes32",
          "name": "blobVersionedHash",
          "type": "bytes32"
        }
      ],
      "stateMutability": "view",
      "type": "function"
    },
    {
      "inputs": [
        {
          "internalType": "uint256",
          "name": "_batchIndex",
          "type": "uint256"
        }
      ],
      "name": "isBatchFinalized",
      "outputs": [
        {
          "internalType": "bool",
          "name": "",
          "type": "bool"
        }
      ],
      "stateMutability": "pure",
      "type": "function"
    },
    {
      "inputs": [],
      "name": "layer2ChainId",
      "outputs": [
        {
          "internalType": "uint64",
          "name": "",
          "type": "uint64"
        }
      ],
      "stateMutability": "view",
      "type": "function"
    },
    {
      "inputs": [],
      "name": "owner",
      "outputs": [
        {
          "internalType": "address",
          "name": "",
          "type": "address"
        }
      ],
      "stateMutability": "view",
      "type": "function"
    },
    {
      "inputs": [
        {
          "internalType": "uint64",
          "name": "_batchIndex",
          "type": "uint64"
        },
        {
          "internalType": "bytes",
          "name": "_aggrProof",
          "type": "bytes"
        },
        {
          "internalType": "bytes",
          "name": "_kzgData",
          "type": "bytes"
        }
      ],
      "name": "proveState",
      "outputs": [],
      "stateMutability": "nonpayable",
      "type": "function"
    },
    {
      "inputs": [],
      "name": "renounceOwnership",
      "outputs": [],
      "stateMutability": "nonpayable",
      "type": "function"
    },
    {
      "inputs": [
        {
          "internalType": "bytes",
          "name": "_combined",
          "type": "bytes"
        }
      ],
      "name": "splitUint256",
      "outputs": [
        {
          "internalType": "bytes",
          "name": "",
          "type": "bytes"
        }
      ],
      "stateMutability": "pure",
      "type": "function"
    },
    {
      "inputs": [
        {
          "internalType": "address",
          "name": "newOwner",
          "type": "address"
        }
      ],
      "name": "transferOwnership",
      "outputs": [],
      "stateMutability": "nonpayable",
      "type": "function"
    },
    {
      "inputs": [
        {
          "internalType": "address",
          "name": "_verifier",
          "type": "address"
        }
      ],
      "name": "updateVerifier",
      "outputs": [],
      "stateMutability": "nonpayable",
      "type": "function"
    },
    {
      "inputs": [],
      "name": "zkevm_verifier",
      "outputs": [
        {
          "internalType": "address",
          "name": "",
          "type": "address"
        }
      ],
      "stateMutability": "view",
      "type": "function"
    }
  ],
  "bytecode": "0x60a06040523480156200001157600080fd5b5060405162001bef38038062001bef833981810160405281019062000037919062000237565b620000576200004b620000bc60201b60201c565b620000c460201b60201c565b8167ffffffffffffffff1660808167ffffffffffffffff168152505080600160006101000a81548173ffffffffffffffffffffffffffffffffffffffff021916908373ffffffffffffffffffffffffffffffffffffffff16021790555050506200027e565b600033905090565b60008060009054906101000a900473ffffffffffffffffffffffffffffffffffffffff169050816000806101000a81548173ffffffffffffffffffffffffffffffffffffffff021916908373ffffffffffffffffffffffffffffffffffffffff1602179055508173ffffffffffffffffffffffffffffffffffffffff168173ffffffffffffffffffffffffffffffffffffffff167f8be0079c531659141344cd1fd0a4f28419497f9722a3daafe3b4186f6b6457e060405160405180910390a35050565b600080fd5b600067ffffffffffffffff82169050919050565b620001ac816200018d565b8114620001b857600080fd5b50565b600081519050620001cc81620001a1565b92915050565b600073ffffffffffffffffffffffffffffffffffffffff82169050919050565b6000620001ff82620001d2565b9050919050565b6200021181620001f2565b81146200021d57600080fd5b50565b600081519050620002318162000206565b92915050565b6000806040838503121562000251576200025062000188565b5b60006200026185828601620001bb565b9250506020620002748582860162000220565b9150509250929050565b60805161194e620002a16000396000818161037501526104d0015261194e6000f3fe6080604052600436106100dd5760003560e01c80638da5cb5b1161007f578063c7b40afe11610059578063c7b40afe146102a7578063d181ed76146102e4578063de8b30351461030d578063f2fde38b1461034a576100dd565b80638da5cb5b146102125780638f1d37761461023d57806397fc007c1461027e576100dd565b8063331e8f7f116100bb578063331e8f7f1461018b57806336622a30146101b6578063715018a6146101df5780638d644bb7146101f6576100dd565b806303c7f4af146100e25780630b79cdda1461010d578063116a1f421461014e575b600080fd5b3480156100ee57600080fd5b506100f7610373565b6040516101049190610cd2565b60405180910390f35b34801561011957600080fd5b50610134600480360381019061012f9190610d37565b610397565b604051610145959493929190610d7d565b60405180910390f35b34801561015a57600080fd5b5061017560048036038101906101709190610d37565b6103cd565b6040516101829190610deb565b60405180910390f35b34801561019757600080fd5b506101a061041a565b6040516101ad9190610e47565b60405180910390f35b3480156101c257600080fd5b506101dd60048036038101906101d89190610ef3565b610440565b005b3480156101eb57600080fd5b506101f46106a7565b005b610210600480360381019061020b9190610f88565b6106bb565b005b34801561021e57600080fd5b5061022761082c565b6040516102349190610e47565b60405180910390f35b34801561024957600080fd5b50610264600480360381019061025f9190610d37565b610855565b604051610275959493929190610fc4565b60405180910390f35b34801561028a57600080fd5b506102a560048036038101906102a09190611043565b6108cc565b005b3480156102b357600080fd5b506102ce60048036038101906102c991906111b1565b610918565b6040516102db9190611279565b60405180910390f35b3480156102f057600080fd5b5061030b600480360381019061030691906112bf565b610a15565b005b34801561031957600080fd5b50610334600480360381019061032f9190610d37565b610a46565b6040516103419190610deb565b60405180910390f35b34801561035657600080fd5b50610371600480360381019061036c9190611043565b610ae2565b005b7f000000000000000000000000000000000000000000000000000000000000000081565b60026020528060005260406000206000915090508060000154908060010154908060020154908060030154908060040154905085565b6000808211610411576040517f08c379a00000000000000000000000000000000000000000000000000000000081526004016104089061135c565b60405180910390fd5b60009050919050565b600160009054906101000a900473ffffffffffffffffffffffffffffffffffffffff1681565b60008484905011610486576040517f08c379a000000000000000000000000000000000000000000000000000000000815260040161047d906113c8565b60405180910390fd5b60a082829050146104cc576040517f08c379a00000000000000000000000000000000000000000000000000000000081526004016104c390611434565b60405180910390fd5b60007f0000000000000000000000000000000000000000000000000000000000000000600260008867ffffffffffffffff16815260200190815260200160002060000154600260008967ffffffffffffffff16815260200190815260200160002060010154600260008a67ffffffffffffffff16815260200190815260200160002060020154600260008b67ffffffffffffffff1681526020019081526020016000206003015487876000906040926105879392919061145e565b600260008e67ffffffffffffffff168152602001908152602001600020600401546040516020016105bf989796959493929190611520565b604051602081830303815290604052805190602001209050600160009054906101000a900473ffffffffffffffffffffffffffffffffffffffff1673ffffffffffffffffffffffffffffffffffffffff16636b4063418686846040518463ffffffff1660e01b8152600401610636939291906115cc565b60006040518083038186803b15801561064e57600080fd5b505afa158015610662573d6000803e3d6000fd5b505050506001600360008867ffffffffffffffff16815260200190815260200160002060030160006101000a81548160ff021916908315150217905550505050505050565b6106af610b65565b6106b96000610be3565b565b6106c3610b65565b6040518060a001604052808267ffffffffffffffff1681526020016106e6610ca7565b73ffffffffffffffffffffffffffffffffffffffff16815260200134815260200142815260200160001515815250600360008367ffffffffffffffff16815260200190815260200160002060008201518160000160006101000a81548167ffffffffffffffff021916908367ffffffffffffffff16021790555060208201518160000160086101000a81548173ffffffffffffffffffffffffffffffffffffffff021916908373ffffffffffffffffffffffffffffffffffffffff160217905550604082015181600101556060820151816002015560808201518160030160006101000a81548160ff0219169083151502179055509050508067ffffffffffffffff167f3a6ea19df25b49e7624e313ce7c1ab23984238e93727260db56a81735b1b9976610812610ca7565b346040516108219291906115fe565b60405180910390a250565b60008060009054906101000a900473ffffffffffffffffffffffffffffffffffffffff16905090565b60036020528060005260406000206000915090508060000160009054906101000a900467ffffffffffffffff16908060000160089054906101000a900473ffffffffffffffffffffffffffffffffffffffff16908060010154908060020154908060030160009054906101000a900460ff16905085565b6108d4610b65565b80600160006101000a81548173ffffffffffffffffffffffffffffffffffffffff021916908373ffffffffffffffffffffffffffffffffffffffff16021790555050565b6060602082511461095e576040517f08c379a000000000000000000000000000000000000000000000000000000000815260040161095590611673565b60405180910390fd5b60006020830151905060008060006affffffffffffffffffffff841692506affffffffffffffffffffff605885901c1691506a7fffffffffffffffffffff60b085901c1690506000606067ffffffffffffffff8111156109c1576109c0611086565b5b6040519080825280601f01601f1916602001820160405280156109f35781602001600182028036833780820191505090505b5090508360208201528260408201528160608201528095505050505050919050565b80600260008467ffffffffffffffff1681526020019081526020016000208181610a3f919061180c565b9050505050565b60008073ffffffffffffffffffffffffffffffffffffffff166003600084815260200190815260200160002060000160089054906101000a900473ffffffffffffffffffffffffffffffffffffffff1673ffffffffffffffffffffffffffffffffffffffff1614158015610adb57506003600083815260200190815260200160002060030160009054906101000a900460ff16155b9050919050565b610aea610b65565b600073ffffffffffffffffffffffffffffffffffffffff168173ffffffffffffffffffffffffffffffffffffffff1603610b59576040517f08c379a0000000000000000000000000000000000000000000000000000000008152600401610b509061188c565b60405180910390fd5b610b6281610be3565b50565b610b6d610ca7565b73ffffffffffffffffffffffffffffffffffffffff16610b8b61082c565b73ffffffffffffffffffffffffffffffffffffffff1614610be1576040517f08c379a0000000000000000000000000000000000000000000000000000000008152600401610bd8906118f8565b60405180910390fd5b565b60008060009054906101000a900473ffffffffffffffffffffffffffffffffffffffff169050816000806101000a81548173ffffffffffffffffffffffffffffffffffffffff021916908373ffffffffffffffffffffffffffffffffffffffff1602179055508173ffffffffffffffffffffffffffffffffffffffff168173ffffffffffffffffffffffffffffffffffffffff167f8be0079c531659141344cd1fd0a4f28419497f9722a3daafe3b4186f6b6457e060405160405180910390a35050565b600033905090565b600067ffffffffffffffff82169050919050565b610ccc81610caf565b82525050565b6000602082019050610ce76000830184610cc3565b92915050565b6000604051905090565b600080fd5b600080fd5b6000819050919050565b610d1481610d01565b8114610d1f57600080fd5b50565b600081359050610d3181610d0b565b92915050565b600060208284031215610d4d57610d4c610cf7565b5b6000610d5b84828501610d22565b91505092915050565b6000819050919050565b610d7781610d64565b82525050565b600060a082019050610d926000830188610d6e565b610d9f6020830187610d6e565b610dac6040830186610d6e565b610db96060830185610d6e565b610dc66080830184610d6e565b9695505050505050565b60008115159050919050565b610de581610dd0565b82525050565b6000602082019050610e006000830184610ddc565b92915050565b600073ffffffffffffffffffffffffffffffffffffffff82169050919050565b6000610e3182610e06565b9050919050565b610e4181610e26565b82525050565b6000602082019050610e5c6000830184610e38565b92915050565b610e6b81610caf565b8114610e7657600080fd5b50565b600081359050610e8881610e62565b92915050565b600080fd5b600080fd5b600080fd5b60008083601f840112610eb357610eb2610e8e565b5b8235905067ffffffffffffffff811115610ed057610ecf610e93565b5b602083019150836001820283011115610eec57610eeb610e98565b5b9250929050565b600080600080600060608688031215610f0f57610f0e610cf7565b5b6000610f1d88828901610e79565b955050602086013567ffffffffffffffff811115610f3e57610f3d610cfc565b5b610f4a88828901610e9d565b9450945050604086013567ffffffffffffffff811115610f6d57610f6c610cfc565b5b610f7988828901610e9d565b92509250509295509295909350565b600060208284031215610f9e57610f9d610cf7565b5b6000610fac84828501610e79565b91505092915050565b610fbe81610d01565b82525050565b600060a082019050610fd96000830188610cc3565b610fe66020830187610e38565b610ff36040830186610fb5565b6110006060830185610fb5565b61100d6080830184610ddc565b9695505050505050565b61102081610e26565b811461102b57600080fd5b50565b60008135905061103d81611017565b92915050565b60006020828403121561105957611058610cf7565b5b60006110678482850161102e565b91505092915050565b600080fd5b6000601f19601f8301169050919050565b7f4e487b7100000000000000000000000000000000000000000000000000000000600052604160045260246000fd5b6110be82611075565b810181811067ffffffffffffffff821117156110dd576110dc611086565b5b80604052505050565b60006110f0610ced565b90506110fc82826110b5565b919050565b600067ffffffffffffffff82111561111c5761111b611086565b5b61112582611075565b9050602081019050919050565b82818337600083830152505050565b600061115461114f84611101565b6110e6565b9050828152602081018484840111156111705761116f611070565b5b61117b848285611132565b509392505050565b600082601f83011261119857611197610e8e565b5b81356111a8848260208601611141565b91505092915050565b6000602082840312156111c7576111c6610cf7565b5b600082013567ffffffffffffffff8111156111e5576111e4610cfc565b5b6111f184828501611183565b91505092915050565b600081519050919050565b600082825260208201905092915050565b60005b83811015611234578082015181840152602081019050611219565b60008484015250505050565b600061124b826111fa565b6112558185611205565b9350611265818560208601611216565b61126e81611075565b840191505092915050565b600060208201905081810360008301526112938184611240565b905092915050565b600080fd5b600060a082840312156112b6576112b561129b565b5b81905092915050565b60008060c083850312156112d6576112d5610cf7565b5b60006112e485828601610e79565b92505060206112f5858286016112a0565b9150509250929050565b600082825260208201905092915050565b7f696e76616c6964206261746368496e6465780000000000000000000000000000600082015250565b60006113466012836112ff565b915061135182611310565b602082019050919050565b6000602082019050818103600083015261137581611339565b9050919050565b7f496e76616c69642070726f6f6600000000000000000000000000000000000000600082015250565b60006113b2600d836112ff565b91506113bd8261137c565b602082019050919050565b600060208201905081810360008301526113e1816113a5565b9050919050565b7f496e76616c6964204b5a47206461746100000000000000000000000000000000600082015250565b600061141e6010836112ff565b9150611429826113e8565b602082019050919050565b6000602082019050818103600083015261144d81611411565b9050919050565b600080fd5b600080fd5b6000808585111561147257611471611454565b5b8386111561148357611482611459565b5b6001850283019150848603905094509492505050565b60008160c01b9050919050565b60006114b182611499565b9050919050565b6114c96114c482610caf565b6114a6565b82525050565b6000819050919050565b6114ea6114e582610d64565b6114cf565b82525050565b600081905092915050565b600061150783856114f0565b9350611514838584611132565b82840190509392505050565b600061152c828b6114b8565b60088201915061153c828a6114d9565b60208201915061154c82896114d9565b60208201915061155c82886114d9565b60208201915061156c82876114d9565b60208201915061157d8285876114fb565b915061158982846114d9565b6020820191508190509998505050505050505050565b60006115ab8385611205565b93506115b8838584611132565b6115c183611075565b840190509392505050565b600060408201905081810360008301526115e781858761159f565b90506115f66020830184610d6e565b949350505050565b60006040820190506116136000830185610e38565b6116206020830184610fb5565b9392505050565b7f496e707574206c656e677468206d757374206265203332206279746573000000600082015250565b600061165d601d836112ff565b915061166882611627565b602082019050919050565b6000602082019050818103600083015261168c81611650565b9050919050565b61169c81610d64565b81146116a757600080fd5b50565b600081356116b781611693565b80915050919050565b60008160001b9050919050565b60007fffffffffffffffffffffffffffffffffffffffffffffffffffffffffffffffff6116f9846116c0565b9350801983169250808416831791505092915050565b600061171a82610d64565b9050919050565b60008160001c9050919050565b600061173982611721565b9050919050565b6117498261170f565b61175c6117558261172e565b83546116cd565b8255505050565b600081016000830180611775816116aa565b90506117818184611740565b505050600181016020830180611796816116aa565b90506117a28184611740565b5050506002810160408301806117b7816116aa565b90506117c38184611740565b5050506003810160608301806117d8816116aa565b90506117e48184611740565b5050506004810160808301806117f9816116aa565b90506118058184611740565b5050505050565b6118168282611763565b5050565b7f4f776e61626c653a206e6577206f776e657220697320746865207a65726f206160008201527f6464726573730000000000000000000000000000000000000000000000000000602082015250565b60006118766026836112ff565b91506118818261181a565b604082019050919050565b600060208201905081810360008301526118a581611869565b9050919050565b7f4f776e61626c653a2063616c6c6572206973206e6f7420746865206f776e6572600082015250565b60006118e26020836112ff565b91506118ed826118ac565b602082019050919050565b60006020820190508181036000830152611911816118d5565b905091905056fea2646970667358221220f9551fc1f7b376e8d1225fe7e6b5117a28a609e242800fac055509ce368961f664736f6c63430008180033",
  "linkReferences": {},
  "deployedLinkReferences": {}
}