{
  "_format": "hh-sol-artifact-1",
  "contractName": "L2OverflowTester",
  "sourceName": "contracts/mock/L2OverflowTester.sol",
  "abi": [
    {
      "inputs": [],
      "name": "getHashCount",
      "outputs": [
        {
          "internalType": "uint256",
          "name": "",
          "type": "uint256"
        }
      ],
      "stateMutability": "view",
      "type": "function"
    },
    {
      "inputs": [],
      "name": "getMessageHash",
      "outputs": [
        {
          "internalType": "bytes32",
          "name": "",
          "type": "bytes32"
        }
      ],
      "stateMutability": "view",
      "type": "function"
    },
    {
      "inputs": [
        {
          "internalType": "string",
          "name": "_message",
          "type": "string"
        },
        {
          "internalType": "uint256",
          "name": "count",
          "type": "uint256"
        }
      ],
      "name": "hash",
      "outputs": [],
      "stateMutability": "nonpayable",
      "type": "function"
    }
  ],
  "bytecode": "0x608060405234801561000f575f80fd5b506101958061001d5f395ff3fe608060405234801561000f575f80fd5b506004361061003f575f3560e01c80633758b9961461004357806383b3847a14610058578063be25270f14610060575b5f80fd5b5f545b60405190815260200160405180910390f35b600154610046565b61007361006e366004610117565b610075565b005b5f83838080601f0160208091040260200160405190810160405280939291908181526020018383808284375f9201829052509394505050505b8281101561010e5781516020808401919091205f8190556040516100d6920190815260200190565b604080517fffffffffffffffffffffffffffffffffffffffffffffffffffffffffffffffe081840301815291905291506001016100ae565b50506001555050565b5f805f60408486031215610129575f80fd5b833567ffffffffffffffff80821115610140575f80fd5b818601915086601f830112610153575f80fd5b813581811115610161575f80fd5b876020828501011115610172575f80fd5b602092830198909750959091013594935050505056fea164736f6c6343000818000a",
  "linkReferences": {},
  "deployedLinkReferences": {}
}