{
  "_format": "hh-sol-artifact-1",
  "contractName": "L1CrossDomainMessenger",
  "sourceName": "contracts/l1/L1CrossDomainMessenger.sol",
  "abi": [
    {
      "inputs": [],
      "stateMutability": "nonpayable",
      "type": "constructor"
    },
    {
      "inputs": [],
      "name": "ErrZeroAddress",
      "type": "error"
    },
    {
      "anonymous": false,
      "inputs": [
        {
          "indexed": true,
          "internalType": "bytes32",
          "name": "messageHash",
          "type": "bytes32"
        }
      ],
      "name": "FailedRelayedMessage",
      "type": "event"
    },
    {
      "anonymous": false,
      "inputs": [
        {
          "indexed": false,
          "internalType": "uint8",
          "name": "version",
          "type": "uint8"
        }
      ],
      "name": "Initialized",
      "type": "event"
    },
    {
      "anonymous": false,
      "inputs": [
        {
          "indexed": true,
          "internalType": "address",
          "name": "previousOwner",
          "type": "address"
        },
        {
          "indexed": true,
          "internalType": "address",
          "name": "newOwner",
          "type": "address"
        }
      ],
      "name": "OwnershipTransferred",
      "type": "event"
    },
    {
      "anonymous": false,
      "inputs": [
        {
          "indexed": false,
          "internalType": "address",
          "name": "account",
          "type": "address"
        }
      ],
      "name": "Paused",
      "type": "event"
    },
    {
      "anonymous": false,
      "inputs": [
        {
          "indexed": true,
          "internalType": "bytes32",
          "name": "messageHash",
          "type": "bytes32"
        }
      ],
      "name": "RelayedMessage",
      "type": "event"
    },
    {
      "anonymous": false,
      "inputs": [
        {
          "indexed": true,
          "internalType": "uint256",
          "name": "oldNonce",
          "type": "uint256"
        },
        {
          "indexed": true,
          "internalType": "address",
          "name": "sender",
          "type": "address"
        },
        {
          "indexed": true,
          "internalType": "address",
          "name": "target",
          "type": "address"
        },
        {
          "indexed": false,
          "internalType": "uint256",
          "name": "value",
          "type": "uint256"
        },
        {
          "indexed": false,
          "internalType": "uint256",
          "name": "messageNonce",
          "type": "uint256"
        },
        {
          "indexed": false,
          "internalType": "uint256",
          "name": "gasLimit",
          "type": "uint256"
        },
        {
          "indexed": false,
          "internalType": "bytes",
          "name": "message",
          "type": "bytes"
        }
      ],
      "name": "ReplayMessage",
      "type": "event"
    },
    {
      "anonymous": false,
      "inputs": [
        {
          "indexed": true,
          "internalType": "address",
          "name": "sender",
          "type": "address"
        },
        {
          "indexed": true,
          "internalType": "address",
          "name": "target",
          "type": "address"
        },
        {
          "indexed": false,
          "internalType": "uint256",
          "name": "value",
          "type": "uint256"
        },
        {
          "indexed": false,
          "internalType": "uint256",
          "name": "messageNonce",
          "type": "uint256"
        },
        {
          "indexed": false,
          "internalType": "uint256",
          "name": "gasLimit",
          "type": "uint256"
        },
        {
          "indexed": false,
          "internalType": "bytes",
          "name": "message",
          "type": "bytes"
        }
      ],
      "name": "SentMessage",
      "type": "event"
    },
    {
      "anonymous": false,
      "inputs": [
        {
          "indexed": false,
          "internalType": "address",
          "name": "account",
          "type": "address"
        }
      ],
      "name": "Unpaused",
      "type": "event"
    },
    {
      "anonymous": false,
      "inputs": [
        {
          "indexed": true,
          "internalType": "address",
          "name": "_oldFeeVault",
          "type": "address"
        },
        {
          "indexed": true,
          "internalType": "address",
          "name": "_newFeeVault",
          "type": "address"
        }
      ],
      "name": "UpdateFeeVault",
      "type": "event"
    },
    {
      "anonymous": false,
      "inputs": [
        {
          "indexed": false,
          "internalType": "uint256",
          "name": "oldMaxReplayTimes",
          "type": "uint256"
        },
        {
          "indexed": false,
          "internalType": "uint256",
          "name": "newMaxReplayTimes",
          "type": "uint256"
        }
      ],
      "name": "UpdateMaxReplayTimes",
      "type": "event"
    },
    {
      "anonymous": false,
      "inputs": [
        {
          "indexed": false,
          "internalType": "address",
          "name": "oldRollup",
          "type": "address"
        },
        {
          "indexed": false,
          "internalType": "address",
          "name": "newRollup",
          "type": "address"
        }
      ],
      "name": "UpdateRollup",
      "type": "event"
    },
    {
      "inputs": [
        {
          "internalType": "bytes32",
          "name": "",
          "type": "bytes32"
        }
      ],
      "name": "__isL1MessageDropped",
      "outputs": [
        {
          "internalType": "bool",
          "name": "",
          "type": "bool"
        }
      ],
      "stateMutability": "view",
      "type": "function"
    },
    {
      "inputs": [],
      "name": "counterpart",
      "outputs": [
        {
          "internalType": "address",
          "name": "",
          "type": "address"
        }
      ],
      "stateMutability": "view",
      "type": "function"
    },
    {
      "inputs": [],
      "name": "feeVault",
      "outputs": [
        {
          "internalType": "address",
          "name": "",
          "type": "address"
        }
      ],
      "stateMutability": "view",
      "type": "function"
    },
    {
      "inputs": [
        {
          "internalType": "bytes32",
          "name": "",
          "type": "bytes32"
        }
      ],
      "name": "finalizedWithdrawals",
      "outputs": [
        {
          "internalType": "bool",
          "name": "",
          "type": "bool"
        }
      ],
      "stateMutability": "view",
      "type": "function"
    },
    {
      "inputs": [
        {
          "internalType": "address",
          "name": "_feeVault",
          "type": "address"
        },
        {
          "internalType": "address",
          "name": "_rollup",
          "type": "address"
        },
        {
          "internalType": "address",
          "name": "_messageQueue",
          "type": "address"
        }
      ],
      "name": "initialize",
      "outputs": [],
      "stateMutability": "nonpayable",
      "type": "function"
    },
    {
      "inputs": [],
      "name": "maxReplayTimes",
      "outputs": [
        {
          "internalType": "uint256",
          "name": "",
          "type": "uint256"
        }
      ],
      "stateMutability": "view",
      "type": "function"
    },
    {
      "inputs": [],
      "name": "messageNonce",
      "outputs": [
        {
          "internalType": "uint256",
          "name": "",
          "type": "uint256"
        }
      ],
      "stateMutability": "view",
      "type": "function"
    },
    {
      "inputs": [],
      "name": "messageQueue",
      "outputs": [
        {
          "internalType": "address",
          "name": "",
          "type": "address"
        }
      ],
      "stateMutability": "view",
      "type": "function"
    },
    {
      "inputs": [
        {
          "internalType": "bytes32",
          "name": "",
          "type": "bytes32"
        }
      ],
      "name": "messageSendTimestamp",
      "outputs": [
        {
          "internalType": "uint256",
          "name": "",
          "type": "uint256"
        }
      ],
      "stateMutability": "view",
      "type": "function"
    },
    {
      "inputs": [],
      "name": "owner",
      "outputs": [
        {
          "internalType": "address",
          "name": "",
          "type": "address"
        }
      ],
      "stateMutability": "view",
      "type": "function"
    },
    {
      "inputs": [],
      "name": "paused",
      "outputs": [
        {
          "internalType": "bool",
          "name": "",
          "type": "bool"
        }
      ],
      "stateMutability": "view",
      "type": "function"
    },
    {
      "inputs": [
        {
          "internalType": "uint256",
          "name": "",
          "type": "uint256"
        }
      ],
      "name": "prevReplayIndex",
      "outputs": [
        {
          "internalType": "uint256",
          "name": "",
          "type": "uint256"
        }
      ],
      "stateMutability": "view",
      "type": "function"
    },
    {
      "inputs": [
        {
          "internalType": "address",
          "name": "_from",
          "type": "address"
        },
        {
          "internalType": "address",
          "name": "_to",
          "type": "address"
        },
        {
          "internalType": "uint256",
          "name": "_value",
          "type": "uint256"
        },
        {
          "internalType": "uint256",
          "name": "_nonce",
          "type": "uint256"
        },
        {
          "internalType": "bytes",
          "name": "_message",
          "type": "bytes"
        },
        {
          "internalType": "bytes32[32]",
          "name": "_withdrawalProof",
          "type": "bytes32[32]"
        },
        {
          "internalType": "bytes32",
          "name": "_withdrawalRoot",
          "type": "bytes32"
        }
      ],
      "name": "proveAndRelayMessage",
      "outputs": [],
      "stateMutability": "nonpayable",
      "type": "function"
    },
    {
      "inputs": [],
      "name": "renounceOwnership",
      "outputs": [],
      "stateMutability": "nonpayable",
      "type": "function"
    },
    {
      "inputs": [
        {
          "internalType": "address",
          "name": "_from",
          "type": "address"
        },
        {
          "internalType": "address",
          "name": "_to",
          "type": "address"
        },
        {
          "internalType": "uint256",
          "name": "_value",
          "type": "uint256"
        },
        {
          "internalType": "uint256",
          "name": "_messageNonce",
          "type": "uint256"
        },
        {
          "internalType": "bytes",
          "name": "_message",
          "type": "bytes"
        },
        {
          "internalType": "uint32",
          "name": "_newGasLimit",
          "type": "uint32"
        },
        {
          "internalType": "address",
          "name": "_refundAddress",
          "type": "address"
        }
      ],
      "name": "replayMessage",
      "outputs": [],
      "stateMutability": "payable",
      "type": "function"
    },
    {
      "inputs": [
        {
          "internalType": "bytes32",
          "name": "",
          "type": "bytes32"
        }
      ],
      "name": "replayStates",
      "outputs": [
        {
          "internalType": "uint128",
          "name": "times",
          "type": "uint128"
        },
        {
          "internalType": "uint128",
          "name": "lastIndex",
          "type": "uint128"
        }
      ],
      "stateMutability": "view",
      "type": "function"
    },
    {
      "inputs": [],
      "name": "rollup",
      "outputs": [
        {
          "internalType": "address",
          "name": "",
          "type": "address"
        }
      ],
      "stateMutability": "view",
      "type": "function"
    },
    {
      "inputs": [
        {
          "internalType": "address",
          "name": "_to",
          "type": "address"
        },
        {
          "internalType": "uint256",
          "name": "_value",
          "type": "uint256"
        },
        {
          "internalType": "bytes",
          "name": "_message",
          "type": "bytes"
        },
        {
          "internalType": "uint256",
          "name": "_gasLimit",
          "type": "uint256"
        },
        {
          "internalType": "address",
          "name": "_refundAddress",
          "type": "address"
        }
      ],
      "name": "sendMessage",
      "outputs": [],
      "stateMutability": "payable",
      "type": "function"
    },
    {
      "inputs": [
        {
          "internalType": "address",
          "name": "_to",
          "type": "address"
        },
        {
          "internalType": "uint256",
          "name": "_value",
          "type": "uint256"
        },
        {
          "internalType": "bytes",
          "name": "_message",
          "type": "bytes"
        },
        {
          "internalType": "uint256",
          "name": "_gasLimit",
          "type": "uint256"
        }
      ],
      "name": "sendMessage",
      "outputs": [],
      "stateMutability": "payable",
      "type": "function"
    },
    {
      "inputs": [
        {
          "internalType": "bool",
          "name": "_status",
          "type": "bool"
        }
      ],
      "name": "setPause",
      "outputs": [],
      "stateMutability": "nonpayable",
      "type": "function"
    },
    {
      "inputs": [
        {
          "internalType": "address",
          "name": "newOwner",
          "type": "address"
        }
      ],
      "name": "transferOwnership",
      "outputs": [],
      "stateMutability": "nonpayable",
      "type": "function"
    },
    {
      "inputs": [
        {
          "internalType": "address",
          "name": "_newFeeVault",
          "type": "address"
        }
      ],
      "name": "updateFeeVault",
      "outputs": [],
      "stateMutability": "nonpayable",
      "type": "function"
    },
    {
      "inputs": [
        {
          "internalType": "uint256",
          "name": "_newMaxReplayTimes",
          "type": "uint256"
        }
      ],
      "name": "updateMaxReplayTimes",
      "outputs": [],
      "stateMutability": "nonpayable",
      "type": "function"
    },
    {
      "inputs": [
        {
          "internalType": "address",
          "name": "_newRollup",
          "type": "address"
        }
      ],
      "name": "updateRollup",
      "outputs": [],
      "stateMutability": "nonpayable",
      "type": "function"
    },
    {
      "inputs": [
        {
          "internalType": "bytes32",
          "name": "leafHash",
          "type": "bytes32"
        },
        {
          "internalType": "bytes32[32]",
          "name": "smtProof",
          "type": "bytes32[32]"
        },
        {
          "internalType": "uint256",
          "name": "index",
          "type": "uint256"
        },
        {
          "internalType": "bytes32",
          "name": "root",
          "type": "bytes32"
        }
      ],
      "name": "verifyMerkleProof",
      "outputs": [
        {
          "internalType": "bool",
          "name": "",
          "type": "bool"
        }
      ],
      "stateMutability": "pure",
      "type": "function"
    },
    {
      "inputs": [],
      "name": "xDomainMessageSender",
      "outputs": [
        {
          "internalType": "address",
          "name": "",
          "type": "address"
        }
      ],
      "stateMutability": "view",
      "type": "function"
    },
    {
      "stateMutability": "payable",
      "type": "receive"
    }
  ],
  "bytecode": "0x608060405234801562000010575f80fd5b506200001b62000021565b620000df565b5f54610100900460ff16156200008d5760405162461bcd60e51b815260206004820152602760248201527f496e697469616c697a61626c653a20636f6e747261637420697320696e697469604482015266616c697a696e6760c81b606482015260840160405180910390fd5b5f5460ff90811614620000dd575f805460ff191660ff9081179091556040519081527f7f26b83ff96e1f2b6a682f133852f6798a09c465da95921460cefb38474024989060200160405180910390a15b565b612a5080620000ed5f395ff3fe60806040526004361061019c575f3560e01c806386fa4b73116100dc578063c0c53b8b11610087578063e70fc93b11610062578063e70fc93b146104cf578063ea7ec514146104fa578063ecc7042814610526578063f2fde38b1461053a575f80fd5b8063c0c53b8b14610472578063cb23bcb514610491578063d87e7df1146104b0575f80fd5b8063a14238e7116100b7578063a14238e714610412578063b2267a7b14610440578063bedb86fb14610453575f80fd5b806386fa4b73146103b35780638da5cb5b146103d2578063946130d8146103ef575f80fd5b806355004105116101475780636e296e45116101225780636e296e45146102e2578063715018a614610301578063797594b014610315578063846d4d7a14610334575f80fd5b806355004105146102a55780635c975abb146102b85780635f7b1577146102cf575f80fd5b80633b70c18a116101775780633b70c18a14610230578063407c195514610267578063478222c214610286575f80fd5b806305804dd7146101af5780632a6cccb2146101f2578063340735f714610211575f80fd5b366101ab576101a9610559565b005b5f80fd5b3480156101ba575f80fd5b506101dd6101c9366004612435565b60fc6020525f908152604090205460ff1681565b60405190151581526020015b60405180910390f35b3480156101fd575f80fd5b506101a961020c366004612467565b6105ba565b34801561021c575f80fd5b506101dd61022b36600461249e565b610681565b34801561023b575f80fd5b5060fe5461024f906001600160a01b031681565b6040516001600160a01b0390911681526020016101e9565b348015610272575f80fd5b506101a9610281366004612435565b61074a565b348015610291575f80fd5b5060cb5461024f906001600160a01b031681565b6101a96102b33660046125ae565b61080d565b3480156102c3575f80fd5b5060655460ff166101dd565b6101a96102dd366004612645565b610e55565b3480156102ed575f80fd5b5060c95461024f906001600160a01b031681565b34801561030c575f80fd5b506101a9610ea9565b348015610320575f80fd5b5060ca5461024f906001600160a01b031681565b34801561033f575f80fd5b5061038a61034e366004612435565b6101006020525f90815260409020546fffffffffffffffffffffffffffffffff8082169170010000000000000000000000000000000090041682565b604080516fffffffffffffffffffffffffffffffff9384168152929091166020830152016101e9565b3480156103be575f80fd5b506101a96103cd3660046126e3565b610eba565b3480156103dd575f80fd5b506033546001600160a01b031661024f565b3480156103fa575f80fd5b5061040460ff5481565b6040519081526020016101e9565b34801561041d575f80fd5b506101dd61042c366004612435565b60fa6020525f908152604090205460ff1681565b6101a961044e36600461276c565b6113a4565b34801561045e575f80fd5b506101a961046d3660046127d4565b6113bf565b34801561047d575f80fd5b506101a961048c3660046127ef565b6113e0565b34801561049c575f80fd5b5060fd5461024f906001600160a01b031681565b3480156104bb575f80fd5b506101a96104ca366004612467565b611661565b3480156104da575f80fd5b506104046104e9366004612435565b60fb6020525f908152604090205481565b348015610505575f80fd5b50610404610514366004612435565b6101016020525f908152604090205481565b348015610531575f80fd5b50610404611757565b348015610545575f80fd5b506101a9610554366004612467565b6117e0565b6033546001600160a01b031633146105b85760405162461bcd60e51b815260206004820181905260248201527f4f776e61626c653a2063616c6c6572206973206e6f7420746865206f776e657260448201526064015b60405180910390fd5b565b6105c2610559565b6001600160a01b0381166106185760405162461bcd60e51b815260206004820152601d60248201527f6665655661756c742063616e6e6f74206265206164647265737328302900000060448201526064016105af565b60cb80546001600160a01b038381167fffffffffffffffffffffffff0000000000000000000000000000000000000000831681179093556040519116919082907f4aadc32827849f797733838c61302f7f56d2b6db28caa175eb3f7f8e5aba25f5905f90a35050565b5f84815b602081101561073e578085901c6001166001036106eb578581602081106106ae576106ae61282f565b6020020135826040516020016106ce929190918252602082015260400190565b604051602081830303815290604052805190602001209150610736565b818682602081106106fe576106fe61282f565b602002013560405160200161071d929190918252602082015260400190565b6040516020818303038152906040528051906020012091505b600101610685565b50909114949350505050565b610752610559565b5f81116107c75760405162461bcd60e51b815260206004820152602360248201527f7265706c61792074696d6573206d75737420626520677265617465722074686160448201527f6e2030000000000000000000000000000000000000000000000000000000000060648201526084016105af565b60ff80549082905560408051828152602081018490527fd700562df02eb66951f6f5275df7ebd7c0ec58b3422915789b3b1877aab2e52b91015b60405180910390a15050565b61081561186d565b60c9546001600160a01b031661dead146108715760405162461bcd60e51b815260206004820152601f60248201527f4d65737361676520697320616c726561647920696e20657865637574696f6e0060448201526064016105af565b60fe5460ca546001600160a01b0391821691165f6108928a8a8a8a8a6118c0565b90505f818051906020012090505f60fb5f8381526020019081526020015f2054116109255760405162461bcd60e51b815260206004820152602660248201527f50726f7669646564206d65737361676520686173206e6f74206265656e20656e60448201527f717565756564000000000000000000000000000000000000000000000000000060648201526084016105af565b5f81815260fc602052604090205460ff16156109835760405162461bcd60e51b815260206004820152601760248201527f4d65737361676520616c72656164792064726f7070656400000000000000000060448201526064016105af565b6040517f3e4cbbe60000000000000000000000000000000000000000000000000000000081526001600160a01b038c8116600483015263ffffffff881660248301525f9190861690633e4cbbe690604401602060405180830381865afa1580156109ef573d5f803e3d5ffd5b505050506040513d601f19601f82011682018060405250810190610a13919061285c565b905080341015610a655760405162461bcd60e51b815260206004820152601e60248201527f496e73756666696369656e74206d73672e76616c756520666f7220666565000060448201526064016105af565b8015610b0d5760cb546040515f916001600160a01b03169083908381818185875af1925050503d805f8114610ab5576040519150601f19603f3d011682016040523d82523d5f602084013e610aba565b606091505b5050905080610b0b5760405162461bcd60e51b815260206004820152601860248201527f4661696c656420746f206465647563742074686520666565000000000000000060448201526064016105af565b505b5f856001600160a01b031663fd0ad31e6040518163ffffffff1660e01b8152600401602060405180830381865afa158015610b4a573d5f803e3d5ffd5b505050506040513d601f19601f82011682018060405250810190610b6e919061285c565b6040517f9b1597820000000000000000000000000000000000000000000000000000000081529091506001600160a01b03871690639b15978290610bba9088908c9089906004016128de565b5f604051808303815f87803b158015610bd1575f80fd5b505af1158015610be3573d5f803e3d5ffd5b5050505f848152610100602090815260408083208151808301909252546fffffffffffffffffffffffffffffffff80821683527001000000000000000000000000000000009091041691810182905292509003610c53575f8281526101016020526040902060018c019055610c84565b80602001516001016fffffffffffffffffffffffffffffffff166101015f8481526020019081526020015f20819055505b6fffffffffffffffffffffffffffffffff808316602083015260ff54825190911610610cf25760405162461bcd60e51b815260206004820152601b60248201527f457863656564206d6178696d756d207265706c61792074696d6573000000000060448201526064016105af565b80516fffffffffffffffffffffffffffffffff600191909101811682525f858152610100602090815260409091208351919093015182167001000000000000000000000000000000000291161790556001600160a01b038c16610d523390565b6001600160a01b03168b7fa3a1251805b1fc7915884575b42e1fb862e814f0f5c9d670d08bf84697053d618e858d8f604051610d919493929190612914565b60405180910390a434828103908314610e45575f886001600160a01b0316826040515f6040518083038185875af1925050503d805f8114610ded576040519150601f19603f3d011682016040523d82523d5f602084013e610df2565b606091505b5050905080610e435760405162461bcd60e51b815260206004820152601860248201527f4661696c656420746f20726566756e642074686520666565000000000000000060448201526064016105af565b505b5050505050505050505050505050565b610e5d61186d565b610ea1868686868080601f0160208091040260200160405190810160405280939291908181526020018383808284375f9201919091525088925087915061195c9050565b505050505050565b610eb1610559565b6105b85f611da8565b610ec261186d565b60c9546001600160a01b031661dead14610f1e5760405162461bcd60e51b815260206004820152601f60248201527f4d65737361676520697320616c726561647920696e20657865637574696f6e0060448201526064016105af565b60fe546001600160a01b0390811690871603610fa25760405162461bcd60e51b815260206004820152602760248201527f4d657373656e6765723a20466f7262696420746f2063616c6c206d657373616760448201527f652071756575650000000000000000000000000000000000000000000000000060648201526084016105af565b610fab86611e11565b60c9546001600160a01b039081169088160361102f5760405162461bcd60e51b815260206004820152602160248201527f4d657373656e6765723a20496e76616c6964206d6573736167652073656e646560448201527f720000000000000000000000000000000000000000000000000000000000000060648201526084016105af565b5f61103d88888888886118c0565b80516020918201205f81815260fa90925260409091205490915060ff16156110cd5760405162461bcd60e51b815260206004820152603060248201527f4d657373656e6765723a207769746864726177616c2068617320616c7265616460448201527f79206265656e2066696e616c697a65640000000000000000000000000000000060648201526084016105af565b60fd546040517f04d77215000000000000000000000000000000000000000000000000000000008152600481018490526001600160a01b03909116905f9082906304d7721590602401602060405180830381865afa158015611131573d5f803e3d5ffd5b505050506040513d601f19601f820116820180604052508101906111559190612948565b9050806111ca5760405162461bcd60e51b815260206004820152602760248201527f4d657373656e6765723a207769746864726177616c526f6f74206e6f7420666960448201527f6e616c697a65640000000000000000000000000000000000000000000000000060648201526084016105af565b6111d683868987610681565b6112485760405162461bcd60e51b815260206004820152602d60248201527f4d657373656e6765723a20696e76616c6964207769746864726177616c20696e60448201527f636c7573696f6e2070726f6f660000000000000000000000000000000000000060648201526084016105af565b5060c980547fffffffffffffffffffffffff0000000000000000000000000000000000000000166001600160a01b038b8116919091179091556040515f918a16908990611296908990612963565b5f6040518083038185875af1925050503d805f81146112d0576040519150601f19603f3d011682016040523d82523d5f602084013e6112d5565b606091505b505060c980547fffffffffffffffffffffffff00000000000000000000000000000000000000001661dead1790559050801561136d575f83815260fa602052604080822080547fffffffffffffffffffffffffffffffffffffffffffffffffffffffffffffff001660011790555184917f4641df4a962071e12719d8c8c8e5ac7fc4d97b927346a3d7a335b1f7517e133c91a2611398565b60405183907f99d0e048484baa1b1540b1367cb128acd7ab2946d1ed91ec10e3c85e4bf51b8f905f90a25b50505050505050505050565b6113ac61186d565b6113b9848484843361195c565b50505050565b6113c7610559565b80156113d8576113d5611e69565b50565b6113d5611ee1565b5f54610100900460ff16158080156113fe57505f54600160ff909116105b806114175750303b15801561141757505f5460ff166001145b6114895760405162461bcd60e51b815260206004820152602e60248201527f496e697469616c697a61626c653a20636f6e747261637420697320616c72656160448201527f647920696e697469616c697a656400000000000000000000000000000000000060648201526084016105af565b5f80547fffffffffffffffffffffffffffffffffffffffffffffffffffffffffffffff0016600117905580156114e5575f80547fffffffffffffffffffffffffffffffffffffffffffffffffffffffffffff00ff166101001790555b6001600160a01b038316158061150257506001600160a01b038216155b8061151457506001600160a01b038416155b1561154b576040517fecc6fdf000000000000000000000000000000000000000000000000000000000815260040160405180910390fd5b61156973530000000000000000000000000000000000000785611f38565b60fd80546001600160a01b038086167fffffffffffffffffffffffff00000000000000000000000000000000000000009283161790925560fe805492851692909116919091179055600360ff8190556040517fd700562df02eb66951f6f5275df7ebd7c0ec58b3422915789b3b1877aab2e52b916115f2915f9190918252602082015260400190565b60405180910390a180156113b9575f80547fffffffffffffffffffffffffffffffffffffffffffffffffffffffffffff00ff169055604051600181527f7f26b83ff96e1f2b6a682f133852f6798a09c465da95921460cefb38474024989060200160405180910390a150505050565b611669610559565b6001600160a01b0381166116e55760405162461bcd60e51b815260206004820152602360248201527f726f6c6c757020616464726573732063616e6e6f74206265206164647265737360448201527f283029000000000000000000000000000000000000000000000000000000000060648201526084016105af565b60fd80546001600160a01b038381167fffffffffffffffffffffffff000000000000000000000000000000000000000083168117909355604080519190921680825260208201939093527f5272c8ad4bd643b1130291ea29bebd9b3bc583057a6e4d047eb7077039a956309101610801565b60fe54604080517ffd0ad31e00000000000000000000000000000000000000000000000000000000815290515f926001600160a01b03169163fd0ad31e9160048083019260209291908290030181865afa1580156117b7573d5f803e3d5ffd5b505050506040513d601f19601f820116820180604052508101906117db919061285c565b905090565b6117e8610559565b6001600160a01b0381166118645760405162461bcd60e51b815260206004820152602660248201527f4f776e61626c653a206e6577206f776e657220697320746865207a65726f206160448201527f646472657373000000000000000000000000000000000000000000000000000060648201526084016105af565b6113d581611da8565b60655460ff16156105b85760405162461bcd60e51b815260206004820152601060248201527f5061757361626c653a207061757365640000000000000000000000000000000060448201526064016105af565b606085858585856040516024016118db95949392919061297e565b604080517fffffffffffffffffffffffffffffffffffffffffffffffffffffffffffffffe08184030181529190526020810180517bffffffffffffffffffffffffffffffffffffffffffffffffffffffff167f8ef1332e00000000000000000000000000000000000000000000000000000000179052905095945050505050565b611964612050565b60fe5460ca54604080517ffd0ad31e00000000000000000000000000000000000000000000000000000000815290516001600160a01b0393841693909216915f91849163fd0ad31e916004808201926020929091908290030181865afa1580156119d0573d5f803e3d5ffd5b505050506040513d601f19601f820116820180604052508101906119f4919061285c565b90505f611a04338a8a858b6118c0565b90505f6001600160a01b038516633e4cbbe6336040517fffffffff0000000000000000000000000000000000000000000000000000000060e084901b1681526001600160a01b039091166004820152602481018a9052604401602060405180830381865afa158015611a78573d5f803e3d5ffd5b505050506040513d601f19601f82011682018060405250810190611a9c919061285c565b9050611aa889826129c0565b341015611af75760405162461bcd60e51b815260206004820152601660248201527f496e73756666696369656e74206d73672e76616c75650000000000000000000060448201526064016105af565b8015611b9f5760cb546040515f916001600160a01b03169083908381818185875af1925050503d805f8114611b47576040519150601f19603f3d011682016040523d82523d5f602084013e611b4c565b606091505b5050905080611b9d5760405162461bcd60e51b815260206004820152601860248201527f4661696c656420746f206465647563742074686520666565000000000000000060448201526064016105af565b505b6040517f9b1597820000000000000000000000000000000000000000000000000000000081526001600160a01b03861690639b15978290611be89087908b9087906004016129f8565b5f604051808303815f87803b158015611bff575f80fd5b505af1158015611c11573d5f803e3d5ffd5b505050505f8280519060200120905060fb5f8281526020019081526020015f20545f14611c805760405162461bcd60e51b815260206004820152601260248201527f4475706c696361746564206d657373616765000000000000000000000000000060448201526064016105af565b5f81815260fb602052604090204290556001600160a01b038b16336001600160a01b03167f104371f3b442861a2a7b82a070afbbaab748bb13757bf47769e170e37809ec1e8c878c8e604051611cd99493929190612a1f565b60405180910390a3348290038a8103908b14611d90575f886001600160a01b0316826040515f6040518083038185875af1925050503d805f8114611d38576040519150601f19603f3d011682016040523d82523d5f602084013e611d3d565b606091505b5050905080611d8e5760405162461bcd60e51b815260206004820152601860248201527f4661696c656420746f20726566756e642074686520666565000000000000000060448201526064016105af565b505b50505050505050611da16001609755565b5050505050565b603380546001600160a01b038381167fffffffffffffffffffffffff0000000000000000000000000000000000000000831681179093556040519116919082907f8be0079c531659141344cd1fd0a4f28419497f9722a3daafe3b4186f6b6457e0905f90a35050565b306001600160a01b038216036113d55760405162461bcd60e51b815260206004820152601e60248201527f4d657373656e6765723a20466f7262696420746f2063616c6c2073656c66000060448201526064016105af565b611e7161186d565b606580547fffffffffffffffffffffffffffffffffffffffffffffffffffffffffffffff001660011790557f62e78cea01bee320cd4e420270b5ea74000d11b0c9f74754ebdbfc544b05a258611ec43390565b6040516001600160a01b03909116815260200160405180910390a1565b611ee96120b0565b606580547fffffffffffffffffffffffffffffffffffffffffffffffffffffffffffffff001690557f5db9ee0a495bf2e6ff9c91a7834c1ba4fdd244a5e8aa4e537bd38aeae4b073aa33611ec4565b5f54610100900460ff16611fb45760405162461bcd60e51b815260206004820152602b60248201527f496e697469616c697a61626c653a20636f6e7472616374206973206e6f74206960448201527f6e697469616c697a696e6700000000000000000000000000000000000000000060648201526084016105af565b611fbc612102565b611fc4612186565b611fcc61220a565b60c980547fffffffffffffffffffffffff000000000000000000000000000000000000000090811661dead1790915560ca80546001600160a01b038581169190931617905581161561204c5760cb80547fffffffffffffffffffffffff0000000000000000000000000000000000000000166001600160a01b0383161790555b5050565b6002609754036120a25760405162461bcd60e51b815260206004820152601f60248201527f5265656e7472616e637947756172643a207265656e7472616e742063616c6c0060448201526064016105af565b6002609755565b6001609755565b60655460ff166105b85760405162461bcd60e51b815260206004820152601460248201527f5061757361626c653a206e6f742070617573656400000000000000000000000060448201526064016105af565b5f54610100900460ff1661217e5760405162461bcd60e51b815260206004820152602b60248201527f496e697469616c697a61626c653a20636f6e7472616374206973206e6f74206960448201527f6e697469616c697a696e6700000000000000000000000000000000000000000060648201526084016105af565b6105b861228e565b5f54610100900460ff166122025760405162461bcd60e51b815260206004820152602b60248201527f496e697469616c697a61626c653a20636f6e7472616374206973206e6f74206960448201527f6e697469616c697a696e6700000000000000000000000000000000000000000060648201526084016105af565b6105b8612313565b5f54610100900460ff166122865760405162461bcd60e51b815260206004820152602b60248201527f496e697469616c697a61626c653a20636f6e7472616374206973206e6f74206960448201527f6e697469616c697a696e6700000000000000000000000000000000000000000060648201526084016105af565b6105b86123b9565b5f54610100900460ff1661230a5760405162461bcd60e51b815260206004820152602b60248201527f496e697469616c697a61626c653a20636f6e7472616374206973206e6f74206960448201527f6e697469616c697a696e6700000000000000000000000000000000000000000060648201526084016105af565b6105b833611da8565b5f54610100900460ff1661238f5760405162461bcd60e51b815260206004820152602b60248201527f496e697469616c697a61626c653a20636f6e7472616374206973206e6f74206960448201527f6e697469616c697a696e6700000000000000000000000000000000000000000060648201526084016105af565b606580547fffffffffffffffffffffffffffffffffffffffffffffffffffffffffffffff00169055565b5f54610100900460ff166120a95760405162461bcd60e51b815260206004820152602b60248201527f496e697469616c697a61626c653a20636f6e7472616374206973206e6f74206960448201527f6e697469616c697a696e6700000000000000000000000000000000000000000060648201526084016105af565b5f60208284031215612445575f80fd5b5035919050565b80356001600160a01b0381168114612462575f80fd5b919050565b5f60208284031215612477575f80fd5b6124808261244c565b9392505050565b806104008101831015612498575f80fd5b92915050565b5f805f8061046085870312156124b2575f80fd5b843593506124c38660208701612487565b939693955050505061042082013591610440013590565b7f4e487b71000000000000000000000000000000000000000000000000000000005f52604160045260245ffd5b5f82601f830112612516575f80fd5b813567ffffffffffffffff80821115612531576125316124da565b604051601f83017fffffffffffffffffffffffffffffffffffffffffffffffffffffffffffffffe0908116603f01168101908282118183101715612577576125776124da565b8160405283815286602085880101111561258f575f80fd5b836020870160208301375f602085830101528094505050505092915050565b5f805f805f805f60e0888a0312156125c4575f80fd5b6125cd8861244c565b96506125db6020890161244c565b95506040880135945060608801359350608088013567ffffffffffffffff811115612604575f80fd5b6126108a828b01612507565b93505060a088013563ffffffff81168114612629575f80fd5b915061263760c0890161244c565b905092959891949750929550565b5f805f805f8060a0878903121561265a575f80fd5b6126638761244c565b955060208701359450604087013567ffffffffffffffff80821115612686575f80fd5b818901915089601f830112612699575f80fd5b8135818111156126a7575f80fd5b8a60208285010111156126b8575f80fd5b602083019650809550505050606087013591506126d76080880161244c565b90509295509295509295565b5f805f805f805f6104c0888a0312156126fa575f80fd5b6127038861244c565b96506127116020890161244c565b95506040880135945060608801359350608088013567ffffffffffffffff81111561273a575f80fd5b6127468a828b01612507565b9350506127568960a08a01612487565b91506104a0880135905092959891949750929550565b5f805f806080858703121561277f575f80fd5b6127888561244c565b935060208501359250604085013567ffffffffffffffff8111156127aa575f80fd5b6127b687828801612507565b949793965093946060013593505050565b80151581146113d5575f80fd5b5f602082840312156127e4575f80fd5b8135612480816127c7565b5f805f60608486031215612801575f80fd5b61280a8461244c565b92506128186020850161244c565b91506128266040850161244c565b90509250925092565b7f4e487b71000000000000000000000000000000000000000000000000000000005f52603260045260245ffd5b5f6020828403121561286c575f80fd5b5051919050565b5f5b8381101561288d578181015183820152602001612875565b50505f910152565b5f81518084526128ac816020860160208601612873565b601f017fffffffffffffffffffffffffffffffffffffffffffffffffffffffffffffffe0169290920160200192915050565b6001600160a01b038416815263ffffffff83166020820152606060408201525f61290b6060830184612895565b95945050505050565b84815283602082015263ffffffff83166040820152608060608201525f61293e6080830184612895565b9695505050505050565b5f60208284031215612958575f80fd5b8151612480816127c7565b5f8251612974818460208701612873565b9190910192915050565b5f6001600160a01b03808816835280871660208401525084604083015283606083015260a060808301526129b560a0830184612895565b979650505050505050565b80820180821115612498577f4e487b71000000000000000000000000000000000000000000000000000000005f52601160045260245ffd5b6001600160a01b0384168152826020820152606060408201525f61290b6060830184612895565b848152836020820152826040820152608060608201525f61293e608083018461289556fea164736f6c6343000818000a",
  "linkReferences": {},
  "deployedLinkReferences": {}
}