{
  "_format": "hh-sol-artifact-1",
  "contractName": "PlonkVerifier",
  "sourceName": "contracts/libraries/verifier/PlonkVerifier.sol",
  "abi": [
    {
      "inputs": [
        {
          "internalType": "bytes",
          "name": "proof",
          "type": "bytes"
        },
        {
          "internalType": "uint256[]",
          "name": "public_inputs",
          "type": "uint256[]"
        }
      ],
      "name": "Verify",
      "outputs": [
        {
          "internalType": "bool",
          "name": "success",
          "type": "bool"
        }
      ],
      "stateMutability": "view",
      "type": "function"
    }
  ],
  "bytecode": "0x608060405234801561000f575f80fd5b506128e18061001d5f395ff3fe608060405234801561000f575f80fd5b5060043610610029575f3560e01c80637e4f7a8a1461002d575b5f80fd5b61004061003b36600461281a565b610054565b604051901515815260200160405180910390f35b5f604051610240810161006684610497565b61007085856104aa565b610079866104f9565b6100828761050f565b5f61008e86868a6106a9565b9050610099816109e0565b90506100a58189610a46565b90506100b18189610ad4565b5060608201517f30644e72e131a029b85045b68181585d2833e84879b9709143e1f593f00000017f30644e72e131a029b85045b68181585d2833e84879b9709143e1f593f0000000610108846301000000856127bc565b086101c08401525061011b818587610b3f565b61012682868a610eb4565b91507f30644e72e131a029b85045b68181585d2833e84879b9709143e1f593f00000018183086101a08401525061015d9050611259565b610166866123b0565b61016f86612301565b61017886611f1c565b61018186611a47565b61018a866117a8565b610193866113aa565b61020001519050612812565b6040517f08c379a000000000000000000000000000000000000000000000000000000000815260206004820152601d60248201527f77726f6e67206e756d626572206f66207075626c696320696e707574730000006044820152606481fd5b6040517f08c379a000000000000000000000000000000000000000000000000000000000815260206004820152601260248201527f6572726f72206563206f7065726174696f6e00000000000000000000000000006044820152606481fd5b6040517f08c379a000000000000000000000000000000000000000000000000000000000815260206004820152601860248201527f696e707574732061726520626967676572207468616e207200000000000000006044820152606481fd5b6040517f08c379a000000000000000000000000000000000000000000000000000000000815260206004820152601060248201527f77726f6e672070726f6f662073697a65000000000000000000000000000000006044820152606481fd5b6040517f08c379a000000000000000000000000000000000000000000000000000000000815260206004820152601660248201527f6f70656e696e677320626967676572207468616e2072000000000000000000006044820152606481fd5b6040517f08c379a000000000000000000000000000000000000000000000000000000000815260206004820152600d60248201527f6572726f722070616972696e67000000000000000000000000000000000000006044820152606481fd5b6040517f08c379a000000000000000000000000000000000000000000000000000000000815260206004820152600c60248201527f6572726f722076657269667900000000000000000000000000000000000000006044820152606481fd5b6040517f08c379a000000000000000000000000000000000000000000000000000000000815260206004820152601460248201527f6572726f722072616e646f6d2067656e206b7a670000000000000000000000006044820152606481fd5b600281146104a7576104a761019f565b50565b5f5b818110156104f4577f30644e72e131a029b85045b68181585d2833e84879b9709143e1f593f0000000833511156104e5576104e561025d565b602092909201916001016104ac565b505050565b61036081811461050b5761050b6102bc565b5050565b61018081017f30644e72e131a029b85045b68181585d2833e84879b9709143e1f593f0000000813511156105455761054561031b565b506101a081017f30644e72e131a029b85045b68181585d2833e84879b9709143e1f593f00000008135111561057c5761057c61031b565b506101c081017f30644e72e131a029b85045b68181585d2833e84879b9709143e1f593f0000000813511156105b3576105b361031b565b506101e081017f30644e72e131a029b85045b68181585d2833e84879b9709143e1f593f0000000813511156105ea576105ea61031b565b5061020081017f30644e72e131a029b85045b68181585d2833e84879b9709143e1f593f0000000813511156106215761062161031b565b5061026081017f30644e72e131a029b85045b68181585d2833e84879b9709143e1f593f0000000813511156106585761065861031b565b5061030081015f5b60018110156104f4577f30644e72e131a029b85045b68181585d2833e84879b9709143e1f593f00000008235111561069a5761069a61031b565b60209190910190600101610660565b5f60405161024081016467616d6d6181527f1c49223fce451fa84ed1e40acb592ab8476710ae7496a4a9fbd79885d04a8f7460208201527f11fb124b0a1ff36f046fbdebf9f6e29290f97952e3a968688c340f9369ad027e60408201527f2fe1a4609b1141b4fc03cf73428f223643bfc676e6dc0323ffbe87f1fc4d2c2760608201527f03cca4f52a83b38048f6fb2c6d1f12209ccd6135e5ef7bc133cdb431f47de36f60808201527f2d22aa21883e2c02aeefdbb41a89e31305b7f785cff8d2543de3d2de0e67eb3760a08201527f27f57efe361342b4447b60b663324f47b268d2168a44b2c5a1ae943ad783eac260c08201527f07461bbeeaa489f270aea1e2f15a0b17a6828ee15568ca45d23b104609c983ac60e08201527f2a5d601b3c029f586ccf3d13f9610ec159fd271dff812606f3ac634637decbed6101008201527f2d8762fae30474b2d6707bfab8b02b7e87114c06452e946f685c3fe31af51d296101208201527f0481025548775a91bbce4d119d9f3d49f792d894182ded35400d7877bc7b1d086101408201527f072bde4706c1f31ca6f9d00281492fb765e066e2a91394829338eb8a728571566101608201527f035d79829b0c4f17f1ead06dc0dad3190dc3e0916d488882dbce96e970d9fa356101808201527f280dc265bff4759e2bfe552f6792226bc2667a39e5560316abd8825bc8ebc10a6101a08201527f1aacdb7d7cc8e54875efbcbd34b7149ed44fcdb0728e026f4369e7d48cfac8b06101c08201527f1d0dcabaa449cc5f2655bea87941c30e5a3be902444b9162918506600eacd3076101e08201527f1b00b88b20052a37c14a3beadb4c419bef8c04cc395f0566b50f0bf1090ce5746102008201527f1c2b5a7bce99e1e92402a2cb7f51cf3e359306bd7097247487a7fa4e5a60411a6102208201527f15f7c1d76eea2be4bdc4ae79cab797e20f3a01a6a62df3f6e403e0feddb2986c610240820152610260810160208602808883379081019060c0808784375061030501905060208282601b820160025afa9050806109aa576109aa6103d9565b5080519250507f30644e72e131a029b85045b68181585d2833e84879b9709143e1f593f000000182066040820152509392505050565b5f60405161024060405101636265746181528360208201526020816024601c840160025afa80610a1257610a126103d9565b5080519250507f30644e72e131a029b85045b68181585d2833e84879b9709143e1f593f00000018206602082015250919050565b5f60405161024060405101606564616c7068618252602082018681526020810190506103208601600160400280828437928301929190910190506040610220870182375060208282601b850160025afa905080610aa557610aa56103d9565b50517f30644e72e131a029b85045b68181585d2833e84879b9709143e1f593f000000181069091529392505050565b60405161024060405101637a657461815283602082015260c0808401604083013760208160e4601c840160025afa80610b0f57610b0f6103d9565b50517f30644e72e131a029b85045b68181585d2833e84879b9709143e1f593f00000019006606091909101525050565b5f60405160608101516101c0820151915085610b5d81878585610bd8565b5f92505f91505b85821015610bce577f30644e72e131a029b85045b68181585d2833e84879b9709143e1f593f0000001853582510992507f30644e72e131a029b85045b68181585d2833e84879b9709143e1f593f00000018385086020958601959094506001929092019101610b64565b5050509392505050565b7f30644e72e131a029b85045b68181585d2833e84879b9709143e1f593f00000017f30644e427ce32d4886b01bfe313ba1dba6db8b2045d128178a7164500e0a6c1183096001855f5b86811015610cc6577f30644e72e131a029b85045b68181585d2833e84879b9709143e1f593f0000001837f30644e72e131a029b85045b68181585d2833e84879b9709143e1f593f000000103860882527f30644e72e131a029b85045b68181585d2833e84879b9709143e1f593f00000017f0c9fabc7845d50d2852e2a0371c6441f145e0db82e8326961c25f1e3e32b045b8409925060209190910190600101610c21565b50610cd2818789610d8a565b5060019050855f5b86811015610d80577f30644e72e131a029b85045b68181585d2833e84879b9709143e1f593f0000001837f30644e72e131a029b85045b68181585d2833e84879b9709143e1f593f0000001868551090982526020820191507f30644e72e131a029b85045b68181585d2833e84879b9709143e1f593f00000017f0c9fabc7845d50d2852e2a0371c6441f145e0db82e8326961c25f1e3e32b045b84099250600101610cda565b5050505050505050565b600183525f805b83811015610ddf5781850151828401517f30644e72e131a029b85045b68181585d2833e84879b9709143e1f593f0000001818309905060208401935080848801525050600181019050610d91565b506020810382019150808401935050610e206020840160027f30644e72e131a029b85045b68181585d2833e84879b9709143e1f593f00000010385516127bc565b5f5b83811015610ead5760208503945082517f30644e72e131a029b85045b68181585d2833e84879b9709143e1f593f00000018651840984527f30644e72e131a029b85045b68181585d2833e84879b9709143e1f593f00000018184097fffffffffffffffffffffffffffffffffffffffffffffffffffffffffffffffe090940193925050600101610e22565b5050505050565b5f60405160608101516101c0820151915061032084015f80610edc8960208501358535611060565b9150610eef8962a350ce8a018787610f25565b90507f30644e72e131a029b85045b68181585d2833e84879b9709143e1f593f00000018082840987089998505050505050505050565b5f610f5185857f0c9fabc7845d50d2852e2a0371c6441f145e0db82e8326961c25f1e3e32b045b6127bc565b7f30644e72e131a029b85045b68181585d2833e84879b9709143e1f593f0000001817f30644e72e131a029b85045b68181585d2833e84879b9709143e1f593f000000103840894507f30644e72e131a029b85045b68181585d2833e84879b9709143e1f593f00000017f30644e427ce32d4886b01bfe313ba1dba6db8b2045d128178a7164500e0a6c118209905061100a867f30644e72e131a029b85045b68181585d2833e84879b9709143e1f593efffffff876127bc565b94507f30644e72e131a029b85045b68181585d2833e84879b9709143e1f593f000000185820990507f30644e72e131a029b85045b68181585d2833e84879b9709143e1f593f00000018482099695505050505050565b5f83525f602084015280604084015250806060830152505f6080820153603060818201535f60828201536042608382015360536084820153604260858201536032608682015360326087820153602d608882015360506089820153606c608a820153606f608b820153606e608c820153606b608d820153600b608e8201535f602082608f8460025afa806110f6576110f66103d9565b8251600160208501536042602185015360536022850153604260238501536032602485015360326025850153602d602685015360506027850153606c6028850153606f6029850153606e602a850153606b602b850153600b602c850153602084602d8660025afa91508161116c5761116c6103d9565b8351186020840152600260408401536042604184015360536042840153604260438401536032604484015360326045840153602d604684015360506047840153606c6048840153606f6049840153606e604a840153606b604b840153600b604c84015360208301602081602d8360025afa915050806111ed576111ed6103d9565b507f30644e72e131a029b85045b68181585d2833e84879b9709143e1f593f00000017001000000000000000000000000000000008351099050602082015160801c7f30644e72e131a029b85045b68181585d2833e84879b9709143e1f593f00000018183089392505050565b604051610240604051016101c08201517f30644e72e131a029b85045b68181585d2833e84879b9709143e1f593f000000160017f30644e72e131a029b85045b68181585d2833e84879b9709143e1f593f0000001036060850151086112df837f30644e72e131a029b85045b68181585d2833e84879b9709143e1f593efffffff836127bc565b90507f30644e72e131a029b85045b68181585d2833e84879b9709143e1f593f00000017f30644e427ce32d4886b01bfe313ba1dba6db8b2045d128178a7164500e0a6c11820990507f30644e72e131a029b85045b68181585d2833e84879b9709143e1f593f00000018282098451935091507f30644e72e131a029b85045b68181585d2833e84879b9709143e1f593f0000001905082820990507f30644e72e131a029b85045b68181585d2833e84879b9709143e1f593f00000018282099050806080840152505050565b60405161024081016101608201518152610180820151602082015261028083013560408201526102a08301356060820152610220830135608082015261024083013560a08201526102c083013560c08201526102e083013560e082015260608201516101008201526101e08201516101208201526020816101408360025afa8061143657611436610438565b7f30644e72e131a029b85045b68181585d2833e84879b9709143e1f593f000000182510690508160408101925061028085013581526102a0850135602082015261148683836102c0880184612723565b610160840161149b8484610220890184612723565b61014085016114af8461026089018361276a565b7f1fa4be93b5e7f7e674d5059b63554fab99638b304ed8310e9fa44c281ac9b03b85527f1a01ae7fac6228e39d3cb5a5e71fd31160f3241e79a5f48ffb3737e6c389b7216020860152805160408087019182529095908160608160075afa91508161151c5761151c6103d9565b60208101915081517f30644e72e131a029b85045b68181585d97816a916871ca8d3c208c16d87cfd470382526115548682858661261a565b5050836040850194506115718560608801516102808a01846126b1565b7f30644e72e131a029b85045b68181585d2833e84879b9709143e1f593f00000017f0c9fabc7845d50d2852e2a0371c6441f145e0db82e8326961c25f1e3e32b045b60608801510995507f30644e72e131a029b85045b68181585d2833e84879b9709143e1f593f000000186850993506115f185856102c08a0184612723565b6115fd8582848561261a565b50602082810180517f30644e72e131a029b85045b68181585d97816a916871ca8d3c208c16d87cfd470381528251865291810151908501527f198e9393920d483a7260bfb731fb5d25f1aa493335a9e71297e485b7aef312c260408501527f1800deef121f1e76426a00665e5c4479674322d4f75edadd46debd5cd992f6ed60608501527f090689d0585ff075ec9e99ad690c3395bc4b313370b38ef355acdadcd122975b60808501527f12c85ea5db8c6deb4aab71808dcb408fe3d1e7690c43d37b4ce6cc0166fa7daa60a0850152905160c0840152805160e08401527f22f1acbb03c4508760c2430af35865e7cdf9f3eb1224504fdcc3708ddb954a486101008401527f2a344fad01c2ed0ed73142ae1752429eaea515c6f3f6b941103cc21c2308e1cb6101208401527f159f15b842ba9c8449aa3268f981010d4c7142e5193473d80b464e964845c3f86101408401527f0efd30ac7b6f8d0d3ccbc2207587c2acbad1532dc0293f0d034cf8258cd428b361016084015292506104f490508160405160205f6101808460085afa8061179a5761179a61037a565b505f51610200919091015250565b6040516101e081015160e082015161016083019081526101008301516101808401526101208301516101408401526102408301916102608401916102808501919081906117f786838a84612723565b61180a826101808a016101408a0161276a565b7f30644e72e131a029b85045b68181585d2833e84879b9709143e1f593f0000001838309915061183f868360408b0184612723565b611852826101a08a016101408a0161276a565b7f30644e72e131a029b85045b68181585d2833e84879b9709143e1f593f00000018383099150611887868360808b0184612723565b61189a826101c08a016101408a0161276a565b7f30644e72e131a029b85045b68181585d2833e84879b9709143e1f593f000000183830991507f1c49223fce451fa84ed1e40acb592ab8476710ae7496a4a9fbd79885d04a8f7486527f11fb124b0a1ff36f046fbdebf9f6e29290f97952e3a968688c340f9369ad027e8552611912848388846126dc565b611925826101e08a016101408a0161276a565b7f30644e72e131a029b85045b68181585d2833e84879b9709143e1f593f000000183830991507f2fe1a4609b1141b4fc03cf73428f223643bfc676e6dc0323ffbe87f1fc4d2c2786527f03cca4f52a83b38048f6fb2c6d1f12209ccd6135e5ef7bc133cdb431f47de36f855261199d848388846126dc565b6119b0826102008a016101408a0161276a565b61030088017f30644e72e131a029b85045b68181585d2833e84879b9709143e1f593f000000184840992507f1c2b5a7bce99e1e92402a2cb7f51cf3e359306bd7097247487a7fa4e5a60411a87527f15f7c1d76eea2be4bdc4ae79cab797e20f3a01a6a62df3f6e403e0feddb2986c8652611a2d858489856126dc565b611a3c83826101408b0161276a565b505050505050505050565b6040516467616d6d616102408201908152606082015161026083015260e08201516102808301526101008201516102a083015260c0836102c08401377f1c49223fce451fa84ed1e40acb592ab8476710ae7496a4a9fbd79885d04a8f746101408201527f11fb124b0a1ff36f046fbdebf9f6e29290f97952e3a968688c340f9369ad027e6101608201527f2fe1a4609b1141b4fc03cf73428f223643bfc676e6dc0323ffbe87f1fc4d2c27610180808301919091527f03cca4f52a83b38048f6fb2c6d1f12209ccd6135e5ef7bc133cdb431f47de36f6101a0808401919091527f1c2b5a7bce99e1e92402a2cb7f51cf3e359306bd7097247487a7fa4e5a60411a6101c0808501919091527f15f7c1d76eea2be4bdc4ae79cab797e20f3a01a6a62df3f6e403e0feddb2986c6101e0808601919091526101208601516102008087019190915293870135610220860152918601356102408501528501356102608401528401356102808301528301356102a08201526102c081016103008401602081833750610260840135602091820152601b906102e5906101e085018285850160025afa9250505080611bfd57611bfd6103d9565b506101e00180517f30644e72e131a029b85045b68181585d2833e84879b9709143e1f593f00000019006905250565b604051610240604051017f07461bbeeaa489f270aea1e2f15a0b17a6828ee15568ca45d23b104609c983ac81527f2a5d601b3c029f586ccf3d13f9610ec159fd271dff812606f3ac634637decbed6020820152611c96604082016101808501358360e08601612686565b7f2d8762fae30474b2d6707bfab8b02b7e87114c06452e946f685c3fe31af51d2981527f0481025548775a91bbce4d119d9f3d49f792d894182ded35400d7877bc7b1d086020820152611cf6604082016101a08501358360e086016126dc565b7f30644e72e131a029b85045b68181585d2833e84879b9709143e1f593f00000016101a0840135610180850135097f072bde4706c1f31ca6f9d00281492fb765e066e2a91394829338eb8a7285715682527f035d79829b0c4f17f1ead06dc0dad3190dc3e0916d488882dbce96e970d9fa356020830152611d7f60408301828460e087016126dc565b507f280dc265bff4759e2bfe552f6792226bc2667a39e5560316abd8825bc8ebc10a81527f1aacdb7d7cc8e54875efbcbd34b7149ed44fcdb0728e026f4369e7d48cfac8b06020820152611de0604082016101c08501358360e086016126dc565b7f1d0dcabaa449cc5f2655bea87941c30e5a3be902444b9162918506600eacd30781527f1b00b88b20052a37c14a3beadb4c419bef8c04cc395f0566b50f0bf1090ce5746020820152611e3b604082018260e085018061261a565b610300830161032084015f5b6001811015611e87578135845260208201356020850152611e716040850184358660e089016126dc565b6020929092019160409190910190600101611e47565b5050507f2d22aa21883e2c02aeefdbb41a89e31305b7f785cff8d2543de3d2de0e67eb3781527f27f57efe361342b4447b60b663324f47b268d2168a44b2c5a1ae943ad783eac26020820152611ee560408201858360e086016126dc565b61022083013581526102408301356020820152611f0a60408201868360e086016126dc565b610ead8160a0840160e085018061261a565b6040516020810151604082015160608301515f8401517f30644e72e131a029b85045b68181585d2833e84879b9709143e1f593f000000184610260880135097f30644e72e131a029b85045b68181585d2833e84879b9709143e1f593f00000016101e088013586097f30644e72e131a029b85045b68181585d2833e84879b9709143e1f593f0000001610180890135820890507f30644e72e131a029b85045b68181585d2833e84879b9709143e1f593f000000185820890507f30644e72e131a029b85045b68181585d2833e84879b9709143e1f593f000000161020089013587097f30644e72e131a029b85045b68181585d2833e84879b9709143e1f593f00000016101a08a0135820890507f30644e72e131a029b85045b68181585d2833e84879b9709143e1f593f000000186820890507f30644e72e131a029b85045b68181585d2833e84879b9709143e1f593f00000018284097f30644e72e131a029b85045b68181585d2833e84879b9709143e1f593f000000182820990507f30644e72e131a029b85045b68181585d2833e84879b9709143e1f593f000000185820990507f30644e72e131a029b85045b68181585d2833e84879b9709143e1f593f0000001600580097f30644e72e131a029b85045b68181585d2833e84879b9709143e1f593f0000001878a0998507f30644e72e131a029b85045b68181585d2833e84879b9709143e1f593f00000016101808c01358a0894507f30644e72e131a029b85045b68181585d2833e84879b9709143e1f593f000000188860894507f30644e72e131a029b85045b68181585d2833e84879b9709143e1f593f000000160058a0993507f30644e72e131a029b85045b68181585d2833e84879b9709143e1f593f00000016101a08c0135850893507f30644e72e131a029b85045b68181585d2833e84879b9709143e1f593f000000188850893507f30644e72e131a029b85045b68181585d2833e84879b9709143e1f593f0000001818a099250507f30644e72e131a029b85045b68181585d2833e84879b9709143e1f593f00000016101c08b0135830891507f30644e72e131a029b85045b68181585d2833e84879b9709143e1f593f000000187830891507f30644e72e131a029b85045b68181585d2833e84879b9709143e1f593f000000183850997507f30644e72e131a029b85045b68181585d2833e84879b9709143e1f593f00000018289097f30644e72e131a029b85045b68181585d2833e84879b9709143e1f593f0000001908103985085890997507f30644e72e131a029b85045b68181585d2833e84879b9709143e1f593f000000160808a0151890897506122f588828c611c2c565b50505050505050505050565b604051600263010000000161024060405101612322818360608601516127bc565b91506123378183610140870160a087016126b1565b61234a81610100860160a0860180612650565b612359818360a0860180612686565b61236b8160c0860160a0860180612650565b612382816101c085015160a0860160a08701612686565b505060c00180517f30644e72e131a029b85045b68181585d97816a916871ca8d3c208c16d87cfd4703905250565b6040515f7f30644e72e131a029b85045b68181585d2833e84879b9709143e1f593f000000160208301516101e08501350990507f30644e72e131a029b85045b68181585d2833e84879b9709143e1f593f00000016040830151820890507f30644e72e131a029b85045b68181585d2833e84879b9709143e1f593f0000001610180840135820890505f7f30644e72e131a029b85045b68181585d2833e84879b9709143e1f593f000000160208401516102008601350990507f30644e72e131a029b85045b68181585d2833e84879b9709143e1f593f00000016040840151820890507f30644e72e131a029b85045b68181585d2833e84879b9709143e1f593f00000016101a0850135820890505f7f30644e72e131a029b85045b68181585d2833e84879b9709143e1f593f000000160408501516101c08701350890507f30644e72e131a029b85045b68181585d2833e84879b9709143e1f593f000000182840992507f30644e72e131a029b85045b68181585d2833e84879b9709143e1f593f00000018184099250507f30644e72e131a029b85045b68181585d2833e84879b9709143e1f593f00000015f840151830991507f30644e72e131a029b85045b68181585d2833e84879b9709143e1f593f0000001610260850135830991507f30644e72e131a029b85045b68181585d2833e84879b9709143e1f593f00000016101a0840151830860808401519092507f30644e72e131a029b85045b68181585d2833e84879b9709143e1f593f000000190810391508183087f30644e72e131a029b85045b68181585d2833e84879b9709143e1f593f0000001036101209390930192909252505050565b8151845260208201516020850152825160408501526020830151606085015260408160808660065afa80610ead57610ead6101fe565b8151845260208201516020850152823560408501526020830135606085015260408160808660065afa80610ead57610ead6101fe565b815184526020820151602085015282604085015260408160608660075afa80610ead57610ead6101fe565b813584526020820135602085015282604085015260408160608660075afa80610ead57610ead6101fe565b815184526020820151602085015282604085015260408460608660075afa815160408601526020820151606086015260408260808760065afa1680610ead57610ead6101fe565b813584526020808301359085015260408481018490528460608160075afa815160408601526020820151606086015260408260808760065afa1680610ead57610ead6101fe565b7f30644e72e131a029b85045b68181585d2833e84879b9709143e1f593f0000001838335097f30644e72e131a029b85045b68181585d2833e84879b9709143e1f593f000000181835108825250505050565b602083526020808401526020604084015280606084015250806080830152507f30644e72e131a029b85045b68181585d2833e84879b9709143e1f593f000000160a08201525f60208260c08460055afa50505190565b949350505050565b5f805f806040858703121561282d575f80fd5b843567ffffffffffffffff80821115612844575f80fd5b818701915087601f830112612857575f80fd5b813581811115612865575f80fd5b886020828501011115612876575f80fd5b602092830196509450908601359080821115612890575f80fd5b818701915087601f8301126128a3575f80fd5b8135818111156128b1575f80fd5b8860208260051b85010111156128c5575f80fd5b9598949750506020019450505056fea164736f6c6343000818000a",
  "linkReferences": {},
  "deployedLinkReferences": {}
}