{
  "_format": "hh-sol-artifact-1",
  "contractName": "MockRollup",
  "sourceName": "contracts/mock/MockRollup.sol",
  "abi": [
    {
      "inputs": [],
      "stateMutability": "nonpayable",
      "type": "constructor"
    },
    {
      "inputs": [],
      "name": "ErrZeroAddress",
      "type": "error"
    },
    {
      "anonymous": false,
      "inputs": [
        {
          "indexed": true,
          "internalType": "uint256",
          "name": "batchIndex",
          "type": "uint256"
        },
        {
          "indexed": true,
          "internalType": "address",
          "name": "winner",
          "type": "address"
        },
        {
          "indexed": true,
          "internalType": "string",
          "name": "res",
          "type": "string"
        }
      ],
      "name": "ChallengeRes",
      "type": "event"
    },
    {
      "anonymous": false,
      "inputs": [
        {
          "indexed": true,
          "internalType": "address",
          "name": "receiver",
          "type": "address"
        },
        {
          "indexed": false,
          "internalType": "uint256",
          "name": "amount",
          "type": "uint256"
        }
      ],
      "name": "ChallengeRewardClaim",
      "type": "event"
    },
    {
      "anonymous": false,
      "inputs": [
        {
          "indexed": true,
          "internalType": "uint64",
          "name": "batchIndex",
          "type": "uint64"
        },
        {
          "indexed": true,
          "internalType": "address",
          "name": "challenger",
          "type": "address"
        },
        {
          "indexed": false,
          "internalType": "uint256",
          "name": "challengeDeposit",
          "type": "uint256"
        }
      ],
      "name": "ChallengeState",
      "type": "event"
    },
    {
      "anonymous": false,
      "inputs": [
        {
          "indexed": true,
          "internalType": "uint256",
          "name": "batchIndex",
          "type": "uint256"
        },
        {
          "indexed": true,
          "internalType": "bytes32",
          "name": "batchHash",
          "type": "bytes32"
        }
      ],
      "name": "CommitBatch",
      "type": "event"
    },
    {
      "anonymous": false,
      "inputs": [
        {
          "indexed": true,
          "internalType": "uint256",
          "name": "batchIndex",
          "type": "uint256"
        },
        {
          "indexed": true,
          "internalType": "bytes32",
          "name": "batchHash",
          "type": "bytes32"
        },
        {
          "indexed": false,
          "internalType": "bytes32",
          "name": "stateRoot",
          "type": "bytes32"
        },
        {
          "indexed": false,
          "internalType": "bytes32",
          "name": "withdrawRoot",
          "type": "bytes32"
        }
      ],
      "name": "FinalizeBatch",
      "type": "event"
    },
    {
      "anonymous": false,
      "inputs": [
        {
          "indexed": false,
          "internalType": "uint8",
          "name": "version",
          "type": "uint8"
        }
      ],
      "name": "Initialized",
      "type": "event"
    },
    {
      "anonymous": false,
      "inputs": [
        {
          "indexed": true,
          "internalType": "address",
          "name": "previousOwner",
          "type": "address"
        },
        {
          "indexed": true,
          "internalType": "address",
          "name": "newOwner",
          "type": "address"
        }
      ],
      "name": "OwnershipTransferred",
      "type": "event"
    },
    {
      "anonymous": false,
      "inputs": [
        {
          "indexed": false,
          "internalType": "address",
          "name": "account",
          "type": "address"
        }
      ],
      "name": "Paused",
      "type": "event"
    },
    {
      "anonymous": false,
      "inputs": [
        {
          "indexed": false,
          "internalType": "address",
          "name": "receiver",
          "type": "address"
        },
        {
          "indexed": false,
          "internalType": "uint256",
          "name": "amount",
          "type": "uint256"
        }
      ],
      "name": "ProveRemainingClaimed",
      "type": "event"
    },
    {
      "anonymous": false,
      "inputs": [
        {
          "indexed": true,
          "internalType": "uint256",
          "name": "batchIndex",
          "type": "uint256"
        },
        {
          "indexed": true,
          "internalType": "bytes32",
          "name": "batchHash",
          "type": "bytes32"
        }
      ],
      "name": "RevertBatch",
      "type": "event"
    },
    {
      "anonymous": false,
      "inputs": [
        {
          "indexed": false,
          "internalType": "address",
          "name": "account",
          "type": "address"
        }
      ],
      "name": "Unpaused",
      "type": "event"
    },
    {
      "anonymous": false,
      "inputs": [
        {
          "indexed": true,
          "internalType": "address",
          "name": "account",
          "type": "address"
        },
        {
          "indexed": false,
          "internalType": "bool",
          "name": "status",
          "type": "bool"
        }
      ],
      "name": "UpdateChallenger",
      "type": "event"
    },
    {
      "anonymous": false,
      "inputs": [
        {
          "indexed": false,
          "internalType": "uint256",
          "name": "oldPeriod",
          "type": "uint256"
        },
        {
          "indexed": false,
          "internalType": "uint256",
          "name": "newPeriod",
          "type": "uint256"
        }
      ],
      "name": "UpdateFinalizationPeriodSeconds",
      "type": "event"
    },
    {
      "anonymous": false,
      "inputs": [
        {
          "indexed": false,
          "internalType": "uint256",
          "name": "oldPercent",
          "type": "uint256"
        },
        {
          "indexed": false,
          "internalType": "uint256",
          "name": "newPercent",
          "type": "uint256"
        }
      ],
      "name": "UpdateProofRewardPercent",
      "type": "event"
    },
    {
      "anonymous": false,
      "inputs": [
        {
          "indexed": false,
          "internalType": "uint256",
          "name": "oldWindow",
          "type": "uint256"
        },
        {
          "indexed": false,
          "internalType": "uint256",
          "name": "newWindow",
          "type": "uint256"
        }
      ],
      "name": "UpdateProofWindow",
      "type": "event"
    },
    {
      "anonymous": false,
      "inputs": [
        {
          "indexed": true,
          "internalType": "address",
          "name": "oldVerifier",
          "type": "address"
        },
        {
          "indexed": true,
          "internalType": "address",
          "name": "newVerifier",
          "type": "address"
        }
      ],
      "name": "UpdateVerifier",
      "type": "event"
    },
    {
      "inputs": [],
      "name": "LAYER_2_CHAIN_ID",
      "outputs": [
        {
          "internalType": "uint64",
          "name": "",
          "type": "uint64"
        }
      ],
      "stateMutability": "view",
      "type": "function"
    },
    {
      "inputs": [],
      "name": "__maxNumTxInChunk",
      "outputs": [
        {
          "internalType": "uint256",
          "name": "",
          "type": "uint256"
        }
      ],
      "stateMutability": "view",
      "type": "function"
    },
    {
      "inputs": [
        {
          "internalType": "address",
          "name": "_account",
          "type": "address"
        }
      ],
      "name": "addChallenger",
      "outputs": [],
      "stateMutability": "nonpayable",
      "type": "function"
    },
    {
      "inputs": [
        {
          "internalType": "address",
          "name": "owner",
          "type": "address"
        }
      ],
      "name": "batchChallengeReward",
      "outputs": [
        {
          "internalType": "uint256",
          "name": "amount",
          "type": "uint256"
        }
      ],
      "stateMutability": "view",
      "type": "function"
    },
    {
      "inputs": [],
      "name": "batchChallenged",
      "outputs": [
        {
          "internalType": "uint256",
          "name": "",
          "type": "uint256"
        }
      ],
      "stateMutability": "view",
      "type": "function"
    },
    {
      "inputs": [
        {
          "internalType": "uint256",
          "name": "batchIndex",
          "type": "uint256"
        }
      ],
      "name": "batchChallengedSuccess",
      "outputs": [
        {
          "internalType": "bool",
          "name": "",
          "type": "bool"
        }
      ],
      "stateMutability": "view",
      "type": "function"
    },
    {
      "inputs": [
        {
          "internalType": "uint256",
          "name": "batchIndex",
          "type": "uint256"
        }
      ],
      "name": "batchDataStore",
      "outputs": [
        {
          "internalType": "uint256",
          "name": "originTimestamp",
          "type": "uint256"
        },
        {
          "internalType": "uint256",
          "name": "finalizeTimestamp",
          "type": "uint256"
        },
        {
          "internalType": "uint256",
          "name": "blockNumber",
          "type": "uint256"
        },
        {
          "internalType": "uint256",
          "name": "signedSequencersBitmap",
          "type": "uint256"
        }
      ],
      "stateMutability": "view",
      "type": "function"
    },
    {
      "inputs": [
        {
          "internalType": "uint256",
          "name": "batchIndex",
          "type": "uint256"
        }
      ],
      "name": "batchExist",
      "outputs": [
        {
          "internalType": "bool",
          "name": "",
          "type": "bool"
        }
      ],
      "stateMutability": "view",
      "type": "function"
    },
    {
      "inputs": [
        {
          "internalType": "uint256",
          "name": "batchIndex",
          "type": "uint256"
        }
      ],
      "name": "batchInChallenge",
      "outputs": [
        {
          "internalType": "bool",
          "name": "",
          "type": "bool"
        }
      ],
      "stateMutability": "view",
      "type": "function"
    },
    {
      "inputs": [
        {
          "internalType": "uint256",
          "name": "batchIndex",
          "type": "uint256"
        }
      ],
      "name": "batchInsideChallengeWindow",
      "outputs": [
        {
          "internalType": "bool",
          "name": "",
          "type": "bool"
        }
      ],
      "stateMutability": "view",
      "type": "function"
    },
    {
      "inputs": [
        {
          "internalType": "uint64",
          "name": "batchIndex",
          "type": "uint64"
        },
        {
          "internalType": "bytes32",
          "name": "_batchHash",
          "type": "bytes32"
        }
      ],
      "name": "challengeState",
      "outputs": [],
      "stateMutability": "payable",
      "type": "function"
    },
    {
      "inputs": [
        {
          "internalType": "uint256",
          "name": "batchIndex",
          "type": "uint256"
        }
      ],
      "name": "challenges",
      "outputs": [
        {
          "internalType": "uint64",
          "name": "batchIndex",
          "type": "uint64"
        },
        {
          "internalType": "address",
          "name": "challenger",
          "type": "address"
        },
        {
          "internalType": "uint256",
          "name": "challengeDeposit",
          "type": "uint256"
        },
        {
          "internalType": "uint256",
          "name": "startTime",
          "type": "uint256"
        },
        {
          "internalType": "bool",
          "name": "challengeSuccess",
          "type": "bool"
        },
        {
          "internalType": "bool",
          "name": "finished",
          "type": "bool"
        }
      ],
      "stateMutability": "view",
      "type": "function"
    },
    {
      "inputs": [
        {
          "internalType": "address",
          "name": "receiver",
          "type": "address"
        }
      ],
      "name": "claimProveRemaining",
      "outputs": [],
      "stateMutability": "nonpayable",
      "type": "function"
    },
    {
      "inputs": [
        {
          "internalType": "address",
          "name": "receiver",
          "type": "address"
        }
      ],
      "name": "claimReward",
      "outputs": [],
      "stateMutability": "nonpayable",
      "type": "function"
    },
    {
      "inputs": [
        {
          "components": [
            {
              "internalType": "uint8",
              "name": "version",
              "type": "uint8"
            },
            {
              "internalType": "bytes",
              "name": "parentBatchHeader",
              "type": "bytes"
            },
            {
              "internalType": "uint64",
              "name": "lastBlockNumber",
              "type": "uint64"
            },
            {
              "internalType": "uint16",
              "name": "numL1Messages",
              "type": "uint16"
            },
            {
              "internalType": "bytes32",
              "name": "prevStateRoot",
              "type": "bytes32"
            },
            {
              "internalType": "bytes32",
              "name": "postStateRoot",
              "type": "bytes32"
            },
            {
              "internalType": "bytes32",
              "name": "withdrawalRoot",
              "type": "bytes32"
            }
          ],
          "internalType": "struct IRollup.BatchDataInput",
          "name": "batchDataInput",
          "type": "tuple"
        },
        {
          "components": [
            {
              "internalType": "uint256",
              "name": "signedSequencersBitmap",
              "type": "uint256"
            },
            {
              "internalType": "bytes",
              "name": "sequencerSets",
              "type": "bytes"
            },
            {
              "internalType": "bytes",
              "name": "signature",
              "type": "bytes"
            }
          ],
          "internalType": "struct IRollup.BatchSignatureInput",
          "name": "batchSignatureInput",
          "type": "tuple"
        }
      ],
      "name": "commitBatch",
      "outputs": [],
      "stateMutability": "payable",
      "type": "function"
    },
    {
      "inputs": [
        {
          "internalType": "uint256",
          "name": "batchIndex",
          "type": "uint256"
        }
      ],
      "name": "committedBatches",
      "outputs": [
        {
          "internalType": "bytes32",
          "name": "batchHash",
          "type": "bytes32"
        }
      ],
      "stateMutability": "view",
      "type": "function"
    },
    {
      "inputs": [
        {
          "internalType": "uint256",
          "name": "batchIndex",
          "type": "uint256"
        }
      ],
      "name": "committedStateRoots",
      "outputs": [
        {
          "internalType": "bytes32",
          "name": "stateRoot",
          "type": "bytes32"
        }
      ],
      "stateMutability": "view",
      "type": "function"
    },
    {
      "inputs": [],
      "name": "finalizationPeriodSeconds",
      "outputs": [
        {
          "internalType": "uint256",
          "name": "",
          "type": "uint256"
        }
      ],
      "stateMutability": "view",
      "type": "function"
    },
    {
      "inputs": [
        {
          "internalType": "bytes",
          "name": "_batchHeader",
          "type": "bytes"
        }
      ],
      "name": "finalizeBatch",
      "outputs": [],
      "stateMutability": "nonpayable",
      "type": "function"
    },
    {
      "inputs": [
        {
          "internalType": "uint256",
          "name": "batchIndex",
          "type": "uint256"
        }
      ],
      "name": "finalizedStateRoots",
      "outputs": [
        {
          "internalType": "bytes32",
          "name": "stateRoot",
          "type": "bytes32"
        }
      ],
      "stateMutability": "view",
      "type": "function"
    },
    {
      "inputs": [
        {
          "internalType": "bytes",
          "name": "_batchHeader",
          "type": "bytes"
        }
      ],
      "name": "importGenesisBatch",
      "outputs": [],
      "stateMutability": "nonpayable",
      "type": "function"
    },
    {
      "inputs": [],
      "name": "inChallenge",
      "outputs": [
        {
          "internalType": "bool",
          "name": "",
          "type": "bool"
        }
      ],
      "stateMutability": "view",
      "type": "function"
    },
    {
      "inputs": [
        {
          "internalType": "address",
          "name": "_l1StakingContract",
          "type": "address"
        },
        {
          "internalType": "address",
          "name": "_messageQueue",
          "type": "address"
        },
        {
          "internalType": "address",
          "name": "_verifier",
          "type": "address"
        },
        {
          "internalType": "uint256",
          "name": "_finalizationPeriodSeconds",
          "type": "uint256"
        },
        {
          "internalType": "uint256",
          "name": "_proofWindow",
          "type": "uint256"
        },
        {
          "internalType": "uint256",
          "name": "_proofRewardPercent",
          "type": "uint256"
        }
      ],
      "name": "initialize",
      "outputs": [],
      "stateMutability": "nonpayable",
      "type": "function"
    },
    {
      "inputs": [
        {
          "internalType": "bytes32",
          "name": "_prevStateRoot",
          "type": "bytes32"
        }
      ],
      "name": "initialize2",
      "outputs": [],
      "stateMutability": "nonpayable",
      "type": "function"
    },
    {
      "inputs": [
        {
          "internalType": "uint256",
          "name": "_batchIndex",
          "type": "uint256"
        }
      ],
      "name": "isBatchFinalized",
      "outputs": [
        {
          "internalType": "bool",
          "name": "",
          "type": "bool"
        }
      ],
      "stateMutability": "view",
      "type": "function"
    },
    {
      "inputs": [
        {
          "internalType": "address",
          "name": "challengerAddress",
          "type": "address"
        }
      ],
      "name": "isChallenger",
      "outputs": [
        {
          "internalType": "bool",
          "name": "isChallenger",
          "type": "bool"
        }
      ],
      "stateMutability": "view",
      "type": "function"
    },
    {
      "inputs": [],
      "name": "l1StakingContract",
      "outputs": [
        {
          "internalType": "address",
          "name": "",
          "type": "address"
        }
      ],
      "stateMutability": "view",
      "type": "function"
    },
    {
      "inputs": [],
      "name": "lastCommittedBatchIndex",
      "outputs": [
        {
          "internalType": "uint256",
          "name": "",
          "type": "uint256"
        }
      ],
      "stateMutability": "view",
      "type": "function"
    },
    {
      "inputs": [],
      "name": "lastFinalizedBatchIndex",
      "outputs": [
        {
          "internalType": "uint256",
          "name": "",
          "type": "uint256"
        }
      ],
      "stateMutability": "view",
      "type": "function"
    },
    {
      "inputs": [],
      "name": "messageQueue",
      "outputs": [
        {
          "internalType": "address",
          "name": "",
          "type": "address"
        }
      ],
      "stateMutability": "view",
      "type": "function"
    },
    {
      "inputs": [],
      "name": "owner",
      "outputs": [
        {
          "internalType": "address",
          "name": "",
          "type": "address"
        }
      ],
      "stateMutability": "view",
      "type": "function"
    },
    {
      "inputs": [],
      "name": "paused",
      "outputs": [
        {
          "internalType": "bool",
          "name": "",
          "type": "bool"
        }
      ],
      "stateMutability": "view",
      "type": "function"
    },
    {
      "inputs": [],
      "name": "proofRewardPercent",
      "outputs": [
        {
          "internalType": "uint256",
          "name": "",
          "type": "uint256"
        }
      ],
      "stateMutability": "view",
      "type": "function"
    },
    {
      "inputs": [],
      "name": "proofWindow",
      "outputs": [
        {
          "internalType": "uint256",
          "name": "",
          "type": "uint256"
        }
      ],
      "stateMutability": "view",
      "type": "function"
    },
    {
      "inputs": [],
      "name": "proveRemaining",
      "outputs": [
        {
          "internalType": "uint256",
          "name": "",
          "type": "uint256"
        }
      ],
      "stateMutability": "view",
      "type": "function"
    },
    {
      "inputs": [
        {
          "internalType": "bytes",
          "name": "_batchHeader",
          "type": "bytes"
        },
        {
          "internalType": "bytes",
          "name": "_batchProof",
          "type": "bytes"
        }
      ],
      "name": "proveState",
      "outputs": [],
      "stateMutability": "nonpayable",
      "type": "function"
    },
    {
      "inputs": [
        {
          "internalType": "address",
          "name": "_account",
          "type": "address"
        }
      ],
      "name": "removeChallenger",
      "outputs": [],
      "stateMutability": "nonpayable",
      "type": "function"
    },
    {
      "inputs": [],
      "name": "renounceOwnership",
      "outputs": [],
      "stateMutability": "nonpayable",
      "type": "function"
    },
    {
      "inputs": [
        {
          "internalType": "bytes",
          "name": "_batchHeader",
          "type": "bytes"
        },
        {
          "internalType": "uint256",
          "name": "_count",
          "type": "uint256"
        }
      ],
      "name": "revertBatch",
      "outputs": [],
      "stateMutability": "nonpayable",
      "type": "function"
    },
    {
      "inputs": [],
      "name": "revertReqIndex",
      "outputs": [
        {
          "internalType": "uint256",
          "name": "",
          "type": "uint256"
        }
      ],
      "stateMutability": "view",
      "type": "function"
    },
    {
      "inputs": [
        {
          "internalType": "uint256",
          "name": "_lastFinalizedBatchIndex",
          "type": "uint256"
        }
      ],
      "name": "setLastFinalizedBatchIndex",
      "outputs": [],
      "stateMutability": "nonpayable",
      "type": "function"
    },
    {
      "inputs": [
        {
          "internalType": "bool",
          "name": "_status",
          "type": "bool"
        }
      ],
      "name": "setPause",
      "outputs": [],
      "stateMutability": "nonpayable",
      "type": "function"
    },
    {
      "inputs": [
        {
          "internalType": "address",
          "name": "newOwner",
          "type": "address"
        }
      ],
      "name": "transferOwnership",
      "outputs": [],
      "stateMutability": "nonpayable",
      "type": "function"
    },
    {
      "inputs": [
        {
          "internalType": "uint256",
          "name": "_newPeriod",
          "type": "uint256"
        }
      ],
      "name": "updateFinalizePeriodSeconds",
      "outputs": [],
      "stateMutability": "nonpayable",
      "type": "function"
    },
    {
      "inputs": [
        {
          "internalType": "uint256",
          "name": "_newWindow",
          "type": "uint256"
        }
      ],
      "name": "updateProofWindow",
      "outputs": [],
      "stateMutability": "nonpayable",
      "type": "function"
    },
    {
      "inputs": [
        {
          "internalType": "uint256",
          "name": "_newProofRewardPercent",
          "type": "uint256"
        }
      ],
      "name": "updateRewardPercentage",
      "outputs": [],
      "stateMutability": "nonpayable",
      "type": "function"
    },
    {
      "inputs": [
        {
          "internalType": "address",
          "name": "_newVerifier",
          "type": "address"
        }
      ],
      "name": "updateVerifier",
      "outputs": [],
      "stateMutability": "nonpayable",
      "type": "function"
    },
    {
      "inputs": [],
      "name": "verifier",
      "outputs": [
        {
          "internalType": "address",
          "name": "",
          "type": "address"
        }
      ],
      "stateMutability": "view",
      "type": "function"
    },
    {
      "inputs": [
        {
          "internalType": "bytes32",
          "name": "withdrawalRoot",
          "type": "bytes32"
        }
      ],
      "name": "withdrawalRoots",
      "outputs": [
        {
          "internalType": "bool",
          "name": "exist",
          "type": "bool"
        }
      ],
      "stateMutability": "view",
      "type": "function"
    },
    {
      "stateMutability": "payable",
      "type": "receive"
    }
  ],
  "bytecode": "0x60a060405234801562000010575f80fd5b505f60808190526200002162000028565b50620000e6565b5f54610100900460ff1615620000945760405162461bcd60e51b815260206004820152602760248201527f496e697469616c697a61626c653a20636f6e747261637420697320696e697469604482015266616c697a696e6760c81b606482015260840160405180910390fd5b5f5460ff90811614620000e4575f805460ff191660ff9081179091556040519081527f7f26b83ff96e1f2b6a682f133852f6798a09c465da95921460cefb38474024989060200160405180910390a15b565b60805161484f620001065f395f81816106160152613a53015261484f5ff3fe608060405260043610610311575f3560e01c8063715018a61161019c578063b3484425116100e7578063d279c19111610092578063dff7827e1161006d578063dff7827e146109c6578063e3fff1dd146109db578063f2fde38b146109fa578063fb1e8b0414610a19575f80fd5b8063d279c19114610969578063ddd8a3dc14610988578063de8b3035146109a7575f80fd5b8063bedb86fb116100c2578063bedb86fb14610922578063cd4edc6914610941578063ce5db8d614610954575f80fd5b8063b3484425146108c5578063b35dac4e146108e4578063b3e0a50914610903575f80fd5b806397fc007c11610147578063a4f209b011610122578063a4f209b014610866578063abc8d68d14610885578063b31a77d3146108b0575f80fd5b806397fc007c14610804578063a415d8dc14610823578063a479265d14610851575f80fd5b80638da5cb5b116101775780638da5cb5b146107065780638f1d377614610723578063910129d4146107d3575f80fd5b8063715018a6146106ba578063728cdbca146106ce57806388b1ea09146106ed575f80fd5b80632b7ac3f31161025c5780635c975abb1161020757806361267290116101e2578063612672901461065157806368589dfa146106705780636c578c1d1461069b575f80fd5b80635c975abb1461058e5780635ef7a94a146105a55780635f77cf1d14610605575f80fd5b80633e001b66116102375780633e001b6614610547578063428868b51461055c57806357e0af6c1461056f575f80fd5b80632b7ac3f3146104d257806339380947146105095780633b70c18a14610528575f80fd5b806313361101116102bc57806321e2f9e01161029757806321e2f9e01461045d5780632362f03e1461047c5780632571098d146104a7575f80fd5b806313361101146103f957806318463fb01461041857806318af3b2b1461042d575f80fd5b806310d44583116102ec57806310d44583146103a3578063116a1f42146103c2578063121dcd50146103e4575f80fd5b806304d772151461031c578063059def611461035f5780630ceb678014610382575f80fd5b3661031857005b5f80fd5b348015610327575f80fd5b5061034a6103363660046140f2565b60a36020525f908152604090205460ff1681565b60405190151581526020015b60405180910390f35b34801561036a575f80fd5b50610374609d5481565b604051908152602001610356565b34801561038d575f80fd5b506103a161039c366004614124565b610a2e565b005b3480156103ae575f80fd5b506103a16103bd366004614182565b610b00565b3480156103cd575f80fd5b5061034a6103dc3660046140f2565b609d54101590565b3480156103ef575f80fd5b50610374609e5481565b348015610404575f80fd5b506103a16104133660046141ca565b610e59565b348015610423575f80fd5b5061037460a75481565b348015610438575f80fd5b5061034a6104473660046140f2565b5f90815260a26020526040902060010154421090565b348015610468575f80fd5b5061034a6104773660046140f2565b611350565b348015610487575f80fd5b506103746104963660046140f2565b60a16020525f908152604090205481565b3480156104b2575f80fd5b506103746104c13660046140f2565b60a06020525f908152604090205481565b3480156104dd575f80fd5b50609c546104f1906001600160a01b031681565b6040516001600160a01b039091168152602001610356565b348015610514575f80fd5b506103a16105233660046140f2565b609d55565b348015610533575f80fd5b50609b546104f1906001600160a01b031681565b348015610552575f80fd5b5061037460aa5481565b6103a161056a366004614209565b61137e565b34801561057a575f80fd5b506103a16105893660046140f2565b611be5565b348015610599575f80fd5b5060655460ff1661034a565b3480156105b0575f80fd5b506105e56105bf3660046140f2565b60a26020525f908152604090208054600182015460028301546003909301549192909184565b604080519485526020850193909352918301526060820152608001610356565b348015610610575f80fd5b506106387f000000000000000000000000000000000000000000000000000000000000000081565b60405167ffffffffffffffff9091168152602001610356565b34801561065c575f80fd5b506103a161066b3660046140f2565b611c90565b34801561067b575f80fd5b5061037461068a3660046140f2565b60ab6020525f908152604090205481565b3480156106a6575f80fd5b506103a16106b5366004614124565b611ea5565b3480156106c5575f80fd5b506103a1611f62565b3480156106d9575f80fd5b506103a16106e8366004614276565b611f75565b3480156106f8575f80fd5b5060a65461034a9060ff1681565b348015610711575f80fd5b506033546001600160a01b03166104f1565b34801561072e575f80fd5b5061078f61073d3660046140f2565b60a46020525f9081526040902080546001820154600283015460039093015467ffffffffffffffff831693680100000000000000009093046001600160a01b0316929060ff8082169161010090041686565b6040805167ffffffffffffffff90971687526001600160a01b03909516602087015293850192909252606084015215156080830152151560a082015260c001610356565b3480156107de575f80fd5b5061034a6107ed3660046140f2565b5f90815260a4602052604090206003015460ff1690565b34801561080f575f80fd5b506103a161081e366004614124565b6122b8565b34801561082e575f80fd5b5061034a61083d366004614124565b609f6020525f908152604090205460ff1681565b34801561085c575f80fd5b5061037460995481565b348015610871575f80fd5b506103a16108803660046140f2565b61239b565b348015610890575f80fd5b5061037461089f366004614124565b60a56020525f908152604090205481565b3480156108bb575f80fd5b5061037460a85481565b3480156108d0575f80fd5b506103a16108df3660046142d1565b61244b565b3480156108ef575f80fd5b506103a16108fe366004614124565b61276c565b34801561090e575f80fd5b506103a161091d3660046141ca565b6127c5565b34801561092d575f80fd5b506103a161093c366004614345565b612b15565b6103a161094f366004614377565b612c70565b34801561095f575f80fd5b5061037460985481565b348015610974575f80fd5b506103a1610983366004614124565b61323c565b348015610993575f80fd5b506097546104f1906001600160a01b031681565b3480156109b2575f80fd5b5061034a6109c13660046140f2565b6132fb565b3480156109d1575f80fd5b50610374609a5481565b3480156109e6575f80fd5b506103a16109f53660046140f2565b613345565b348015610a05575f80fd5b506103a1610a14366004614124565b6133e8565b348015610a24575f80fd5b5061037460a95481565b610a36613475565b6001600160a01b0381165f908152609f602052604090205460ff1615610aa35760405162461bcd60e51b815260206004820152601f60248201527f6163636f756e7420697320616c72656164792061206368616c6c656e6765720060448201526064015b60405180910390fd5b6001600160a01b0381165f818152609f6020908152604091829020805460ff1916600190811790915591519182527f7feb653c7b1f0d23daeed494225b3f28851cdc8973fcc653866d9b6e205fc00991015b60405180910390a250565b610b08613475565b5f8111610b575760405162461bcd60e51b815260206004820152601560248201527f636f756e74206d757374206265206e6f6e7a65726f00000000000000000000006044820152606401610a9a565b5f80610b6385856134cf565b915091505f610b76836001015160c01c90565b5f81815260a160205260409020549091508214610bd55760405162461bcd60e51b815260206004820152601460248201527f696e636f727265637420626174636820686173680000000000000000000000006044820152606401610a9a565b5f60a181610be387856143cc565b81526020019081526020015f205414610c635760405162461bcd60e51b8152602060048201526024808201527f726576657274696e67206d7573742073746172742066726f6d2074686520656e60448201527f64696e67000000000000000000000000000000000000000000000000000000006064820152608401610a9a565b609d548111610cda5760405162461bcd60e51b815260206004820152602160248201527f63616e206f6e6c792072657665727420756e46696e616c697a6564206261746360448201527f68000000000000000000000000000000000000000000000000000000000000006064820152608401610a9a565b610ce56001826143df565b609e555b8315610e5157604051829082907ecae2739091badfd91c373f0a16cede691e0cd25bb80cff77dd5caeb4710146905f90a35f81815260a16020526040812055610d31816132fb565b15610d8c575f81815260a460209081526040808320600181015490546801000000000000000090046001600160a01b0316845260a59092528220805491929091610d7c9084906143cc565b909155505060a6805460ff191690555b5f81815260a46020526040812080547fffffffff0000000000000000000000000000000000000000000000000000000016815560018101829055600281019190915560030180547fffffffffffffffffffffffffffffffffffffffffffffffffffffffffffff000016905560a85415801590610e09575060a85481145b15610e13575f60a8555b6001015f81815260a160205260409020547fffffffffffffffffffffffffffffffffffffffffffffffffffffffffffffffff90940193915081610ce9575b505050505050565b60a85415610ea95760405162461bcd60e51b815260206004820152600b60248201527f6e656564207265766572740000000000000000000000000000000000000000006044820152606401610a9a565b610eb1613568565b5f80610ebd84846134cf565b915091505f610ed0836001015160c01c90565b5f81815260a160205260409020549091508214610f2f5760405162461bcd60e51b815260206004820152601460248201527f696e636f727265637420626174636820686173680000000000000000000000006044820152606401610a9a565b610f3881611350565b610f845760405162461bcd60e51b815260206004820152600f60248201527f6261746368206e6f7420657869737400000000000000000000000000000000006044820152606401610a9a565b610f8d816132fb565b15610fda5760405162461bcd60e51b815260206004820152601260248201527f626174636820696e206368616c6c656e676500000000000000000000000000006044820152606401610a9a565b5f81815260a4602052604090206003015460ff161561103b5760405162461bcd60e51b815260206004820152601660248201527f62617463682073686f756c6420626520726576657274000000000000000000006044820152606401610a9a565b5f81815260a2602052604090206001015442101561109b5760405162461bcd60e51b815260206004820152601960248201527f626174636820696e206368616c6c656e67652077696e646f77000000000000006044820152606401610a9a565b605983015160a05f6110ae6001856143df565b81526020019081526020015f2054146111095760405162461bcd60e51b815260206004820152601d60248201527f696e636f72726563742070726576696f757320737461746520726f6f740000006044820152606401610a9a565b5f81815260a06020526040902054156111645760405162461bcd60e51b815260206004820152601660248201527f626174636820616c7265616479207665726966696564000000000000000000006044820152606401610a9a565b80609d54600101146111b85760405162461bcd60e51b815260206004820152601560248201527f696e636f727265637420626174636820696e64657800000000000000000000006044820152606401610a9a565b609d819055600160a35f6111cd866099015190565b815260208101919091526040015f20805460ff191691151591909117905560798301515f82815260a0602052604090205561121c61120f846011015160c01c90565b600985015160c01c6135bb565b60a25f61122a6001846143df565b815260208101919091526040015f908120818155600180820183905560028201839055600390910182905560ab919061126390846143df565b81526020019081526020015f205f905560a45f60018361128391906143df565b815260208082019290925260409081015f90812080547fffffffff00000000000000000000000000000000000000000000000000000000168155600181018290556002810182905560030180547fffffffffffffffffffffffffffffffffffffffffffffffffffffffffffff000016905583815260a1909252902054817f26ba82f907317eedc97d0cbef23de76a43dd6edb563bdb6e9407645b950a7a2d61132c866079015190565b60998701516040805192835260208301919091520160405180910390a35050505050565b5f81815260a260205260408120541580159061137857505f82815260a1602052604090205415155b92915050565b6097546001600160a01b03166368015791336040517fffffffff0000000000000000000000000000000000000000000000000000000060e084901b1681526001600160a01b039091166004820152602401602060405180830381865afa1580156113ea573d5f803e3d5ffd5b505050506040513d601f19601f8201168201806040525081019061140e91906143f2565b61145a5760405162461bcd60e51b815260206004820152601a60248201527f6f6e6c7920616374697665207374616b657220616c6c6f7765640000000000006044820152606401610a9a565b60a854156114aa5760405162461bcd60e51b815260206004820152600b60248201527f6e656564207265766572740000000000000000000000000000000000000000006044820152606401610a9a565b6114b2613568565b6114bf602083018361440d565b60ff1615806114dd57506114d6602083018361440d565b60ff166001145b6115295760405162461bcd60e51b815260206004820152600f60248201527f696e76616c69642076657273696f6e00000000000000000000000000000000006044820152606401610a9a565b608082013561157a5760405162461bcd60e51b815260206004820152601b60248201527f70726576696f757320737461746520726f6f74206973207a65726f00000000006044820152606401610a9a565b60a08201356115cb5760405162461bcd60e51b815260206004820152601660248201527f6e657720737461746520726f6f74206973207a65726f000000000000000000006044820152606401610a9a565b5f806115e26115dd602086018661442d565b6134cf565b915091505f6115f5836001015160c01c90565b90505f60a1816116068460016143cc565b81526020019081526020015f2054146116615760405162461bcd60e51b815260206004820152601760248201527f626174636820616c726561647920636f6d6d69747465640000000000000000006044820152606401610a9a565b609e5481146116b25760405162461bcd60e51b815260206004820152601560248201527f696e636f727265637420626174636820696e64657800000000000000000000006044820152606401610a9a565b5f81815260a16020526040902054821461170e5760405162461bcd60e51b815260206004820152601b60248201527f696e636f727265637420706172656e74206261746368206861736800000000006044820152606401610a9a565b5f81815260ab602052604090205460808601351461176e5760405162461bcd60e51b815260206004820152601d60248201527f696e636f72726563742070726576696f757320737461746520726f6f740000006044820152606401610a9a565b5f61177d846011015160c01c90565b90505f6117a96117936060890160408a0161448e565b6117a360808a0160608b016144a7565b84613678565b90506117bb60808801606089016144a7565b6001939093019261ffff1691909101905f8049156117da575f496117fc565b7f010657f37554c781402a22917dee2f75def7ab966d7b770905398eba3c4440145b905060f961180d60208a018a61440d565b60ff1660010361181c57506101015b6040805182810190915296506118418761183960208c018c61440d565b60ff166136bc565b60c085901b600188015261186f8761185f60808c0160608d016144a7565b61ffff1660c01b60099190910152565b60c084811b6011890152601988018490526039880183905260808a0135605989015260a08a0135607989015289013560998801526118d3876118b460208b018b61442d565b6040516118c29291906144c8565b604051809103902060b99190910152565b60d9870186905260016118e960208b018b61440d565b60ff161061191b5761191b8761190560608c0160408d0161448e565b67ffffffffffffffff1660c01b60f99190910152565b8087205f86815260a1602090815260408083209390935560ab905290812060a08b0135905560a65460ff161561197a5760a7545f90815260a46020526040902060020154609954429161196d916143cc565b61197791906143df565b90505b6040518060800160405280428152602001826098544261199a91906143cc565b6119a491906143cc565b81526020016119b960608d0160408e0161448e565b67ffffffffffffffff1681526097546020909101906001600160a01b031663d096c3c6336040517fffffffff0000000000000000000000000000000000000000000000000000000060e084901b1681526001600160a01b039091166004820152602401602060405180830381865afa158015611a37573d5f803e3d5ffd5b505050506040513d601f19601f82011682018060405250810190611a5b91906144d7565b90525f87815260a2602090815260409182902083518155838201516001820155918301516002830155606090920151600390910155609e8790556097546001600160a01b031692506374fe27b79150893590611ac390611abd908c018c61442d565b5f6136c3565b5f611ad160408d018d61442d565b6040518663ffffffff1660e01b8152600401611af1959493929190614535565b602060405180830381865afa158015611b0c573d5f803e3d5ffd5b505050506040513d601f19601f82011682018060405250810190611b3091906143f2565b611ba25760405162461bcd60e51b815260206004820152602160248201527f746865207369676e617475726520766572696669636174696f6e206661696c6560448201527f64000000000000000000000000000000000000000000000000000000000000006064820152608401610a9a565b5f84815260a16020526040808220549051909186917f2c32d4ae151744d0bf0b9464a3e897a1d17ed2f1af71f7c9a75f12ce0d28238f9190a35050505050505050565b611bed613475565b5f81118015611bfe57506099548114155b611c4a5760405162461bcd60e51b815260206004820152601860248201527f696e76616c6964206e65772070726f6f662077696e646f7700000000000000006044820152606401610a9a565b609980549082905560408051828152602081018490527f1e3a2094feb4b696dd3d7caea38ad2f41dbdcac3fa3943c7a693aff8a64b0a6191015b60405180910390a15050565b5f54600290610100900460ff16158015611cb057505f5460ff8083169116105b611d225760405162461bcd60e51b815260206004820152602e60248201527f496e697469616c697a61626c653a20636f6e747261637420697320616c72656160448201527f647920696e697469616c697a65640000000000000000000000000000000000006064820152608401610a9a565b5f80547fffffffffffffffffffffffffffffffffffffffffffffffffffffffffffff00001660ff831617610100179055611d5d5f5460ff1690565b60ff16600214611daf5760405162461bcd60e51b815260206004820152601660248201527f6d757374206861766520696e697469616c697a656421000000000000000000006044820152606401610a9a565b81611e225760405162461bcd60e51b815260206004820152602760248201527f63616e206e6f742073657420737461746520726f6f742077697468206279746560448201527f73333228302921000000000000000000000000000000000000000000000000006064820152608401610a9a565b609e545f90815260ab6020526040902054611e4b57609e545f90815260ab602052604090208290555b5f80547fffffffffffffffffffffffffffffffffffffffffffffffffffffffffffff00ff16905560405160ff821681527f7f26b83ff96e1f2b6a682f133852f6798a09c465da95921460cefb384740249890602001611c84565b611ead613475565b6001600160a01b0381165f908152609f602052604090205460ff16611f145760405162461bcd60e51b815260206004820152601b60248201527f6163636f756e74206973206e6f742061206368616c6c656e67657200000000006044820152606401610a9a565b6001600160a01b0381165f818152609f60209081526040808320805460ff19169055519182527f7feb653c7b1f0d23daeed494225b3f28851cdc8973fcc653866d9b6e205fc0099101610af5565b611f6a613475565b611f735f613717565b565b5f54610100900460ff1615808015611f9357505f54600160ff909116105b80611fac5750303b158015611fac57505f5460ff166001145b61201e5760405162461bcd60e51b815260206004820152602e60248201527f496e697469616c697a61626c653a20636f6e747261637420697320616c72656160448201527f647920696e697469616c697a65640000000000000000000000000000000000006064820152608401610a9a565b5f805460ff19166001179055801561205c575f80547fffffffffffffffffffffffffffffffffffffffffffffffffffffffffffff00ff166101001790555b6001600160a01b038616158061207957506001600160a01b038516155b156120b0576040517fecc6fdf000000000000000000000000000000000000000000000000000000000815260040160405180910390fd5b6001600160a01b0387166121065760405162461bcd60e51b815260206004820152601b60248201527f696e76616c6964206c31207374616b696e6720636f6e747261637400000000006044820152606401610a9a565b61210e613780565b612116613804565b609780546001600160a01b03808a167fffffffffffffffffffffffff000000000000000000000000000000000000000092831617909255609b8054898416908316179055609c805492881692909116821790556098859055609984905560a98390556040515f907f728af3d16a5760405e27a082c98ab272e9f0a1d02f0085d41532a26093aedd96908290a3604080515f8152602081018690527fa577f4223f91f74e2dad65bbb8c30807587ae95d0d34288057bb3ec0d398a437910160405180910390a1604080515f8152602081018590527f1e3a2094feb4b696dd3d7caea38ad2f41dbdcac3fa3943c7a693aff8a64b0a61910160405180910390a1604080515f8152602081018490527ffb81bce17f015797e11949d3c332e2bf9453faf68f728447426803138f2b0223910160405180910390a180156122af575f80547fffffffffffffffffffffffffffffffffffffffffffffffffffffffffffff00ff169055604051600181527f7f26b83ff96e1f2b6a682f133852f6798a09c465da95921460cefb38474024989060200160405180910390a15b50505050505050565b6122c0613475565b6001600160a01b038116158015906122e65750609c546001600160a01b03828116911614155b6123325760405162461bcd60e51b815260206004820152601460248201527f696e76616c6964206e65772076657269666965720000000000000000000000006044820152606401610a9a565b609c80546001600160a01b038381167fffffffffffffffffffffffff0000000000000000000000000000000000000000831681179093556040519116919082907f728af3d16a5760405e27a082c98ab272e9f0a1d02f0085d41532a26093aedd96905f90a35050565b6123a3613475565b5f811180156123b3575060648111155b80156123c1575060a9548114155b61240d5760405162461bcd60e51b815260206004820152601f60248201527f696e76616c69642070726f6f66207265776172642070657263656e74616765006044820152606401610a9a565b60a980549082905560408051828152602081018490527ffb81bce17f015797e11949d3c332e2bf9453faf68f728447426803138f2b02239101611c84565b60a8541561249b5760405162461bcd60e51b815260206004820152600b60248201527f6e656564207265766572740000000000000000000000000000000000000000006044820152606401610a9a565b6124a3613568565b6097546001600160a01b03166368015791336040517fffffffff0000000000000000000000000000000000000000000000000000000060e084901b1681526001600160a01b039091166004820152602401602060405180830381865afa15801561250f573d5f803e3d5ffd5b505050506040513d601f19601f8201168201806040525081019061253391906143f2565b61257f5760405162461bcd60e51b815260206004820152601a60248201527f6f6e6c7920616374697665207374616b657220616c6c6f7765640000000000006044820152606401610a9a565b5f8061258b86866134cf565b915091505f61259e836001015160c01c90565b5f81815260a1602052604090205490915082146125fd5760405162461bcd60e51b815260206004820152601460248201527f696e636f727265637420626174636820686173680000000000000000000000006044820152606401610a9a565b612606816132fb565b6126525760405162461bcd60e51b815260206004820152601260248201527f626174636820696e206368616c6c656e676500000000000000000000000000006044820152606401610a9a565b5f81815260a4602052604090206003810180547fffffffffffffffffffffffffffffffffffffffffffffffffffffffffffff00ff1661010017905560a6805460ff1916905560995460029091015442916126ab916143cc565b11612721575f81815260a4602090815260408083206003908101805460ff1916600117905560a2835292819020909201548251808401909352600783527f54696d656f7574000000000000000000000000000000000000000000000000009183019190915261271c91839190613888565b6122af565b61272c8386866139e4565b6122af81336040518060400160405280600d81526020017f50726f6f66207375636365737300000000000000000000000000000000000000815250613b97565b612774613475565b60aa80545f9091556127868282613c63565b604080516001600160a01b0384168152602081018390527fb1b2058a6969e2d25e47bcaebe8ae21c29a23b2752429315b75e2f4f285f3d879101611c84565b6127cd613475565b5f805260a06020527fb84a74ec6ef4d0e83b6006dfaa014ab4026f9f3b97d186e604d29998a4e808ea54156128445760405162461bcd60e51b815260206004820152601660248201527f67656e6573697320626174636820696d706f72746564000000000000000000006044820152606401610a9a565b5f8061285084846134cf565b915091505f612863836001015160c01c90565b905080156128b35760405162461bcd60e51b815260206004820152601360248201527f696e76616c696420626174636820696e646578000000000000000000000000006044820152606401610a9a565b5f6128bf846079015190565b90508061290e5760405162461bcd60e51b815260206004820152600f60248201527f7a65726f20737461746520726f6f7400000000000000000000000000000000006044820152606401610a9a565b600984015160c01c156129635760405162461bcd60e51b815260206004820152601d60248201527f6c31206d65737361676520706f707065642073686f756c6420626520300000006044820152606401610a9a565b5f61296f856019015190565b036129bc5760405162461bcd60e51b815260206004820152600e60248201527f7a65726f206461746120686173680000000000000000000000000000000000006044820152606401610a9a565b7f010657f37554c781402a22917dee2f75def7ab966d7b770905398eba3c4440146129e8856039015190565b14612a355760405162461bcd60e51b815260206004820152601660248201527f696e76616c69642076657273696f6e65642068617368000000000000000000006044820152606401610a9a565b5f82815260a1602090815260408083208690558051608081018252428082528184019081528183018581526060830186815288875260a2865284872093518455915160018401555160028301555160039091015560ab825280832084905560a0909152808220839055609e849055609d84905551849184917f2c32d4ae151744d0bf0b9464a3e897a1d17ed2f1af71f7c9a75f12ce0d28238f9190a3604080518281525f6020820152849184917f26ba82f907317eedc97d0cbef23de76a43dd6edb563bdb6e9407645b950a7a2d910160405180910390a3505050505050565b612b1d613475565b8015612c3e57612b2b613d0e565b60a65460ff1615612bfd5760a7545f90815260a460209081526040808320600181015490546801000000000000000090046001600160a01b0316845260a59092528220805491929091612b7f9084906143cc565b909155505060a7545f90815260a46020526040812080547fffffffff0000000000000000000000000000000000000000000000000000000016815560018101829055600281019190915560030180547fffffffffffffffffffffffffffffffffffffffffffffffffffffffffffff000016905560a6805460ff191690555b7f62e78cea01bee320cd4e420270b5ea74000d11b0c9f74754ebdbfc544b05a258335b6040516001600160a01b03909116815260200160405180910390a150565b612c46613d68565b7f5db9ee0a495bf2e6ff9c91a7834c1ba4fdd244a5e8aa4e537bd38aeae4b073aa33612c20565b50565b335f908152609f602052604090205460ff16612cce5760405162461bcd60e51b815260206004820152601960248201527f63616c6c6572206368616c6c656e67657220616c6c6f776564000000000000006044820152606401610a9a565b60a85415612d1e5760405162461bcd60e51b815260206004820152600b60248201527f6e656564207265766572740000000000000000000000000000000000000000006044820152606401610a9a565b612d26613568565b60a65460ff1615612d795760405162461bcd60e51b815260206004820152601460248201527f616c726561647920696e206368616c6c656e67650000000000000000000000006044820152606401610a9a565b8167ffffffffffffffff16609d5410612dd45760405162461bcd60e51b815260206004820152601760248201527f626174636820616c72656164792066696e616c697a65640000000000000000006044820152606401610a9a565b67ffffffffffffffff82165f90815260a160205260409020548114612e3b5760405162461bcd60e51b815260206004820152601460248201527f696e636f727265637420626174636820686173680000000000000000000000006044820152606401610a9a565b612e4e8267ffffffffffffffff16611350565b612e9a5760405162461bcd60e51b815260206004820152600f60248201527f6261746368206e6f7420657869737400000000000000000000000000000000006044820152606401610a9a565b67ffffffffffffffff82165f90815260a460205260409020546801000000000000000090046001600160a01b031615612f155760405162461bcd60e51b815260206004820152601860248201527f626174636820616c7265616479206368616c6c656e67656400000000000000006044820152606401610a9a565b67ffffffffffffffff82165f90815260a260205260409020600101544210612fa55760405162461bcd60e51b815260206004820152603360248201527f63616e6e6f74206368616c6c656e6765206261746368206f757473696465207460448201527f6865206368616c6c656e67652077696e646f77000000000000000000000000006064820152608401610a9a565b60975f9054906101000a90046001600160a01b03166001600160a01b0316630d13fd7b6040518163ffffffff1660e01b8152600401602060405180830381865afa158015612ff5573d5f803e3d5ffd5b505050506040513d601f19601f8201168201806040525081019061301991906144d7565b3410156130685760405162461bcd60e51b815260206004820152601260248201527f696e73756666696369656e742076616c756500000000000000000000000000006044820152606401610a9a565b67ffffffffffffffff82811660a78190556040805160c0810182528281523360208083018281523484860190815242606086019081525f6080870181815260a0880182815299825260a4909552969096209451855492516001600160a01b031668010000000000000000027fffffffff00000000000000000000000000000000000000000000000000000000909316981697909717178355945160018301559151600282015592516003909301805492511515610100027fffffffffffffffffffffffffffffffffffffffffffffffffffffffffffff00ff941515949094167fffffffffffffffffffffffffffffffffffffffffffffffffffffffffffff0000909316929092179290921790556001600160a01b03168267ffffffffffffffff167f3a6ea19df25b49e7624e313ce7c1ab23984238e93727260db56a81735b1b9976346040516131ba91815260200190565b60405180910390a35f609d5460016131d291906143cc565b90505b609e54811161322a578267ffffffffffffffff168114613218576099545f82815260a26020526040812060010180549091906132129084906143cc565b90915550505b80613222816145a8565b9150506131d5565b505060a6805460ff1916600117905550565b335f90815260a560205260408120549081900361329b5760405162461bcd60e51b815260206004820152601c60248201527f696e76616c69642062617463684368616c6c656e6765526577617264000000006044820152606401610a9a565b335f90815260a560205260408120556132b48282613c63565b816001600160a01b03167f9c25fa83f414ed363c8d39c98fb3e17567b3431cede71eb062c49d2a63ce247a826040516132ef91815260200190565b60405180910390a25050565b5f81815260a460205260408120546801000000000000000090046001600160a01b0316158015906113785750505f90815260a46020526040902060030154610100900460ff161590565b61334d613475565b5f8111801561335e57506098548114155b6133aa5760405162461bcd60e51b815260206004820152601b60248201527f696e76616c6964206e65772066696e616c697a6520706572696f6400000000006044820152606401610a9a565b609880549082905560408051828152602081018490527fa577f4223f91f74e2dad65bbb8c30807587ae95d0d34288057bb3ec0d398a4379101611c84565b6133f0613475565b6001600160a01b03811661346c5760405162461bcd60e51b815260206004820152602660248201527f4f776e61626c653a206e6577206f776e657220697320746865207a65726f206160448201527f64647265737300000000000000000000000000000000000000000000000000006064820152608401610a9a565b612c6d81613717565b6033546001600160a01b03163314611f735760405162461bcd60e51b815260206004820181905260248201527f4f776e61626c653a2063616c6c6572206973206e6f7420746865206f776e65726044820152606401610a9a565b5f805f6134dc8585613da1565b90505f8160ff165f036134fd576134f38686613e11565b909450905061355a565b8160ff16600103613512576134f38686613e7a565b60405162461bcd60e51b815260206004820152601960248201527f556e737570706f727465642062617463682076657273696f6e000000000000006044820152606401610a9a565b808420925050509250929050565b60655460ff1615611f735760405162461bcd60e51b815260206004820152601060248201527f5061757361626c653a20706175736564000000000000000000000000000000006044820152606401610a9a565b805f036135c6575050565b8082035f5b82811015613672576101008184038111156135e557508083035b609b546040517f3c7f528300000000000000000000000000000000000000000000000000000000815260048101859052602481018390526001600160a01b0390911690633c7f5283906044015f604051808303815f87803b158015613648575f80fd5b505af115801561365a573d5f803e3d5ffd5b505050506101008301925050610100810190506135cb565b50505050565b6040805160c085901b815260f084901b6008820152600a60208502820181019092525f9181016136ad8161ffff871686613ecd565b82900390912095945050505050565b8082535050565b60605f808080806136d6888a018a6146cc565b95509550955095509550508187106136f45794506137109350505050565b838710613708578295505050505050613710565b509293505050505b9392505050565b603380546001600160a01b038381167fffffffffffffffffffffffff0000000000000000000000000000000000000000831681179093556040519116919082907f8be0079c531659141344cd1fd0a4f28419497f9722a3daafe3b4186f6b6457e0905f90a35050565b5f54610100900460ff166137fc5760405162461bcd60e51b815260206004820152602b60248201527f496e697469616c697a61626c653a20636f6e7472616374206973206e6f74206960448201527f6e697469616c697a696e670000000000000000000000000000000000000000006064820152608401610a9a565b611f73613f93565b5f54610100900460ff166138805760405162461bcd60e51b815260206004820152602b60248201527f496e697469616c697a61626c653a20636f6e7472616374206973206e6f74206960448201527f6e697469616c697a696e670000000000000000000000000000000000000000006064820152608401610a9a565b611f7361401b565b60a88390555f83815260a460205260408082205460975491517f45bc4d1000000000000000000000000000000000000000000000000000000000815260048101869052680100000000000000009091046001600160a01b03908116939216906345bc4d10906024016020604051808303815f875af115801561390c573d5f803e3d5ffd5b505050506040513d601f19601f8201168201806040525081019061393091906144d7565b5f86815260a4602052604090206001015490915061394f9082906143cc565b5f86815260a460209081526040808320546801000000000000000090046001600160a01b0316835260a59091528120805490919061398e9084906143cc565b90915550506040516139a1908490614769565b604051908190038120906001600160a01b0384169087907fe70d3820e244d5f71d1a6395db24f3460e8dca966edc1fd3625b6292880a877a905f90a45050505050565b80613a315760405162461bcd60e51b815260206004820152601360248201527f496e76616c69642062617463682070726f6f66000000000000000000000000006044820152606401610a9a565b5f613a40846001015160c01c90565b90505f613a4e856039015190565b90505f7f0000000000000000000000000000000000000000000000000000000000000000613a7d876059015190565b6079880151609989015160b98a015160198b015160405160c09690961b7fffffffffffffffff000000000000000000000000000000000000000000000000166020870152602886019490945260488501929092526068840152608883015260a882015260c8810183905260e801604080517fffffffffffffffffffffffffffffffffffffffffffffffffffffffffffffffe08184030181529190528051602090910120609c549091506001600160a01b0316632c09a848613b3f885160f81c90565b858888866040518663ffffffff1660e01b8152600401613b63959493929190614795565b5f6040518083038186803b158015613b79575f80fd5b505afa158015613b8b573d5f803e3d5ffd5b50505050505050505050565b5f83815260a4602052604081206001015460a954909190606490613bbb90846147c6565b613bc591906147dd565b9050613bd181836143df565b60aa5f828254613be191906143cc565b90915550506001600160a01b0384165f90815260a5602052604081208054839290613c0d9084906143cc565b9091555050604051613c20908490614769565b604051908190038120906001600160a01b0386169087907fe70d3820e244d5f71d1a6395db24f3460e8dca966edc1fd3625b6292880a877a905f90a45050505050565b8015613d0a575f826001600160a01b0316826040515f6040518083038185875af1925050503d805f8114613cb2576040519150601f19603f3d011682016040523d82523d5f602084013e613cb7565b606091505b5050905080613d085760405162461bcd60e51b815260206004820152601b60248201527f526f6c6c75703a20455448207472616e73666572206661696c656400000000006044820152606401610a9a565b505b5050565b613d16613568565b6065805460ff191660011790557f62e78cea01bee320cd4e420270b5ea74000d11b0c9f74754ebdbfc544b05a258613d4b3390565b6040516001600160a01b03909116815260200160405180910390a1565b613d706140a0565b6065805460ff191690557f5db9ee0a495bf2e6ff9c91a7834c1ba4fdd244a5e8aa4e537bd38aeae4b073aa33613d4b565b5f81613def5760405162461bcd60e51b815260206004820152601260248201527f456d7074792062617463682068656164657200000000000000000000000000006044820152606401610a9a565b82825f818110613e0157613e01614815565b919091013560f81c949350505050565b5f8160f9811015613e645760405162461bcd60e51b815260206004820152601d60248201527f626174636820686561646572206c656e67746820746f6f20736d616c6c0000006044820152606401610a9a565b6040519150808483378082016040529250929050565b5f816101018114613e645760405162461bcd60e51b815260206004820181905260248201527f626174636820686561646572206c656e67746820697320696e636f72726563746044820152606401610a9a565b5f825f03613edc575082613710565b609b546001600160a01b03165f5b84811015613f89576040517fae453cd5000000000000000000000000000000000000000000000000000000008152600481018590525f906001600160a01b0384169063ae453cd590602401602060405180830381865afa158015613f50573d5f803e3d5ffd5b505050506040513d601f19601f82011682018060405250810190613f7491906144d7565b87525060209095019460019384019301613eea565b5093949350505050565b5f54610100900460ff1661400f5760405162461bcd60e51b815260206004820152602b60248201527f496e697469616c697a61626c653a20636f6e7472616374206973206e6f74206960448201527f6e697469616c697a696e670000000000000000000000000000000000000000006064820152608401610a9a565b6065805460ff19169055565b5f54610100900460ff166140975760405162461bcd60e51b815260206004820152602b60248201527f496e697469616c697a61626c653a20636f6e7472616374206973206e6f74206960448201527f6e697469616c697a696e670000000000000000000000000000000000000000006064820152608401610a9a565b611f7333613717565b60655460ff16611f735760405162461bcd60e51b815260206004820152601460248201527f5061757361626c653a206e6f74207061757365640000000000000000000000006044820152606401610a9a565b5f60208284031215614102575f80fd5b5035919050565b80356001600160a01b038116811461411f575f80fd5b919050565b5f60208284031215614134575f80fd5b61371082614109565b5f8083601f84011261414d575f80fd5b50813567ffffffffffffffff811115614164575f80fd5b60208301915083602082850101111561417b575f80fd5b9250929050565b5f805f60408486031215614194575f80fd5b833567ffffffffffffffff8111156141aa575f80fd5b6141b68682870161413d565b909790965060209590950135949350505050565b5f80602083850312156141db575f80fd5b823567ffffffffffffffff8111156141f1575f80fd5b6141fd8582860161413d565b90969095509350505050565b5f806040838503121561421a575f80fd5b823567ffffffffffffffff80821115614231575f80fd5b9084019060e08287031215614244575f80fd5b90925060208401359080821115614259575f80fd5b5083016060818603121561426b575f80fd5b809150509250929050565b5f805f805f8060c0878903121561428b575f80fd5b61429487614109565b95506142a260208801614109565b94506142b060408801614109565b9350606087013592506080870135915060a087013590509295509295509295565b5f805f80604085870312156142e4575f80fd5b843567ffffffffffffffff808211156142fb575f80fd5b6143078883890161413d565b9096509450602087013591508082111561431f575f80fd5b5061432c8782880161413d565b95989497509550505050565b8015158114612c6d575f80fd5b5f60208284031215614355575f80fd5b813561371081614338565b803567ffffffffffffffff8116811461411f575f80fd5b5f8060408385031215614388575f80fd5b61439183614360565b946020939093013593505050565b7f4e487b71000000000000000000000000000000000000000000000000000000005f52601160045260245ffd5b808201808211156113785761137861439f565b818103818111156113785761137861439f565b5f60208284031215614402575f80fd5b815161371081614338565b5f6020828403121561441d575f80fd5b813560ff81168114613710575f80fd5b5f8083357fffffffffffffffffffffffffffffffffffffffffffffffffffffffffffffffe1843603018112614460575f80fd5b83018035915067ffffffffffffffff82111561447a575f80fd5b60200191503681900382131561417b575f80fd5b5f6020828403121561449e575f80fd5b61371082614360565b5f602082840312156144b7575f80fd5b813561ffff81168114613710575f80fd5b818382375f9101908152919050565b5f602082840312156144e7575f80fd5b5051919050565b81835281816020850137505f602082840101525f60207fffffffffffffffffffffffffffffffffffffffffffffffffffffffffffffffe0601f840116840101905092915050565b5f6080820187835260206080602085015281885180845260a08601915060208a0193505f5b8181101561457f5784516001600160a01b03168352938301939183019160010161455a565b5050876040860152848103606086015261459a8187896144ee565b9a9950505050505050505050565b5f7fffffffffffffffffffffffffffffffffffffffffffffffffffffffffffffffff82036145d8576145d861439f565b5060010190565b7f4e487b71000000000000000000000000000000000000000000000000000000005f52604160045260245ffd5b5f82601f83011261461b575f80fd5b8135602067ffffffffffffffff80831115614638576146386145df565b8260051b6040517fffffffffffffffffffffffffffffffffffffffffffffffffffffffffffffffe0603f8301168101818110848211171561467b5761467b6145df565b604052938452602081870181019490810192508785111561469a575f80fd5b6020870191505b848210156146c1576146b282614109565b835291830191908301906146a1565b979650505050505050565b5f805f805f8060c087890312156146e1575f80fd5b86359550602087013567ffffffffffffffff808211156146ff575f80fd5b61470b8a838b0161460c565b9650604089013595506060890135915080821115614727575f80fd5b6147338a838b0161460c565b94506080890135935060a089013591508082111561474f575f80fd5b5061475c89828a0161460c565b9150509295509295509295565b5f82515f5b81811015614788576020818601810151858301520161476e565b505f920191825250919050565b858152846020820152608060408201525f6147b46080830185876144ee565b90508260608301529695505050505050565b80820281158282048414176113785761137861439f565b5f82614810577f4e487b71000000000000000000000000000000000000000000000000000000005f52601260045260245ffd5b500490565b7f4e487b71000000000000000000000000000000000000000000000000000000005f52603260045260245ffdfea164736f6c6343000818000a",
  "linkReferences": {},
  "deployedLinkReferences": {}
}