{
  "_format": "hh-sol-artifact-1",
  "contractName": "TransferReentrantToken",
  "sourceName": "contracts/mock/tokens/TransferReentrantToken.sol",
  "abi": [
    {
      "inputs": [
        {
          "internalType": "string",
          "name": "_name",
          "type": "string"
        },
        {
          "internalType": "string",
          "name": "_symbol",
          "type": "string"
        },
        {
          "internalType": "uint8",
          "name": "_decimals",
          "type": "uint8"
        }
      ],
      "stateMutability": "nonpayable",
      "type": "constructor"
    },
    {
      "anonymous": false,
      "inputs": [
        {
          "indexed": true,
          "internalType": "address",
          "name": "owner",
          "type": "address"
        },
        {
          "indexed": true,
          "internalType": "address",
          "name": "spender",
          "type": "address"
        },
        {
          "indexed": false,
          "internalType": "uint256",
          "name": "amount",
          "type": "uint256"
        }
      ],
      "name": "Approval",
      "type": "event"
    },
    {
      "anonymous": false,
      "inputs": [
        {
          "indexed": true,
          "internalType": "address",
          "name": "from",
          "type": "address"
        },
        {
          "indexed": true,
          "internalType": "address",
          "name": "to",
          "type": "address"
        },
        {
          "indexed": false,
          "internalType": "uint256",
          "name": "amount",
          "type": "uint256"
        }
      ],
      "name": "Transfer",
      "type": "event"
    },
    {
      "inputs": [],
      "name": "DOMAIN_SEPARATOR",
      "outputs": [
        {
          "internalType": "bytes32",
          "name": "",
          "type": "bytes32"
        }
      ],
      "stateMutability": "view",
      "type": "function"
    },
    {
      "inputs": [
        {
          "internalType": "address",
          "name": "",
          "type": "address"
        },
        {
          "internalType": "address",
          "name": "",
          "type": "address"
        }
      ],
      "name": "allowance",
      "outputs": [
        {
          "internalType": "uint256",
          "name": "",
          "type": "uint256"
        }
      ],
      "stateMutability": "view",
      "type": "function"
    },
    {
      "inputs": [
        {
          "internalType": "address",
          "name": "spender",
          "type": "address"
        },
        {
          "internalType": "uint256",
          "name": "amount",
          "type": "uint256"
        }
      ],
      "name": "approve",
      "outputs": [
        {
          "internalType": "bool",
          "name": "",
          "type": "bool"
        }
      ],
      "stateMutability": "nonpayable",
      "type": "function"
    },
    {
      "inputs": [
        {
          "internalType": "address",
          "name": "",
          "type": "address"
        }
      ],
      "name": "balanceOf",
      "outputs": [
        {
          "internalType": "uint256",
          "name": "",
          "type": "uint256"
        }
      ],
      "stateMutability": "view",
      "type": "function"
    },
    {
      "inputs": [
        {
          "internalType": "address",
          "name": "from",
          "type": "address"
        },
        {
          "internalType": "uint256",
          "name": "value",
          "type": "uint256"
        }
      ],
      "name": "burn",
      "outputs": [],
      "stateMutability": "nonpayable",
      "type": "function"
    },
    {
      "inputs": [],
      "name": "decimals",
      "outputs": [
        {
          "internalType": "uint8",
          "name": "",
          "type": "uint8"
        }
      ],
      "stateMutability": "view",
      "type": "function"
    },
    {
      "inputs": [
        {
          "internalType": "address",
          "name": "to",
          "type": "address"
        },
        {
          "internalType": "uint256",
          "name": "value",
          "type": "uint256"
        }
      ],
      "name": "mint",
      "outputs": [],
      "stateMutability": "nonpayable",
      "type": "function"
    },
    {
      "inputs": [],
      "name": "name",
      "outputs": [
        {
          "internalType": "string",
          "name": "",
          "type": "string"
        }
      ],
      "stateMutability": "view",
      "type": "function"
    },
    {
      "inputs": [
        {
          "internalType": "address",
          "name": "",
          "type": "address"
        }
      ],
      "name": "nonces",
      "outputs": [
        {
          "internalType": "uint256",
          "name": "",
          "type": "uint256"
        }
      ],
      "stateMutability": "view",
      "type": "function"
    },
    {
      "inputs": [
        {
          "internalType": "address",
          "name": "owner",
          "type": "address"
        },
        {
          "internalType": "address",
          "name": "spender",
          "type": "address"
        },
        {
          "internalType": "uint256",
          "name": "value",
          "type": "uint256"
        },
        {
          "internalType": "uint256",
          "name": "deadline",
          "type": "uint256"
        },
        {
          "internalType": "uint8",
          "name": "v",
          "type": "uint8"
        },
        {
          "internalType": "bytes32",
          "name": "r",
          "type": "bytes32"
        },
        {
          "internalType": "bytes32",
          "name": "s",
          "type": "bytes32"
        }
      ],
      "name": "permit",
      "outputs": [],
      "stateMutability": "nonpayable",
      "type": "function"
    },
    {
      "inputs": [
        {
          "internalType": "address",
          "name": "_target",
          "type": "address"
        },
        {
          "internalType": "uint256",
          "name": "_value",
          "type": "uint256"
        },
        {
          "internalType": "bytes",
          "name": "_data",
          "type": "bytes"
        },
        {
          "internalType": "bool",
          "name": "_isBeforeCall",
          "type": "bool"
        }
      ],
      "name": "setReentrantCall",
      "outputs": [],
      "stateMutability": "payable",
      "type": "function"
    },
    {
      "inputs": [],
      "name": "symbol",
      "outputs": [
        {
          "internalType": "string",
          "name": "",
          "type": "string"
        }
      ],
      "stateMutability": "view",
      "type": "function"
    },
    {
      "inputs": [],
      "name": "totalSupply",
      "outputs": [
        {
          "internalType": "uint256",
          "name": "",
          "type": "uint256"
        }
      ],
      "stateMutability": "view",
      "type": "function"
    },
    {
      "inputs": [
        {
          "internalType": "address",
          "name": "to",
          "type": "address"
        },
        {
          "internalType": "uint256",
          "name": "amount",
          "type": "uint256"
        }
      ],
      "name": "transfer",
      "outputs": [
        {
          "internalType": "bool",
          "name": "",
          "type": "bool"
        }
      ],
      "stateMutability": "nonpayable",
      "type": "function"
    },
    {
      "inputs": [
        {
          "internalType": "address",
          "name": "from",
          "type": "address"
        },
        {
          "internalType": "address",
          "name": "to",
          "type": "address"
        },
        {
          "internalType": "uint256",
          "name": "amount",
          "type": "uint256"
        }
      ],
      "name": "transferFrom",
      "outputs": [
        {
          "internalType": "bool",
          "name": "",
          "type": "bool"
        }
      ],
      "stateMutability": "nonpayable",
      "type": "function"
    }
  ],
  "bytecode": "0x60e060405234801562000010575f80fd5b506040516200168d3803806200168d8339810160408190526200003391620001d9565b8282828282825f620000468482620002e2565b506001620000558382620002e2565b5060ff81166080524660a0526200006b6200007e565b60c0525062000428975050505050505050565b5f7f8b73c3c69bb8fe3d512ecc4cf759cc79239f7b179b0ffacaa9a75d522b39400f5f604051620000b09190620003ae565b6040805191829003822060208301939093528101919091527fc89efdaa54c0f20c7adf612882df0950f5a951637e0307cdcb4c672f298b8bc660608201524660808201523060a082015260c00160405160208183030381529060405280519060200120905090565b634e487b7160e01b5f52604160045260245ffd5b5f82601f8301126200013c575f80fd5b81516001600160401b038082111562000159576200015962000118565b604051601f8301601f19908116603f0116810190828211818310171562000184576200018462000118565b8160405283815260209250866020858801011115620001a1575f80fd5b5f91505b83821015620001c45785820183015181830184015290820190620001a5565b5f602085830101528094505050505092915050565b5f805f60608486031215620001ec575f80fd5b83516001600160401b038082111562000203575f80fd5b62000211878388016200012c565b9450602086015191508082111562000227575f80fd5b5062000236868287016200012c565b925050604084015160ff811681146200024d575f80fd5b809150509250925092565b600181811c908216806200026d57607f821691505b6020821081036200028c57634e487b7160e01b5f52602260045260245ffd5b50919050565b601f821115620002dd57805f5260205f20601f840160051c81016020851015620002b95750805b601f840160051c820191505b81811015620002da575f8155600101620002c5565b50505b505050565b81516001600160401b03811115620002fe57620002fe62000118565b62000316816200030f845462000258565b8462000292565b602080601f8311600181146200034c575f8415620003345750858301515b5f19600386901b1c1916600185901b178555620003a6565b5f85815260208120601f198616915b828110156200037c578886015182559484019460019091019084016200035b565b50858210156200039a57878501515f19600388901b60f8161c191681555b505060018460011b0185555b505050505050565b5f808354620003bd8162000258565b60018281168015620003d85760018114620003ee576200041c565b60ff19841687528215158302870194506200041c565b875f526020805f205f5b85811015620004135781548a820152908401908201620003f8565b50505082870194505b50929695505050505050565b60805160a05160c05161123a620004535f395f6105c801525f61059301525f610194015261123a5ff3fe6080604052600436106100e4575f3560e01c806370a0823111610087578063a9059cbb11610057578063a9059cbb14610286578063a9c3b5c7146102a5578063d505accf146102b8578063dd62ed3e146102d7575f80fd5b806370a08231146101fd5780637ecebe001461022857806395d89b41146102535780639dc29fac14610267575f80fd5b806323b872dd116100c257806323b872dd14610164578063313ce567146101835780633644e515146101c857806340c10f19146101dc575f80fd5b806306fdde03146100e8578063095ea7b31461011257806318160ddd14610141575b5f80fd5b3480156100f3575f80fd5b506100fc61030d565b6040516101099190610d13565b60405180910390f35b34801561011d575f80fd5b5061013161012c366004610da5565b610398565b6040519015158152602001610109565b34801561014c575f80fd5b5061015660025481565b604051908152602001610109565b34801561016f575f80fd5b5061013161017e366004610dcd565b610411565b34801561018e575f80fd5b506101b67f000000000000000000000000000000000000000000000000000000000000000081565b60405160ff9091168152602001610109565b3480156101d3575f80fd5b50610156610590565b3480156101e7575f80fd5b506101fb6101f6366004610da5565b6105ea565b005b348015610208575f80fd5b50610156610217366004610e06565b60036020525f908152604090205481565b348015610233575f80fd5b50610156610242366004610e06565b60056020525f908152604090205481565b34801561025e575f80fd5b506100fc6105f8565b348015610272575f80fd5b506101fb610281366004610da5565b610605565b348015610291575f80fd5b506101316102a0366004610da5565b61060f565b6101fb6102b3366004610e26565b610692565b3480156102c3575f80fd5b506101fb6102d2366004610ec4565b61071a565b3480156102e2575f80fd5b506101566102f1366004610f31565b600460209081525f928352604080842090915290825290205481565b5f805461031990610f62565b80601f016020809104026020016040519081016040528092919081815260200182805461034590610f62565b80156103905780601f1061036757610100808354040283529160200191610390565b820191905f5260205f20905b81548152906001019060200180831161037357829003601f168201915b505050505081565b335f81815260046020908152604080832073ffffffffffffffffffffffffffffffffffffffff8716808552925280832085905551919290917f8c5be1e5ebec7d5bd14f71427d1e84f3dd0314c0f7b2291e5b200ac8c7c3b925906103ff9086815260200190565b60405180910390a35060015b92915050565b6009545f9060ff16801561043c575060065473ffffffffffffffffffffffffffffffffffffffff1615155b156104c6576006546007546040515f9273ffffffffffffffffffffffffffffffffffffffff16919061047090600890611040565b5f6040518083038185875af1925050503d805f81146104aa576040519150601f19603f3d011682016040523d82523d5f602084013e6104af565b606091505b50509050806104c4576040513d805f833e8082fd5b505b6104d1848484610a38565b5060095460ff161580156104fc575060065473ffffffffffffffffffffffffffffffffffffffff1615155b15610586576006546007546040515f9273ffffffffffffffffffffffffffffffffffffffff16919061053090600890611040565b5f6040518083038185875af1925050503d805f811461056a576040519150601f19603f3d011682016040523d82523d5f602084013e61056f565b606091505b5050905080610584576040513d805f833e8082fd5b505b5060019392505050565b5f7f000000000000000000000000000000000000000000000000000000000000000046146105c5576105c0610b78565b905090565b507f000000000000000000000000000000000000000000000000000000000000000090565b6105f48282610c10565b5050565b6001805461031990610f62565b6105f48282610c87565b335f9081526003602052604081208054839190839061062f908490611078565b909155505073ffffffffffffffffffffffffffffffffffffffff83165f81815260036020526040908190208054850190555133907fddf252ad1be2c89b69c2b068fc378daa952ba7f163c4a11628f55a4df523b3ef906103ff9086815260200190565b600680547fffffffffffffffffffffffff00000000000000000000000000000000000000001673ffffffffffffffffffffffffffffffffffffffff8716179055600784905560086106e4838583611104565b50600980547fffffffffffffffffffffffffffffffffffffffffffffffffffffffffffffff001691151591909117905550505050565b42841015610789576040517f08c379a000000000000000000000000000000000000000000000000000000000815260206004820152601760248201527f5045524d49545f444541444c494e455f4558504952454400000000000000000060448201526064015b60405180910390fd5b5f6001610794610590565b73ffffffffffffffffffffffffffffffffffffffff8a81165f8181526005602090815260409182902080546001810190915582517f6e71edae12b1b97f4d1f60370fef10105fa2faae0126114a169c64845d6126c98184015280840194909452938d166060840152608083018c905260a083019390935260c08083018b90528151808403909101815260e0830190915280519201919091207f190100000000000000000000000000000000000000000000000000000000000061010083015261010282019290925261012281019190915261014201604080517fffffffffffffffffffffffffffffffffffffffffffffffffffffffffffffffe081840301815282825280516020918201205f84529083018083525260ff871690820152606081018590526080810184905260a0016020604051602081039080840390855afa1580156108e2573d5f803e3d5ffd5b50506040517fffffffffffffffffffffffffffffffffffffffffffffffffffffffffffffffe0015191505073ffffffffffffffffffffffffffffffffffffffff81161580159061095d57508773ffffffffffffffffffffffffffffffffffffffff168173ffffffffffffffffffffffffffffffffffffffff16145b6109c3576040517f08c379a000000000000000000000000000000000000000000000000000000000815260206004820152600e60248201527f494e56414c49445f5349474e45520000000000000000000000000000000000006044820152606401610780565b73ffffffffffffffffffffffffffffffffffffffff9081165f9081526004602090815260408083208a8516808552908352928190208990555188815291928a16917f8c5be1e5ebec7d5bd14f71427d1e84f3dd0314c0f7b2291e5b200ac8c7c3b925910160405180910390a350505050505050565b73ffffffffffffffffffffffffffffffffffffffff83165f9081526004602090815260408083203384529091528120547fffffffffffffffffffffffffffffffffffffffffffffffffffffffffffffffff8114610aca57610a998382611078565b73ffffffffffffffffffffffffffffffffffffffff86165f9081526004602090815260408083203384529091529020555b73ffffffffffffffffffffffffffffffffffffffff85165f9081526003602052604081208054859290610afe908490611078565b909155505073ffffffffffffffffffffffffffffffffffffffff8085165f81815260036020526040908190208054870190555190918716907fddf252ad1be2c89b69c2b068fc378daa952ba7f163c4a11628f55a4df523b3ef90610b659087815260200190565b60405180910390a3506001949350505050565b5f7f8b73c3c69bb8fe3d512ecc4cf759cc79239f7b179b0ffacaa9a75d522b39400f5f604051610ba89190611040565b6040805191829003822060208301939093528101919091527fc89efdaa54c0f20c7adf612882df0950f5a951637e0307cdcb4c672f298b8bc660608201524660808201523060a082015260c00160405160208183030381529060405280519060200120905090565b8060025f828254610c21919061121a565b909155505073ffffffffffffffffffffffffffffffffffffffff82165f818152600360209081526040808320805486019055518481527fddf252ad1be2c89b69c2b068fc378daa952ba7f163c4a11628f55a4df523b3ef91015b60405180910390a35050565b73ffffffffffffffffffffffffffffffffffffffff82165f9081526003602052604081208054839290610cbb908490611078565b90915550506002805482900390556040518181525f9073ffffffffffffffffffffffffffffffffffffffff8416907fddf252ad1be2c89b69c2b068fc378daa952ba7f163c4a11628f55a4df523b3ef90602001610c7b565b5f602080835283518060208501525f5b81811015610d3f57858101830151858201604001528201610d23565b505f6040828601015260407fffffffffffffffffffffffffffffffffffffffffffffffffffffffffffffffe0601f8301168501019250505092915050565b803573ffffffffffffffffffffffffffffffffffffffff81168114610da0575f80fd5b919050565b5f8060408385031215610db6575f80fd5b610dbf83610d7d565b946020939093013593505050565b5f805f60608486031215610ddf575f80fd5b610de884610d7d565b9250610df660208501610d7d565b9150604084013590509250925092565b5f60208284031215610e16575f80fd5b610e1f82610d7d565b9392505050565b5f805f805f60808688031215610e3a575f80fd5b610e4386610d7d565b945060208601359350604086013567ffffffffffffffff80821115610e66575f80fd5b818801915088601f830112610e79575f80fd5b813581811115610e87575f80fd5b896020828501011115610e98575f80fd5b60208301955080945050505060608601358015158114610eb6575f80fd5b809150509295509295909350565b5f805f805f805f60e0888a031215610eda575f80fd5b610ee388610d7d565b9650610ef160208901610d7d565b95506040880135945060608801359350608088013560ff81168114610f14575f80fd5b9699959850939692959460a0840135945060c09093013592915050565b5f8060408385031215610f42575f80fd5b610f4b83610d7d565b9150610f5960208401610d7d565b90509250929050565b600181811c90821680610f7657607f821691505b602082108103610fad577f4e487b71000000000000000000000000000000000000000000000000000000005f52602260045260245ffd5b50919050565b5f8154610fbf81610f62565b60018281168015610fd7576001811461100a57611036565b7fffffffffffffffffffffffffffffffffffffffffffffffffffffffffffffff0084168752821515830287019450611036565b855f526020805f205f5b8581101561102d5781548a820152908401908201611014565b50505082870194505b5050505092915050565b5f610e1f8284610fb3565b7f4e487b71000000000000000000000000000000000000000000000000000000005f52601160045260245ffd5b8181038181111561040b5761040b61104b565b7f4e487b71000000000000000000000000000000000000000000000000000000005f52604160045260245ffd5b601f8211156110ff57805f5260205f20601f840160051c810160208510156110dd5750805b601f840160051c820191505b818110156110fc575f81556001016110e9565b50505b505050565b67ffffffffffffffff83111561111c5761111c61108b565b6111308361112a8354610f62565b836110b8565b5f601f841160018114611180575f851561114a5750838201355b7fffffffffffffffffffffffffffffffffffffffffffffffffffffffffffffffff600387901b1c1916600186901b1783556110fc565b5f838152602081207fffffffffffffffffffffffffffffffffffffffffffffffffffffffffffffffe08716915b828110156111cd57868501358255602094850194600190920191016111ad565b5086821015611208577fffffffffffffffffffffffffffffffffffffffffffffffffffffffffffffffff60f88860031b161c19848701351681555b505060018560011b0183555050505050565b8082018082111561040b5761040b61104b56fea164736f6c6343000818000a",
  "linkReferences": {},
  "deployedLinkReferences": {}
}