{
  "_format": "hh-sol-artifact-1",
  "contractName": "L1Staking",
  "sourceName": "contracts/l1/staking/L1Staking.sol",
  "abi": [
    {
      "inputs": [
        {
          "internalType": "address payable",
          "name": "_messenger",
          "type": "address"
        }
      ],
      "stateMutability": "nonpayable",
      "type": "constructor"
    },
    {
      "anonymous": false,
      "inputs": [
        {
          "indexed": false,
          "internalType": "uint256",
          "name": "oldChallengeDeposit",
          "type": "uint256"
        },
        {
          "indexed": false,
          "internalType": "uint256",
          "name": "newChallengeDeposit",
          "type": "uint256"
        }
      ],
      "name": "ChallengeDepositUpdated",
      "type": "event"
    },
    {
      "anonymous": false,
      "inputs": [
        {
          "indexed": true,
          "internalType": "address",
          "name": "staker",
          "type": "address"
        },
        {
          "indexed": false,
          "internalType": "address",
          "name": "receiver",
          "type": "address"
        }
      ],
      "name": "Claimed",
      "type": "event"
    },
    {
      "anonymous": false,
      "inputs": [
        {
          "indexed": false,
          "internalType": "uint256",
          "name": "oldGasLimit",
          "type": "uint256"
        },
        {
          "indexed": false,
          "internalType": "uint256",
          "name": "newGasLimit",
          "type": "uint256"
        }
      ],
      "name": "GasLimitAddStakerUpdated",
      "type": "event"
    },
    {
      "anonymous": false,
      "inputs": [
        {
          "indexed": false,
          "internalType": "uint256",
          "name": "oldGasLimit",
          "type": "uint256"
        },
        {
          "indexed": false,
          "internalType": "uint256",
          "name": "newGasLimit",
          "type": "uint256"
        }
      ],
      "name": "GasLimitRemoveStakersUpdated",
      "type": "event"
    },
    {
      "anonymous": false,
      "inputs": [
        {
          "indexed": false,
          "internalType": "uint8",
          "name": "version",
          "type": "uint8"
        }
      ],
      "name": "Initialized",
      "type": "event"
    },
    {
      "anonymous": false,
      "inputs": [
        {
          "indexed": true,
          "internalType": "address",
          "name": "previousOwner",
          "type": "address"
        },
        {
          "indexed": true,
          "internalType": "address",
          "name": "newOwner",
          "type": "address"
        }
      ],
      "name": "OwnershipTransferred",
      "type": "event"
    },
    {
      "anonymous": false,
      "inputs": [
        {
          "indexed": false,
          "internalType": "address",
          "name": "addr",
          "type": "address"
        },
        {
          "indexed": false,
          "internalType": "bytes32",
          "name": "tmKey",
          "type": "bytes32"
        },
        {
          "indexed": false,
          "internalType": "bytes",
          "name": "blsKey",
          "type": "bytes"
        }
      ],
      "name": "Registered",
      "type": "event"
    },
    {
      "anonymous": false,
      "inputs": [
        {
          "indexed": false,
          "internalType": "uint256",
          "name": "oldPercentage",
          "type": "uint256"
        },
        {
          "indexed": false,
          "internalType": "uint256",
          "name": "newPercentage",
          "type": "uint256"
        }
      ],
      "name": "RewardPercentageUpdated",
      "type": "event"
    },
    {
      "anonymous": false,
      "inputs": [
        {
          "indexed": false,
          "internalType": "address",
          "name": "receiver",
          "type": "address"
        },
        {
          "indexed": false,
          "internalType": "uint256",
          "name": "amount",
          "type": "uint256"
        }
      ],
      "name": "SlashRemainingClaimed",
      "type": "event"
    },
    {
      "anonymous": false,
      "inputs": [
        {
          "indexed": false,
          "internalType": "address[]",
          "name": "stakers",
          "type": "address[]"
        }
      ],
      "name": "Slashed",
      "type": "event"
    },
    {
      "anonymous": false,
      "inputs": [
        {
          "indexed": false,
          "internalType": "address[]",
          "name": "stakers",
          "type": "address[]"
        }
      ],
      "name": "StakersRemoved",
      "type": "event"
    },
    {
      "anonymous": false,
      "inputs": [
        {
          "indexed": false,
          "internalType": "uint256",
          "name": "oldStakingValue",
          "type": "uint256"
        },
        {
          "indexed": false,
          "internalType": "uint256",
          "name": "newStakingValue",
          "type": "uint256"
        }
      ],
      "name": "StakingValueUpdated",
      "type": "event"
    },
    {
      "anonymous": false,
      "inputs": [
        {
          "indexed": false,
          "internalType": "address[]",
          "name": "add",
          "type": "address[]"
        },
        {
          "indexed": false,
          "internalType": "address[]",
          "name": "remove",
          "type": "address[]"
        }
      ],
      "name": "WhitelistUpdated",
      "type": "event"
    },
    {
      "anonymous": false,
      "inputs": [
        {
          "indexed": true,
          "internalType": "address",
          "name": "addr",
          "type": "address"
        },
        {
          "indexed": false,
          "internalType": "uint256",
          "name": "unlockHeight",
          "type": "uint256"
        }
      ],
      "name": "Withdrawn",
      "type": "event"
    },
    {
      "inputs": [],
      "name": "MESSENGER",
      "outputs": [
        {
          "internalType": "contract ICrossDomainMessenger",
          "name": "",
          "type": "address"
        }
      ],
      "stateMutability": "view",
      "type": "function"
    },
    {
      "inputs": [],
      "name": "OTHER_STAKING",
      "outputs": [
        {
          "internalType": "contract Staking",
          "name": "",
          "type": "address"
        }
      ],
      "stateMutability": "view",
      "type": "function"
    },
    {
      "inputs": [
        {
          "internalType": "bytes",
          "name": "blsPubkey",
          "type": "bytes"
        }
      ],
      "name": "blsKeys",
      "outputs": [
        {
          "internalType": "bool",
          "name": "exist",
          "type": "bool"
        }
      ],
      "stateMutability": "view",
      "type": "function"
    },
    {
      "inputs": [],
      "name": "challengeDeposit",
      "outputs": [
        {
          "internalType": "uint256",
          "name": "",
          "type": "uint256"
        }
      ],
      "stateMutability": "view",
      "type": "function"
    },
    {
      "inputs": [
        {
          "internalType": "address",
          "name": "receiver",
          "type": "address"
        }
      ],
      "name": "claimSlashRemaining",
      "outputs": [],
      "stateMutability": "nonpayable",
      "type": "function"
    },
    {
      "inputs": [
        {
          "internalType": "address",
          "name": "receiver",
          "type": "address"
        }
      ],
      "name": "claimWithdrawal",
      "outputs": [],
      "stateMutability": "nonpayable",
      "type": "function"
    },
    {
      "inputs": [],
      "name": "cleanStakerStore",
      "outputs": [],
      "stateMutability": "nonpayable",
      "type": "function"
    },
    {
      "inputs": [
        {
          "internalType": "uint256",
          "name": "",
          "type": "uint256"
        }
      ],
      "name": "deleteList",
      "outputs": [
        {
          "internalType": "address",
          "name": "",
          "type": "address"
        }
      ],
      "stateMutability": "view",
      "type": "function"
    },
    {
      "inputs": [
        {
          "internalType": "address",
          "name": "stakerAddr",
          "type": "address"
        }
      ],
      "name": "deleteableHeight",
      "outputs": [
        {
          "internalType": "uint256",
          "name": "height",
          "type": "uint256"
        }
      ],
      "stateMutability": "view",
      "type": "function"
    },
    {
      "inputs": [],
      "name": "gasLimitAddStaker",
      "outputs": [
        {
          "internalType": "uint256",
          "name": "",
          "type": "uint256"
        }
      ],
      "stateMutability": "view",
      "type": "function"
    },
    {
      "inputs": [],
      "name": "gasLimitRemoveStakers",
      "outputs": [
        {
          "internalType": "uint256",
          "name": "",
          "type": "uint256"
        }
      ],
      "stateMutability": "view",
      "type": "function"
    },
    {
      "inputs": [],
      "name": "getActiveStakers",
      "outputs": [
        {
          "internalType": "address[]",
          "name": "",
          "type": "address[]"
        }
      ],
      "stateMutability": "view",
      "type": "function"
    },
    {
      "inputs": [
        {
          "internalType": "address",
          "name": "_staker",
          "type": "address"
        }
      ],
      "name": "getStakerBitmap",
      "outputs": [
        {
          "internalType": "uint256",
          "name": "bitmap",
          "type": "uint256"
        }
      ],
      "stateMutability": "view",
      "type": "function"
    },
    {
      "inputs": [],
      "name": "getStakers",
      "outputs": [
        {
          "internalType": "address[255]",
          "name": "",
          "type": "address[255]"
        }
      ],
      "stateMutability": "view",
      "type": "function"
    },
    {
      "inputs": [
        {
          "internalType": "address[]",
          "name": "_stakers",
          "type": "address[]"
        }
      ],
      "name": "getStakersBitmap",
      "outputs": [
        {
          "internalType": "uint256",
          "name": "bitmap",
          "type": "uint256"
        }
      ],
      "stateMutability": "view",
      "type": "function"
    },
    {
      "inputs": [
        {
          "internalType": "uint256",
          "name": "bitmap",
          "type": "uint256"
        }
      ],
      "name": "getStakersFromBitmap",
      "outputs": [
        {
          "internalType": "address[]",
          "name": "stakerAddrs",
          "type": "address[]"
        }
      ],
      "stateMutability": "view",
      "type": "function"
    },
    {
      "inputs": [
        {
          "internalType": "address",
          "name": "_rollupContract",
          "type": "address"
        },
        {
          "internalType": "uint256",
          "name": "_stakingValue",
          "type": "uint256"
        },
        {
          "internalType": "uint256",
          "name": "_challengeDeposit",
          "type": "uint256"
        },
        {
          "internalType": "uint256",
          "name": "_lockBlocks",
          "type": "uint256"
        },
        {
          "internalType": "uint256",
          "name": "_rewardPercentage",
          "type": "uint256"
        },
        {
          "internalType": "uint256",
          "name": "_gasLimitAdd",
          "type": "uint256"
        },
        {
          "internalType": "uint256",
          "name": "_gasLimitRemove",
          "type": "uint256"
        }
      ],
      "name": "initialize",
      "outputs": [],
      "stateMutability": "nonpayable",
      "type": "function"
    },
    {
      "inputs": [
        {
          "internalType": "address",
          "name": "addr",
          "type": "address"
        }
      ],
      "name": "isActiveStaker",
      "outputs": [
        {
          "internalType": "bool",
          "name": "",
          "type": "bool"
        }
      ],
      "stateMutability": "view",
      "type": "function"
    },
    {
      "inputs": [
        {
          "internalType": "address",
          "name": "addr",
          "type": "address"
        }
      ],
      "name": "isStaker",
      "outputs": [
        {
          "internalType": "bool",
          "name": "",
          "type": "bool"
        }
      ],
      "stateMutability": "view",
      "type": "function"
    },
    {
      "inputs": [
        {
          "internalType": "address",
          "name": "addr",
          "type": "address"
        }
      ],
      "name": "isStakerInDeleteList",
      "outputs": [
        {
          "internalType": "bool",
          "name": "",
          "type": "bool"
        }
      ],
      "stateMutability": "view",
      "type": "function"
    },
    {
      "inputs": [],
      "name": "messenger",
      "outputs": [
        {
          "internalType": "address",
          "name": "",
          "type": "address"
        }
      ],
      "stateMutability": "view",
      "type": "function"
    },
    {
      "inputs": [],
      "name": "owner",
      "outputs": [
        {
          "internalType": "address",
          "name": "",
          "type": "address"
        }
      ],
      "stateMutability": "view",
      "type": "function"
    },
    {
      "inputs": [
        {
          "internalType": "bytes32",
          "name": "tmKey",
          "type": "bytes32"
        },
        {
          "internalType": "bytes",
          "name": "blsKey",
          "type": "bytes"
        }
      ],
      "name": "register",
      "outputs": [],
      "stateMutability": "payable",
      "type": "function"
    },
    {
      "inputs": [
        {
          "internalType": "address[]",
          "name": "_stakers",
          "type": "address[]"
        }
      ],
      "name": "removeStaker",
      "outputs": [],
      "stateMutability": "nonpayable",
      "type": "function"
    },
    {
      "inputs": [
        {
          "internalType": "address",
          "name": "stakerAddr",
          "type": "address"
        }
      ],
      "name": "removedList",
      "outputs": [
        {
          "internalType": "bool",
          "name": "removed",
          "type": "bool"
        }
      ],
      "stateMutability": "view",
      "type": "function"
    },
    {
      "inputs": [],
      "name": "renounceOwnership",
      "outputs": [],
      "stateMutability": "nonpayable",
      "type": "function"
    },
    {
      "inputs": [],
      "name": "rewardPercentage",
      "outputs": [
        {
          "internalType": "uint256",
          "name": "",
          "type": "uint256"
        }
      ],
      "stateMutability": "view",
      "type": "function"
    },
    {
      "inputs": [],
      "name": "rollupContract",
      "outputs": [
        {
          "internalType": "address",
          "name": "",
          "type": "address"
        }
      ],
      "stateMutability": "view",
      "type": "function"
    },
    {
      "inputs": [
        {
          "internalType": "uint256",
          "name": "sequencersBitmap",
          "type": "uint256"
        }
      ],
      "name": "slash",
      "outputs": [
        {
          "internalType": "uint256",
          "name": "",
          "type": "uint256"
        }
      ],
      "stateMutability": "nonpayable",
      "type": "function"
    },
    {
      "inputs": [],
      "name": "slashRemaining",
      "outputs": [
        {
          "internalType": "uint256",
          "name": "",
          "type": "uint256"
        }
      ],
      "stateMutability": "view",
      "type": "function"
    },
    {
      "inputs": [
        {
          "internalType": "address",
          "name": "stakerAddr",
          "type": "address"
        }
      ],
      "name": "stakerIndexes",
      "outputs": [
        {
          "internalType": "uint8",
          "name": "index",
          "type": "uint8"
        }
      ],
      "stateMutability": "view",
      "type": "function"
    },
    {
      "inputs": [
        {
          "internalType": "uint256",
          "name": "",
          "type": "uint256"
        }
      ],
      "name": "stakerSet",
      "outputs": [
        {
          "internalType": "address",
          "name": "",
          "type": "address"
        }
      ],
      "stateMutability": "view",
      "type": "function"
    },
    {
      "inputs": [
        {
          "internalType": "address",
          "name": "stakerAddr",
          "type": "address"
        }
      ],
      "name": "stakers",
      "outputs": [
        {
          "internalType": "address",
          "name": "addr",
          "type": "address"
        },
        {
          "internalType": "bytes32",
          "name": "tmKey",
          "type": "bytes32"
        },
        {
          "internalType": "bytes",
          "name": "blsKey",
          "type": "bytes"
        }
      ],
      "stateMutability": "view",
      "type": "function"
    },
    {
      "inputs": [],
      "name": "stakingValue",
      "outputs": [
        {
          "internalType": "uint256",
          "name": "",
          "type": "uint256"
        }
      ],
      "stateMutability": "view",
      "type": "function"
    },
    {
      "inputs": [
        {
          "internalType": "bytes32",
          "name": "tmPubkey",
          "type": "bytes32"
        }
      ],
      "name": "tmKeys",
      "outputs": [
        {
          "internalType": "bool",
          "name": "exist",
          "type": "bool"
        }
      ],
      "stateMutability": "view",
      "type": "function"
    },
    {
      "inputs": [
        {
          "internalType": "address",
          "name": "newOwner",
          "type": "address"
        }
      ],
      "name": "transferOwnership",
      "outputs": [],
      "stateMutability": "nonpayable",
      "type": "function"
    },
    {
      "inputs": [
        {
          "internalType": "uint256",
          "name": "_challengeDeposit",
          "type": "uint256"
        }
      ],
      "name": "updateChallengeDeposit",
      "outputs": [],
      "stateMutability": "nonpayable",
      "type": "function"
    },
    {
      "inputs": [
        {
          "internalType": "uint256",
          "name": "_gasLimitAdd",
          "type": "uint256"
        }
      ],
      "name": "updateGasLimitAddStaker",
      "outputs": [],
      "stateMutability": "nonpayable",
      "type": "function"
    },
    {
      "inputs": [
        {
          "internalType": "uint256",
          "name": "_gasLimitRemove",
          "type": "uint256"
        }
      ],
      "name": "updateGasLimitRemoveStakers",
      "outputs": [],
      "stateMutability": "nonpayable",
      "type": "function"
    },
    {
      "inputs": [
        {
          "internalType": "uint256",
          "name": "_rewardPercentage",
          "type": "uint256"
        }
      ],
      "name": "updateRewardPercentage",
      "outputs": [],
      "stateMutability": "nonpayable",
      "type": "function"
    },
    {
      "inputs": [
        {
          "internalType": "uint256",
          "name": "_stakingValue",
          "type": "uint256"
        }
      ],
      "name": "updateStakingValue",
      "outputs": [],
      "stateMutability": "nonpayable",
      "type": "function"
    },
    {
      "inputs": [
        {
          "internalType": "address[]",
          "name": "add",
          "type": "address[]"
        },
        {
          "internalType": "address[]",
          "name": "remove",
          "type": "address[]"
        }
      ],
      "name": "updateWhitelist",
      "outputs": [],
      "stateMutability": "nonpayable",
      "type": "function"
    },
    {
      "inputs": [
        {
          "internalType": "uint256",
          "name": "",
          "type": "uint256"
        },
        {
          "internalType": "address[]",
          "name": "",
          "type": "address[]"
        },
        {
          "internalType": "bytes32",
          "name": "",
          "type": "bytes32"
        },
        {
          "internalType": "bytes",
          "name": "",
          "type": "bytes"
        }
      ],
      "name": "verifySignature",
      "outputs": [
        {
          "internalType": "bool",
          "name": "",
          "type": "bool"
        }
      ],
      "stateMutability": "pure",
      "type": "function"
    },
    {
      "inputs": [
        {
          "internalType": "address",
          "name": "stakerAddr",
          "type": "address"
        }
      ],
      "name": "whitelist",
      "outputs": [
        {
          "internalType": "bool",
          "name": "inWhitelist",
          "type": "bool"
        }
      ],
      "stateMutability": "view",
      "type": "function"
    },
    {
      "inputs": [],
      "name": "withdraw",
      "outputs": [],
      "stateMutability": "nonpayable",
      "type": "function"
    },
    {
      "inputs": [],
      "name": "withdrawalLockBlocks",
      "outputs": [
        {
          "internalType": "uint256",
          "name": "",
          "type": "uint256"
        }
      ],
      "stateMutability": "view",
      "type": "function"
    },
    {
      "inputs": [
        {
          "internalType": "address",
          "name": "staker",
          "type": "address"
        }
      ],
      "name": "withdrawals",
      "outputs": [
        {
          "internalType": "uint256",
          "name": "amount",
          "type": "uint256"
        }
      ],
      "stateMutability": "view",
      "type": "function"
    }
  ],
  "bytecode": "0x60c060405234801562000010575f80fd5b5060405162003e1d38038062003e1d833981016040819052620000339162000127565b6001600160a01b03811660805273530000000000000000000000000000000000001560a0526200006262000069565b5062000156565b5f54610100900460ff1615620000d55760405162461bcd60e51b815260206004820152602760248201527f496e697469616c697a61626c653a20636f6e747261637420697320696e697469604482015266616c697a696e6760c81b606482015260840160405180910390fd5b5f5460ff9081161462000125575f805460ff191660ff9081179091556040519081527f7f26b83ff96e1f2b6a682f133852f6798a09c465da95921460cefb38474024989060200160405180910390a15b565b5f6020828403121562000138575f80fd5b81516001600160a01b03811681146200014f575f80fd5b9392505050565b60805160a051613c826200019b5f395f8181610664015281816129530152612bc701525f818161043c01528181610701015281816129240152612b980152613c825ff3fe6080604052600436106102f8575f3560e01c80637a9262a211610191578063ab8c53dc116100dc578063d51c90a911610087578063e2a6ad5f11610062578063e2a6ad5f1461090c578063f2fde38b1461092b578063f4fe7fef1461094a575f80fd5b8063d51c90a91461087f578063dd4785f514610894578063df155033146108d5575f80fd5b8063c7cd469a116100b7578063c7cd469a14610822578063cde4cd1114610841578063d096c3c614610860575f80fd5b8063ab8c53dc146107cf578063ae81de53146107e4578063bfa02ba914610803575f80fd5b8063927ede2d1161013c5780639fb82db9116101175780639fb82db91461077d578063a3066aab14610791578063a4f209b0146107b0575f80fd5b8063927ede2d146106f05780639b19251a146107235780639d48f41714610751575f80fd5b80638a565ac31161016c5780638a565ac3146106865780638da5cb5b146106a55780639168ae72146106c2575f80fd5b80637a9262a2146106085780638142951a14610634578063831cfb5814610653575f80fd5b806341de239b11610251578063692c565b116101fc57806374fe27b7116101d757806374fe27b714610588578063797adbde146105ae5780637a4e87c3146105cd575f80fd5b8063692c565b146105265780636f1e853314610555578063715018a614610574575f80fd5b80634d64903a1161022c5780634d64903a146104dd57806352d472eb146104f25780636801579114610507575f80fd5b806341de239b1461048857806343352d611461049d57806345bc4d10146104be575f80fd5b8063320ff860116102b15780633cb747bf1161028c5780633cb747bf1461042e5780633ccfd60b146104605780633ee2a1f914610474575f80fd5b8063320ff860146103b257806335928991146103d15780633a9bbede146103f0575f80fd5b80632a28e5a3116102e15780632a28e5a31461033a5780632e407a6f1461034f578063303afb9e1461037b575f80fd5b80630d13fd7b146102fc5780632108db3514610325575b5f80fd5b348015610307575f80fd5b506103126101a65481565b6040519081526020015b60405180910390f35b348015610330575f80fd5b50610312609c5481565b61034d610348366004613407565b610969565b005b34801561035a575f80fd5b50610312610369366004613461565b6101a16020525f908152604090205481565b348015610386575f80fd5b5061039a610395366004613481565b610d64565b6040516001600160a01b03909116815260200161031c565b3480156103bd575f80fd5b5061034d6103cc366004613498565b610d83565b3480156103dc575f80fd5b5061034d6103eb366004613481565b61109e565b3480156103fb575f80fd5b5061041e61040a366004613461565b609f6020525f908152604090205460ff1681565b604051901515815260200161031c565b348015610439575f80fd5b507f000000000000000000000000000000000000000000000000000000000000000061039a565b34801561046b575f80fd5b5061034d61114b565b34801561047f575f80fd5b5061034d611317565b348015610493575f80fd5b5061031260995481565b3480156104a8575f80fd5b506104b1611329565b60405161031c9190613540565b3480156104c9575f80fd5b506103126104d8366004613481565b61136f565b3480156104e8575f80fd5b5061031260985481565b3480156104fd575f80fd5b50610312609a5481565b348015610512575f80fd5b5061041e610521366004613461565b611675565b348015610531575f80fd5b5061041e610540366004613481565b6101a46020525f908152604090205460ff1681565b348015610560575f80fd5b5061041e61056f366004613461565b611710565b34801561057f575f80fd5b5061034d611789565b348015610593575f80fd5b5061041e6105a23660046135c2565b60019695505050505050565b3480156105b9575f80fd5b5061039a6105c8366004613481565b61179a565b3480156105d8575f80fd5b5061041e6105e7366004613668565b80516020818301810180516101a38252928201919093012091525460ff1681565b348015610613575f80fd5b50610312610622366004613461565b6101a56020525f908152604090205481565b34801561063f575f80fd5b5061034d61064e3660046136a2565b6117c3565b34801561065e575f80fd5b5061039a7f000000000000000000000000000000000000000000000000000000000000000081565b348015610691575f80fd5b5061034d6106a0366004613481565b611c85565b3480156106b0575f80fd5b506033546001600160a01b031661039a565b3480156106cd575f80fd5b506106e16106dc366004613461565b611d28565b60405161031c9392919061373d565b3480156106fb575f80fd5b5061039a7f000000000000000000000000000000000000000000000000000000000000000081565b34801561072e575f80fd5b5061041e61073d366004613461565b609e6020525f908152604090205460ff1681565b34801561075c575f80fd5b5061077061076b366004613481565b611ddb565b60405161031c919061376d565b348015610788575f80fd5b50610770611ef8565b34801561079c575f80fd5b5061034d6107ab366004613461565b6120a6565b3480156107bb575f80fd5b5061034d6107ca366004613481565b6121d6565b3480156107da575f80fd5b50610312609d5481565b3480156107ef575f80fd5b5061034d6107fe366004613481565b612286565b34801561080e575f80fd5b5060975461039a906001600160a01b031681565b34801561082d575f80fd5b5061034d61083c3660046137b9565b612329565b34801561084c575f80fd5b5061034d61085b366004613461565b6124ca565b34801561086b575f80fd5b5061031261087a366004613461565b612538565b34801561088a575f80fd5b50610312609b5481565b34801561089f575f80fd5b506108c36108ae366004613461565b61019f6020525f908152604090205460ff1681565b60405160ff909116815260200161031c565b3480156108e0575f80fd5b5061041e6108ef366004613461565b6001600160a01b03165f9081526101a16020526040902054151590565b348015610917575f80fd5b50610312610926366004613820565b6125b2565b348015610936575f80fd5b5061034d610945366004613461565b6126e4565b348015610955575f80fd5b5061034d610964366004613481565b612771565b335f818152609e602052604090205460ff166109cc5760405162461bcd60e51b815260206004820152601060248201527f6e6f7420696e2077686974656c6973740000000000000000000000000000000060448201526064015b60405180910390fd5b335f9081526101a260205260409020546001600160a01b031615610a325760405162461bcd60e51b815260206004820152601260248201527f616c72656164792072656769737465726564000000000000000000000000000060448201526064016109c3565b8215801590610a5057505f8381526101a4602052604090205460ff16155b610a9c5760405162461bcd60e51b815260206004820152601960248201527f696e76616c69642074656e6465726d696e74207075626b65790000000000000060448201526064016109c3565b8151610100148015610acf57506101a382604051610aba919061385f565b9081526040519081900360200190205460ff16155b610b1b5760405162461bcd60e51b815260206004820152601260248201527f696e76616c696420626c73207075626b6579000000000000000000000000000060448201526064016109c3565b6098543414610b6c5760405162461bcd60e51b815260206004820152601560248201527f696e76616c6964207374616b696e672076616c7565000000000000000000000060448201526064016109c3565b6040518060600160405280610b7e3390565b6001600160a01b03908116825260208083018790526040928301869052335f9081526101a28252839020845181547fffffffffffffffffffffffff00000000000000000000000000000000000000001693169290921782558301516001820155908201516002820190610bf1908261390f565b50905050610c04610bff3390565b612814565b60016101a383604051610c17919061385f565b90815260408051918290036020908101909220805493151560ff199485161790555f8681526101a49092529020805490911660011790557fb9c7babb56df9f2da4a30811a6c778e4e68af88b72712d56cf62c5516e20e199610c763390565b8484604051610c879392919061373d565b60405180910390a1335f9081526101a26020908152604091829020825160608101845281546001600160a01b03168152600182015492810192909252600281018054610d5f9484019190610cda9061387a565b80601f0160208091040260200160405190810160405280929190818152602001828054610d069061387a565b8015610d515780601f10610d2857610100808354040283529160200191610d51565b820191905f5260205f20905b815481529060010190602001808311610d3457829003601f168201915b505050505081525050612922565b505050565b60a08160ff8110610d73575f80fd5b01546001600160a01b0316905081565b610d8b612a4a565b5f5b815181101561105a57610db8828281518110610dab57610dab613a0d565b6020026020010151611675565b610e2a5760405162461bcd60e51b815260206004820152602160248201527f6f6e6c7920616374697665207374616b65722063616e2062652072656d6f766560448201527f640000000000000000000000000000000000000000000000000000000000000060648201526084016109c3565b6101a55f838381518110610e4057610e40613a0d565b60200260200101516001600160a01b03166001600160a01b031681526020019081526020015f20545f14610eb65760405162461bcd60e51b815260206004820152600b60248201527f7769746864726177696e6700000000000000000000000000000000000000000060448201526064016109c3565b609954610ec39043613a67565b6101a55f848481518110610ed957610ed9613a0d565b60200260200101516001600160a01b03166001600160a01b031681526020019081526020015f2081905550610f26828281518110610f1957610f19613a0d565b6020026020010151612aa4565b818181518110610f3857610f38613a0d565b60200260200101516001600160a01b03167f7084f5476618d8e60b11ef0d7d3f06914655adb8793e28ff7f018d4c76d505d56101a55f858581518110610f8057610f80613a0d565b60200260200101516001600160a01b03166001600160a01b031681526020019081526020015f2054604051610fb791815260200190565b60405180910390a2609e5f838381518110610fd457610fd4613a0d565b60200260200101516001600160a01b03166001600160a01b031681526020019081526020015f205f6101000a81549060ff02191690556001609f5f84848151811061102157611021613a0d565b6020908102919091018101516001600160a01b031682528101919091526040015f20805460ff1916911515919091179055600101610d8d565b507f3f446646c03e618be8238a586960d6d625f35c653cdca1ef59609993e8ed2c848160405161108a919061376d565b60405180910390a161109b81612b96565b50565b6110a6612a4a565b5f811180156110b857506101a6548114155b6111045760405162461bcd60e51b815260206004820152601f60248201527f696e76616c6964206368616c6c656e6765206465706f7369742076616c75650060448201526064016109c3565b6101a680549082905560408051828152602081018490527f36f971a40478225aeb80cfbf5e80306e8cb76d3bf7d56fdc5e490945cddb7d5591015b60405180910390a15050565b61115433611675565b6111a05760405162461bcd60e51b815260206004820152601260248201527f6f6e6c7920616374697665207374616b6572000000000000000000000000000060448201526064016109c3565b335f9081526101a56020526040902054156111fd5760405162461bcd60e51b815260206004820152600b60248201527f7769746864726177696e6700000000000000000000000000000000000000000060448201526064016109c3565b60995461120a9043613a67565b335f8181526101a5602052604090209190915561122690612aa4565b335f8181526101a560209081526040918290205491519182527f7084f5476618d8e60b11ef0d7d3f06914655adb8793e28ff7f018d4c76d505d5910160405180910390a2335f908152609e60209081526040808320805460ff19908116909155609f83528184208054909116600190811790915581518181528083019092529091828101908036833701905050905033815f815181106112c8576112c8613a0d565b60200260200101906001600160a01b031690816001600160a01b0316815250507f3f446646c03e618be8238a586960d6d625f35c653cdca1ef59609993e8ed2c848160405161108a919061376d565b61131f612a4a565b611327612c8e565b565b6113316132d4565b60408051611fe08101918290529060a09060ff9082845b81546001600160a01b03168152600190910190602001808311611348575050505050905090565b6097545f906001600160a01b0316336001600160a01b0316146113d45760405162461bcd60e51b815260206004820152601460248201527f6f6e6c7920726f6c6c757020636f6e747261637400000000000000000000000060448201526064016109c3565b6113dc612f59565b5f6113e683611ddb565b90505f805b8251811015611598575f6101a55f85848151811061140b5761140b613a0d565b60200260200101516001600160a01b03166001600160a01b031681526020019081526020015f2054111561148e576101a55f84838151811061144f5761144f613a0d565b60200260200101516001600160a01b03166001600160a01b031681526020019081526020015f205f9055609854826114879190613a67565b9150611590565b6114c88382815181106114a3576114a3613a0d565b60200260200101516001600160a01b03165f9081526101a16020526040902054151590565b611590576098546114d99083613a67565b91506114f0838281518110610f1957610f19613a0d565b609e5f84838151811061150557611505613a0d565b60200260200101516001600160a01b03166001600160a01b031681526020019081526020015f205f6101000a81549060ff02191690556001609f5f85848151811061155257611552613a0d565b60200260200101516001600160a01b03166001600160a01b031681526020019081526020015f205f6101000a81548160ff0219169083151502179055505b6001016113eb565b505f6064609a54836115aa9190613a7a565b6115b49190613a91565b90506115c08183613ac9565b609d5f8282546115d09190613a67565b90915550506097546115eb906001600160a01b031682612fb2565b7f654f4a61849f1b3ad10abb283d27f02d5fece7b820acc5a3b874713b58748b5a8360405161161a919061376d565b60405180910390a17f3f446646c03e618be8238a586960d6d625f35c653cdca1ef59609993e8ed2c8483604051611651919061376d565b60405180910390a161166283612b96565b925050506116706001606555565b919050565b6001600160a01b0381165f90815261019f602052604081205460ff16810361169e57505f919050565b6001600160a01b0382165f81815261019f602052604090205460a0906116c99060019060ff16613adc565b60ff1660ff81106116dc576116dc613a0d565b01546001600160a01b031614801561170a57506001600160a01b0382165f9081526101a16020526040902054155b92915050565b6001600160a01b0381165f90815261019f602052604081205460ff16810361173957505f919050565b6001600160a01b0382165f81815261019f602052604090205460a0906117649060019060ff16613adc565b60ff1660ff811061177757611777613a0d565b01546001600160a01b03161492915050565b611791612a4a565b6113275f613062565b6101a081815481106117aa575f80fd5b5f918252602090912001546001600160a01b0316905081565b5f54610100900460ff16158080156117e157505f54600160ff909116105b806117fa5750303b1580156117fa57505f5460ff166001145b61186c5760405162461bcd60e51b815260206004820152602e60248201527f496e697469616c697a61626c653a20636f6e747261637420697320616c72656160448201527f647920696e697469616c697a656400000000000000000000000000000000000060648201526084016109c3565b5f805460ff1916600117905580156118aa575f80547fffffffffffffffffffffffffffffffffffffffffffffffffffffffffffff00ff166101001790555b6001600160a01b0388166119005760405162461bcd60e51b815260206004820152601760248201527f696e76616c696420726f6c6c757020636f6e747261637400000000000000000060448201526064016109c3565b5f871161194f5760405162461bcd60e51b815260206004820152601560248201527f696e76616c6964207374616b696e672076616c7565000000000000000000000060448201526064016109c3565b5f861161199e5760405162461bcd60e51b815260206004820152601f60248201527f696e76616c6964206368616c6c656e6765206465706f7369742076616c75650060448201526064016109c3565b5f85116119ed5760405162461bcd60e51b815260206004820152601e60248201527f696e76616c6964207769746864726177616c206c6f636b20626c6f636b73000060448201526064016109c3565b5f8311611a3c5760405162461bcd60e51b815260206004820152601c60248201527f696e76616c696420676173206c696d697420616464207374616b65720000000060448201526064016109c3565b5f8211611a8b5760405162461bcd60e51b815260206004820181905260248201527f696e76616c696420676173206c696d69742072656d6f7665207374616b65727360448201526064016109c3565b5f84118015611a9b575060648411155b611b0c5760405162461bcd60e51b8152602060048201526024808201527f696e76616c6964206368616c6c656e676572207265776172642070657263656e60448201527f746167650000000000000000000000000000000000000000000000000000000060648201526084016109c3565b611b146130cb565b611b1c61314f565b609780547fffffffffffffffffffffffff0000000000000000000000000000000000000000166001600160a01b038a16179055609a84905560988790556101a68690556099859055609b839055609c829055604080515f8152602081018590527f0ef80fb82bf5439b8591744c0fde771f5d93dce7a7970b1e9b7828cdc3970e9c910160405180910390a1604080515f8152602081018490527fdd4b37d1f14888147fe4be2cfaedcbf148fd07ececc856d0433241b8b6e4a7f7910160405180910390a1604080515f8152602081018690527fa46de936426e045703b2d34a292a19fde92b329018db8e0da750033876b655ba910160405180910390a18015611c7b575f80547fffffffffffffffffffffffffffffffffffffffffffffffffffffffffffff00ff169055604051600181527f7f26b83ff96e1f2b6a682f133852f6798a09c465da95921460cefb38474024989060200160405180910390a15b5050505050505050565b611c8d612a4a565b5f81118015611c9e5750609c548114155b611cea5760405162461bcd60e51b815260206004820152601560248201527f696e76616c6964206e657720676173206c696d6974000000000000000000000060448201526064016109c3565b609c80549082905560408051828152602081018490527fdd4b37d1f14888147fe4be2cfaedcbf148fd07ececc856d0433241b8b6e4a7f7910161113f565b6101a26020525f90815260409020805460018201546002830180546001600160a01b03909316939192611d5a9061387a565b80601f0160208091040260200160405190810160405280929190818152602001828054611d869061387a565b8015611dd15780601f10611da857610100808354040283529160200191611dd1565b820191905f5260205f20905b815481529060010190602001808311611db457829003601f168201915b5050505050905083565b6060600182901c5f5b8115611e0b57611df5816001613a67565b9050611e02600183613ac9565b82169150611de4565b8067ffffffffffffffff811115611e2457611e2461333d565b604051908082528060200260200182016040528015611e4d578160200160208202803683370190505b5092505f60015b60ff8160ff1611611eef57600160ff82161b861615611edd5760a0611e7a600183613adc565b60ff1660ff8110611e8d57611e8d613a0d565b015485516001600160a01b0390911690869084908110611eaf57611eaf613a0d565b6001600160a01b0390921660209283029190910190910152611ed2826001613a67565b915082821015611eef575b80611ee781613af5565b915050611e54565b50505050919050565b6040805160ff80825261200082019092526060915f91829160208201611fe0803683370190505090505f5b60ff811015611fc7575f60a08260ff8110611f4057611f40613a0d565b01546001600160a01b031614801590611f8857506101a15f60a08360ff8110611f6b57611f6b613a0d565b01546001600160a01b0316815260208101919091526040015f2054155b15611fbf5782611f9781613b13565b9350506001828281518110611fae57611fae613a0d565b911515602092830291909101909101525b600101611f23565b505f8267ffffffffffffffff811115611fe257611fe261333d565b60405190808252806020026020018201604052801561200b578160200160208202803683370190505b5090505f805b60ff81101561209c5783818151811061202c5761202c613a0d565b6020026020010151156120945760a08160ff811061204c5761204c613a0d565b015483516001600160a01b039091169084908490811061206e5761206e613a0d565b6001600160a01b03909216602092830291909101909101528161209081613b13565b9250505b600101612011565b5090949350505050565b6120ae612f59565b335f9081526101a5602052604090205461210a5760405162461bcd60e51b815260206004820152601460248201527f7769746864726177616c206e6f7420657869737400000000000000000000000060448201526064016109c3565b335f9081526101a560205260409020544310156121695760405162461bcd60e51b815260206004820152601160248201527f7769746864726177616c206c6f636b656400000000000000000000000000000060448201526064016109c3565b335f9081526101a56020526040812055612181612c8e565b604080516001600160a01b0383168152905133917f89309c9b2aeaffbdce717113df9427298b20448c05919bf889e05f8c3094254b919081900360200190a26121cc81609854612fb2565b61109b6001606555565b6121de612a4a565b5f811180156121ee575060648111155b80156121fc5750609a548114155b6122485760405162461bcd60e51b815260206004820152601960248201527f696e76616c6964207265776172642070657263656e746167650000000000000060448201526064016109c3565b609a80549082905560408051828152602081018490527fa46de936426e045703b2d34a292a19fde92b329018db8e0da750033876b655ba910161113f565b61228e612a4a565b5f8111801561229f5750609b548114155b6122eb5760405162461bcd60e51b815260206004820152601560248201527f696e76616c6964206e657720676173206c696d6974000000000000000000000060448201526064016109c3565b609b80549082905560408051828152602081018490527f0ef80fb82bf5439b8591744c0fde771f5d93dce7a7970b1e9b7828cdc3970e9c910161113f565b612331612a4a565b5f5b8381101561242957609f5f86868481811061235057612350613a0d565b90506020020160208101906123659190613461565b6001600160a01b0316815260208101919091526040015f205460ff16156123ce5760405162461bcd60e51b815260206004820152600f60248201527f696e2072656d6f766564206c697374000000000000000000000000000000000060448201526064016109c3565b6001609e5f8787858181106123e5576123e5613a0d565b90506020020160208101906123fa9190613461565b6001600160a01b0316815260208101919091526040015f20805460ff1916911515919091179055600101612333565b505f5b8181101561248657609e5f84848481811061244957612449613a0d565b905060200201602081019061245e9190613461565b6001600160a01b0316815260208101919091526040015f20805460ff1916905560010161242c565b507fe375867e538b40218c1b3db2ccceaf875eb073e38b510449e6088c1539ac8622848484846040516124bc9493929190613b8f565b60405180910390a150505050565b6124d2612a4a565b6124da612f59565b609d546124e78282612fb2565b5f609d55604080516001600160a01b0384168152602081018390527fa1fefb6c5328a92a416e321ed50997303fe7135fd88c28b0592b21ce42b5cdd9910160405180910390a15061109b6001606555565b5f61254282611710565b61258e5760405162461bcd60e51b815260206004820152600e60248201527f696e76616c6964207374616b657200000000000000000000000000000000000060448201526064016109c3565b506001600160a01b03165f90815261019f6020526040902054600160ff9091161b90565b5f60ff8211156126045760405162461bcd60e51b815260206004820152601c60248201527f7374616b657273206c656e677468206f7574206f6620626f756e64730000000060448201526064016109c3565b5f5b828110156126dd5761263884848381811061262357612623613a0d565b905060200201602081019061056f9190613461565b6126845760405162461bcd60e51b815260206004820152600e60248201527f696e76616c6964207374616b657200000000000000000000000000000000000060448201526064016109c3565b61019f5f85858481811061269a5761269a613a0d565b90506020020160208101906126af9190613461565b6001600160a01b0316815260208101919091526040015f2054600160ff90911681901b929092179101612606565b5092915050565b6126ec612a4a565b6001600160a01b0381166127685760405162461bcd60e51b815260206004820152602660248201527f4f776e61626c653a206e6577206f776e657220697320746865207a65726f206160448201527f646472657373000000000000000000000000000000000000000000000000000060648201526084016109c3565b61109b81613062565b612779612a4a565b5f8111801561278a57506098548114155b6127d65760405162461bcd60e51b815260206004820152601560248201527f696e76616c6964207374616b696e672076616c7565000000000000000000000060448201526064016109c3565b609880549082905560408051828152602081018490527f91e3ed304d49776a78bbe0df6bf7156f5433763621e5e728a3c2adfe7de74368910161113f565b5f5b60ff8160ff1610156128d9575f60a060ff80841690811061283957612839613a0d565b01546001600160a01b0316036128d1578160a08260ff1660ff811061286057612860613a0d565b0180547fffffffffffffffffffffffff0000000000000000000000000000000000000000166001600160a01b03929092169190911790556128a2816001613bc0565b6001600160a01b03929092165f90815261019f60205260409020805460ff191660ff9093169290921790915550565b600101612816565b5060405162461bcd60e51b815260206004820152600960248201527f736c6f742066756c6c000000000000000000000000000000000000000000000060448201526064016109c3565b7f00000000000000000000000000000000000000000000000000000000000000006001600160a01b031663b2267a7b7f00000000000000000000000000000000000000000000000000000000000000005f846040516024016129849190613bd9565b60408051601f198184030181529181526020820180517bffffffffffffffffffffffffffffffffffffffffffffffffffffffff167f6d454d5100000000000000000000000000000000000000000000000000000000179052609b5490517fffffffff0000000000000000000000000000000000000000000000000000000060e087901b168152612a1a9493929190600401613c10565b5f604051808303815f87803b158015612a31575f80fd5b505af1158015612a43573d5f803e3d5ffd5b5050505050565b6033546001600160a01b031633146113275760405162461bcd60e51b815260206004820181905260248201527f4f776e61626c653a2063616c6c6572206973206e6f7420746865206f776e657260448201526064016109c3565b6001600160a01b0381165f9081526101a1602052604090205415612b0a5760405162461bcd60e51b815260206004820152601560248201527f616c726561647920696e2064656c6574654c697374000000000000000000000060448201526064016109c3565b6101a080546001810182555f919091527f7980fe0f714a613298681d64b7b8ffa7b148338dd52429f307d72798d5c317c40180547fffffffffffffffffffffffff0000000000000000000000000000000000000000166001600160a01b038316179055609954612b7a9043613a67565b6001600160a01b039091165f9081526101a16020526040902055565b7f00000000000000000000000000000000000000000000000000000000000000006001600160a01b031663b2267a7b7f00000000000000000000000000000000000000000000000000000000000000005f84604051602401612bf8919061376d565b60408051601f198184030181529181526020820180517bffffffffffffffffffffffffffffffffffffffffffffffffffffffff167f0be67fcc00000000000000000000000000000000000000000000000000000000179052609c5490517fffffffff0000000000000000000000000000000000000000000000000000000060e087901b168152612a1a9493929190600401613c10565b5f5b6101a05481101561109b57436101a15f6101a08481548110612cb457612cb4613a0d565b5f9182526020808320909101546001600160a01b0316835282019290925260400190205411612f475760a0600161019f5f6101a08581548110612cf957612cf9613a0d565b5f9182526020808320909101546001600160a01b03168352820192909252604001902054612d2a919060ff16613adc565b60ff1660ff8110612d3d57612d3d613a0d565b0180547fffffffffffffffffffffffff00000000000000000000000000000000000000001690556101a0805461019f915f9184908110612d7f57612d7f613a0d565b5f9182526020808320909101546001600160a01b031683528201929092526040018120805460ff191690556101a080546101a292919084908110612dc557612dc5613a0d565b5f9182526020808320909101546001600160a01b03168352820192909252604001812080547fffffffffffffffffffffffff00000000000000000000000000000000000000001681556001810182905590612e2360028301826132f3565b50506101a15f6101a08381548110612e3d57612e3d613a0d565b5f9182526020808320909101546001600160a01b031683528201929092526040018120556101a08054612e7290600190613ac9565b81548110612e8257612e82613a0d565b5f918252602090912001546101a080546001600160a01b039092169183908110612eae57612eae613a0d565b905f5260205f20015f6101000a8154816001600160a01b0302191690836001600160a01b031602179055506101a0805480612eeb57612eeb613c48565b5f8281526020902081017fffffffffffffffffffffffffffffffffffffffffffffffffffffffffffffffff90810180547fffffffffffffffffffffffff0000000000000000000000000000000000000000169055019055612c90565b80612f5181613b13565b915050612c90565b600260655403612fab5760405162461bcd60e51b815260206004820152601f60248201527f5265656e7472616e637947756172643a207265656e7472616e742063616c6c0060448201526064016109c3565b6002606555565b8015613057575f826001600160a01b0316826040515f6040518083038185875af1925050503d805f8114613001576040519150601f19603f3d011682016040523d82523d5f602084013e613006565b606091505b5050905080610d5f5760405162461bcd60e51b815260206004820152601b60248201527f526f6c6c75703a20455448207472616e73666572206661696c6564000000000060448201526064016109c3565b5050565b6001606555565b603380546001600160a01b038381167fffffffffffffffffffffffff0000000000000000000000000000000000000000831681179093556040519116919082907f8be0079c531659141344cd1fd0a4f28419497f9722a3daafe3b4186f6b6457e0905f90a35050565b5f54610100900460ff166131475760405162461bcd60e51b815260206004820152602b60248201527f496e697469616c697a61626c653a20636f6e7472616374206973206e6f74206960448201527f6e697469616c697a696e6700000000000000000000000000000000000000000060648201526084016109c3565b6113276131d3565b5f54610100900460ff166131cb5760405162461bcd60e51b815260206004820152602b60248201527f496e697469616c697a61626c653a20636f6e7472616374206973206e6f74206960448201527f6e697469616c697a696e6700000000000000000000000000000000000000000060648201526084016109c3565b611327613258565b5f54610100900460ff1661324f5760405162461bcd60e51b815260206004820152602b60248201527f496e697469616c697a61626c653a20636f6e7472616374206973206e6f74206960448201527f6e697469616c697a696e6700000000000000000000000000000000000000000060648201526084016109c3565b61132733613062565b5f54610100900460ff1661305b5760405162461bcd60e51b815260206004820152602b60248201527f496e697469616c697a61626c653a20636f6e7472616374206973206e6f74206960448201527f6e697469616c697a696e6700000000000000000000000000000000000000000060648201526084016109c3565b60405180611fe0016040528060ff906020820280368337509192915050565b5080546132ff9061387a565b5f825580601f1061330e575050565b601f0160209004905f5260205f209081019061109b91905b80821115613339575f8155600101613326565b5090565b7f4e487b71000000000000000000000000000000000000000000000000000000005f52604160045260245ffd5b604051601f8201601f1916810167ffffffffffffffff811182821017156133935761339361333d565b604052919050565b5f82601f8301126133aa575f80fd5b813567ffffffffffffffff8111156133c4576133c461333d565b6133d76020601f19601f8401160161336a565b8181528460208386010111156133eb575f80fd5b816020850160208301375f918101602001919091529392505050565b5f8060408385031215613418575f80fd5b82359150602083013567ffffffffffffffff811115613435575f80fd5b6134418582860161339b565b9150509250929050565b80356001600160a01b0381168114611670575f80fd5b5f60208284031215613471575f80fd5b61347a8261344b565b9392505050565b5f60208284031215613491575f80fd5b5035919050565b5f60208083850312156134a9575f80fd5b823567ffffffffffffffff808211156134c0575f80fd5b818501915085601f8301126134d3575f80fd5b8135818111156134e5576134e561333d565b8060051b91506134f684830161336a565b818152918301840191848101908884111561350f575f80fd5b938501935b83851015613534576135258561344b565b82529385019390850190613514565b98975050505050505050565b611fe0810181835f5b60ff8110156135715781516001600160a01b0316835260209283019290910190600101613549565b50505092915050565b5f8083601f84011261358a575f80fd5b50813567ffffffffffffffff8111156135a1575f80fd5b6020830191508360208260051b85010111156135bb575f80fd5b9250929050565b5f805f805f80608087890312156135d7575f80fd5b86359550602087013567ffffffffffffffff808211156135f5575f80fd5b6136018a838b0161357a565b9097509550604089013594506060890135915080821115613620575f80fd5b818901915089601f830112613633575f80fd5b813581811115613641575f80fd5b8a6020828501011115613652575f80fd5b6020830194508093505050509295509295509295565b5f60208284031215613678575f80fd5b813567ffffffffffffffff81111561368e575f80fd5b61369a8482850161339b565b949350505050565b5f805f805f805f60e0888a0312156136b8575f80fd5b6136c18861344b565b9960208901359950604089013598606081013598506080810135975060a0810135965060c00135945092505050565b5f5b8381101561370a5781810151838201526020016136f2565b50505f910152565b5f81518084526137298160208601602086016136f0565b601f01601f19169290920160200192915050565b6001600160a01b0384168152826020820152606060408201525f6137646060830184613712565b95945050505050565b602080825282518282018190525f9190848201906040850190845b818110156137ad5783516001600160a01b031683529284019291840191600101613788565b50909695505050505050565b5f805f80604085870312156137cc575f80fd5b843567ffffffffffffffff808211156137e3575f80fd5b6137ef8883890161357a565b90965094506020870135915080821115613807575f80fd5b506138148782880161357a565b95989497509550505050565b5f8060208385031215613831575f80fd5b823567ffffffffffffffff811115613847575f80fd5b6138538582860161357a565b90969095509350505050565b5f82516138708184602087016136f0565b9190910192915050565b600181811c9082168061388e57607f821691505b6020821081036138c5577f4e487b71000000000000000000000000000000000000000000000000000000005f52602260045260245ffd5b50919050565b601f821115610d5f57805f5260205f20601f840160051c810160208510156138f05750805b601f840160051c820191505b81811015612a43575f81556001016138fc565b815167ffffffffffffffff8111156139295761392961333d565b61393d81613937845461387a565b846138cb565b602080601f83116001811461398f575f84156139595750858301515b7fffffffffffffffffffffffffffffffffffffffffffffffffffffffffffffffff600386901b1c1916600185901b178555613a05565b5f85815260208120601f198616915b828110156139bd5788860151825594840194600190910190840161399e565b50858210156139f957878501517fffffffffffffffffffffffffffffffffffffffffffffffffffffffffffffffff600388901b60f8161c191681555b505060018460011b0185555b505050505050565b7f4e487b71000000000000000000000000000000000000000000000000000000005f52603260045260245ffd5b7f4e487b71000000000000000000000000000000000000000000000000000000005f52601160045260245ffd5b8082018082111561170a5761170a613a3a565b808202811582820484141761170a5761170a613a3a565b5f82613ac4577f4e487b71000000000000000000000000000000000000000000000000000000005f52601260045260245ffd5b500490565b8181038181111561170a5761170a613a3a565b60ff828116828216039081111561170a5761170a613a3a565b5f60ff821660ff8103613b0a57613b0a613a3a565b60010192915050565b5f7fffffffffffffffffffffffffffffffffffffffffffffffffffffffffffffffff8203613b4357613b43613a3a565b5060010190565b8183525f60208085019450825f5b85811015613b84576001600160a01b03613b718361344b565b1687529582019590820190600101613b58565b509495945050505050565b604081525f613ba2604083018688613b4a565b8281036020840152613bb5818587613b4a565b979650505050505050565b60ff818116838216019081111561170a5761170a613a3a565b602081526001600160a01b038251166020820152602082015160408201525f604083015160608084015261369a6080840182613712565b6001600160a01b0385168152836020820152608060408201525f613c376080830185613712565b905082606083015295945050505050565b7f4e487b71000000000000000000000000000000000000000000000000000000005f52603160045260245ffdfea164736f6c6343000818000a",
  "linkReferences": {},
  "deployedLinkReferences": {}
}