{
  "abi": [
    {
      "type": "constructor",
      "inputs": [
        {
          "name": "_chainId",
          "type": "uint64",
          "internalType": "uint64"
        },
        {
          "name": "_verifier",
          "type": "address",
          "internalType": "address"
        }
      ],
      "stateMutability": "nonpayable"
    },
    {
      "type": "function",
      "name": "commitBatch",
      "inputs": [
        {
          "name": "_batchIndex",
          "type": "uint64",
          "internalType": "uint64"
        },
        {
          "name": "_batchData",
          "type": "tuple",
          "internalType": "struct ShadowRollup.BatchStore",
          "components": [
            {
              "name": "prevStateRoot",
              "type": "bytes32",
              "internalType": "bytes32"
            },
            {
              "name": "postStateRoot",
              "type": "bytes32",
              "internalType": "bytes32"
            },
            {
              "name": "withdrawalRoot",
              "type": "bytes32",
              "internalType": "bytes32"
            },
            {
              "name": "dataHash",
              "type": "bytes32",
              "internalType": "bytes32"
            },
            {
              "name": "blobVersionedHash",
              "type": "bytes32",
              "internalType": "bytes32"
            },
            {
              "name": "sequencerSetVerifyHash",
              "type": "bytes32",
              "internalType": "bytes32"
            }
          ]
        }
      ],
      "outputs": [],
      "stateMutability": "nonpayable"
    },
    {
      "type": "function",
      "name": "committedBatchStores",
      "inputs": [
        {
          "name": "",
          "type": "uint256",
          "internalType": "uint256"
        }
      ],
      "outputs": [
        {
          "name": "prevStateRoot",
          "type": "bytes32",
          "internalType": "bytes32"
        },
        {
          "name": "postStateRoot",
          "type": "bytes32",
          "internalType": "bytes32"
        },
        {
          "name": "withdrawalRoot",
          "type": "bytes32",
          "internalType": "bytes32"
        },
        {
          "name": "dataHash",
          "type": "bytes32",
          "internalType": "bytes32"
        },
        {
          "name": "blobVersionedHash",
          "type": "bytes32",
          "internalType": "bytes32"
        },
        {
          "name": "sequencerSetVerifyHash",
          "type": "bytes32",
          "internalType": "bytes32"
        }
      ],
      "stateMutability": "view"
    },
    {
      "type": "function",
      "name": "isProveSuccess",
      "inputs": [
        {
          "name": "_batchIndex",
          "type": "uint256",
          "internalType": "uint256"
        }
      ],
      "outputs": [
        {
          "name": "",
          "type": "bool",
          "internalType": "bool"
        }
      ],
      "stateMutability": "view"
    },
    {
      "type": "function",
      "name": "layer2ChainId",
      "inputs": [],
      "outputs": [
        {
          "name": "",
          "type": "uint64",
          "internalType": "uint64"
        }
      ],
      "stateMutability": "view"
    },
    {
      "type": "function",
      "name": "owner",
      "inputs": [],
      "outputs": [
        {
          "name": "",
          "type": "address",
          "internalType": "address"
        }
      ],
      "stateMutability": "view"
    },
    {
      "type": "function",
      "name": "proveState",
      "inputs": [
        {
          "name": "_batchIndex",
          "type": "uint64",
          "internalType": "uint64"
        },
        {
          "name": "_proof",
          "type": "bytes",
          "internalType": "bytes"
        }
      ],
      "outputs": [],
      "stateMutability": "nonpayable"
    },
    {
      "type": "function",
      "name": "proveStatus",
      "inputs": [
        {
          "name": "",
          "type": "uint256",
          "internalType": "uint256"
        }
      ],
      "outputs": [
        {
          "name": "",
          "type": "bool",
          "internalType": "bool"
        }
      ],
      "stateMutability": "view"
    },
    {
      "type": "function",
      "name": "renounceOwnership",
      "inputs": [],
      "outputs": [],
      "stateMutability": "nonpayable"
    },
    {
      "type": "function",
      "name": "transferOwnership",
      "inputs": [
        {
          "name": "newOwner",
          "type": "address",
          "internalType": "address"
        }
      ],
      "outputs": [],
      "stateMutability": "nonpayable"
    },
    {
      "type": "function",
      "name": "updateVerifier",
      "inputs": [
        {
          "name": "_verifier",
          "type": "address",
          "internalType": "address"
        }
      ],
      "outputs": [],
      "stateMutability": "nonpayable"
    },
    {
      "type": "function",
      "name": "verifier",
      "inputs": [],
      "outputs": [
        {
          "name": "",
          "type": "address",
          "internalType": "address"
        }
      ],
      "stateMutability": "view"
    },
    {
      "type": "event",
      "name": "OwnershipTransferred",
      "inputs": [
        {
          "name": "previousOwner",
          "type": "address",
          "indexed": true,
          "internalType": "address"
        },
        {
          "name": "newOwner",
          "type": "address",
          "indexed": true,
          "internalType": "address"
        }
      ],
      "anonymous": false
    }
  ],
  "bytecode": {
    "object": "0x60a060405234801561001057600080fd5b5060405161091138038061091183398101604081905261002f916100bb565b6100383361006b565b6001600160401b0391909116608052600180546001600160a01b0319166001600160a01b0390921691909117905561010d565b600080546001600160a01b038381166001600160a01b0319831681178455604051919092169283917f8be0079c531659141344cd1fd0a4f28419497f9722a3daafe3b4186f6b6457e09190a35050565b600080604083850312156100ce57600080fd5b82516001600160401b03811681146100e557600080fd5b60208401519092506001600160a01b038116811461010257600080fd5b809150509250929050565b6080516107e361012e6000396000818160b3015261032201526107e36000f3fe608060405234801561001057600080fd5b50600436106100a95760003560e01c8063715018a611610071578063715018a6146101c85780638da5cb5b146101d057806397fc007c146101e15780639d049dda146101f4578063e7047c0414610207578063f2fde38b1461022a57600080fd5b806303c7f4af146100ae5780630b79cdda146100f357806325684280146101655780632b7ac3f31461018857806359ef1120146101b3575b600080fd5b6100d57f000000000000000000000000000000000000000000000000000000000000000081565b60405167ffffffffffffffff90911681526020015b60405180910390f35b610138610101366004610607565b6002602081905260009182526040909120805460018201549282015460038301546004840154600590940154929493919290919086565b604080519687526020870195909552938501929092526060840152608083015260a082015260c0016100ea565b610178610173366004610607565b61023d565b60405190151581526020016100ea565b60015461019b906001600160a01b031681565b6040516001600160a01b0390911681526020016100ea565b6101c66101c136600461063d565b61029e565b005b6101c661043e565b6000546001600160a01b031661019b565b6101c66101ef3660046106c0565b610452565b6101c66102023660046106f0565b61047c565b610178610215366004610607565b60036020526000908152604090205460ff1681565b6101c66102383660046106c0565b6104e4565b60008082116102885760405162461bcd60e51b81526020600482015260126024820152710d2dcecc2d8d2c840c4c2e8c6d092dcc8caf60731b60448201526064015b60405180910390fd5b5060009081526003602052604090205460ff1690565b806102de5760405162461bcd60e51b815260206004820152601060248201526f24b73b30b634b2103d3590383937b7b360811b604482015260640161027f565b67ffffffffffffffff8316600090815260026020818152604080842080546001820154948201546005830154600384015460049094015494516001600160c01b03197f000000000000000000000000000000000000000000000000000000000000000060c01b1696810196909652602886019290925260488501959095526068840194909452608883019390935260a882019290925260c881019190915260e80160408051808303601f19018152828252805160209182012060015491840181905293506001600160a01b03169163b768f1c99186918691016040516020818303038152906040526040518463ffffffff1660e01b81526004016103e49392919061072f565b60006040518083038186803b1580156103fc57600080fd5b505afa158015610410573d6000803e3d6000fd5b50505067ffffffffffffffff9094166000908152600360205260409020805460ff1916600117905550505050565b61044661055d565b61045060006105b7565b565b61045a61055d565b600180546001600160a01b0319166001600160a01b0392909216919091179055565b61048461055d565b67ffffffffffffffff8216600090815260026020526040902081906104de8282813581556020820135600182015560408201356002820155606082013560038201556080820135600482015560a082013560058201555050565b50505050565b6104ec61055d565b6001600160a01b0381166105515760405162461bcd60e51b815260206004820152602660248201527f4f776e61626c653a206e6577206f776e657220697320746865207a65726f206160448201526564647265737360d01b606482015260840161027f565b61055a816105b7565b50565b6000546001600160a01b031633146104505760405162461bcd60e51b815260206004820181905260248201527f4f776e61626c653a2063616c6c6572206973206e6f7420746865206f776e6572604482015260640161027f565b600080546001600160a01b038381166001600160a01b0319831681178455604051919092169283917f8be0079c531659141344cd1fd0a4f28419497f9722a3daafe3b4186f6b6457e09190a35050565b60006020828403121561061957600080fd5b5035919050565b803567ffffffffffffffff8116811461063857600080fd5b919050565b60008060006040848603121561065257600080fd5b61065b84610620565b9250602084013567ffffffffffffffff8082111561067857600080fd5b818601915086601f83011261068c57600080fd5b81358181111561069b57600080fd5b8760208285010111156106ad57600080fd5b6020830194508093505050509250925092565b6000602082840312156106d257600080fd5b81356001600160a01b03811681146106e957600080fd5b9392505050565b60008082840360e081121561070457600080fd5b61070d84610620565b925060c0601f198201121561072157600080fd5b506020830190509250929050565b60408152826040820152828460608301376000606084830101526000601f1980601f860116830160206060858303016020860152855180606084015260005b8181101561078a5787810183015184820160800152820161076e565b50600060808285010152608084601f83011684010194505050505094935050505056fea2646970667358221220f1cf592fa16f148c60584b254200a54483c2809be910a3ee9581d0c69de4d9de64736f6c63430008180033",
    "linkReferences": {}
  },
  "methodIdentifiers": {
    "commitBatch(uint64,(bytes32,bytes32,bytes32,bytes32,bytes32,bytes32))": "9d049dda",
    "committedBatchStores(uint256)": "0b79cdda",
    "isProveSuccess(uint256)": "25684280",
    "layer2ChainId()": "03c7f4af",
    "owner()": "8da5cb5b",
    "proveState(uint64,bytes)": "59ef1120",
    "proveStatus(uint256)": "e7047c04",
    "renounceOwnership()": "715018a6",
    "transferOwnership(address)": "f2fde38b",
    "updateVerifier(address)": "97fc007c",
    "verifier()": "2b7ac3f3"
  },
  "id": 25
}