{
    "abi": [
        {
            "type": "function",
            "name": "VERIFIER_HASH",
            "inputs": [],
            "outputs": [
                {
                    "name": "",
                    "type": "bytes32",
                    "internalType": "bytes32"
                }
            ],
            "stateMutability": "pure"
        },
        {
            "type": "function",
            "name": "VERSION",
            "inputs": [],
            "outputs": [
                {
                    "name": "",
                    "type": "string",
                    "internalType": "string"
                }
            ],
            "stateMutability": "pure"
        },
        {
            "type": "function",
            "name": "Verify",
            "inputs": [
                {
                    "name": "proof",
                    "type": "bytes",
                    "internalType": "bytes"
                },
                {
                    "name": "public_inputs",
                    "type": "uint256[]",
                    "internalType": "uint256[]"
                }
            ],
            "outputs": [
                {
                    "name": "success",
                    "type": "bool",
                    "internalType": "bool"
                }
            ],
            "stateMutability": "view"
        },
        {
            "type": "function",
            "name": "hashPublicValues",
            "inputs": [
                {
                    "name": "publicValues",
                    "type": "bytes",
                    "internalType": "bytes"
                }
            ],
            "outputs": [
                {
                    "name": "",
                    "type": "bytes32",
                    "internalType": "bytes32"
                }
            ],
            "stateMutability": "pure"
        },
        {
            "type": "function",
            "name": "verifyProof",
            "inputs": [
                {
                    "name": "programVKey",
                    "type": "bytes32",
                    "internalType": "bytes32"
                },
                {
                    "name": "publicValues",
                    "type": "bytes",
                    "internalType": "bytes"
                },
                {
                    "name": "proofBytes",
                    "type": "bytes",
                    "internalType": "bytes"
                }
            ],
            "outputs": [],
            "stateMutability": "view"
        },
        {
            "type": "error",
            "name": "InvalidProof",
            "inputs": []
        },
        {
            "type": "error",
            "name": "WrongVerifierSelector",
            "inputs": [
                {
                    "name": "received",
                    "type": "bytes4",
                    "internalType": "bytes4"
                },
                {
                    "name": "expected",
                    "type": "bytes4",
                    "internalType": "bytes4"
                }
            ]
        }
    ],
    "bytecode": {
        "object": "0x608060405234801561001057600080fd5b50612699806100206000396000f3fe608060405234801561001057600080fd5b50600436106100575760003560e01c80632a5104361461005c57806341493c60146100915780636b61d8e7146100a65780637e4f7a8a146100b9578063ffa1ad74146100dc575b600080fd5b7fffea2d2e12ed24da258af874d77eee7ee91a1e050ee197052908089e57681e675b6040519081526020015b60405180910390f35b6100a461009f366004612321565b61010f565b005b61007e6100b436600461239b565b6102ae565b6100cc6100c73660046123dd565b610315565b6040519015158152602001610088565b60408051808201825260118152701d8ccb8c0b8c0b5c98cc4b5cd8dc9bdb1b607a1b602082015290516100889190612477565b600061011e60048284866124c6565b610127916124f0565b90507fffea2d2e12ed24da258af874d77eee7ee91a1e050ee197052908089e57681e676001620ae96960e11b03196001600160e01b03198316146101965760405163988066a160e01b81526001600160e01b031980841660048301528216602482015260440160405180910390fd5b60006101a287876102ae565b60408051600280825260608201835292935060009290916020830190803683370190505090508860001c816000815181106101df576101df612520565b6020026020010181815250508160001c8160018151811061020257610202612520565b6020908102919091010152600030637e4f7a8a610222886004818c6124c6565b856040518463ffffffff1660e01b815260040161024193929190612536565b602060405180830381865afa15801561025e573d6000803e3d6000fd5b505050506040513d601f19601f8201168201806040525081019061028291906125b1565b9050806102a2576040516309bde33960e01b815260040160405180910390fd5b50505050505050505050565b60006001600160fd1b0360001b600284846040516102cd9291906125da565b602060405180830381855afa1580156102ea573d6000803e3d6000fd5b5050506040513d601f19601f8201168201806040525081019061030d91906125ea565b169392505050565b600060405161024081016103288461060b565b610332858561061e565b61033b8661065c565b61034487610672565b600061035186868a61078f565b905061035c81610ab5565b90506103688189610b0a565b90506103748189610b87565b5060608201516000805160206126248339815191526000805160206126448339815191526103a78463010000008561228b565b086101c0840152506103ba818587610be0565b6103c582868a610e30565b91506000805160206126248339815191528183086101a0840152506103ea905061112e565b6103f386611f9b565b6103fc86611eec565b61040586611cc2565b61040e86611810565b610417866115cb565b61042086611213565b610200015190506122d0565b60405162461bcd60e51b815260206004820152601d60248201527f77726f6e67206e756d626572206f66207075626c696320696e707574730000006044820152606481fd5b60405162461bcd60e51b815260206004820152601260248201527132b93937b91032b19037b832b930ba34b7b760711b6044820152606481fd5b60405162461bcd60e51b815260206004820152601860248201527f696e707574732061726520626967676572207468616e207200000000000000006044820152606481fd5b60405162461bcd60e51b815260206004820152601060248201526f77726f6e672070726f6f662073697a6560801b6044820152606481fd5b60405162461bcd60e51b815260206004820152601660248201527537b832b734b733b9903134b3b3b2b9103a3430b7103960511b6044820152606481fd5b60405162461bcd60e51b815260206004820152600d60248201526c6572726f722070616972696e6760981b6044820152606481fd5b60405162461bcd60e51b815260206004820152600c60248201526b6572726f722076657269667960a01b6044820152606481fd5b60405162461bcd60e51b81526020600482015260146024820152736572726f722072616e646f6d2067656e206b7a6760601b6044820152606481fd5b6002811461061b5761061b61042c565b50565b60005b818110156106575760008051602061264483398151915283351115610648576106486104ab565b60209290920191600101610621565b505050565b61036081811461066e5761066e6104f0565b5050565b61018081016000805160206126448339815191528135111561069657610696610528565b506101a08101600080516020612644833981519152813511156106bb576106bb610528565b506101c08101600080516020612644833981519152813511156106e0576106e0610528565b506101e081016000805160206126448339815191528135111561070557610705610528565b5061020081016000805160206126448339815191528135111561072a5761072a610528565b5061026081016000805160206126448339815191528135111561074f5761074f610528565b50610300810160005b6001811015610657576000805160206126448339815191528235111561078057610780610528565b60209190910190600101610758565b600060405161024081016467616d6d6181527f1c49223fce451fa84ed1e40acb592ab8476710ae7496a4a9fbd79885d04a8f7460208201527f11fb124b0a1ff36f046fbdebf9f6e29290f97952e3a968688c340f9369ad027e60408201527f2fe1a4609b1141b4fc03cf73428f223643bfc676e6dc0323ffbe87f1fc4d2c2760608201527f03cca4f52a83b38048f6fb2c6d1f12209ccd6135e5ef7bc133cdb431f47de36f60808201527f2d22aa21883e2c02aeefdbb41a89e31305b7f785cff8d2543de3d2de0e67eb3760a08201527f27f57efe361342b4447b60b663324f47b268d2168a44b2c5a1ae943ad783eac260c08201527f07461bbeeaa489f270aea1e2f15a0b17a6828ee15568ca45d23b104609c983ac60e08201527f2a5d601b3c029f586ccf3d13f9610ec159fd271dff812606f3ac634637decbed6101008201527f2d8762fae30474b2d6707bfab8b02b7e87114c06452e946f685c3fe31af51d296101208201527f0481025548775a91bbce4d119d9f3d49f792d894182ded35400d7877bc7b1d086101408201527f072bde4706c1f31ca6f9d00281492fb765e066e2a91394829338eb8a728571566101608201527f035d79829b0c4f17f1ead06dc0dad3190dc3e0916d488882dbce96e970d9fa356101808201527f280dc265bff4759e2bfe552f6792226bc2667a39e5560316abd8825bc8ebc10a6101a08201527f1aacdb7d7cc8e54875efbcbd34b7149ed44fcdb0728e026f4369e7d48cfac8b06101c08201527f1d0dcabaa449cc5f2655bea87941c30e5a3be902444b9162918506600eacd3076101e08201527f1b00b88b20052a37c14a3beadb4c419bef8c04cc395f0566b50f0bf1090ce5746102008201527f1c2b5a7bce99e1e92402a2cb7f51cf3e359306bd7097247487a7fa4e5a60411a6102208201527f15f7c1d76eea2be4bdc4ae79cab797e20f3a01a6a62df3f6e403e0feddb2986c610240820152610260810160208602808883379081019060c0808784375061030501905060208282601b820160025afa905080610a9157610a9161059b565b50805192505060008051602061262483398151915282066040820152509392505050565b600060405161024060405101636265746181528360208201526020816024601c840160025afa80610ae857610ae861059b565b5080519250506000805160206126248339815191528206602082015250919050565b600060405161024060405101606564616c7068618252602082018681526020810190506103208601600160400280828437928301929190910190506040610220870182375060208282601b850160025afa905080610b6a57610b6a61059b565b505160008051602061262483398151915281069091529392505050565b60405161024060405101637a657461815283602082015260c0808401604083013760208160e4601c840160025afa80610bc257610bc261059b565b50516000805160206126248339815191529006606091909101525050565b600060405160608101516101c0820151915085610bff81878585610c58565b60009250600091505b85821015610c4e57600080516020612624833981519152853582510992506000805160206126248339815191528385086020958601959094506001929092019101610c08565b5050509392505050565b6000805160206126248339815191527f30644e427ce32d4886b01bfe313ba1dba6db8b2045d128178a7164500e0a6c11830960018560005b86811015610ced576000805160206126248339815191528360008051602061262483398151915203860882526000805160206126248339815191526000805160206126048339815191528409925060209190910190600101610c90565b50610cf9818789610d6a565b50600190508560005b86811015610d6057600080516020612624833981519152836000805160206126248339815191528685510909825260208201915060008051602061262483398151915260008051602061260483398151915284099250600101610d02565b5050505050505050565b600183526000805b83811015610dae578185015182840151600080516020612624833981519152818309905060208401935080848801525050600181019050610d72565b506020810382019150808401935050610ddd60208401600260008051602061262483398151915203855161228b565b60005b83811015610e29576020850394508251600080516020612624833981519152865184098452600080516020612624833981519152818409601f1990940193925050600101610de0565b5050505050565b600060405160608101516101c082015191506103208401600080610e5a8960208501358535610f61565b9150610e6d8962a350ce8a018787610e91565b90506000805160206126248339815191528082840987089998505050505050505050565b6000610eac858560008051602061260483398151915261228b565b6000805160206126248339815191528160008051602061262483398151915203840894506000805160206126248339815191527f30644e427ce32d4886b01bfe313ba1dba6db8b2045d128178a7164500e0a6c1182099050610f2f867f30644e72e131a029b85045b68181585d2833e84879b9709143e1f593efffffff8761228b565b945060008051602061262483398151915285820990506000805160206126248339815191528482099695505050505050565b600083526000602084015280604084015250806060830152506000608082015360306081820153600060828201536042608382015360536084820153604260858201536032608682015360326087820153602d608882015360506089820153606c608a820153606f608b820153606e608c820153606b608d820153600b608e8201536000602082608f8460025afa80610ffc57610ffc61059b565b8251600160208501536042602185015360536022850153604260238501536032602485015360326025850153602d602685015360506027850153606c6028850153606f6029850153606e602a850153606b602b850153600b602c850153602084602d8660025afa9150816110725761107261059b565b8351186020840152600260408401536042604184015360536042840153604260438401536032604484015360326045840153602d604684015360506047840153606c6048840153606f6049840153606e604a840153606b604b840153600b604c84015360208301602081602d8360025afa915050806110f3576110f361059b565b50600080516020612624833981519152600160801b8351099050602082015160801c6000805160206126248339815191528183089392505050565b604051610240604051016101c0820151600080516020612624833981519152600160008051602061262483398151915203606085015108611190837f30644e72e131a029b85045b68181585d2833e84879b9709143e1f593efffffff8361228b565b90506000805160206126248339815191527f30644e427ce32d4886b01bfe313ba1dba6db8b2045d128178a7164500e0a6c1182099050600080516020612624833981519152828209845193509150600080516020612624833981519152905082820990506000805160206126248339815191528282099050806080840152505050565b60405161024081016101608201518152610180820151602082015261028083013560408201526102a08301356060820152610220830135608082015261024083013560a08201526102c083013560c08201526102e083013560e082015260608201516101008201526101e08201516101208201526020816101408360025afa8061129f5761129f6105cf565b60008051602061262483398151915282510690508160408101925061028085013581526102a085013560208201526112dd83836102c0880184612216565b61016084016112f28484610220890184612216565b61014085016113068461026089018361225d565b7f1fa4be93b5e7f7e674d5059b63554fab99638b304ed8310e9fa44c281ac9b03b85527f1a01ae7fac6228e39d3cb5a5e71fd31160f3241e79a5f48ffb3737e6c389b7216020860152805160408087019182529095908160608160075afa9150816113735761137361059b565b60208101915081517f30644e72e131a029b85045b68181585d97816a916871ca8d3c208c16d87cfd470382526113ab8682858661210d565b5050836040850194506113c88560608801516102808a01846121a4565b6000805160206126248339815191526000805160206126048339815191526060880151099550600080516020612624833981519152868509935061141285856102c08a0184612216565b61141e8582848561210d565b50602082810180517f30644e72e131a029b85045b68181585d97816a916871ca8d3c208c16d87cfd470381528251865291810151908501527f198e9393920d483a7260bfb731fb5d25f1aa493335a9e71297e485b7aef312c260408501527f1800deef121f1e76426a00665e5c4479674322d4f75edadd46debd5cd992f6ed60608501527f090689d0585ff075ec9e99ad690c3395bc4b313370b38ef355acdadcd122975b60808501527f12c85ea5db8c6deb4aab71808dcb408fe3d1e7690c43d37b4ce6cc0166fa7daa60a0850152905160c0840152805160e08401527f22f1acbb03c4508760c2430af35865e7cdf9f3eb1224504fdcc3708ddb954a486101008401527f2a344fad01c2ed0ed73142ae1752429eaea515c6f3f6b941103cc21c2308e1cb6101208401527f159f15b842ba9c8449aa3268f981010d4c7142e5193473d80b464e964845c3f86101408401527f0efd30ac7b6f8d0d3ccbc2207587c2acbad1532dc0293f0d034cf8258cd428b36101608401529250610657905081604051602060006101808460085afa806115bc576115bc610566565b50600051610200919091015250565b6040516101e081015160e0820151610160830190815261010083015161018084015261012083015161014084015261024083019161026084019161028085019190819061161a86838a84612216565b61162d826101808a016101408a0161225d565b6000805160206126248339815191528383099150611650868360408b0184612216565b611663826101a08a016101408a0161225d565b6000805160206126248339815191528383099150611686868360808b0184612216565b611699826101c08a016101408a0161225d565b60008051602061262483398151915283830991507f1c49223fce451fa84ed1e40acb592ab8476710ae7496a4a9fbd79885d04a8f7486527f11fb124b0a1ff36f046fbdebf9f6e29290f97952e3a968688c340f9369ad027e85526116ff848388846121cf565b611712826101e08a016101408a0161225d565b60008051602061262483398151915283830991507f2fe1a4609b1141b4fc03cf73428f223643bfc676e6dc0323ffbe87f1fc4d2c2786527f03cca4f52a83b38048f6fb2c6d1f12209ccd6135e5ef7bc133cdb431f47de36f8552611778848388846121cf565b61178b826102008a016101408a0161225d565b610300880160008051602061262483398151915284840992507f1c2b5a7bce99e1e92402a2cb7f51cf3e359306bd7097247487a7fa4e5a60411a87527f15f7c1d76eea2be4bdc4ae79cab797e20f3a01a6a62df3f6e403e0feddb2986c86526117f6858489856121cf565b61180583826101408b0161225d565b505050505050505050565b6040516467616d6d616102408201908152606082015161026083015260e08201516102808301526101008201516102a083015260c0836102c08401377f1c49223fce451fa84ed1e40acb592ab8476710ae7496a4a9fbd79885d04a8f746101408201527f11fb124b0a1ff36f046fbdebf9f6e29290f97952e3a968688c340f9369ad027e6101608201527f2fe1a4609b1141b4fc03cf73428f223643bfc676e6dc0323ffbe87f1fc4d2c27610180808301919091527f03cca4f52a83b38048f6fb2c6d1f12209ccd6135e5ef7bc133cdb431f47de36f6101a0808401919091527f1c2b5a7bce99e1e92402a2cb7f51cf3e359306bd7097247487a7fa4e5a60411a6101c0808501919091527f15f7c1d76eea2be4bdc4ae79cab797e20f3a01a6a62df3f6e403e0feddb2986c6101e0808601919091526101208601516102008087019190915293870135610220860152918601356102408501528501356102608401528401356102808301528301356102a08201526102c081016103008401602081833750610260840135602091820152601b906102e5906101e085018285850160025afa92505050806119c6576119c661059b565b506101e00180516000805160206126248339815191529006905250565b604051610240604051017f07461bbeeaa489f270aea1e2f15a0b17a6828ee15568ca45d23b104609c983ac81527f2a5d601b3c029f586ccf3d13f9610ec159fd271dff812606f3ac634637decbed6020820152611a4d604082016101808501358360e08601612179565b7f2d8762fae30474b2d6707bfab8b02b7e87114c06452e946f685c3fe31af51d2981527f0481025548775a91bbce4d119d9f3d49f792d894182ded35400d7877bc7b1d086020820152611aad604082016101a08501358360e086016121cf565b6000805160206126248339815191526101a0840135610180850135097f072bde4706c1f31ca6f9d00281492fb765e066e2a91394829338eb8a7285715682527f035d79829b0c4f17f1ead06dc0dad3190dc3e0916d488882dbce96e970d9fa356020830152611b2460408301828460e087016121cf565b507f280dc265bff4759e2bfe552f6792226bc2667a39e5560316abd8825bc8ebc10a81527f1aacdb7d7cc8e54875efbcbd34b7149ed44fcdb0728e026f4369e7d48cfac8b06020820152611b85604082016101c08501358360e086016121cf565b7f1d0dcabaa449cc5f2655bea87941c30e5a3be902444b9162918506600eacd30781527f1b00b88b20052a37c14a3beadb4c419bef8c04cc395f0566b50f0bf1090ce5746020820152611be0604082018260e085018061210d565b6103008301610320840160005b6001811015611c2d578135845260208201356020850152611c176040850184358660e089016121cf565b6020929092019160409190910190600101611bed565b5050507f2d22aa21883e2c02aeefdbb41a89e31305b7f785cff8d2543de3d2de0e67eb3781527f27f57efe361342b4447b60b663324f47b268d2168a44b2c5a1ae943ad783eac26020820152611c8b60408201858360e086016121cf565b61022083013581526102408301356020820152611cb060408201868360e086016121cf565b610e298160a0840160e085018061210d565b604051602081015160408201516060830151600084015160008051602061262483398151915284610260880135096000805160206126248339815191526101e0880135860960008051602061262483398151915261018089013582089050600080516020612624833981519152858208905060008051602061262483398151915261020089013587096000805160206126248339815191526101a08a01358208905060008051602061262483398151915286820890506000805160206126248339815191528284096000805160206126248339815191528282099050600080516020612624833981519152858209905060008051602061262483398151915260058009600080516020612624833981519152878a0998506000805160206126248339815191526101808c01358a089450600080516020612624833981519152888608945060008051602061262483398151915260058a0993506000805160206126248339815191526101a08c0135850893506000805160206126248339815191528885089350600080516020612624833981519152818a099250506000805160206126248339815191526101c08b013583089150600080516020612624833981519152878308915060008051602061262483398151915283850997506000805160206126248339815191528289096000805160206126248339815191529081039850858909975060008051602061262483398151915260808a0151890897506102a288828c6119e3565b604051600263010000000161024060405101611f0d8183606086015161228b565b9150611f228183610140870160a087016121a4565b611f3581610100860160a0860180612143565b611f44818360a0860180612179565b611f568160c0860160a0860180612143565b611f6d816101c085015160a0860160a08701612179565b505060c00180517f30644e72e131a029b85045b68181585d97816a916871ca8d3c208c16d87cfd4703905250565b604051600060008051602061262483398151915260208301516101e085013509905060008051602061262483398151915260408301518208905060008051602061262483398151915261018084013582089050600060008051602061262483398151915260208401516102008601350990506000805160206126248339815191526040840151820890506000805160206126248339815191526101a085013582089050600060008051602061262483398151915260408501516101c08701350890506000805160206126248339815191528284099250600080516020612624833981519152818409925050600080516020612624833981519152600084015183099150600080516020612624833981519152610260850135830991506000805160206126248339815191526101a0840151830860808401519092506000805160206126248339815191529081039150818308600080516020612624833981519152036101209390930192909252505050565b8151845260208201516020850152825160408501526020830151606085015260408160808660065afa80610e2957610e29610471565b8151845260208201516020850152823560408501526020830135606085015260408160808660065afa80610e2957610e29610471565b815184526020820151602085015282604085015260408160608660075afa80610e2957610e29610471565b813584526020820135602085015282604085015260408160608660075afa80610e2957610e29610471565b815184526020820151602085015282604085015260408460608660075afa815160408601526020820151606086015260408260808760065afa1680610e2957610e29610471565b813584526020808301359085015260408481018490528460608160075afa815160408601526020820151606086015260408260808760065afa1680610e2957610e29610471565b6000805160206126248339815191528383350960008051602061262483398151915281835108825250505050565b6020835260208084015260206040840152806060840152508060808301525060008051602061262483398151915260a0820152600060208260c08460055afa50505190565b949350505050565b60008083601f8401126122ea57600080fd5b50813567ffffffffffffffff81111561230257600080fd5b60208301915083602082850101111561231a57600080fd5b9250929050565b60008060008060006060868803121561233957600080fd5b85359450602086013567ffffffffffffffff8082111561235857600080fd5b61236489838a016122d8565b9096509450604088013591508082111561237d57600080fd5b5061238a888289016122d8565b969995985093965092949392505050565b600080602083850312156123ae57600080fd5b823567ffffffffffffffff8111156123c557600080fd5b6123d1858286016122d8565b90969095509350505050565b600080600080604085870312156123f357600080fd5b843567ffffffffffffffff8082111561240b57600080fd5b612417888389016122d8565b9096509450602087013591508082111561243057600080fd5b818701915087601f83011261244457600080fd5b81358181111561245357600080fd5b8860208260051b850101111561246857600080fd5b95989497505060200194505050565b60006020808352835180602085015260005b818110156124a557858101830151858201604001528201612489565b506000604082860101526040601f19601f8301168501019250505092915050565b600080858511156124d657600080fd5b838611156124e357600080fd5b5050820193919092039150565b6001600160e01b031981358181169160048510156125185780818660040360031b1b83161692505b505092915050565b634e487b7160e01b600052603260045260246000fd5b60408152826040820152828460608301376000606084830101526000601f19601f85011682016060810160206060858403016020860152818651808452608085019150602088019450600093505b808410156125a45784518252938201936001939093019290820190612584565b5098975050505050505050565b6000602082840312156125c357600080fd5b815180151581146125d357600080fd5b9392505050565b8183823760009101908152919050565b6000602082840312156125fc57600080fd5b505191905056fe0c9fabc7845d50d2852e2a0371c6441f145e0db82e8326961c25f1e3e32b045b30644e72e131a029b85045b68181585d2833e84879b9709143e1f593f000000130644e72e131a029b85045b68181585d2833e84879b9709143e1f593f0000000a2646970667358221220a28d210b5fdfa2d8211b18f765733442bf12cc31318459b815a3cb3c796760ec64736f6c63430008180033",
        "linkReferences": {}
    },
    "methodIdentifiers": {
        "VERIFIER_HASH()": "2a510436",
        "VERSION()": "ffa1ad74",
        "Verify(bytes,uint256[])": "7e4f7a8a",
        "hashPublicValues(bytes)": "6b61d8e7",
        "verifyProof(bytes32,bytes,bytes)": "41493c60"
    },
    "id": 29
}