{
  "_format": "hh-sol-artifact-1",
  "contractName": "ShadowRollup",
  "sourceName": "contracts/ShadowRollup.sol",
  "abi": [
    {
      "inputs": [
        {
          "internalType": "uint64",
          "name": "_chainId",
          "type": "uint64"
        },
        {
          "internalType": "address",
          "name": "_verifier",
          "type": "address"
        }
      ],
      "stateMutability": "nonpayable",
      "type": "constructor"
    },
    {
      "anonymous": false,
      "inputs": [
        {
          "indexed": true,
          "internalType": "uint64",
          "name": "batchIndex",
          "type": "uint64"
        },
        {
          "indexed": false,
          "internalType": "address",
          "name": "challenger",
          "type": "address"
        },
        {
          "indexed": false,
          "internalType": "uint256",
          "name": "challengeDeposit",
          "type": "uint256"
        }
      ],
      "name": "ChallengeState",
      "type": "event"
    },
    {
      "anonymous": false,
      "inputs": [
        {
          "indexed": true,
          "internalType": "address",
          "name": "previousOwner",
          "type": "address"
        },
        {
          "indexed": true,
          "internalType": "address",
          "name": "newOwner",
          "type": "address"
        }
      ],
      "name": "OwnershipTransferred",
      "type": "event"
    },
    {
      "inputs": [
        {
          "internalType": "uint256",
          "name": "batchIndex",
          "type": "uint256"
        }
      ],
      "name": "batchInChallenge",
      "outputs": [
        {
          "internalType": "bool",
          "name": "",
          "type": "bool"
        }
      ],
      "stateMutability": "view",
      "type": "function"
    },
    {
      "inputs": [
        {
          "internalType": "uint64",
          "name": "batchIndex",
          "type": "uint64"
        }
      ],
      "name": "challengeState",
      "outputs": [],
      "stateMutability": "payable",
      "type": "function"
    },
    {
      "inputs": [
        {
          "internalType": "uint256",
          "name": "",
          "type": "uint256"
        }
      ],
      "name": "challenges",
      "outputs": [
        {
          "internalType": "uint64",
          "name": "batchIndex",
          "type": "uint64"
        },
        {
          "internalType": "address",
          "name": "challenger",
          "type": "address"
        },
        {
          "internalType": "uint256",
          "name": "challengeDeposit",
          "type": "uint256"
        },
        {
          "internalType": "uint256",
          "name": "startTime",
          "type": "uint256"
        },
        {
          "internalType": "bool",
          "name": "finished",
          "type": "bool"
        }
      ],
      "stateMutability": "view",
      "type": "function"
    },
    {
      "inputs": [
        {
          "internalType": "uint64",
          "name": "_batchIndex",
          "type": "uint64"
        },
        {
          "components": [
            {
              "internalType": "bytes32",
              "name": "prevStateRoot",
              "type": "bytes32"
            },
            {
              "internalType": "bytes32",
              "name": "postStateRoot",
              "type": "bytes32"
            },
            {
              "internalType": "bytes32",
              "name": "withdrawalRoot",
              "type": "bytes32"
            },
            {
              "internalType": "bytes32",
              "name": "dataHash",
              "type": "bytes32"
            },
            {
              "internalType": "bytes32",
              "name": "blobVersionedHash",
              "type": "bytes32"
            }
          ],
          "internalType": "struct ShadowRollup.BatchStore",
          "name": "_batchData",
          "type": "tuple"
        }
      ],
      "name": "commitBatch",
      "outputs": [],
      "stateMutability": "nonpayable",
      "type": "function"
    },
    {
      "inputs": [
        {
          "internalType": "uint256",
          "name": "",
          "type": "uint256"
        }
      ],
      "name": "committedBatchStores",
      "outputs": [
        {
          "internalType": "bytes32",
          "name": "prevStateRoot",
          "type": "bytes32"
        },
        {
          "internalType": "bytes32",
          "name": "postStateRoot",
          "type": "bytes32"
        },
        {
          "internalType": "bytes32",
          "name": "withdrawalRoot",
          "type": "bytes32"
        },
        {
          "internalType": "bytes32",
          "name": "dataHash",
          "type": "bytes32"
        },
        {
          "internalType": "bytes32",
          "name": "blobVersionedHash",
          "type": "bytes32"
        }
      ],
      "stateMutability": "view",
      "type": "function"
    },
    {
      "inputs": [
        {
          "internalType": "uint256",
          "name": "_batchIndex",
          "type": "uint256"
        }
      ],
      "name": "isBatchFinalized",
      "outputs": [
        {
          "internalType": "bool",
          "name": "",
          "type": "bool"
        }
      ],
      "stateMutability": "pure",
      "type": "function"
    },
    {
      "inputs": [],
      "name": "layer2ChainId",
      "outputs": [
        {
          "internalType": "uint64",
          "name": "",
          "type": "uint64"
        }
      ],
      "stateMutability": "view",
      "type": "function"
    },
    {
      "inputs": [],
      "name": "owner",
      "outputs": [
        {
          "internalType": "address",
          "name": "",
          "type": "address"
        }
      ],
      "stateMutability": "view",
      "type": "function"
    },
    {
      "inputs": [
        {
          "internalType": "uint64",
          "name": "_batchIndex",
          "type": "uint64"
        },
        {
          "internalType": "bytes",
          "name": "_aggrProof",
          "type": "bytes"
        },
        {
          "internalType": "bytes",
          "name": "_kzgData",
          "type": "bytes"
        }
      ],
      "name": "proveState",
      "outputs": [],
      "stateMutability": "nonpayable",
      "type": "function"
    },
    {
      "inputs": [],
      "name": "renounceOwnership",
      "outputs": [],
      "stateMutability": "nonpayable",
      "type": "function"
    },
    {
      "inputs": [
        {
          "internalType": "bytes",
          "name": "_combined",
          "type": "bytes"
        }
      ],
      "name": "splitUint256",
      "outputs": [
        {
          "internalType": "bytes",
          "name": "",
          "type": "bytes"
        }
      ],
      "stateMutability": "pure",
      "type": "function"
    },
    {
      "inputs": [
        {
          "internalType": "address",
          "name": "newOwner",
          "type": "address"
        }
      ],
      "name": "transferOwnership",
      "outputs": [],
      "stateMutability": "nonpayable",
      "type": "function"
    },
    {
      "inputs": [
        {
          "internalType": "address",
          "name": "_verifier",
          "type": "address"
        }
      ],
      "name": "updateVerifier",
      "outputs": [],
      "stateMutability": "nonpayable",
      "type": "function"
    },
    {
      "inputs": [],
      "name": "zkevm_verifier",
      "outputs": [
        {
          "internalType": "address",
          "name": "",
          "type": "address"
        }
      ],
      "stateMutability": "view",
      "type": "function"
    }
  ],
  "bytecode": "0x60a06040523480156200001157600080fd5b506040516200211738038062002117833981810160405281019062000037919062000237565b620000576200004b620000bc60201b60201c565b620000c460201b60201c565b8167ffffffffffffffff1660808167ffffffffffffffff168152505080600160006101000a81548173ffffffffffffffffffffffffffffffffffffffff021916908373ffffffffffffffffffffffffffffffffffffffff16021790555050506200027e565b600033905090565b60008060009054906101000a900473ffffffffffffffffffffffffffffffffffffffff169050816000806101000a81548173ffffffffffffffffffffffffffffffffffffffff021916908373ffffffffffffffffffffffffffffffffffffffff1602179055508173ffffffffffffffffffffffffffffffffffffffff168173ffffffffffffffffffffffffffffffffffffffff167f8be0079c531659141344cd1fd0a4f28419497f9722a3daafe3b4186f6b6457e060405160405180910390a35050565b600080fd5b600067ffffffffffffffff82169050919050565b620001ac816200018d565b8114620001b857600080fd5b50565b600081519050620001cc81620001a1565b92915050565b600073ffffffffffffffffffffffffffffffffffffffff82169050919050565b6000620001ff82620001d2565b9050919050565b6200021181620001f2565b81146200021d57600080fd5b50565b600081519050620002318162000206565b92915050565b6000806040838503121562000251576200025062000188565b5b60006200026185828601620001bb565b9250506020620002748582860162000220565b9150509250929050565b608051611e76620002a1600039600081816103750152610d650152611e766000f3fe6080604052600436106100dd5760003560e01c80638da5cb5b1161007f578063c7b40afe11610059578063c7b40afe146102a7578063d181ed76146102e4578063de8b30351461030d578063f2fde38b1461034a576100dd565b80638da5cb5b146102125780638f1d37761461023d57806397fc007c1461027e576100dd565b8063331e8f7f116100bb578063331e8f7f1461018b57806336622a30146101b6578063715018a6146101df5780638d644bb7146101f6576100dd565b806303c7f4af146100e25780630b79cdda1461010d578063116a1f421461014e575b600080fd5b3480156100ee57600080fd5b506100f7610373565b6040516101049190610fbc565b60405180910390f35b34801561011957600080fd5b50610134600480360381019061012f9190611021565b610397565b604051610145959493929190611067565b60405180910390f35b34801561015a57600080fd5b5061017560048036038101906101709190611021565b6103cd565b60405161018291906110d5565b60405180910390f35b34801561019757600080fd5b506101a061041a565b6040516101ad9190611131565b60405180910390f35b3480156101c257600080fd5b506101dd60048036038101906101d891906111dd565b610440565b005b3480156101eb57600080fd5b506101f46107e3565b005b610210600480360381019061020b9190611272565b6107f7565b005b34801561021e57600080fd5b50610227610968565b6040516102349190611131565b60405180910390f35b34801561024957600080fd5b50610264600480360381019061025f9190611021565b610991565b6040516102759594939291906112ae565b60405180910390f35b34801561028a57600080fd5b506102a560048036038101906102a0919061132d565b610a08565b005b3480156102b357600080fd5b506102ce60048036038101906102c9919061149b565b610a54565b6040516102db9190611563565b60405180910390f35b3480156102f057600080fd5b5061030b600480360381019061030691906115a9565b610b51565b005b34801561031957600080fd5b50610334600480360381019061032f9190611021565b610b82565b60405161034191906110d5565b60405180910390f35b34801561035657600080fd5b50610371600480360381019061036c919061132d565b610c1e565b005b7f000000000000000000000000000000000000000000000000000000000000000081565b60026020528060005260406000206000915090508060000154908060010154908060020154908060030154908060040154905085565b6000808211610411576040517f08c379a000000000000000000000000000000000000000000000000000000000815260040161040890611646565b60405180910390fd5b60009050919050565b600160009054906101000a900473ffffffffffffffffffffffffffffffffffffffff1681565b60008484905011610486576040517f08c379a000000000000000000000000000000000000000000000000000000000815260040161047d906116b2565b60405180910390fd5b608082829050146104cc576040517f08c379a00000000000000000000000000000000000000000000000000000000081526004016104c39061171e565b60405180910390fd5b600082826020906050926104e293929190611748565b8080601f016020809104026020016040519081016040528093929190818152602001838380828437600081840152601f19601f82011690508083019250505050505050905060006105338783610ca1565b90506000600260008967ffffffffffffffff1681526020019081526020016000206004015482868660405160200161056e9493929190611805565b6040516020818303038152906040529050600080600a73ffffffffffffffffffffffffffffffffffffffff16836040516105a8919061183c565b600060405180830381855afa9150503d80600081146105e3576040519150601f19603f3d011682016040523d82523d6000602084013e6105e8565b606091505b50915091508161062d576040517f08c379a0000000000000000000000000000000000000000000000000000000008152600401610624906118c5565b60405180910390fd5b60008180602001905181019061064391906118fa565b9150507f73eda753299d7d483339d80809a1d80553bda402fffe5bfeffffffff0000000181146106a8576040517f08c379a000000000000000000000000000000000000000000000000000000000815260040161069f90611986565b60405180910390fd5b600061070b8c878b8b6000906020926106c393929190611748565b8080601f016020809104026020016040519081016040528093929190818152602001838380828437600081840152601f19601f82011690508083019250505050505050610d61565b9050600160009054906101000a900473ffffffffffffffffffffffffffffffffffffffff1673ffffffffffffffffffffffffffffffffffffffff16636b4063418c8c846040518463ffffffff1660e01b815260040161076c939291906119d3565b60006040518083038186803b15801561078457600080fd5b505afa158015610798573d6000803e3d6000fd5b505050506001600360008e67ffffffffffffffff16815260200190815260200160002060030160006101000a81548160ff021916908315150217905550505050505050505050505050565b6107eb610e4f565b6107f56000610ecd565b565b6107ff610e4f565b6040518060a001604052808267ffffffffffffffff168152602001610822610f91565b73ffffffffffffffffffffffffffffffffffffffff16815260200134815260200142815260200160001515815250600360008367ffffffffffffffff16815260200190815260200160002060008201518160000160006101000a81548167ffffffffffffffff021916908367ffffffffffffffff16021790555060208201518160000160086101000a81548173ffffffffffffffffffffffffffffffffffffffff021916908373ffffffffffffffffffffffffffffffffffffffff160217905550604082015181600101556060820151816002015560808201518160030160006101000a81548160ff0219169083151502179055509050508067ffffffffffffffff167f3a6ea19df25b49e7624e313ce7c1ab23984238e93727260db56a81735b1b997661094e610f91565b3460405161095d929190611a05565b60405180910390a250565b60008060009054906101000a900473ffffffffffffffffffffffffffffffffffffffff16905090565b60036020528060005260406000206000915090508060000160009054906101000a900467ffffffffffffffff16908060000160089054906101000a900473ffffffffffffffffffffffffffffffffffffffff16908060010154908060020154908060030160009054906101000a900460ff16905085565b610a10610e4f565b80600160006101000a81548173ffffffffffffffffffffffffffffffffffffffff021916908373ffffffffffffffffffffffffffffffffffffffff16021790555050565b60606020825114610a9a576040517f08c379a0000000000000000000000000000000000000000000000000000000008152600401610a9190611a7a565b60405180910390fd5b60006020830151905060008060006affffffffffffffffffffff841692506affffffffffffffffffffff605885901c1691506a7fffffffffffffffffffff60b085901c1690506000606067ffffffffffffffff811115610afd57610afc611370565b5b6040519080825280601f01601f191660200182016040528015610b2f5781602001600182028036833780820191505090505b5090508360208201528260408201528160608201528095505050505050919050565b80600260008467ffffffffffffffff1681526020019081526020016000208181610b7b9190611c13565b9050505050565b60008073ffffffffffffffffffffffffffffffffffffffff166003600084815260200190815260200160002060000160089054906101000a900473ffffffffffffffffffffffffffffffffffffffff1673ffffffffffffffffffffffffffffffffffffffff1614158015610c1757506003600083815260200190815260200160002060030160009054906101000a900460ff16155b9050919050565b610c26610e4f565b600073ffffffffffffffffffffffffffffffffffffffff168173ffffffffffffffffffffffffffffffffffffffff1603610c95576040517f08c379a0000000000000000000000000000000000000000000000000000000008152600401610c8c90611c93565b60405180910390fd5b610c9e81610ecd565b50565b6060600082600260008667ffffffffffffffff16815260200190815260200160002060030154604051602001610cd8929190611cb3565b60405160208183030381529060405280519060200120604051602001610cfe9190611cdb565b6040516020818303038152906040529050600060f81b81600081518110610d2857610d27611cf6565b5b60200101907effffffffffffffffffffffffffffffffffffffffffffffffffffffffffffff1916908160001a9053508091505092915050565b60007f0000000000000000000000000000000000000000000000000000000000000000600260008667ffffffffffffffff16815260200190815260200160002060000154600260008767ffffffffffffffff16815260200190815260200160002060010154600260008867ffffffffffffffff16815260200190815260200160002060020154600260008967ffffffffffffffff16815260200190815260200160002060030154610e1188610a54565b610e1a88610a54565b604051602001610e309796959493929190611d5b565b6040516020818303038152906040528051906020012090509392505050565b610e57610f91565b73ffffffffffffffffffffffffffffffffffffffff16610e75610968565b73ffffffffffffffffffffffffffffffffffffffff1614610ecb576040517f08c379a0000000000000000000000000000000000000000000000000000000008152600401610ec290611e20565b60405180910390fd5b565b60008060009054906101000a900473ffffffffffffffffffffffffffffffffffffffff169050816000806101000a81548173ffffffffffffffffffffffffffffffffffffffff021916908373ffffffffffffffffffffffffffffffffffffffff1602179055508173ffffffffffffffffffffffffffffffffffffffff168173ffffffffffffffffffffffffffffffffffffffff167f8be0079c531659141344cd1fd0a4f28419497f9722a3daafe3b4186f6b6457e060405160405180910390a35050565b600033905090565b600067ffffffffffffffff82169050919050565b610fb681610f99565b82525050565b6000602082019050610fd16000830184610fad565b92915050565b6000604051905090565b600080fd5b600080fd5b6000819050919050565b610ffe81610feb565b811461100957600080fd5b50565b60008135905061101b81610ff5565b92915050565b60006020828403121561103757611036610fe1565b5b60006110458482850161100c565b91505092915050565b6000819050919050565b6110618161104e565b82525050565b600060a08201905061107c6000830188611058565b6110896020830187611058565b6110966040830186611058565b6110a36060830185611058565b6110b06080830184611058565b9695505050505050565b60008115159050919050565b6110cf816110ba565b82525050565b60006020820190506110ea60008301846110c6565b92915050565b600073ffffffffffffffffffffffffffffffffffffffff82169050919050565b600061111b826110f0565b9050919050565b61112b81611110565b82525050565b60006020820190506111466000830184611122565b92915050565b61115581610f99565b811461116057600080fd5b50565b6000813590506111728161114c565b92915050565b600080fd5b600080fd5b600080fd5b60008083601f84011261119d5761119c611178565b5b8235905067ffffffffffffffff8111156111ba576111b961117d565b5b6020830191508360018202830111156111d6576111d5611182565b5b9250929050565b6000806000806000606086880312156111f9576111f8610fe1565b5b600061120788828901611163565b955050602086013567ffffffffffffffff81111561122857611227610fe6565b5b61123488828901611187565b9450945050604086013567ffffffffffffffff81111561125757611256610fe6565b5b61126388828901611187565b92509250509295509295909350565b60006020828403121561128857611287610fe1565b5b600061129684828501611163565b91505092915050565b6112a881610feb565b82525050565b600060a0820190506112c36000830188610fad565b6112d06020830187611122565b6112dd604083018661129f565b6112ea606083018561129f565b6112f760808301846110c6565b9695505050505050565b61130a81611110565b811461131557600080fd5b50565b60008135905061132781611301565b92915050565b60006020828403121561134357611342610fe1565b5b600061135184828501611318565b91505092915050565b600080fd5b6000601f19601f8301169050919050565b7f4e487b7100000000000000000000000000000000000000000000000000000000600052604160045260246000fd5b6113a88261135f565b810181811067ffffffffffffffff821117156113c7576113c6611370565b5b80604052505050565b60006113da610fd7565b90506113e6828261139f565b919050565b600067ffffffffffffffff82111561140657611405611370565b5b61140f8261135f565b9050602081019050919050565b82818337600083830152505050565b600061143e611439846113eb565b6113d0565b90508281526020810184848401111561145a5761145961135a565b5b61146584828561141c565b509392505050565b600082601f83011261148257611481611178565b5b813561149284826020860161142b565b91505092915050565b6000602082840312156114b1576114b0610fe1565b5b600082013567ffffffffffffffff8111156114cf576114ce610fe6565b5b6114db8482850161146d565b91505092915050565b600081519050919050565b600082825260208201905092915050565b60005b8381101561151e578082015181840152602081019050611503565b60008484015250505050565b6000611535826114e4565b61153f81856114ef565b935061154f818560208601611500565b6115588161135f565b840191505092915050565b6000602082019050818103600083015261157d818461152a565b905092915050565b600080fd5b600060a082840312156115a05761159f611585565b5b81905092915050565b60008060c083850312156115c0576115bf610fe1565b5b60006115ce85828601611163565b92505060206115df8582860161158a565b9150509250929050565b600082825260208201905092915050565b7f696e76616c6964206261746368496e6465780000000000000000000000000000600082015250565b60006116306012836115e9565b915061163b826115fa565b602082019050919050565b6000602082019050818103600083015261165f81611623565b9050919050565b7f496e76616c69642070726f6f6600000000000000000000000000000000000000600082015250565b600061169c600d836115e9565b91506116a782611666565b602082019050919050565b600060208201905081810360008301526116cb8161168f565b9050919050565b7f496e76616c6964204b5a47206461746100000000000000000000000000000000600082015250565b60006117086010836115e9565b9150611713826116d2565b602082019050919050565b60006020820190508181036000830152611737816116fb565b9050919050565b600080fd5b600080fd5b6000808585111561175c5761175b61173e565b5b8386111561176d5761176c611743565b5b6001850283019150848603905094509492505050565b6000819050919050565b61179e6117998261104e565b611783565b82525050565b600081905092915050565b60006117ba826114e4565b6117c481856117a4565b93506117d4818560208601611500565b80840191505092915050565b60006117ec83856117a4565b93506117f983858461141c565b82840190509392505050565b6000611811828761178d565b60208201915061182182866117af565b915061182e8284866117e0565b915081905095945050505050565b600061184882846117af565b915081905092915050565b7f6661696c656420746f2063616c6c20706f696e74206576616c756174696f6e2060008201527f707265636f6d70696c6500000000000000000000000000000000000000000000602082015250565b60006118af602a836115e9565b91506118ba82611853565b604082019050919050565b600060208201905081810360008301526118de816118a2565b9050919050565b6000815190506118f481610ff5565b92915050565b6000806040838503121561191157611910610fe1565b5b600061191f858286016118e5565b9250506020611930858286016118e5565b9150509250929050565b7f554e4b4e4f574e5f424c535f4d4f44554c555300000000000000000000000000600082015250565b60006119706013836115e9565b915061197b8261193a565b602082019050919050565b6000602082019050818103600083015261199f81611963565b9050919050565b60006119b283856114ef565b93506119bf83858461141c565b6119c88361135f565b840190509392505050565b600060408201905081810360008301526119ee8185876119a6565b90506119fd6020830184611058565b949350505050565b6000604082019050611a1a6000830185611122565b611a27602083018461129f565b9392505050565b7f496e707574206c656e677468206d757374206265203332206279746573000000600082015250565b6000611a64601d836115e9565b9150611a6f82611a2e565b602082019050919050565b60006020820190508181036000830152611a9381611a57565b9050919050565b611aa38161104e565b8114611aae57600080fd5b50565b60008135611abe81611a9a565b80915050919050565b60008160001b9050919050565b60007fffffffffffffffffffffffffffffffffffffffffffffffffffffffffffffffff611b0084611ac7565b9350801983169250808416831791505092915050565b6000611b218261104e565b9050919050565b60008160001c9050919050565b6000611b4082611b28565b9050919050565b611b5082611b16565b611b63611b5c82611b35565b8354611ad4565b8255505050565b600081016000830180611b7c81611ab1565b9050611b888184611b47565b505050600181016020830180611b9d81611ab1565b9050611ba98184611b47565b505050600281016040830180611bbe81611ab1565b9050611bca8184611b47565b505050600381016060830180611bdf81611ab1565b9050611beb8184611b47565b505050600481016080830180611c0081611ab1565b9050611c0c8184611b47565b5050505050565b611c1d8282611b6a565b5050565b7f4f776e61626c653a206e6577206f776e657220697320746865207a65726f206160008201527f6464726573730000000000000000000000000000000000000000000000000000602082015250565b6000611c7d6026836115e9565b9150611c8882611c21565b604082019050919050565b60006020820190508181036000830152611cac81611c70565b9050919050565b6000611cbf82856117af565b9150611ccb828461178d565b6020820191508190509392505050565b6000602082019050611cf06000830184611058565b92915050565b7f4e487b7100000000000000000000000000000000000000000000000000000000600052603260045260246000fd5b60008160c01b9050919050565b6000611d3d82611d25565b9050919050565b611d55611d5082610f99565b611d32565b82525050565b6000611d67828a611d44565b600882019150611d77828961178d565b602082019150611d87828861178d565b602082019150611d97828761178d565b602082019150611da7828661178d565b602082019150611db782856117af565b9150611dc382846117af565b915081905098975050505050505050565b7f4f776e61626c653a2063616c6c6572206973206e6f7420746865206f776e6572600082015250565b6000611e0a6020836115e9565b9150611e1582611dd4565b602082019050919050565b60006020820190508181036000830152611e3981611dfd565b905091905056fea2646970667358221220b9bfa74c94f416c71b7c02f47f886be4cb01a5748585132a20fa1281457b2ca964736f6c63430008180033",
  "linkReferences": {},
  "deployedLinkReferences": {}
}