{
  "_format": "hh-sol-artifact-1",
  "contractName": "L2LidoGateway",
  "sourceName": "contracts/lido/L2LidoGateway.sol",
  "abi": [
    {
      "inputs": [
        {
          "internalType": "address",
          "name": "_l1Token",
          "type": "address"
        },
        {
          "internalType": "address",
          "name": "_l2Token",
          "type": "address"
        }
      ],
      "stateMutability": "nonpayable",
      "type": "constructor"
    },
    {
      "inputs": [],
      "name": "ErrorAccountIsZeroAddress",
      "type": "error"
    },
    {
      "inputs": [],
      "name": "ErrorCallerIsNotDepositsDisabler",
      "type": "error"
    },
    {
      "inputs": [],
      "name": "ErrorCallerIsNotDepositsEnabler",
      "type": "error"
    },
    {
      "inputs": [],
      "name": "ErrorCallerIsNotWithdrawalsDisabler",
      "type": "error"
    },
    {
      "inputs": [],
      "name": "ErrorCallerIsNotWithdrawalsEnabler",
      "type": "error"
    },
    {
      "inputs": [],
      "name": "ErrorDepositsDisabled",
      "type": "error"
    },
    {
      "inputs": [],
      "name": "ErrorDepositsEnabled",
      "type": "error"
    },
    {
      "inputs": [],
      "name": "ErrorNonZeroMsgValue",
      "type": "error"
    },
    {
      "inputs": [],
      "name": "ErrorUnsupportedL1Token",
      "type": "error"
    },
    {
      "inputs": [],
      "name": "ErrorUnsupportedL2Token",
      "type": "error"
    },
    {
      "inputs": [],
      "name": "ErrorWithdrawZeroAmount",
      "type": "error"
    },
    {
      "inputs": [],
      "name": "ErrorWithdrawalsDisabled",
      "type": "error"
    },
    {
      "inputs": [],
      "name": "ErrorWithdrawalsEnabled",
      "type": "error"
    },
    {
      "inputs": [],
      "name": "ErrorZeroAddress",
      "type": "error"
    },
    {
      "inputs": [],
      "name": "WithdrawAndCallIsNotAllowed",
      "type": "error"
    },
    {
      "anonymous": false,
      "inputs": [
        {
          "indexed": true,
          "internalType": "address",
          "name": "disabler",
          "type": "address"
        }
      ],
      "name": "DepositsDisabled",
      "type": "event"
    },
    {
      "anonymous": false,
      "inputs": [
        {
          "indexed": true,
          "internalType": "address",
          "name": "enabler",
          "type": "address"
        }
      ],
      "name": "DepositsEnabled",
      "type": "event"
    },
    {
      "anonymous": false,
      "inputs": [
        {
          "indexed": true,
          "internalType": "address",
          "name": "l1Token",
          "type": "address"
        },
        {
          "indexed": true,
          "internalType": "address",
          "name": "l2Token",
          "type": "address"
        },
        {
          "indexed": true,
          "internalType": "address",
          "name": "from",
          "type": "address"
        },
        {
          "indexed": false,
          "internalType": "address",
          "name": "to",
          "type": "address"
        },
        {
          "indexed": false,
          "internalType": "uint256",
          "name": "amount",
          "type": "uint256"
        },
        {
          "indexed": false,
          "internalType": "bytes",
          "name": "data",
          "type": "bytes"
        }
      ],
      "name": "FinalizeDepositERC20",
      "type": "event"
    },
    {
      "anonymous": false,
      "inputs": [
        {
          "indexed": false,
          "internalType": "uint8",
          "name": "version",
          "type": "uint8"
        }
      ],
      "name": "Initialized",
      "type": "event"
    },
    {
      "anonymous": false,
      "inputs": [
        {
          "indexed": true,
          "internalType": "address",
          "name": "previousOwner",
          "type": "address"
        },
        {
          "indexed": true,
          "internalType": "address",
          "name": "newOwner",
          "type": "address"
        }
      ],
      "name": "OwnershipTransferred",
      "type": "event"
    },
    {
      "anonymous": false,
      "inputs": [
        {
          "indexed": true,
          "internalType": "bytes32",
          "name": "role",
          "type": "bytes32"
        },
        {
          "indexed": true,
          "internalType": "address",
          "name": "account",
          "type": "address"
        },
        {
          "indexed": true,
          "internalType": "address",
          "name": "sender",
          "type": "address"
        }
      ],
      "name": "RoleGranted",
      "type": "event"
    },
    {
      "anonymous": false,
      "inputs": [
        {
          "indexed": true,
          "internalType": "bytes32",
          "name": "role",
          "type": "bytes32"
        },
        {
          "indexed": true,
          "internalType": "address",
          "name": "account",
          "type": "address"
        },
        {
          "indexed": true,
          "internalType": "address",
          "name": "sender",
          "type": "address"
        }
      ],
      "name": "RoleRevoked",
      "type": "event"
    },
    {
      "anonymous": false,
      "inputs": [
        {
          "indexed": true,
          "internalType": "address",
          "name": "l1Token",
          "type": "address"
        },
        {
          "indexed": true,
          "internalType": "address",
          "name": "l2Token",
          "type": "address"
        },
        {
          "indexed": true,
          "internalType": "address",
          "name": "from",
          "type": "address"
        },
        {
          "indexed": false,
          "internalType": "address",
          "name": "to",
          "type": "address"
        },
        {
          "indexed": false,
          "internalType": "uint256",
          "name": "amount",
          "type": "uint256"
        },
        {
          "indexed": false,
          "internalType": "bytes",
          "name": "data",
          "type": "bytes"
        },
        {
          "indexed": false,
          "internalType": "uint256",
          "name": "nonce",
          "type": "uint256"
        }
      ],
      "name": "WithdrawERC20",
      "type": "event"
    },
    {
      "anonymous": false,
      "inputs": [
        {
          "indexed": true,
          "internalType": "address",
          "name": "disabler",
          "type": "address"
        }
      ],
      "name": "WithdrawalsDisabled",
      "type": "event"
    },
    {
      "anonymous": false,
      "inputs": [
        {
          "indexed": true,
          "internalType": "address",
          "name": "enabler",
          "type": "address"
        }
      ],
      "name": "WithdrawalsEnabled",
      "type": "event"
    },
    {
      "inputs": [],
      "name": "DEPOSITS_DISABLER_ROLE",
      "outputs": [
        {
          "internalType": "bytes32",
          "name": "",
          "type": "bytes32"
        }
      ],
      "stateMutability": "view",
      "type": "function"
    },
    {
      "inputs": [],
      "name": "DEPOSITS_ENABLER_ROLE",
      "outputs": [
        {
          "internalType": "bytes32",
          "name": "",
          "type": "bytes32"
        }
      ],
      "stateMutability": "view",
      "type": "function"
    },
    {
      "inputs": [],
      "name": "WITHDRAWALS_DISABLER_ROLE",
      "outputs": [
        {
          "internalType": "bytes32",
          "name": "",
          "type": "bytes32"
        }
      ],
      "stateMutability": "view",
      "type": "function"
    },
    {
      "inputs": [],
      "name": "WITHDRAWALS_ENABLER_ROLE",
      "outputs": [
        {
          "internalType": "bytes32",
          "name": "",
          "type": "bytes32"
        }
      ],
      "stateMutability": "view",
      "type": "function"
    },
    {
      "inputs": [],
      "name": "counterpart",
      "outputs": [
        {
          "internalType": "address",
          "name": "",
          "type": "address"
        }
      ],
      "stateMutability": "view",
      "type": "function"
    },
    {
      "inputs": [],
      "name": "disableDeposits",
      "outputs": [],
      "stateMutability": "nonpayable",
      "type": "function"
    },
    {
      "inputs": [],
      "name": "disableWithdrawals",
      "outputs": [],
      "stateMutability": "nonpayable",
      "type": "function"
    },
    {
      "inputs": [],
      "name": "enableDeposits",
      "outputs": [],
      "stateMutability": "nonpayable",
      "type": "function"
    },
    {
      "inputs": [],
      "name": "enableWithdrawals",
      "outputs": [],
      "stateMutability": "nonpayable",
      "type": "function"
    },
    {
      "inputs": [
        {
          "internalType": "address",
          "name": "_l1Token",
          "type": "address"
        },
        {
          "internalType": "address",
          "name": "_l2Token",
          "type": "address"
        },
        {
          "internalType": "address",
          "name": "_from",
          "type": "address"
        },
        {
          "internalType": "address",
          "name": "_to",
          "type": "address"
        },
        {
          "internalType": "uint256",
          "name": "_amount",
          "type": "uint256"
        },
        {
          "internalType": "bytes",
          "name": "_data",
          "type": "bytes"
        }
      ],
      "name": "finalizeDepositERC20",
      "outputs": [],
      "stateMutability": "payable",
      "type": "function"
    },
    {
      "inputs": [
        {
          "internalType": "address",
          "name": "_l2Token",
          "type": "address"
        }
      ],
      "name": "getL1ERC20Address",
      "outputs": [
        {
          "internalType": "address",
          "name": "",
          "type": "address"
        }
      ],
      "stateMutability": "view",
      "type": "function"
    },
    {
      "inputs": [
        {
          "internalType": "address",
          "name": "_l1Token",
          "type": "address"
        }
      ],
      "name": "getL2ERC20Address",
      "outputs": [
        {
          "internalType": "address",
          "name": "",
          "type": "address"
        }
      ],
      "stateMutability": "view",
      "type": "function"
    },
    {
      "inputs": [
        {
          "internalType": "bytes32",
          "name": "_role",
          "type": "bytes32"
        },
        {
          "internalType": "uint256",
          "name": "_index",
          "type": "uint256"
        }
      ],
      "name": "getRoleMember",
      "outputs": [
        {
          "internalType": "address",
          "name": "",
          "type": "address"
        }
      ],
      "stateMutability": "view",
      "type": "function"
    },
    {
      "inputs": [
        {
          "internalType": "bytes32",
          "name": "_role",
          "type": "bytes32"
        }
      ],
      "name": "getRoleMemberCount",
      "outputs": [
        {
          "internalType": "uint256",
          "name": "",
          "type": "uint256"
        }
      ],
      "stateMutability": "view",
      "type": "function"
    },
    {
      "inputs": [
        {
          "internalType": "bytes32",
          "name": "_role",
          "type": "bytes32"
        },
        {
          "internalType": "address",
          "name": "_account",
          "type": "address"
        }
      ],
      "name": "grantRole",
      "outputs": [],
      "stateMutability": "nonpayable",
      "type": "function"
    },
    {
      "inputs": [
        {
          "internalType": "bytes32",
          "name": "_role",
          "type": "bytes32"
        },
        {
          "internalType": "address",
          "name": "_account",
          "type": "address"
        }
      ],
      "name": "hasRole",
      "outputs": [
        {
          "internalType": "bool",
          "name": "",
          "type": "bool"
        }
      ],
      "stateMutability": "view",
      "type": "function"
    },
    {
      "inputs": [
        {
          "internalType": "address",
          "name": "_counterpart",
          "type": "address"
        },
        {
          "internalType": "address",
          "name": "_router",
          "type": "address"
        },
        {
          "internalType": "address",
          "name": "_messenger",
          "type": "address"
        }
      ],
      "name": "initialize",
      "outputs": [],
      "stateMutability": "nonpayable",
      "type": "function"
    },
    {
      "inputs": [
        {
          "internalType": "address",
          "name": "_depositsEnabler",
          "type": "address"
        },
        {
          "internalType": "address",
          "name": "_depositsDisabler",
          "type": "address"
        },
        {
          "internalType": "address",
          "name": "_withdrawalsEnabler",
          "type": "address"
        },
        {
          "internalType": "address",
          "name": "_withdrawalsDisabler",
          "type": "address"
        }
      ],
      "name": "initializeV2",
      "outputs": [],
      "stateMutability": "nonpayable",
      "type": "function"
    },
    {
      "inputs": [],
      "name": "isDepositsEnabled",
      "outputs": [
        {
          "internalType": "bool",
          "name": "",
          "type": "bool"
        }
      ],
      "stateMutability": "view",
      "type": "function"
    },
    {
      "inputs": [],
      "name": "isWithdrawalsEnabled",
      "outputs": [
        {
          "internalType": "bool",
          "name": "",
          "type": "bool"
        }
      ],
      "stateMutability": "view",
      "type": "function"
    },
    {
      "inputs": [],
      "name": "l1Token",
      "outputs": [
        {
          "internalType": "address",
          "name": "",
          "type": "address"
        }
      ],
      "stateMutability": "view",
      "type": "function"
    },
    {
      "inputs": [],
      "name": "l2Token",
      "outputs": [
        {
          "internalType": "address",
          "name": "",
          "type": "address"
        }
      ],
      "stateMutability": "view",
      "type": "function"
    },
    {
      "inputs": [],
      "name": "messenger",
      "outputs": [
        {
          "internalType": "address",
          "name": "",
          "type": "address"
        }
      ],
      "stateMutability": "view",
      "type": "function"
    },
    {
      "inputs": [],
      "name": "owner",
      "outputs": [
        {
          "internalType": "address",
          "name": "",
          "type": "address"
        }
      ],
      "stateMutability": "view",
      "type": "function"
    },
    {
      "inputs": [],
      "name": "renounceOwnership",
      "outputs": [],
      "stateMutability": "nonpayable",
      "type": "function"
    },
    {
      "inputs": [
        {
          "internalType": "bytes32",
          "name": "_role",
          "type": "bytes32"
        },
        {
          "internalType": "address",
          "name": "_account",
          "type": "address"
        }
      ],
      "name": "revokeRole",
      "outputs": [],
      "stateMutability": "nonpayable",
      "type": "function"
    },
    {
      "inputs": [],
      "name": "router",
      "outputs": [
        {
          "internalType": "address",
          "name": "",
          "type": "address"
        }
      ],
      "stateMutability": "view",
      "type": "function"
    },
    {
      "inputs": [
        {
          "internalType": "address",
          "name": "newOwner",
          "type": "address"
        }
      ],
      "name": "transferOwnership",
      "outputs": [],
      "stateMutability": "nonpayable",
      "type": "function"
    },
    {
      "inputs": [
        {
          "internalType": "address",
          "name": "_token",
          "type": "address"
        },
        {
          "internalType": "uint256",
          "name": "_amount",
          "type": "uint256"
        },
        {
          "internalType": "uint256",
          "name": "_gasLimit",
          "type": "uint256"
        }
      ],
      "name": "withdrawERC20",
      "outputs": [],
      "stateMutability": "payable",
      "type": "function"
    },
    {
      "inputs": [
        {
          "internalType": "address",
          "name": "_token",
          "type": "address"
        },
        {
          "internalType": "address",
          "name": "_to",
          "type": "address"
        },
        {
          "internalType": "uint256",
          "name": "_amount",
          "type": "uint256"
        },
        {
          "internalType": "uint256",
          "name": "_gasLimit",
          "type": "uint256"
        }
      ],
      "name": "withdrawERC20",
      "outputs": [],
      "stateMutability": "payable",
      "type": "function"
    },
    {
      "inputs": [
        {
          "internalType": "address",
          "name": "_token",
          "type": "address"
        },
        {
          "internalType": "address",
          "name": "_to",
          "type": "address"
        },
        {
          "internalType": "uint256",
          "name": "_amount",
          "type": "uint256"
        },
        {
          "internalType": "bytes",
          "name": "_data",
          "type": "bytes"
        },
        {
          "internalType": "uint256",
          "name": "_gasLimit",
          "type": "uint256"
        }
      ],
      "name": "withdrawERC20AndCall",
      "outputs": [],
      "stateMutability": "payable",
      "type": "function"
    }
  ],
  "bytecode": "0x60c060405234801562000010575f80fd5b506040516200290f3803806200290f833981016040819052620000339162000168565b6001600160a01b03808316608081905290821660a05215806200005d57506001600160a01b038116155b156200007c5760405163a7f9319d60e01b815260040160405180910390fd5b620000866200008e565b50506200019e565b5f54610100900460ff1615620000fa5760405162461bcd60e51b815260206004820152602760248201527f496e697469616c697a61626c653a20636f6e747261637420697320696e697469604482015266616c697a696e6760c81b606482015260840160405180910390fd5b5f5460ff908116146200014a575f805460ff191660ff9081179091556040519081527f7f26b83ff96e1f2b6a682f133852f6798a09c465da95921460cefb38474024989060200160405180910390a15b565b80516001600160a01b038116811462000163575f80fd5b919050565b5f80604083850312156200017a575f80fd5b62000185836200014c565b915062000195602084016200014c565b90509250929050565b60805160a051612717620001f85f395f81816102610152818161062a01528181610a1d01528181611077015261147e01525f818161049b01528181610696015281816109b10152818161100b01526116a101526127175ff3fe6080604052600436106101d0575f3560e01c80639010d07c116100fd578063ca15c87311610092578063f27ebced11610062578063f27ebced14610580578063f2fde38b1461059f578063f887ea40146105be578063fadcc54a146105dd575f80fd5b8063ca15c873146104fb578063d547741f1461051a578063e3b523e314610539578063e8bac93b1461056c575f80fd5b8063ad960ce1116100cd578063ad960ce114610476578063c01e1bd61461048a578063c0c53b8b146104bd578063c676ad29146104dc575f80fd5b80639010d07c1461041157806391d1485414610430578063a93a4af91461044f578063ac67e1af14610462575f80fd5b80635ed2c22011610173578063797594b011610143578063797594b01461038f5780638431f5c1146103ae5780638d7601c0146103c15780638da5cb5b146103f4575f80fd5b80635ed2c220146102ec5780636c07ea43146103275780636f18bd221461033a578063715018a61461037b575f80fd5b806356eff267116101ae57806356eff26714610250578063575361b6146102835780635777bf50146102965780635e4c57a4146102d8575f80fd5b80632f2ff15d146101d45780633cb747bf146101f557806354bbd59c14610231575b5f80fd5b3480156101df575f80fd5b506101f36101ee366004612100565b610610565b005b348015610200575f80fd5b50609954610214906001600160a01b031681565b6040516001600160a01b0390911681526020015b60405180910390f35b34801561023c575f80fd5b5061021461024b36600461212e565b610626565b34801561025b575f80fd5b506102147f000000000000000000000000000000000000000000000000000000000000000081565b6101f3610291366004612195565b6106bb565b3480156102a1575f80fd5b507fe20dc80161c3a3e412098d054775959b6cab7cf9e3d46b04fee5a64d0898f0ec5460ff165b6040519015158152602001610228565b3480156102e3575f80fd5b506101f3610706565b3480156102f7575f80fd5b507fe20dc80161c3a3e412098d054775959b6cab7cf9e3d46b04fee5a64d0898f0ec54610100900460ff166102c8565b6101f361033536600461220b565b610838565b348015610345575f80fd5b5061036d7f63f736f21cb2943826cd50b191eb054ebbea670e4e962d0527611f830cd399d681565b604051908152602001610228565b348015610386575f80fd5b506101f3610876565b34801561039a575f80fd5b50609754610214906001600160a01b031681565b6101f36103bc36600461223d565b610889565b3480156103cc575f80fd5b5061036d7f94a954c0bc99227eddbc0715a62a7e1056ed8784cd719c2303b685683908857c81565b3480156103ff575f80fd5b506065546001600160a01b0316610214565b34801561041c575f80fd5b5061021461042b3660046122cf565b610bff565b34801561043b575f80fd5b506102c861044a366004612100565b610c3e565b6101f361045d3660046122ef565b610c74565b34801561046d575f80fd5b506101f3610c86565b348015610481575f80fd5b506101f3610db4565b348015610495575f80fd5b506102147f000000000000000000000000000000000000000000000000000000000000000081565b3480156104c8575f80fd5b506101f36104d7366004612332565b610eca565b3480156104e7575f80fd5b506102146104f636600461212e565b611007565b348015610506575f80fd5b5061036d61051536600461237a565b61109c565b348015610525575f80fd5b506101f3610534366004612100565b6110d1565b348015610544575f80fd5b5061036d7f9ab8816a3dc0b3849ec1ac00483f6ec815b07eee2fd766a353311c823ad59d0d81565b348015610577575f80fd5b506101f36110e3565b34801561058b575f80fd5b506101f361059a366004612391565b6111fe565b3480156105aa575f80fd5b506101f36105b936600461212e565b611313565b3480156105c9575f80fd5b50609854610214906001600160a01b031681565b3480156105e8575f80fd5b5061036d7f4b43b36766bde12c5e9cbbc37d15f8d1f769f08f54720ab370faeb4ce893753a81565b6106186113a3565b61062282826113fd565b5050565b5f817f00000000000000000000000000000000000000000000000000000000000000006001600160a01b0316816001600160a01b031614610693576040517f6251ce6800000000000000000000000000000000000000000000000000000000815260040160405180910390fd5b507f000000000000000000000000000000000000000000000000000000000000000092915050565b6106fe86868686868080601f0160208091040260200160405190810160405280939291908181526020018383808284375f92019190915250889250611473915050565b505050505050565b7fe20dc80161c3a3e412098d054775959b6cab7cf9e3d46b04fee5a64d0898f0ec5460ff1615610762576040517f4f2c8be200000000000000000000000000000000000000000000000000000000815260040160405180910390fd5b61078c7f4b43b36766bde12c5e9cbbc37d15f8d1f769f08f54720ab370faeb4ce893753a33610c3e565b6107c2576040517f3d39c5f500000000000000000000000000000000000000000000000000000000815260040160405180910390fd5b7fe20dc80161c3a3e412098d054775959b6cab7cf9e3d46b04fee5a64d0898f0ec80547fffffffffffffffffffffffffffffffffffffffffffffffffffffffffffffff0016600117905560405133907fc36a428b063177e3f28b3b5d340c08f77827847b2ee30114ccf0c40e519c420a905f90a2565b6108718333845f5b6040519080825280601f01601f19166020018201604052801561086a576020820181803683370190505b5085611473565b505050565b61087e6113a3565b6108875f6118cf565b565b6099546001600160a01b03163381146108e95760405162461bcd60e51b815260206004820152601760248201527f6f6e6c79206d657373656e6765722063616e2063616c6c00000000000000000060448201526064015b60405180910390fd5b806001600160a01b0316636e296e456040518163ffffffff1660e01b8152600401602060405180830381865afa158015610925573d5f803e3d5ffd5b505050506040513d601f19601f820116820180604052508101906109499190612417565b6097546001600160a01b039081169116146109a65760405162461bcd60e51b815260206004820152601860248201527f6f6e6c792063616c6c20627920636f756e74657270617274000000000000000060448201526064016108e0565b6109ae611938565b877f00000000000000000000000000000000000000000000000000000000000000006001600160a01b0316816001600160a01b031614610a1a576040517ffe15603f00000000000000000000000000000000000000000000000000000000815260040160405180910390fd5b877f00000000000000000000000000000000000000000000000000000000000000006001600160a01b0316816001600160a01b031614610a86576040517f6251ce6800000000000000000000000000000000000000000000000000000000815260040160405180910390fd5b7fe20dc80161c3a3e412098d054775959b6cab7cf9e3d46b04fee5a64d0898f0ec5460ff16610ae1576040517fa185a6b200000000000000000000000000000000000000000000000000000000815260040160405180910390fd5b3415610b19576040517f3ddcf11400000000000000000000000000000000000000000000000000000000815260040160405180910390fd5b6040517f40c10f190000000000000000000000000000000000000000000000000000000081526001600160a01b038881166004830152602482018890528a16906340c10f19906044015f604051808303815f87803b158015610b79575f80fd5b505af1158015610b8b573d5f803e3d5ffd5b50505050876001600160a01b0316896001600160a01b03168b6001600160a01b03167f165ba69f6ab40c50cade6f65431801e5f9c7d7830b7545391920db039133ba348a8a8a8a604051610be29493929190612432565b60405180910390a45050610bf560018055565b5050505050505050565b5f8281527fe20dc80161c3a3e412098d054775959b6cab7cf9e3d46b04fee5a64d0898f0ed60205260408120610c359083611997565b90505b92915050565b5f8281527fe20dc80161c3a3e412098d054775959b6cab7cf9e3d46b04fee5a64d0898f0ed60205260408120610c3590836119a2565b610c808484845f610840565b50505050565b7fe20dc80161c3a3e412098d054775959b6cab7cf9e3d46b04fee5a64d0898f0ec5460ff16610ce1576040517fa185a6b200000000000000000000000000000000000000000000000000000000815260040160405180910390fd5b610d0b7f63f736f21cb2943826cd50b191eb054ebbea670e4e962d0527611f830cd399d633610c3e565b610d41576040517fadd9524c00000000000000000000000000000000000000000000000000000000815260040160405180910390fd5b7fe20dc80161c3a3e412098d054775959b6cab7cf9e3d46b04fee5a64d0898f0ec80547fffffffffffffffffffffffffffffffffffffffffffffffffffffffffffffff0016905560405133907f9ca4d309bbfd23c65db3dc38c1712862f5812c7139937e2655de86e803f73bb9905f90a2565b7fe20dc80161c3a3e412098d054775959b6cab7cf9e3d46b04fee5a64d0898f0ec54610100900460ff16610e14576040517f77d195b200000000000000000000000000000000000000000000000000000000815260040160405180910390fd5b610e3e7f94a954c0bc99227eddbc0715a62a7e1056ed8784cd719c2303b685683908857c33610c3e565b610e74576040517f9e60ca7e00000000000000000000000000000000000000000000000000000000815260040160405180910390fd5b7fe20dc80161c3a3e412098d054775959b6cab7cf9e3d46b04fee5a64d0898f0ec805461ff001916905560405133907f644eeba8ede48fefc32ada09fb240c5f6c0f06507ab1d296d5af41f1521d9fcb905f90a2565b5f54610100900460ff1615808015610ee857505f54600160ff909116105b80610f015750303b158015610f0157505f5460ff166001145b610f735760405162461bcd60e51b815260206004820152602e60248201527f496e697469616c697a61626c653a20636f6e747261637420697320616c72656160448201527f647920696e697469616c697a656400000000000000000000000000000000000060648201526084016108e0565b5f80547fffffffffffffffffffffffffffffffffffffffffffffffffffffffffffffff001660011790558015610fb2575f805461ff0019166101001790555b610fbd8484846119c3565b8015610c80575f805461ff0019169055604051600181527f7f26b83ff96e1f2b6a682f133852f6798a09c465da95921460cefb38474024989060200160405180910390a150505050565b5f817f00000000000000000000000000000000000000000000000000000000000000006001600160a01b0316816001600160a01b031614611074576040517ffe15603f00000000000000000000000000000000000000000000000000000000815260040160405180910390fd5b507f000000000000000000000000000000000000000000000000000000000000000092915050565b5f8181527fe20dc80161c3a3e412098d054775959b6cab7cf9e3d46b04fee5a64d0898f0ed60205260408120610c3890611b06565b6110d96113a3565b6106228282611b0f565b7fe20dc80161c3a3e412098d054775959b6cab7cf9e3d46b04fee5a64d0898f0ec54610100900460ff1615611144576040517ff74ad25400000000000000000000000000000000000000000000000000000000815260040160405180910390fd5b61116e7f9ab8816a3dc0b3849ec1ac00483f6ec815b07eee2fd766a353311c823ad59d0d33610c3e565b6111a4576040517f5c16894300000000000000000000000000000000000000000000000000000000815260040160405180910390fd5b7fe20dc80161c3a3e412098d054775959b6cab7cf9e3d46b04fee5a64d0898f0ec805461ff00191661010017905560405133907fb2ed3603bd9051f0182ebfb75f12a21059b4d31b578a2a05c8d0245e9e2d3204905f90a2565b5f54600290610100900460ff1615801561121e57505f5460ff8083169116105b6112905760405162461bcd60e51b815260206004820152602e60248201527f496e697469616c697a61626c653a20636f6e747261637420697320616c72656160448201527f647920696e697469616c697a656400000000000000000000000000000000000060648201526084016108e0565b5f80547fffffffffffffffffffffffffffffffffffffffffffffffffffffffffffff00001660ff8316176101001790556112cc85858585611b85565b5f805461ff001916905560405160ff821681527f7f26b83ff96e1f2b6a682f133852f6798a09c465da95921460cefb38474024989060200160405180910390a15050505050565b61131b6113a3565b6001600160a01b0381166113975760405162461bcd60e51b815260206004820152602660248201527f4f776e61626c653a206e6577206f776e657220697320746865207a65726f206160448201527f646472657373000000000000000000000000000000000000000000000000000060648201526084016108e0565b6113a0816118cf565b50565b6065546001600160a01b031633146108875760405162461bcd60e51b815260206004820181905260248201527f4f776e61626c653a2063616c6c6572206973206e6f7420746865206f776e657260448201526064016108e0565b5f8281527fe20dc80161c3a3e412098d054775959b6cab7cf9e3d46b04fee5a64d0898f0ed602052604090206114339082611d66565b156106225760405133906001600160a01b0383169084907f2f8788117e7eff1d82e926ec794901d17c78024a50270940304540a733656f0d905f90a45050565b61147b611938565b847f00000000000000000000000000000000000000000000000000000000000000006001600160a01b0316816001600160a01b0316146114e7576040517f6251ce6800000000000000000000000000000000000000000000000000000000815260040160405180910390fd5b846001600160a01b038116611528576040517fef6b416200000000000000000000000000000000000000000000000000000000815260040160405180910390fd5b7fe20dc80161c3a3e412098d054775959b6cab7cf9e3d46b04fee5a64d0898f0ec54610100900460ff16611588576040517f77d195b200000000000000000000000000000000000000000000000000000000815260040160405180910390fd5b845f036115c1576040517f6c18829600000000000000000000000000000000000000000000000000000000815260040160405180910390fd5b60985433906001600160a01b03168190036115ef57848060200190518101906115ea91906124b7565b955090505b845115611628576040517f998bcee200000000000000000000000000000000000000000000000000000000815260040160405180910390fd5b6040517f9dc29fac0000000000000000000000000000000000000000000000000000000081526001600160a01b03828116600483015260248201889052891690639dc29fac906044015f604051808303815f87803b158015611688575f80fd5b505af115801561169a573d5f803e3d5ffd5b50506040517f000000000000000000000000000000000000000000000000000000000000000092505f91506116dd9083908c9086908d908d908d906024016125dc565b604080517fffffffffffffffffffffffffffffffffffffffffffffffffffffffffffffffe0818403018152918152602080830180517bffffffffffffffffffffffffffffffffffffffffffffffffffffffff167f84bd13b00000000000000000000000000000000000000000000000000000000017905260995482517fecc7042800000000000000000000000000000000000000000000000000000000815292519394505f936001600160a01b039091169263ecc704289260048083019391928290030181865afa1580156117b4573d5f803e3d5ffd5b505050506040513d601f19601f820116820180604052508101906117d89190612629565b6099546097546040517fb2267a7b0000000000000000000000000000000000000000000000000000000081529293506001600160a01b039182169263b2267a7b923492611830929116905f9088908e90600401612640565b5f604051808303818588803b158015611847575f80fd5b505af1158015611859573d5f803e3d5ffd5b5050505050836001600160a01b03168b6001600160a01b0316846001600160a01b03167fa9967b740f3fc69dfbf4744b4b1c7dfdb0b1b63f1fa4cf573bcdcb9f3ac687c48d8d8d876040516118b19493929190612640565b60405180910390a45050505050506118c860018055565b5050505050565b606580546001600160a01b038381167fffffffffffffffffffffffff0000000000000000000000000000000000000000831681179093556040519116919082907f8be0079c531659141344cd1fd0a4f28419497f9722a3daafe3b4186f6b6457e0905f90a35050565b60026001540361198a5760405162461bcd60e51b815260206004820152601f60248201527f5265656e7472616e637947756172643a207265656e7472616e742063616c6c0060448201526064016108e0565b6002600155565b60018055565b5f610c358383611d7a565b6001600160a01b0381165f9081526001830160205260408120541515610c35565b6001600160a01b038316611a195760405162461bcd60e51b815260206004820152601860248201527f7a65726f20636f756e746572706172742061646472657373000000000000000060448201526064016108e0565b6001600160a01b038116611a6f5760405162461bcd60e51b815260206004820152601660248201527f7a65726f206d657373656e67657220616464726573730000000000000000000060448201526064016108e0565b611a77611da0565b611a7f611e24565b609780546001600160a01b038086167fffffffffffffffffffffffff00000000000000000000000000000000000000009283161790925560998054848416921691909117905582161561087157609880546001600160a01b0384167fffffffffffffffffffffffff0000000000000000000000000000000000000000909116179055505050565b5f610c38825490565b5f8281527fe20dc80161c3a3e412098d054775959b6cab7cf9e3d46b04fee5a64d0898f0ed60205260409020611b459082611ea8565b156106225760405133906001600160a01b0383169084907ff6391f5c32d9c69d2a47ea670b442974b53935d1edc7fd64eb21e047a839171b905f90a45050565b5f54610100900460ff16611c015760405162461bcd60e51b815260206004820152602b60248201527f496e697469616c697a61626c653a20636f6e7472616374206973206e6f74206960448201527f6e697469616c697a696e6700000000000000000000000000000000000000000060648201526084016108e0565b7fe20dc80161c3a3e412098d054775959b6cab7cf9e3d46b04fee5a64d0898f0ec80547fffffffffffffffffffffffffffffffffffffffffffffffffffffffffffffff0016600117815560405133907fc36a428b063177e3f28b3b5d340c08f77827847b2ee30114ccf0c40e519c420a905f90a2805461ff001916610100178155611c893390565b6001600160a01b03167fb2ed3603bd9051f0182ebfb75f12a21059b4d31b578a2a05c8d0245e9e2d320460405160405180910390a2611ce87f4b43b36766bde12c5e9cbbc37d15f8d1f769f08f54720ab370faeb4ce893753a866113fd565b611d127f63f736f21cb2943826cd50b191eb054ebbea670e4e962d0527611f830cd399d6856113fd565b611d3c7f9ab8816a3dc0b3849ec1ac00483f6ec815b07eee2fd766a353311c823ad59d0d846113fd565b6118c87f94a954c0bc99227eddbc0715a62a7e1056ed8784cd719c2303b685683908857c836113fd565b5f610c35836001600160a01b038416611ebc565b5f825f018281548110611d8f57611d8f612678565b905f5260205f200154905092915050565b5f54610100900460ff16611e1c5760405162461bcd60e51b815260206004820152602b60248201527f496e697469616c697a61626c653a20636f6e7472616374206973206e6f74206960448201527f6e697469616c697a696e6700000000000000000000000000000000000000000060648201526084016108e0565b610887611f08565b5f54610100900460ff16611ea05760405162461bcd60e51b815260206004820152602b60248201527f496e697469616c697a61626c653a20636f6e7472616374206973206e6f74206960448201527f6e697469616c697a696e6700000000000000000000000000000000000000000060648201526084016108e0565b610887611f84565b5f610c35836001600160a01b038416612009565b5f818152600183016020526040812054611f0157508154600181810184555f848152602080822090930184905584548482528286019093526040902091909155610c38565b505f610c38565b5f54610100900460ff166119915760405162461bcd60e51b815260206004820152602b60248201527f496e697469616c697a61626c653a20636f6e7472616374206973206e6f74206960448201527f6e697469616c697a696e6700000000000000000000000000000000000000000060648201526084016108e0565b5f54610100900460ff166120005760405162461bcd60e51b815260206004820152602b60248201527f496e697469616c697a61626c653a20636f6e7472616374206973206e6f74206960448201527f6e697469616c697a696e6700000000000000000000000000000000000000000060648201526084016108e0565b610887336118cf565b5f81815260018301602052604081205480156120e3575f61202b6001836126a5565b85549091505f9061203e906001906126a5565b905081811461209d575f865f01828154811061205c5761205c612678565b905f5260205f200154905080875f01848154811061207c5761207c612678565b5f918252602080832090910192909255918252600188019052604090208390555b85548690806120ae576120ae6126dd565b600190038181905f5260205f20015f90559055856001015f8681526020019081526020015f205f905560019350505050610c38565b5f915050610c38565b6001600160a01b03811681146113a0575f80fd5b5f8060408385031215612111575f80fd5b823591506020830135612123816120ec565b809150509250929050565b5f6020828403121561213e575f80fd5b8135612149816120ec565b9392505050565b5f8083601f840112612160575f80fd5b50813567ffffffffffffffff811115612177575f80fd5b60208301915083602082850101111561218e575f80fd5b9250929050565b5f805f805f8060a087890312156121aa575f80fd5b86356121b5816120ec565b955060208701356121c5816120ec565b945060408701359350606087013567ffffffffffffffff8111156121e7575f80fd5b6121f389828a01612150565b979a9699509497949695608090950135949350505050565b5f805f6060848603121561221d575f80fd5b8335612228816120ec565b95602085013595506040909401359392505050565b5f805f805f805f60c0888a031215612253575f80fd5b873561225e816120ec565b9650602088013561226e816120ec565b9550604088013561227e816120ec565b9450606088013561228e816120ec565b93506080880135925060a088013567ffffffffffffffff8111156122b0575f80fd5b6122bc8a828b01612150565b989b979a50959850939692959293505050565b5f80604083850312156122e0575f80fd5b50508035926020909101359150565b5f805f8060808587031215612302575f80fd5b843561230d816120ec565b9350602085013561231d816120ec565b93969395505050506040820135916060013590565b5f805f60608486031215612344575f80fd5b833561234f816120ec565b9250602084013561235f816120ec565b9150604084013561236f816120ec565b809150509250925092565b5f6020828403121561238a575f80fd5b5035919050565b5f805f80608085870312156123a4575f80fd5b84356123af816120ec565b935060208501356123bf816120ec565b925060408501356123cf816120ec565b915060608501356123df816120ec565b939692955090935050565b7f4e487b71000000000000000000000000000000000000000000000000000000005f52604160045260245ffd5b5f60208284031215612427575f80fd5b8151612149816120ec565b6001600160a01b038516815283602082015260606040820152816060820152818360808301375f818301608090810191909152601f9092017fffffffffffffffffffffffffffffffffffffffffffffffffffffffffffffffe01601019392505050565b5f5b838110156124af578181015183820152602001612497565b50505f910152565b5f80604083850312156124c8575f80fd5b82516124d3816120ec565b602084015190925067ffffffffffffffff808211156124f0575f80fd5b818501915085601f830112612503575f80fd5b815181811115612515576125156123ea565b604051601f82017fffffffffffffffffffffffffffffffffffffffffffffffffffffffffffffffe0908116603f0116810190838211818310171561255b5761255b6123ea565b81604052828152886020848701011115612573575f80fd5b612584836020830160208801612495565b80955050505050509250929050565b5f81518084526125aa816020860160208601612495565b601f017fffffffffffffffffffffffffffffffffffffffffffffffffffffffffffffffe0169290920160200192915050565b5f6001600160a01b0380891683528088166020840152808716604084015280861660608401525083608083015260c060a083015261261d60c0830184612593565b98975050505050505050565b5f60208284031215612639575f80fd5b5051919050565b6001600160a01b0385168152836020820152608060408201525f6126676080830185612593565b905082606083015295945050505050565b7f4e487b71000000000000000000000000000000000000000000000000000000005f52603260045260245ffd5b81810381811115610c38577f4e487b71000000000000000000000000000000000000000000000000000000005f52601160045260245ffd5b7f4e487b71000000000000000000000000000000000000000000000000000000005f52603160045260245ffdfea164736f6c6343000818000a",
  "linkReferences": {},
  "deployedLinkReferences": {}
}