{
  "_format": "hh-sol-artifact-1",
  "contractName": "Verify",
  "sourceName": "contracts/libraries/common/Verify.sol",
  "abi": [
    {
      "inputs": [
        {
          "internalType": "bytes32",
          "name": "leafHash",
          "type": "bytes32"
        },
        {
          "internalType": "bytes32[32]",
          "name": "smtProof",
          "type": "bytes32[32]"
        },
        {
          "internalType": "uint256",
          "name": "index",
          "type": "uint256"
        },
        {
          "internalType": "bytes32",
          "name": "root",
          "type": "bytes32"
        }
      ],
      "name": "verifyMerkleProof",
      "outputs": [
        {
          "internalType": "bool",
          "name": "",
          "type": "bool"
        }
      ],
      "stateMutability": "pure",
      "type": "function"
    }
  ],
  "bytecode": "0x608060405234801561000f575f80fd5b506101978061001d5f395ff3fe608060405234801561000f575f80fd5b5060043610610029575f3560e01c8063340735f71461002d575b5f80fd5b61004061003b36600461011d565b610054565b604051901515815260200160405180910390f35b5f84815b6020811015610111578085901c6001166001036100be578581602081106100815761008161015d565b6020020135826040516020016100a1929190918252602082015260400190565b604051602081830303815290604052805190602001209150610109565b818682602081106100d1576100d161015d565b60200201356040516020016100f0929190918252602082015260400190565b6040516020818303038152906040528051906020012091505b600101610058565b50909114949350505050565b5f805f806104608587031215610131575f80fd5b84359350610420850186811115610146575f80fd5b939660208601965093359461044001359392505050565b7f4e487b71000000000000000000000000000000000000000000000000000000005f52603260045260245ffdfea164736f6c6343000818000a",
  "linkReferences": {},
  "deployedLinkReferences": {}
}