{
  "_format": "hh-sol-artifact-1",
  "contractName": "MigrationUSDC",
  "sourceName": "contracts/libraries/usdc/MigrationUSDC.sol",
  "abi": [
    {
      "inputs": [
        {
          "internalType": "address",
          "name": "_oldUSDC",
          "type": "address"
        },
        {
          "internalType": "address",
          "name": "_newUSDC",
          "type": "address"
        }
      ],
      "stateMutability": "nonpayable",
      "type": "constructor"
    },
    {
      "inputs": [],
      "name": "ErrZeroAddress",
      "type": "error"
    },
    {
      "inputs": [],
      "name": "ErrorTokenBalanceZero",
      "type": "error"
    },
    {
      "anonymous": false,
      "inputs": [
        {
          "indexed": false,
          "internalType": "uint8",
          "name": "version",
          "type": "uint8"
        }
      ],
      "name": "Initialized",
      "type": "event"
    },
    {
      "anonymous": false,
      "inputs": [
        {
          "indexed": true,
          "internalType": "address",
          "name": "user",
          "type": "address"
        },
        {
          "indexed": false,
          "internalType": "uint256",
          "name": "amount",
          "type": "uint256"
        }
      ],
      "name": "Migrate",
      "type": "event"
    },
    {
      "anonymous": false,
      "inputs": [
        {
          "indexed": true,
          "internalType": "address",
          "name": "previousOwner",
          "type": "address"
        },
        {
          "indexed": true,
          "internalType": "address",
          "name": "newOwner",
          "type": "address"
        }
      ],
      "name": "OwnershipTransferred",
      "type": "event"
    },
    {
      "anonymous": false,
      "inputs": [
        {
          "indexed": false,
          "internalType": "address",
          "name": "account",
          "type": "address"
        }
      ],
      "name": "Paused",
      "type": "event"
    },
    {
      "anonymous": false,
      "inputs": [
        {
          "indexed": true,
          "internalType": "address",
          "name": "token",
          "type": "address"
        },
        {
          "indexed": true,
          "internalType": "address",
          "name": "to",
          "type": "address"
        },
        {
          "indexed": false,
          "internalType": "uint256",
          "name": "amount",
          "type": "uint256"
        }
      ],
      "name": "Transfer",
      "type": "event"
    },
    {
      "anonymous": false,
      "inputs": [
        {
          "indexed": false,
          "internalType": "address",
          "name": "account",
          "type": "address"
        }
      ],
      "name": "Unpaused",
      "type": "event"
    },
    {
      "anonymous": false,
      "inputs": [
        {
          "indexed": true,
          "internalType": "address",
          "name": "oldRecipient",
          "type": "address"
        },
        {
          "indexed": true,
          "internalType": "address",
          "name": "newRecipient",
          "type": "address"
        }
      ],
      "name": "UpdateRecipient",
      "type": "event"
    },
    {
      "inputs": [],
      "name": "NEW_USDC",
      "outputs": [
        {
          "internalType": "address",
          "name": "",
          "type": "address"
        }
      ],
      "stateMutability": "view",
      "type": "function"
    },
    {
      "inputs": [],
      "name": "OLD_USDC",
      "outputs": [
        {
          "internalType": "address",
          "name": "",
          "type": "address"
        }
      ],
      "stateMutability": "view",
      "type": "function"
    },
    {
      "inputs": [
        {
          "internalType": "address",
          "name": "_recipient",
          "type": "address"
        }
      ],
      "name": "initialize",
      "outputs": [],
      "stateMutability": "nonpayable",
      "type": "function"
    },
    {
      "inputs": [],
      "name": "migrate",
      "outputs": [],
      "stateMutability": "nonpayable",
      "type": "function"
    },
    {
      "inputs": [],
      "name": "owner",
      "outputs": [
        {
          "internalType": "address",
          "name": "",
          "type": "address"
        }
      ],
      "stateMutability": "view",
      "type": "function"
    },
    {
      "inputs": [],
      "name": "paused",
      "outputs": [
        {
          "internalType": "bool",
          "name": "",
          "type": "bool"
        }
      ],
      "stateMutability": "view",
      "type": "function"
    },
    {
      "inputs": [],
      "name": "recipient",
      "outputs": [
        {
          "internalType": "address",
          "name": "",
          "type": "address"
        }
      ],
      "stateMutability": "view",
      "type": "function"
    },
    {
      "inputs": [],
      "name": "renounceOwnership",
      "outputs": [],
      "stateMutability": "nonpayable",
      "type": "function"
    },
    {
      "inputs": [
        {
          "internalType": "bool",
          "name": "status",
          "type": "bool"
        }
      ],
      "name": "setPause",
      "outputs": [],
      "stateMutability": "nonpayable",
      "type": "function"
    },
    {
      "inputs": [
        {
          "internalType": "address",
          "name": "newOwner",
          "type": "address"
        }
      ],
      "name": "transferOwnership",
      "outputs": [],
      "stateMutability": "nonpayable",
      "type": "function"
    },
    {
      "inputs": [
        {
          "internalType": "address",
          "name": "_token",
          "type": "address"
        },
        {
          "internalType": "uint256",
          "name": "_amount",
          "type": "uint256"
        }
      ],
      "name": "transferToken",
      "outputs": [],
      "stateMutability": "nonpayable",
      "type": "function"
    },
    {
      "inputs": [
        {
          "internalType": "address",
          "name": "_newRecipient",
          "type": "address"
        }
      ],
      "name": "updateRecipient",
      "outputs": [],
      "stateMutability": "nonpayable",
      "type": "function"
    }
  ],
  "bytecode": "0x60c060405234801562000010575f80fd5b506040516200168a3803806200168a83398101604081905262000033916200012f565b6200003d62000055565b6001600160a01b039182166080521660a05262000165565b5f54610100900460ff1615620000c15760405162461bcd60e51b815260206004820152602760248201527f496e697469616c697a61626c653a20636f6e747261637420697320696e697469604482015266616c697a696e6760c81b606482015260840160405180910390fd5b5f5460ff9081161462000111575f805460ff191660ff9081179091556040519081527f7f26b83ff96e1f2b6a682f133852f6798a09c465da95921460cefb38474024989060200160405180910390a15b565b80516001600160a01b03811681146200012a575f80fd5b919050565b5f806040838503121562000141575f80fd5b6200014c8362000113565b91506200015c6020840162000113565b90509250929050565b60805160a0516114ef6200019b5f395f818160ed01526105ae01525f81816101b501528181610469015261055a01526114ef5ff3fe608060405234801561000f575f80fd5b50600436106100cf575f3560e01c80638fd3ab801161007d578063c4d66de811610058578063c4d66de8146101d7578063f2fde38b146101ea578063feec756c146101fd575f80fd5b80638fd3ab8014610195578063bedb86fb1461019d578063c0221359146101b0575f80fd5b806366d003ac116100ad57806366d003ac1461014f578063715018a61461016f5780638da5cb5b14610177575f80fd5b80631072cbea146100d3578063578f0ace146100e85780635c975abb14610139575b5f80fd5b6100e66100e13660046113b3565b610210565b005b61010f7f000000000000000000000000000000000000000000000000000000000000000081565b60405173ffffffffffffffffffffffffffffffffffffffff90911681526020015b60405180910390f35b60655460ff166040519015158152602001610130565b60c95461010f9073ffffffffffffffffffffffffffffffffffffffff1681565b6100e661042e565b60335473ffffffffffffffffffffffffffffffffffffffff1661010f565b6100e6610441565b6100e66101ab3660046113e8565b6106a8565b61010f7f000000000000000000000000000000000000000000000000000000000000000081565b6100e66101e536600461140a565b6106d9565b6100e66101f836600461140a565b610934565b6100e661020b36600461140a565b6109ce565b610218610a4c565b60c95473ffffffffffffffffffffffffffffffffffffffff16610267576040517fecc6fdf000000000000000000000000000000000000000000000000000000000815260040160405180910390fd5b6040517f70a082310000000000000000000000000000000000000000000000000000000081523060048201525f9073ffffffffffffffffffffffffffffffffffffffff8416906370a0823190602401602060405180830381865afa1580156102d1573d5f803e3d5ffd5b505050506040513d601f19601f820116820180604052508101906102f59190611423565b9050805f03610330576040517f645cdc7800000000000000000000000000000000000000000000000000000000815260040160405180910390fd5b8181101561033c578091505b60c9546040517fa9059cbb00000000000000000000000000000000000000000000000000000000815273ffffffffffffffffffffffffffffffffffffffff9182166004820152602481018490529084169063a9059cbb906044016020604051808303815f875af11580156103b2573d5f803e3d5ffd5b505050506040513d601f19601f820116820180604052508101906103d6919061143a565b5060c95460405183815273ffffffffffffffffffffffffffffffffffffffff918216918516907fddf252ad1be2c89b69c2b068fc378daa952ba7f163c4a11628f55a4df523b3ef9060200160405180910390a3505050565b610436610a4c565b61043f5f610ab3565b565b610449610b29565b610451610b82565b5f73ffffffffffffffffffffffffffffffffffffffff7f0000000000000000000000000000000000000000000000000000000000000000166370a08231336040517fffffffff0000000000000000000000000000000000000000000000000000000060e084901b16815273ffffffffffffffffffffffffffffffffffffffff9091166004820152602401602060405180830381865afa1580156104f6573d5f803e3d5ffd5b505050506040513d601f19601f8201168201806040525081019061051a9190611423565b9050805f03610555576040517f645cdc7800000000000000000000000000000000000000000000000000000000815260040160405180910390fd5b6105977f000000000000000000000000000000000000000000000000000000000000000073ffffffffffffffffffffffffffffffffffffffff16333084610bd5565b73ffffffffffffffffffffffffffffffffffffffff7f00000000000000000000000000000000000000000000000000000000000000001663a9059cbb336040517fffffffff0000000000000000000000000000000000000000000000000000000060e084901b16815273ffffffffffffffffffffffffffffffffffffffff9091166004820152602481018490526044016020604051808303815f875af1158015610643573d5f803e3d5ffd5b505050506040513d601f19601f82011682018060405250810190610667919061143a565b5060405181815233907fa59785389b00cbd19745afbe8d59b28e3161395c6b1e3525861a2b0dede0b90d9060200160405180910390a25061043f6001609755565b6106b0610a4c565b80156106c9576106be610b82565b6106c6610c77565b50565b6106d1610cfc565b6106c6610d4e565b5f54610100900460ff16158080156106f757505f54600160ff909116105b806107105750303b15801561071057505f5460ff166001145b6107875760405162461bcd60e51b815260206004820152602e60248201527f496e697469616c697a61626c653a20636f6e747261637420697320616c72656160448201527f647920696e697469616c697a656400000000000000000000000000000000000060648201526084015b60405180910390fd5b5f80547fffffffffffffffffffffffffffffffffffffffffffffffffffffffffffffff0016600117905580156107e3575f80547fffffffffffffffffffffffffffffffffffffffffffffffffffffffffffff00ff166101001790555b73ffffffffffffffffffffffffffffffffffffffff8216610830576040517fecc6fdf000000000000000000000000000000000000000000000000000000000815260040160405180910390fd5b60c980547fffffffffffffffffffffffff00000000000000000000000000000000000000001673ffffffffffffffffffffffffffffffffffffffff8416179055610878610da5565b610880610e29565b610888610ead565b60c95460405173ffffffffffffffffffffffffffffffffffffffff909116905f907f7e1e96961a397c8aa26162fe259cc837afc95e33aad4945ddc61c18dabb7a6ad908290a38015610930575f80547fffffffffffffffffffffffffffffffffffffffffffffffffffffffffffff00ff169055604051600181527f7f26b83ff96e1f2b6a682f133852f6798a09c465da95921460cefb38474024989060200160405180910390a15b5050565b61093c610a4c565b73ffffffffffffffffffffffffffffffffffffffff81166109c55760405162461bcd60e51b815260206004820152602660248201527f4f776e61626c653a206e6577206f776e657220697320746865207a65726f206160448201527f6464726573730000000000000000000000000000000000000000000000000000606482015260840161077e565b6106c681610ab3565b6109d6610a4c565b60c9805473ffffffffffffffffffffffffffffffffffffffff8381167fffffffffffffffffffffffff0000000000000000000000000000000000000000831681179093556040519116919082907f7e1e96961a397c8aa26162fe259cc837afc95e33aad4945ddc61c18dabb7a6ad905f90a35050565b60335473ffffffffffffffffffffffffffffffffffffffff16331461043f5760405162461bcd60e51b815260206004820181905260248201527f4f776e61626c653a2063616c6c6572206973206e6f7420746865206f776e6572604482015260640161077e565b6033805473ffffffffffffffffffffffffffffffffffffffff8381167fffffffffffffffffffffffff0000000000000000000000000000000000000000831681179093556040519116919082907f8be0079c531659141344cd1fd0a4f28419497f9722a3daafe3b4186f6b6457e0905f90a35050565b600260975403610b7b5760405162461bcd60e51b815260206004820152601f60248201527f5265656e7472616e637947756172643a207265656e7472616e742063616c6c00604482015260640161077e565b6002609755565b60655460ff161561043f5760405162461bcd60e51b815260206004820152601060248201527f5061757361626c653a2070617573656400000000000000000000000000000000604482015260640161077e565b6040805173ffffffffffffffffffffffffffffffffffffffff85811660248301528416604482015260648082018490528251808303909101815260849091019091526020810180517bffffffffffffffffffffffffffffffffffffffffffffffffffffffff167f23b872dd00000000000000000000000000000000000000000000000000000000179052610c6a908590610f31565b50505050565b6001609755565b610c7f610b82565b606580547fffffffffffffffffffffffffffffffffffffffffffffffffffffffffffffff001660011790557f62e78cea01bee320cd4e420270b5ea74000d11b0c9f74754ebdbfc544b05a258610cd23390565b60405173ffffffffffffffffffffffffffffffffffffffff909116815260200160405180910390a1565b60655460ff1661043f5760405162461bcd60e51b815260206004820152601460248201527f5061757361626c653a206e6f7420706175736564000000000000000000000000604482015260640161077e565b610d56610cfc565b606580547fffffffffffffffffffffffffffffffffffffffffffffffffffffffffffffff001690557f5db9ee0a495bf2e6ff9c91a7834c1ba4fdd244a5e8aa4e537bd38aeae4b073aa33610cd2565b5f54610100900460ff16610e215760405162461bcd60e51b815260206004820152602b60248201527f496e697469616c697a61626c653a20636f6e7472616374206973206e6f74206960448201527f6e697469616c697a696e67000000000000000000000000000000000000000000606482015260840161077e565b61043f611029565b5f54610100900460ff16610ea55760405162461bcd60e51b815260206004820152602b60248201527f496e697469616c697a61626c653a20636f6e7472616374206973206e6f74206960448201527f6e697469616c697a696e67000000000000000000000000000000000000000000606482015260840161077e565b61043f6110ae565b5f54610100900460ff16610f295760405162461bcd60e51b815260206004820152602b60248201527f496e697469616c697a61626c653a20636f6e7472616374206973206e6f74206960448201527f6e697469616c697a696e67000000000000000000000000000000000000000000606482015260840161077e565b61043f611154565b5f610f92826040518060400160405280602081526020017f5361666545524332303a206c6f772d6c6576656c2063616c6c206661696c65648152508573ffffffffffffffffffffffffffffffffffffffff166111d09092919063ffffffff16565b905080515f1480610fb2575080806020019051810190610fb2919061143a565b6110245760405162461bcd60e51b815260206004820152602a60248201527f5361666545524332303a204552433230206f7065726174696f6e20646964206e60448201527f6f74207375636365656400000000000000000000000000000000000000000000606482015260840161077e565b505050565b5f54610100900460ff166110a55760405162461bcd60e51b815260206004820152602b60248201527f496e697469616c697a61626c653a20636f6e7472616374206973206e6f74206960448201527f6e697469616c697a696e67000000000000000000000000000000000000000000606482015260840161077e565b61043f33610ab3565b5f54610100900460ff1661112a5760405162461bcd60e51b815260206004820152602b60248201527f496e697469616c697a61626c653a20636f6e7472616374206973206e6f74206960448201527f6e697469616c697a696e67000000000000000000000000000000000000000000606482015260840161077e565b606580547fffffffffffffffffffffffffffffffffffffffffffffffffffffffffffffff00169055565b5f54610100900460ff16610c705760405162461bcd60e51b815260206004820152602b60248201527f496e697469616c697a61626c653a20636f6e7472616374206973206e6f74206960448201527f6e697469616c697a696e67000000000000000000000000000000000000000000606482015260840161077e565b60606111de84845f856111e6565b949350505050565b60608247101561125e5760405162461bcd60e51b815260206004820152602660248201527f416464726573733a20696e73756666696369656e742062616c616e636520666f60448201527f722063616c6c0000000000000000000000000000000000000000000000000000606482015260840161077e565b5f808673ffffffffffffffffffffffffffffffffffffffff1685876040516112869190611477565b5f6040518083038185875af1925050503d805f81146112c0576040519150601f19603f3d011682016040523d82523d5f602084013e6112c5565b606091505b50915091506112d6878383876112e1565b979650505050505050565b6060831561135c5782515f036113555773ffffffffffffffffffffffffffffffffffffffff85163b6113555760405162461bcd60e51b815260206004820152601d60248201527f416464726573733a2063616c6c20746f206e6f6e2d636f6e7472616374000000604482015260640161077e565b50816111de565b6111de83838151156113715781518083602001fd5b8060405162461bcd60e51b815260040161077e9190611492565b803573ffffffffffffffffffffffffffffffffffffffff811681146113ae575f80fd5b919050565b5f80604083850312156113c4575f80fd5b6113cd8361138b565b946020939093013593505050565b80151581146106c6575f80fd5b5f602082840312156113f8575f80fd5b8135611403816113db565b9392505050565b5f6020828403121561141a575f80fd5b6114038261138b565b5f60208284031215611433575f80fd5b5051919050565b5f6020828403121561144a575f80fd5b8151611403816113db565b5f5b8381101561146f578181015183820152602001611457565b50505f910152565b5f8251611488818460208701611455565b9190910192915050565b602081525f82518060208401526114b0816040850160208701611455565b601f017fffffffffffffffffffffffffffffffffffffffffffffffffffffffffffffffe016919091016040019291505056fea164736f6c6343000818000a",
  "linkReferences": {},
  "deployedLinkReferences": {}
}