{
  "_format": "hh-sol-artifact-1",
  "contractName": "SP1Verifier",
  "sourceName": "contracts/libraries/verifier/SP1VerifierPlonk.sol",
  "abi": [
    {
      "inputs": [],
      "name": "InvalidProof",
      "type": "error"
    },
    {
      "inputs": [
        {
          "internalType": "bytes4",
          "name": "received",
          "type": "bytes4"
        },
        {
          "internalType": "bytes4",
          "name": "expected",
          "type": "bytes4"
        }
      ],
      "name": "WrongVerifierSelector",
      "type": "error"
    },
    {
      "inputs": [],
      "name": "VERIFIER_HASH",
      "outputs": [
        {
          "internalType": "bytes32",
          "name": "",
          "type": "bytes32"
        }
      ],
      "stateMutability": "pure",
      "type": "function"
    },
    {
      "inputs": [
        {
          "internalType": "bytes",
          "name": "proof",
          "type": "bytes"
        },
        {
          "internalType": "uint256[]",
          "name": "public_inputs",
          "type": "uint256[]"
        }
      ],
      "name": "Verify",
      "outputs": [
        {
          "internalType": "bool",
          "name": "success",
          "type": "bool"
        }
      ],
      "stateMutability": "view",
      "type": "function"
    },
    {
      "inputs": [
        {
          "internalType": "bytes",
          "name": "publicValues",
          "type": "bytes"
        }
      ],
      "name": "hashPublicValues",
      "outputs": [
        {
          "internalType": "bytes32",
          "name": "",
          "type": "bytes32"
        }
      ],
      "stateMutability": "pure",
      "type": "function"
    },
    {
      "inputs": [
        {
          "internalType": "bytes32",
          "name": "programVKey",
          "type": "bytes32"
        },
        {
          "internalType": "bytes",
          "name": "publicValues",
          "type": "bytes"
        },
        {
          "internalType": "bytes",
          "name": "proofBytes",
          "type": "bytes"
        }
      ],
      "name": "verifyProof",
      "outputs": [],
      "stateMutability": "view",
      "type": "function"
    }
  ],
  "bytecode": "0x608060405234801561000f575f80fd5b50612e278061001d5f395ff3fe608060405234801561000f575f80fd5b506004361061004a575f3560e01c80632a5104361461004e57806341493c60146100835780636b61d8e7146100985780637e4f7a8a146100ab575b5f80fd5b7fffea2d2e12ed24da258af874d77eee7ee91a1e050ee197052908089e57681e675b6040519081526020015b60405180910390f35b610096610091366004612b57565b6100ce565b005b6100706100a6366004612bcb565b6102dc565b6100be6100b9366004612c0a565b610358565b604051901515815260200161007a565b5f6100dc6004828486612c9c565b6100e591612cc3565b90507fffea2d2e12ed24da258af874d77eee7ee91a1e050ee197052908089e57681e677fffea2d2e000000000000000000000000000000000000000000000000000000007fffffffff000000000000000000000000000000000000000000000000000000008316146101b3576040517f988066a10000000000000000000000000000000000000000000000000000000081527fffffffff0000000000000000000000000000000000000000000000000000000080841660048301528216602482015260440160405180910390fd5b5f6101be87876102dc565b6040805160028082526060820183529293505f929091602083019080368337019050509050885f1c815f815181106101f8576101f8612d0b565b602002602001018181525050815f1c8160018151811061021a5761021a612d0b565b60209081029190910101525f30637e4f7a8a610239886004818c612c9c565b856040518463ffffffff1660e01b815260040161025893929190612d38565b602060405180830381865afa158015610273573d5f803e3d5ffd5b505050506040513d601f19601f820116820180604052508101906102979190612dce565b9050806102d0576040517f09bde33900000000000000000000000000000000000000000000000000000000815260040160405180910390fd5b50505050505050505050565b5f7f1fffffffffffffffffffffffffffffffffffffffffffffffffffffffffffffff5f1b60028484604051610312929190612df4565b602060405180830381855afa15801561032d573d5f803e3d5ffd5b5050506040513d601f19601f820116820180604052508101906103509190612e03565b169392505050565b5f604051610240810161036a8461079b565b61037485856107ae565b61037d866107fd565b61038687610813565b5f61039286868a6109ad565b905061039d81610ce4565b90506103a98189610d4a565b90506103b58189610dd8565b5060608201517f30644e72e131a029b85045b68181585d2833e84879b9709143e1f593f00000017f30644e72e131a029b85045b68181585d2833e84879b9709143e1f593f000000061040c84630100000085612ab4565b086101c08401525061041f818587610e43565b61042a82868a6111b8565b91507f30644e72e131a029b85045b68181585d2833e84879b9709143e1f593f00000018183086101a084015250610461905061155d565b61046a866126a8565b610473866125f9565b61047c86612220565b61048586611d4b565b61048e86611aac565b610497866116ae565b61020001519050612b0a565b6040517f08c379a000000000000000000000000000000000000000000000000000000000815260206004820152601d60248201527f77726f6e67206e756d626572206f66207075626c696320696e707574730000006044820152606481fd5b6040517f08c379a000000000000000000000000000000000000000000000000000000000815260206004820152601260248201527f6572726f72206563206f7065726174696f6e00000000000000000000000000006044820152606481fd5b6040517f08c379a000000000000000000000000000000000000000000000000000000000815260206004820152601860248201527f696e707574732061726520626967676572207468616e207200000000000000006044820152606481fd5b6040517f08c379a000000000000000000000000000000000000000000000000000000000815260206004820152601060248201527f77726f6e672070726f6f662073697a65000000000000000000000000000000006044820152606481fd5b6040517f08c379a000000000000000000000000000000000000000000000000000000000815260206004820152601660248201527f6f70656e696e677320626967676572207468616e2072000000000000000000006044820152606481fd5b6040517f08c379a000000000000000000000000000000000000000000000000000000000815260206004820152600d60248201527f6572726f722070616972696e67000000000000000000000000000000000000006044820152606481fd5b6040517f08c379a000000000000000000000000000000000000000000000000000000000815260206004820152600c60248201527f6572726f722076657269667900000000000000000000000000000000000000006044820152606481fd5b6040517f08c379a000000000000000000000000000000000000000000000000000000000815260206004820152601460248201527f6572726f722072616e646f6d2067656e206b7a670000000000000000000000006044820152606481fd5b600281146107ab576107ab6104a3565b50565b5f5b818110156107f8577f30644e72e131a029b85045b68181585d2833e84879b9709143e1f593f0000000833511156107e9576107e9610561565b602092909201916001016107b0565b505050565b61036081811461080f5761080f6105c0565b5050565b61018081017f30644e72e131a029b85045b68181585d2833e84879b9709143e1f593f0000000813511156108495761084961061f565b506101a081017f30644e72e131a029b85045b68181585d2833e84879b9709143e1f593f0000000813511156108805761088061061f565b506101c081017f30644e72e131a029b85045b68181585d2833e84879b9709143e1f593f0000000813511156108b7576108b761061f565b506101e081017f30644e72e131a029b85045b68181585d2833e84879b9709143e1f593f0000000813511156108ee576108ee61061f565b5061020081017f30644e72e131a029b85045b68181585d2833e84879b9709143e1f593f0000000813511156109255761092561061f565b5061026081017f30644e72e131a029b85045b68181585d2833e84879b9709143e1f593f00000008135111561095c5761095c61061f565b5061030081015f5b60018110156107f8577f30644e72e131a029b85045b68181585d2833e84879b9709143e1f593f00000008235111561099e5761099e61061f565b60209190910190600101610964565b5f60405161024081016467616d6d6181527f1c49223fce451fa84ed1e40acb592ab8476710ae7496a4a9fbd79885d04a8f7460208201527f11fb124b0a1ff36f046fbdebf9f6e29290f97952e3a968688c340f9369ad027e60408201527f2fe1a4609b1141b4fc03cf73428f223643bfc676e6dc0323ffbe87f1fc4d2c2760608201527f03cca4f52a83b38048f6fb2c6d1f12209ccd6135e5ef7bc133cdb431f47de36f60808201527f2d22aa21883e2c02aeefdbb41a89e31305b7f785cff8d2543de3d2de0e67eb3760a08201527f27f57efe361342b4447b60b663324f47b268d2168a44b2c5a1ae943ad783eac260c08201527f07461bbeeaa489f270aea1e2f15a0b17a6828ee15568ca45d23b104609c983ac60e08201527f2a5d601b3c029f586ccf3d13f9610ec159fd271dff812606f3ac634637decbed6101008201527f2d8762fae30474b2d6707bfab8b02b7e87114c06452e946f685c3fe31af51d296101208201527f0481025548775a91bbce4d119d9f3d49f792d894182ded35400d7877bc7b1d086101408201527f072bde4706c1f31ca6f9d00281492fb765e066e2a91394829338eb8a728571566101608201527f035d79829b0c4f17f1ead06dc0dad3190dc3e0916d488882dbce96e970d9fa356101808201527f280dc265bff4759e2bfe552f6792226bc2667a39e5560316abd8825bc8ebc10a6101a08201527f1aacdb7d7cc8e54875efbcbd34b7149ed44fcdb0728e026f4369e7d48cfac8b06101c08201527f1d0dcabaa449cc5f2655bea87941c30e5a3be902444b9162918506600eacd3076101e08201527f1b00b88b20052a37c14a3beadb4c419bef8c04cc395f0566b50f0bf1090ce5746102008201527f1c2b5a7bce99e1e92402a2cb7f51cf3e359306bd7097247487a7fa4e5a60411a6102208201527f15f7c1d76eea2be4bdc4ae79cab797e20f3a01a6a62df3f6e403e0feddb2986c610240820152610260810160208602808883379081019060c0808784375061030501905060208282601b820160025afa905080610cae57610cae6106dd565b5080519250507f30644e72e131a029b85045b68181585d2833e84879b9709143e1f593f000000182066040820152509392505050565b5f60405161024060405101636265746181528360208201526020816024601c840160025afa80610d1657610d166106dd565b5080519250507f30644e72e131a029b85045b68181585d2833e84879b9709143e1f593f00000018206602082015250919050565b5f60405161024060405101606564616c7068618252602082018681526020810190506103208601600160400280828437928301929190910190506040610220870182375060208282601b850160025afa905080610da957610da96106dd565b50517f30644e72e131a029b85045b68181585d2833e84879b9709143e1f593f000000181069091529392505050565b60405161024060405101637a657461815283602082015260c0808401604083013760208160e4601c840160025afa80610e1357610e136106dd565b50517f30644e72e131a029b85045b68181585d2833e84879b9709143e1f593f00000019006606091909101525050565b5f60405160608101516101c0820151915085610e6181878585610edc565b5f92505f91505b85821015610ed2577f30644e72e131a029b85045b68181585d2833e84879b9709143e1f593f0000001853582510992507f30644e72e131a029b85045b68181585d2833e84879b9709143e1f593f00000018385086020958601959094506001929092019101610e68565b5050509392505050565b7f30644e72e131a029b85045b68181585d2833e84879b9709143e1f593f00000017f30644e427ce32d4886b01bfe313ba1dba6db8b2045d128178a7164500e0a6c1183096001855f5b86811015610fca577f30644e72e131a029b85045b68181585d2833e84879b9709143e1f593f0000001837f30644e72e131a029b85045b68181585d2833e84879b9709143e1f593f000000103860882527f30644e72e131a029b85045b68181585d2833e84879b9709143e1f593f00000017f0c9fabc7845d50d2852e2a0371c6441f145e0db82e8326961c25f1e3e32b045b8409925060209190910190600101610f25565b50610fd681878961108e565b5060019050855f5b86811015611084577f30644e72e131a029b85045b68181585d2833e84879b9709143e1f593f0000001837f30644e72e131a029b85045b68181585d2833e84879b9709143e1f593f0000001868551090982526020820191507f30644e72e131a029b85045b68181585d2833e84879b9709143e1f593f00000017f0c9fabc7845d50d2852e2a0371c6441f145e0db82e8326961c25f1e3e32b045b84099250600101610fde565b5050505050505050565b600183525f805b838110156110e35781850151828401517f30644e72e131a029b85045b68181585d2833e84879b9709143e1f593f0000001818309905060208401935080848801525050600181019050611095565b5060208103820191508084019350506111246020840160027f30644e72e131a029b85045b68181585d2833e84879b9709143e1f593f0000001038551612ab4565b5f5b838110156111b15760208503945082517f30644e72e131a029b85045b68181585d2833e84879b9709143e1f593f00000018651840984527f30644e72e131a029b85045b68181585d2833e84879b9709143e1f593f00000018184097fffffffffffffffffffffffffffffffffffffffffffffffffffffffffffffffe090940193925050600101611126565b5050505050565b5f60405160608101516101c0820151915061032084015f806111e08960208501358535611364565b91506111f38962a350ce8a018787611229565b90507f30644e72e131a029b85045b68181585d2833e84879b9709143e1f593f00000018082840987089998505050505050505050565b5f61125585857f0c9fabc7845d50d2852e2a0371c6441f145e0db82e8326961c25f1e3e32b045b612ab4565b7f30644e72e131a029b85045b68181585d2833e84879b9709143e1f593f0000001817f30644e72e131a029b85045b68181585d2833e84879b9709143e1f593f000000103840894507f30644e72e131a029b85045b68181585d2833e84879b9709143e1f593f00000017f30644e427ce32d4886b01bfe313ba1dba6db8b2045d128178a7164500e0a6c118209905061130e867f30644e72e131a029b85045b68181585d2833e84879b9709143e1f593efffffff87612ab4565b94507f30644e72e131a029b85045b68181585d2833e84879b9709143e1f593f000000185820990507f30644e72e131a029b85045b68181585d2833e84879b9709143e1f593f00000018482099695505050505050565b5f83525f602084015280604084015250806060830152505f6080820153603060818201535f60828201536042608382015360536084820153604260858201536032608682015360326087820153602d608882015360506089820153606c608a820153606f608b820153606e608c820153606b608d820153600b608e8201535f602082608f8460025afa806113fa576113fa6106dd565b8251600160208501536042602185015360536022850153604260238501536032602485015360326025850153602d602685015360506027850153606c6028850153606f6029850153606e602a850153606b602b850153600b602c850153602084602d8660025afa915081611470576114706106dd565b8351186020840152600260408401536042604184015360536042840153604260438401536032604484015360326045840153602d604684015360506047840153606c6048840153606f6049840153606e604a840153606b604b840153600b604c84015360208301602081602d8360025afa915050806114f1576114f16106dd565b507f30644e72e131a029b85045b68181585d2833e84879b9709143e1f593f00000017001000000000000000000000000000000008351099050602082015160801c7f30644e72e131a029b85045b68181585d2833e84879b9709143e1f593f00000018183089392505050565b604051610240604051016101c08201517f30644e72e131a029b85045b68181585d2833e84879b9709143e1f593f000000160017f30644e72e131a029b85045b68181585d2833e84879b9709143e1f593f0000001036060850151086115e3837f30644e72e131a029b85045b68181585d2833e84879b9709143e1f593efffffff83612ab4565b90507f30644e72e131a029b85045b68181585d2833e84879b9709143e1f593f00000017f30644e427ce32d4886b01bfe313ba1dba6db8b2045d128178a7164500e0a6c11820990507f30644e72e131a029b85045b68181585d2833e84879b9709143e1f593f00000018282098451935091507f30644e72e131a029b85045b68181585d2833e84879b9709143e1f593f0000001905082820990507f30644e72e131a029b85045b68181585d2833e84879b9709143e1f593f00000018282099050806080840152505050565b60405161024081016101608201518152610180820151602082015261028083013560408201526102a08301356060820152610220830135608082015261024083013560a08201526102c083013560c08201526102e083013560e082015260608201516101008201526101e08201516101208201526020816101408360025afa8061173a5761173a61073c565b7f30644e72e131a029b85045b68181585d2833e84879b9709143e1f593f000000182510690508160408101925061028085013581526102a0850135602082015261178a83836102c0880184612a1b565b610160840161179f8484610220890184612a1b565b61014085016117b384610260890183612a62565b7f1fa4be93b5e7f7e674d5059b63554fab99638b304ed8310e9fa44c281ac9b03b85527f1a01ae7fac6228e39d3cb5a5e71fd31160f3241e79a5f48ffb3737e6c389b7216020860152805160408087019182529095908160608160075afa915081611820576118206106dd565b60208101915081517f30644e72e131a029b85045b68181585d97816a916871ca8d3c208c16d87cfd4703825261185886828586612912565b5050836040850194506118758560608801516102808a01846129a9565b7f30644e72e131a029b85045b68181585d2833e84879b9709143e1f593f00000017f0c9fabc7845d50d2852e2a0371c6441f145e0db82e8326961c25f1e3e32b045b60608801510995507f30644e72e131a029b85045b68181585d2833e84879b9709143e1f593f000000186850993506118f585856102c08a0184612a1b565b61190185828485612912565b50602082810180517f30644e72e131a029b85045b68181585d97816a916871ca8d3c208c16d87cfd470381528251865291810151908501527f198e9393920d483a7260bfb731fb5d25f1aa493335a9e71297e485b7aef312c260408501527f1800deef121f1e76426a00665e5c4479674322d4f75edadd46debd5cd992f6ed60608501527f090689d0585ff075ec9e99ad690c3395bc4b313370b38ef355acdadcd122975b60808501527f12c85ea5db8c6deb4aab71808dcb408fe3d1e7690c43d37b4ce6cc0166fa7daa60a0850152905160c0840152805160e08401527f22f1acbb03c4508760c2430af35865e7cdf9f3eb1224504fdcc3708ddb954a486101008401527f2a344fad01c2ed0ed73142ae1752429eaea515c6f3f6b941103cc21c2308e1cb6101208401527f159f15b842ba9c8449aa3268f981010d4c7142e5193473d80b464e964845c3f86101408401527f0efd30ac7b6f8d0d3ccbc2207587c2acbad1532dc0293f0d034cf8258cd428b361016084015292506107f890508160405160205f6101808460085afa80611a9e57611a9e61067e565b505f51610200919091015250565b6040516101e081015160e08201516101608301908152610100830151610180840152610120830151610140840152610240830191610260840191610280850191908190611afb86838a84612a1b565b611b0e826101808a016101408a01612a62565b7f30644e72e131a029b85045b68181585d2833e84879b9709143e1f593f00000018383099150611b43868360408b0184612a1b565b611b56826101a08a016101408a01612a62565b7f30644e72e131a029b85045b68181585d2833e84879b9709143e1f593f00000018383099150611b8b868360808b0184612a1b565b611b9e826101c08a016101408a01612a62565b7f30644e72e131a029b85045b68181585d2833e84879b9709143e1f593f000000183830991507f1c49223fce451fa84ed1e40acb592ab8476710ae7496a4a9fbd79885d04a8f7486527f11fb124b0a1ff36f046fbdebf9f6e29290f97952e3a968688c340f9369ad027e8552611c16848388846129d4565b611c29826101e08a016101408a01612a62565b7f30644e72e131a029b85045b68181585d2833e84879b9709143e1f593f000000183830991507f2fe1a4609b1141b4fc03cf73428f223643bfc676e6dc0323ffbe87f1fc4d2c2786527f03cca4f52a83b38048f6fb2c6d1f12209ccd6135e5ef7bc133cdb431f47de36f8552611ca1848388846129d4565b611cb4826102008a016101408a01612a62565b61030088017f30644e72e131a029b85045b68181585d2833e84879b9709143e1f593f000000184840992507f1c2b5a7bce99e1e92402a2cb7f51cf3e359306bd7097247487a7fa4e5a60411a87527f15f7c1d76eea2be4bdc4ae79cab797e20f3a01a6a62df3f6e403e0feddb2986c8652611d31858489856129d4565b611d4083826101408b01612a62565b505050505050505050565b6040516467616d6d616102408201908152606082015161026083015260e08201516102808301526101008201516102a083015260c0836102c08401377f1c49223fce451fa84ed1e40acb592ab8476710ae7496a4a9fbd79885d04a8f746101408201527f11fb124b0a1ff36f046fbdebf9f6e29290f97952e3a968688c340f9369ad027e6101608201527f2fe1a4609b1141b4fc03cf73428f223643bfc676e6dc0323ffbe87f1fc4d2c27610180808301919091527f03cca4f52a83b38048f6fb2c6d1f12209ccd6135e5ef7bc133cdb431f47de36f6101a0808401919091527f1c2b5a7bce99e1e92402a2cb7f51cf3e359306bd7097247487a7fa4e5a60411a6101c0808501919091527f15f7c1d76eea2be4bdc4ae79cab797e20f3a01a6a62df3f6e403e0feddb2986c6101e0808601919091526101208601516102008087019190915293870135610220860152918601356102408501528501356102608401528401356102808301528301356102a08201526102c081016103008401602081833750610260840135602091820152601b906102e5906101e085018285850160025afa9250505080611f0157611f016106dd565b506101e00180517f30644e72e131a029b85045b68181585d2833e84879b9709143e1f593f00000019006905250565b604051610240604051017f07461bbeeaa489f270aea1e2f15a0b17a6828ee15568ca45d23b104609c983ac81527f2a5d601b3c029f586ccf3d13f9610ec159fd271dff812606f3ac634637decbed6020820152611f9a604082016101808501358360e0860161297e565b7f2d8762fae30474b2d6707bfab8b02b7e87114c06452e946f685c3fe31af51d2981527f0481025548775a91bbce4d119d9f3d49f792d894182ded35400d7877bc7b1d086020820152611ffa604082016101a08501358360e086016129d4565b7f30644e72e131a029b85045b68181585d2833e84879b9709143e1f593f00000016101a0840135610180850135097f072bde4706c1f31ca6f9d00281492fb765e066e2a91394829338eb8a7285715682527f035d79829b0c4f17f1ead06dc0dad3190dc3e0916d488882dbce96e970d9fa35602083015261208360408301828460e087016129d4565b507f280dc265bff4759e2bfe552f6792226bc2667a39e5560316abd8825bc8ebc10a81527f1aacdb7d7cc8e54875efbcbd34b7149ed44fcdb0728e026f4369e7d48cfac8b060208201526120e4604082016101c08501358360e086016129d4565b7f1d0dcabaa449cc5f2655bea87941c30e5a3be902444b9162918506600eacd30781527f1b00b88b20052a37c14a3beadb4c419bef8c04cc395f0566b50f0bf1090ce574602082015261213f604082018260e0850180612912565b610300830161032084015f5b600181101561218b5781358452602082013560208501526121756040850184358660e089016129d4565b602092909201916040919091019060010161214b565b5050507f2d22aa21883e2c02aeefdbb41a89e31305b7f785cff8d2543de3d2de0e67eb3781527f27f57efe361342b4447b60b663324f47b268d2168a44b2c5a1ae943ad783eac260208201526121e960408201858360e086016129d4565b6102208301358152610240830135602082015261220e60408201868360e086016129d4565b6111b18160a0840160e0850180612912565b6040516020810151604082015160608301515f8401517f30644e72e131a029b85045b68181585d2833e84879b9709143e1f593f000000184610260880135097f30644e72e131a029b85045b68181585d2833e84879b9709143e1f593f00000016101e088013586097f30644e72e131a029b85045b68181585d2833e84879b9709143e1f593f0000001610180890135820890507f30644e72e131a029b85045b68181585d2833e84879b9709143e1f593f000000185820890507f30644e72e131a029b85045b68181585d2833e84879b9709143e1f593f000000161020089013587097f30644e72e131a029b85045b68181585d2833e84879b9709143e1f593f00000016101a08a0135820890507f30644e72e131a029b85045b68181585d2833e84879b9709143e1f593f000000186820890507f30644e72e131a029b85045b68181585d2833e84879b9709143e1f593f00000018284097f30644e72e131a029b85045b68181585d2833e84879b9709143e1f593f000000182820990507f30644e72e131a029b85045b68181585d2833e84879b9709143e1f593f000000185820990507f30644e72e131a029b85045b68181585d2833e84879b9709143e1f593f0000001600580097f30644e72e131a029b85045b68181585d2833e84879b9709143e1f593f0000001878a0998507f30644e72e131a029b85045b68181585d2833e84879b9709143e1f593f00000016101808c01358a0894507f30644e72e131a029b85045b68181585d2833e84879b9709143e1f593f000000188860894507f30644e72e131a029b85045b68181585d2833e84879b9709143e1f593f000000160058a0993507f30644e72e131a029b85045b68181585d2833e84879b9709143e1f593f00000016101a08c0135850893507f30644e72e131a029b85045b68181585d2833e84879b9709143e1f593f000000188850893507f30644e72e131a029b85045b68181585d2833e84879b9709143e1f593f0000001818a099250507f30644e72e131a029b85045b68181585d2833e84879b9709143e1f593f00000016101c08b0135830891507f30644e72e131a029b85045b68181585d2833e84879b9709143e1f593f000000187830891507f30644e72e131a029b85045b68181585d2833e84879b9709143e1f593f000000183850997507f30644e72e131a029b85045b68181585d2833e84879b9709143e1f593f00000018289097f30644e72e131a029b85045b68181585d2833e84879b9709143e1f593f0000001908103985085890997507f30644e72e131a029b85045b68181585d2833e84879b9709143e1f593f000000160808a0151890897506102d088828c611f30565b60405160026301000000016102406040510161261a81836060860151612ab4565b915061262f8183610140870160a087016129a9565b61264281610100860160a0860180612948565b612651818360a086018061297e565b6126638160c0860160a0860180612948565b61267a816101c085015160a0860160a0870161297e565b505060c00180517f30644e72e131a029b85045b68181585d97816a916871ca8d3c208c16d87cfd4703905250565b6040515f7f30644e72e131a029b85045b68181585d2833e84879b9709143e1f593f000000160208301516101e08501350990507f30644e72e131a029b85045b68181585d2833e84879b9709143e1f593f00000016040830151820890507f30644e72e131a029b85045b68181585d2833e84879b9709143e1f593f0000001610180840135820890505f7f30644e72e131a029b85045b68181585d2833e84879b9709143e1f593f000000160208401516102008601350990507f30644e72e131a029b85045b68181585d2833e84879b9709143e1f593f00000016040840151820890507f30644e72e131a029b85045b68181585d2833e84879b9709143e1f593f00000016101a0850135820890505f7f30644e72e131a029b85045b68181585d2833e84879b9709143e1f593f000000160408501516101c08701350890507f30644e72e131a029b85045b68181585d2833e84879b9709143e1f593f000000182840992507f30644e72e131a029b85045b68181585d2833e84879b9709143e1f593f00000018184099250507f30644e72e131a029b85045b68181585d2833e84879b9709143e1f593f00000015f840151830991507f30644e72e131a029b85045b68181585d2833e84879b9709143e1f593f0000001610260850135830991507f30644e72e131a029b85045b68181585d2833e84879b9709143e1f593f00000016101a0840151830860808401519092507f30644e72e131a029b85045b68181585d2833e84879b9709143e1f593f000000190810391508183087f30644e72e131a029b85045b68181585d2833e84879b9709143e1f593f0000001036101209390930192909252505050565b8151845260208201516020850152825160408501526020830151606085015260408160808660065afa806111b1576111b1610502565b8151845260208201516020850152823560408501526020830135606085015260408160808660065afa806111b1576111b1610502565b815184526020820151602085015282604085015260408160608660075afa806111b1576111b1610502565b813584526020820135602085015282604085015260408160608660075afa806111b1576111b1610502565b815184526020820151602085015282604085015260408460608660075afa815160408601526020820151606086015260408260808760065afa16806111b1576111b1610502565b813584526020808301359085015260408481018490528460608160075afa815160408601526020820151606086015260408260808760065afa16806111b1576111b1610502565b7f30644e72e131a029b85045b68181585d2833e84879b9709143e1f593f0000001838335097f30644e72e131a029b85045b68181585d2833e84879b9709143e1f593f000000181835108825250505050565b602083526020808401526020604084015280606084015250806080830152507f30644e72e131a029b85045b68181585d2833e84879b9709143e1f593f000000160a08201525f60208260c08460055afa50505190565b949350505050565b5f8083601f840112612b22575f80fd5b50813567ffffffffffffffff811115612b39575f80fd5b602083019150836020828501011115612b50575f80fd5b9250929050565b5f805f805f60608688031215612b6b575f80fd5b85359450602086013567ffffffffffffffff80821115612b89575f80fd5b612b9589838a01612b12565b90965094506040880135915080821115612bad575f80fd5b50612bba88828901612b12565b969995985093965092949392505050565b5f8060208385031215612bdc575f80fd5b823567ffffffffffffffff811115612bf2575f80fd5b612bfe85828601612b12565b90969095509350505050565b5f805f8060408587031215612c1d575f80fd5b843567ffffffffffffffff80821115612c34575f80fd5b612c4088838901612b12565b90965094506020870135915080821115612c58575f80fd5b818701915087601f830112612c6b575f80fd5b813581811115612c79575f80fd5b8860208260051b8501011115612c8d575f80fd5b95989497505060200194505050565b5f8085851115612caa575f80fd5b83861115612cb6575f80fd5b5050820193919092039150565b7fffffffff000000000000000000000000000000000000000000000000000000008135818116916004851015612d035780818660040360031b1b83161692505b505092915050565b7f4e487b71000000000000000000000000000000000000000000000000000000005f52603260045260245ffd5b60408152826040820152828460608301375f606084830101525f7fffffffffffffffffffffffffffffffffffffffffffffffffffffffffffffffe0601f850116820160608101602060608584030160208601528186518084526080850191506020880194505f93505b80841015612dc15784518252938201936001939093019290820190612da1565b5098975050505050505050565b5f60208284031215612dde575f80fd5b81518015158114612ded575f80fd5b9392505050565b818382375f9101908152919050565b5f60208284031215612e13575f80fd5b505191905056fea164736f6c6343000818000a",
  "linkReferences": {},
  "deployedLinkReferences": {}
}