{
  "_format": "hh-sol-artifact-1",
  "contractName": "Tree",
  "sourceName": "contracts/libraries/common/Tree.sol",
  "abi": [
    {
      "inputs": [],
      "name": "MerkleTreeFull",
      "type": "error"
    },
    {
      "inputs": [],
      "name": "getTreeRoot",
      "outputs": [
        {
          "internalType": "bytes32",
          "name": "",
          "type": "bytes32"
        }
      ],
      "stateMutability": "view",
      "type": "function"
    },
    {
      "inputs": [],
      "name": "leafNodesCount",
      "outputs": [
        {
          "internalType": "uint256",
          "name": "",
          "type": "uint256"
        }
      ],
      "stateMutability": "view",
      "type": "function"
    },
    {
      "inputs": [
        {
          "internalType": "bytes32",
          "name": "leafHash",
          "type": "bytes32"
        },
        {
          "internalType": "bytes32[32]",
          "name": "smtProof",
          "type": "bytes32[32]"
        },
        {
          "internalType": "uint256",
          "name": "index",
          "type": "uint256"
        },
        {
          "internalType": "bytes32",
          "name": "root",
          "type": "bytes32"
        }
      ],
      "name": "verifyMerkleProof",
      "outputs": [
        {
          "internalType": "bool",
          "name": "",
          "type": "bool"
        }
      ],
      "stateMutability": "pure",
      "type": "function"
    }
  ],
  "bytecode": "0x608060405234801561000f575f80fd5b5061033e8061001d5f395ff3fe608060405234801561000f575f80fd5b506004361061003f575f3560e01c8063340735f71461004357806389c09d381461006b578063b58343bb14610081575b5f80fd5b610056610051366004610270565b61008a565b60405190151581526020015b60405180910390f35b610073610153565b604051908152602001610062565b61007360205481565b5f84815b6020811015610147578085901c6001166001036100f4578581602081106100b7576100b7610304565b6020020151826040516020016100d7929190918252602082015260400190565b60405160208183030381529060405280519060200120915061013f565b8186826020811061010757610107610304565b6020020151604051602001610126929190918252602082015260400190565b6040516020818303038152906040528051906020012091505b60010161008e565b50909114949350505050565b6020545f90819081805b602081101561023a578083901c6001166001036101b9575f816020811061018657610186610304565b015460408051602081019290925281018590526060016040516020818303038152906040528051906020012093506101e6565b60408051602081018690529081018390526060016040516020818303038152906040528051906020012093505b6040805160208101849052908101839052606001604080517fffffffffffffffffffffffffffffffffffffffffffffffffffffffffffffffe08184030181529190528051602090910120915060010161015d565b50919392505050565b7f4e487b71000000000000000000000000000000000000000000000000000000005f52604160045260245ffd5b5f805f806104608587031215610284575f80fd5b84359350602086603f870112610298575f80fd5b604051610400810181811067ffffffffffffffff821117156102bc576102bc610243565b604052806104208801898111156102d1575f80fd5b602089015b818110156102ed57803583529184019184016102d6565b509699919850509435956104400135949350505050565b7f4e487b71000000000000000000000000000000000000000000000000000000005f52603260045260245ffdfea164736f6c6343000818000a",
  "linkReferences": {},
  "deployedLinkReferences": {}
}