{
  "_format": "hh-sol-artifact-1",
  "contractName": "MockZkEvmVerifier",
  "sourceName": "contracts/mock/MockZkEvmVerifier.sol",
  "abi": [
    {
      "anonymous": false,
      "inputs": [
        {
          "indexed": false,
          "internalType": "address",
          "name": "",
          "type": "address"
        }
      ],
      "name": "Called",
      "type": "event"
    },
    {
      "inputs": [
        {
          "internalType": "bytes",
          "name": "",
          "type": "bytes"
        },
        {
          "internalType": "bytes32",
          "name": "",
          "type": "bytes32"
        }
      ],
      "name": "verifyBatch",
      "outputs": [],
      "stateMutability": "view",
      "type": "function"
    }
  ],
  "bytecode": "0x608060405234801561000f575f80fd5b5061019c8061001d5f395ff3fe608060405234801561000f575f80fd5b5060043610610029575f3560e01c8063c8bd01761461002d575b5f80fd5b61004061003b3660046100b4565b610042565b005b6040805130602082015201604080517fffffffffffffffffffffffffffffffffffffffffffffffffffffffffffffffe0818403018152908290527f08c379a00000000000000000000000000000000000000000000000000000000082526100ab91600401610125565b60405180910390fd5b5f805f604084860312156100c6575f80fd5b833567ffffffffffffffff808211156100dd575f80fd5b818601915086601f8301126100f0575f80fd5b8135818111156100fe575f80fd5b87602082850101111561010f575f80fd5b6020928301989097509590910135949350505050565b5f602080835283518060208501525f5b8181101561015157858101830151858201604001528201610135565b505f6040828601015260407fffffffffffffffffffffffffffffffffffffffffffffffffffffffffffffffe0601f830116850101925050509291505056fea164736f6c6343000818000a",
  "linkReferences": {},
  "deployedLinkReferences": {}
}